:020000040800F2
:1000000000000120D54700082548000825480008C1
:100010002548000825480008254800080000000081
:10002000000000000000000000000000254800085B
:100030002548000800000000254800085543000836
:1000400025480008254800082548000825480008DC
:1000500025480008254800082548000825480008CC
:100060002548000825480008DD4300082548000809
:1000700025480008254800082548000825480008AC
:100080002548000825480008254800080000000011
:1000900000000000000000000000000025480008EB
:1000A0006543000825480008254800082548000841
:1000B000794300082548000825480008254800081D
:1000C0002548000825480008254800088D430008F9
:1000D000A1430008B54300082548000800000000BF
:1000E00025480008254800082548000800000000B1
:1000F000000000000000000000000000254800088B
:100100000000000025480008254800082548000890
:1001100000000000000000000000000000000000DF
:1001200025480008254800082548000825480008FB
:10013000254800080000000000000000000000004A
:10014000000000000000000000000000C94300089B
:1001500025480008254800082548000825480008CB
:1001600025480008254800080000000000000000A5
:10017000000000000000000000000000000000007F
:1001800000000000254800080000000000000000FA
:0401900025480008F6
:1001A00010B5054C237833B9044B13B10448AFF3B1
:1001B00000800123237010BD6C04002000000000AB
:1001C000447C010808B5034B1BB103490348AFF356
:1001D000008008BD0000000070040020447C01087D
:1001E000034613F8012B002AFBD1181A0138704777
:1001F00001F0FF01102A2BDB10F0070F08D010F8D8
:10020000013B013A8B422DD010F0070F42B3F6D1DB
:10021000F0B441EA012141EA014122F007047FF0F4
:1002200000070023F0E80256083C85EA010586EA4B
:10023000010685FA47F5A3FA87F586FA47F6A5FA87
:1002400087F68EB9EED1F0BC01F0FF0102F0070293
:1002500032B110F8013B013A83EA010313B1F8D13E
:100260000020704701387047002D06BF354603381F
:10027000073815F0010F07D1013015F4807F02BF58
:10028000013015F4C03F0130F0BC0138704700BFA9
:1002900081F0004102E000BF83F0004330B54FEA37
:1002A00041044FEA430594EA050F08BF90EA020FA4
:1002B0001FBF54EA000C55EA020C7FEA645C7FEA37
:1002C000655C00F0E2804FEA5454D4EB5555B8BF5A
:1002D0006D420CDD2C4480EA020281EA030382EACB
:1002E000000083EA010180EA020281EA0303362D5D
:1002F00088BF30BD11F0004F4FEA01314FF4801C30
:100300004CEA113102D0404261EB410113F0004F41
:100310004FEA03334CEA133302D0524263EB4303F8
:1003200094EA050F00F0A780A4F10104D5F1200E96
:100330000DDB02FA0EFC22FA05F2801841F10001F1
:1003400003FA0EF2801843FA05F359410EE0A5F1C5
:1003500020050EF1200E012A03FA0EFC28BF4CF0F6
:10036000020C43FA05F3C01851EBE37101F00045AC
:1003700007D54FF0000EDCF1000C7EEB00006EEBB9
:100380000101B1F5801F1BD3B1F5001F0CD3490843
:100390005FEA30004FEA3C0C04F101044FEA44529A
:1003A00012F5800F80F09A80BCF1004F08BF5FEA21
:1003B000500C50F1000041EB045141EA050130BD01
:1003C0005FEA4C0C404141EB0101013C28BFB1F513
:1003D000801FE9D291F0000F04BF01460020B1FA5E
:1003E00081F308BF2033A3F10B03B3F120020CDA31
:1003F0000C3208DD02F1140CC2F10C0201FA0CF00F
:1004000021FA02F10CE002F11402D8BFC2F1200C73
:1004100001FA02F120FA0CFCDCBF41EA0C01904029
:10042000E41AA2BF01EB0451294330BD6FEA040472
:100430001F3C1CDA0C340EDC04F11404C4F120025D
:1004400020FA04F001FA02F340EA030021FA04F36F
:1004500045EA030130BDC4F10C04C4F1200220FAC6
:1004600002F001FA04F340EA0300294630BD21FA04
:1004700004F0294630BD94F0000F83F4801306BFCA
:1004800081F480110134013D4EE77FEA645C18BFBE
:100490007FEA655C29D094EA050F08BF90EA020F55
:1004A00005D054EA000C04BF1946104630BD91EA4D
:1004B000030F1EBF0021002030BD5FEA545C05D150
:1004C0004000494128BF41F0004130BD14F580048F
:1004D0003CBF01F5801130BD01F0004545F0FE4103
:1004E00041F470014FF0000030BD7FEA645C1ABF38
:1004F000194610467FEA655C1CBF0B46024650EA6F
:10050000013406BF52EA033591EA030F41F400219A
:1005100030BD00BF90F0000F04BF0021704730B520
:100520004FF4806404F132044FF000054FF00001F5
:1005300050E700BF90F0000F04BF0021704730B5B6
:100540004FF4806404F1320410F0004548BF40428B
:100550004FF000013EE700BF42004FEAE2014FEAE0
:1005600031014FEA02701FBF12F07F4393F07F4FBB
:1005700081F06051704732F07F4208BF704793F0BE
:100580007F4F04BF41F40021704730B54FF46074D1
:1005900001F0004521F000411CE700BF50EA0102D4
:1005A00008BF704730B54FF000050AE050EA01027D
:1005B00008BF704730B511F0004502D5404261EBED
:1005C00041014FF4806404F132045FEA915C3FF42E
:1005D000D8AE4FF003025FEADC0C18BF03325FEACB
:1005E000DC0C18BF033202EBDC02C2F1200300FA7C
:1005F00003FC20FA02F001FA03FE40EA0E0021FAA1
:1006000002F11444BDE600BF70B54FF0FF0C4CF48E
:10061000E06C1CEA11541DBF1CEA135594EA0C0F40
:1006200095EA0C0F00F0DEF82C4481EA030621EA7B
:100630004C5123EA4C5350EA013518BF52EA0335B6
:1006400041F4801143F4801338D0A0FB02CE4FF068
:100650000005E1FB02E506F00042E0FB03E54FF098
:100660000006E1FB03569CF0000F18BF4EF0010E90
:10067000A4F1FF04B6F5007F64F5407404D25FEA8C
:100680004E0E6D4146EB060642EAC62141EA55513F
:100690004FEAC52040EA5E504FEACE2EB4F1FD0C81
:1006A00088BFBCF5E06F1ED8BEF1004F08BF5FEAFF
:1006B000500E50F1000041EB045170BD06F00046B1
:1006C00046EA010140EA020081EA0301B4EB5C045E
:1006D000C2BFD4EB0C0541EA045170BD41F4801156
:1006E0004FF0000E013C00F3AB8014F1360FDEBF7B
:1006F000002001F0004170BDC4F10004203C35DA57
:100700000C341BDC04F11404C4F1200500FA05F3D9
:1007100020FA04F001FA05F240EA020001F000427A
:1007200021F0004110EBD37021FA04F642EB0601F0
:100730005EEA430E08BF20EAD37070BDC4F10C041A
:10074000C4F1200500FA04F320FA05F001FA04F2DE
:1007500040EA020001F0004110EBD37041F10001CA
:100760005EEA430E08BF20EAD37070BDC4F12005D5
:1007700000FA05F24EEA020E20FA04F301FA05F23D
:1007800043EA020321FA04F001F0004121FA04F2E5
:1007900020EA020000EBD3705EEA430E08BF20EAB5
:1007A000D37070BD94F0000F0FD101F000464000EF
:1007B00041EB010111F4801F08BF013CF7D041EA71
:1007C000060195F0000F18BF704703F00046520075
:1007D00043EB030313F4801F08BF013DF7D043EA46
:1007E0000603704794EA0C0F0CEA135518BF95EAFC
:1007F0000C0F0CD050EA410618BF52EA4306D1D183
:1008000081EA030101F000414FF0000070BD50EAA1
:10081000410606BF1046194652EA430619D094EA2B
:100820000C0F02D150EA013613D195EA0C0F05D115
:1008300052EA03361CBF104619460AD181EA030169
:1008400001F0004141F0FE4141F470014FF0000021
:1008500070BD41F0FE4141F4780170BD70B54FF0BC
:10086000FF0C4CF4E06C1CEA11541DBF1CEA13553C
:1008700094EA0C0F95EA0C0F00F0A7F8A4EB05041E
:1008800081EA030E52EA03354FEA013100F0888015
:100890004FEA03334FF0805545EA131343EA1263DE
:1008A0004FEA022245EA111545EA10654FEA002693
:1008B0000EF000419D4208BF964244F1FD0404F54C
:1008C000407402D25B084FEA3202B61A65EB0305A8
:1008D0005B084FEA32024FF480104FF4002CB6EB65
:1008E000020E75EB030E22BFB61A754640EA0C00E5
:1008F0005B084FEA3202B6EB020E75EB030E22BF25
:10090000B61A754640EA5C005B084FEA3202B6EB65
:10091000020E75EB030E22BFB61A754640EA9C0024
:100920005B084FEA3202B6EB020E75EB030E22BFF4
:10093000B61A754640EADC0055EA060E18D04FEAB2
:10094000051545EA16754FEA06164FEAC30343EA52
:1009500052734FEAC2025FEA1C1CC0D111F4801F1F
:100960000BD141EA00014FF000004FF0004CB6E718
:1009700011F4801F04BF01430020B4F1FD0C88BFB7
:10098000BCF5E06F3FF6AFAEB5EB030C04BFB6EBC2
:10099000020C5FEA500C50F1000041EB045170BDB5
:1009A0000EF0004E4EEA113114EB5C04C2BFD4EBE2
:1009B0000C0541EA045170BD41F480114FF0000E66
:1009C000013C90E645EA060E8DE60CEA135594EAE2
:1009D0000C0F08BF95EA0C0F3FF43BAF94EA0C0FE5
:1009E0000AD150EA01347FF434AF95EA0C0F7FF45A
:1009F00025AF104619462CE795EA0C0F06D152EAAE
:100A000003353FF4FDAE1046194622E750EA410691
:100A100018BF52EA43067FF4C5AE50EA41047FF4A2
:100A20000DAF52EA43057FF4EBAE12E74FF0FF3C07
:100A300006E000BF4FF0010C02E000BF4FF0010CD8
:100A40004DF804CD4FEA410C7FEA6C5C4FEA430C51
:100A500018BF7FEA6C5C1BD001B050EA410C0CBFA0
:100A600052EA430C91EA030F02BF90EA020F002002
:100A7000704710F1000F91EA030F58BF994208BF69
:100A800090422CBFD8176FEAE37040F00100704726
:100A90004FEA410C7FEA6C5C02D150EA013C07D17D
:100AA0004FEA430C7FEA6C5CD6D152EA033CD3D0C8
:100AB0005DF8040B704700BF8446104662468C46C2
:100AC0001946634600E000BF01B5FFF7B7FF0028F5
:100AD00048BF10F1000F01BD4DF808EDFFF7F4FF1E
:100AE0000CBF012000205DF808FB00BF4DF808EDA9
:100AF000FFF7EAFF34BF012000205DF808FB00BFCC
:100B00004DF808EDFFF7E0FF94BF012000205DF8ED
:100B100008FB00BF4DF808EDFFF7CEFF94BF0120A2
:100B200000205DF808FB00BF4DF808EDFFF7C4FF9B
:100B300034BF012000205DF808FB00BF4FEA410CE4
:100B40007FEA6C5C02D150EA013C0AD14FEA430CC7
:100B50007FEA6C5C02D152EA033C02D14FF0000004
:100B600070474FF0010070474FEA410212F5001242
:100B700015D211D56FF47873B3EB625212D94FEAE4
:100B8000C12343F0004343EA505311F0004F23FACE
:100B900002F018BF404270474FF00000704750EA23
:100BA000013005D111F0004008BF6FF000407047E0
:100BB0004FF00000704700BF4FEA4102B2F1E0433E
:100BC00024BFB3F5001CDCF1FE5C0DD901F0004C34
:100BD0004FEAC0024CEA5070B2F1004F40EB830084
:100BE00008BF20F00100704711F0804F21D113F1B0
:100BF0003872BCBF01F00040704741F480114FEAE9
:100C00005252C2F11802C2F1200C10FA0CF320FA71
:100C100002F018BF40F001004FEAC1234FEAD3238E
:100C200003FA0CFC40EA0C0023FA02F34FEA4303F8
:100C3000CCE77FEA625307D150EA01331EBF4FF081
:100C4000FE4040F44000704701F0004040F0FE409C
:100C500040F40000704700BF7BB972B90029BEBFE5
:100C600000204FF0004106E008BF00281CBF6FF0D5
:100C700000414FF0FF3000F0A1B9ADF1080C6DE973
:100C800004CE002909DB002B1ADB00F035F8DDF873
:100C900004E0DDE9022304B07047404261EB41010A
:100CA000002B1BDB00F028F8DDF804E0DDE902236F
:100CB00004B0404261EB4101524263EB4303704791
:100CC000524263EB430300F017F8DDF804E0DDE97E
:100CD000022304B0404261EB41017047524263EB92
:100CE000430300F009F8DDF804E0DDE9022304B075
:100CF000524263EB430370472DE9F047089D0446D9
:100D00008C46002B40F083808A42174647D9B2FABE
:100D100082F242B1C2F1200024FA00F091409740E3
:100D200040EA010C94404FEA1748230CBCFBF8F64C
:100D30001FFA87FE08FB16C143EA014306FB0EF1CA
:100D4000994209D9FB1806F1FF3080F019819942C8
:100D500040F21681023E3B445B1AA4B2B3FBF8F0AA
:100D600008FB103344EA034400FB0EFEA64509D9F4
:100D70003C1900F1FF3380F00581A64540F2028165
:100D800002383C4440EA0640A4EB0E0400261DB1A4
:100D9000D4400023C5E900433146BDE8F08702B9DD
:100DA000FFDEB2FA82F2002A50D1CB1B4FEA174E77
:100DB0001FFA87F80126B3FBFEFC210C0EFB1C3347
:100DC00041EA034108FB0CF38B4207D979180CF177
:100DD000FF3002D28B4200F2E9808446C91AA3B2E6
:100DE000B1FBFEF00EFB101143EA014408FB00F8D2
:100DF000A04507D93C1900F1FF3302D2A04500F20B
:100E0000D9801846A4EB080440EA0C40BFE78B42A7
:100E100009D9002D00F0B1800026C5E90001304657
:100E20003146BDE8F087B3FA83F6002E4AD18B42F3
:100E300002D3824200F2B880841A61EB03010120E0
:100E40008C46002DA8D0C5E9004CA5E7C2F12003CF
:100E500020FA03F6974001FA02F04FEA174ED94004
:100E60003043030CB1FBFEF61FFA87F80EFB161198
:100E700043EA014306FB08F1994204FA02F409D956
:100E8000FB1806F1FF3C80F08D80994240F28A8089
:100E9000023E3B445B1A81B2B3FBFEF00EFB103303
:100EA00041EA034100FB08F38B4207D9791800F1AE
:100EB000FF3C73D28B4271D902383944CB1A40EAD5
:100EC000064678E7C6F1200C03FA06F422FA0CF382
:100ED0001C4320FA0CF701FA06F34FEA144E21FAEC
:100EE0000CF11F433B0CB1FBFEF91FFA84F80EFB1B
:100EF000191143EA014109FB08FA8A4502FA06F290
:100F000000FA06F308D9611809F1FF3048D28A4582
:100F100046D9A9F102092144A1EB0A01BFB2B1FBF4
:100F2000FEF00EFB101147EA014700FB08F8B84538
:100F300007D9E71900F1FF312ED2B8452CD9023874
:100F4000274440EA0940A7EB0807A0FB02894F4568
:100F5000C64649461AD317D05DB1B3EB0E0267EB14
:100F6000010707FA0CFCF2404CEA0202F740C5E91F
:100F7000002700263146BDE8F0872E4628460BE7BD
:100F80000646E9E61846FDE64345E5D2B8EB020E13
:100F900069EB04010138DFE70846D2E760468DE7D8
:100FA0008146B9E7664675E730464AE7ACF1020C80
:100FB000394413E702383C4424E700BF704700BFC0
:100FC00080B59AB000AFF860B9607A60044BB3F9AD
:100FD0000030C72B0ADC034B034A1A6009E000BF4C
:100FE0009E1000202409002000002041E14BE24A2D
:100FF0001A60FB681B687B66FB685B683B66FB6886
:101000009B68FB65BB68D3ED007A9FEDDC7A67EEE9
:10101000877AC7ED167ABB68D3ED017A9FEDD77A50
:1010200067EE877AC7ED157ABB68D3ED027A9FED3C
:10103000D37A67EE877AC7ED147AD14B93ED007AB5
:10104000CF4BD3ED007A67EE277AC7ED137ACC4BFE
:1010500093ED007ACB4BD3ED007A67EE277AC7ED9C
:10106000127AC74B93ED007AC74BD3ED007A67EE47
:10107000277AC7ED117AC34B93ED007AC14BD3EDBC
:10108000007A67EE277AC7ED107ABE4B93ED007AAF
:10109000BE4BD3ED007A67EE277AC7ED0F7ABA4BD5
:1010A00093ED007AB84BD3ED007A67EE277AC7ED5F
:1010B0000E7AB54B93ED007AB44BD3ED007A67EE20
:1010C000277AC7ED0D7AB14B93ED007AAF4BD3ED94
:1010D000007A67EE277AC7ED0C7AD7ED197A27EEFA
:1010E000A77AD7ED187A67EEA77A37EE277AD7ED89
:1010F000177A67EEA77A77EE277AB0EE670A00F0E4
:10110000E5F987ED0B0A97ED197AD7ED0B7A67EEC3
:10111000277AC7ED197A97ED187AD7ED0B7A67EE33
:10112000277AC7ED187A97ED177AD7ED0B7A67EE25
:10113000277AC7ED177A97ED0F7AD7ED117A77EE08
:10114000677A77EEA77AC7ED0A7A97ED127AD7ED2C
:101150000D7A77EE277A77EEA77AC7ED097A97EDC1
:10116000137AD7ED107A37EE677AD7ED0E7A77EEED
:10117000677A97ED0C7A77EE277AC7ED087A97EDC4
:10118000187AD7ED087A27EE277AD7ED176AD7EDC8
:10119000097A66EEA77A77EE677AC7ED077A97ED58
:1011A000177AD7ED0A7A27EE277AD7ED196AD7EDA5
:1011B000087A66EEA77A77EE677AC7ED067A97ED3A
:1011C000197AD7ED097A27EE277AD7ED186AD7ED85
:1011D0000A7A66EEA77A77EE677AC7ED057AD7EDD9
:1011E000077A9FED6B7A67EE877A9FED6A7A27EE32
:1011F000877A694BD3ED007A77EE277A664BC3ED99
:10120000007AD7ED067A9FED627A67EE877A9FEDD6
:10121000617A27EE877A614BD3ED007A77EE277AF1
:101220005E4BC3ED007AD7ED057A9FED597A67EEF4
:10123000877A9FED587A27EE877A594BD3ED007A5B
:1012400077EE277A564BC3ED007A4A4B93ED007A3E
:10125000D7ED077A27EE277AD7ED167A37EE277A79
:101260004D4BD3ED007A77EE277AC7ED167A414BD6
:1012700093ED007AD7ED067A27EE277AD7ED157A27
:1012800037EE277A454BD3ED007A77EE277AC7ED14
:10129000157A384B93ED007AD7ED057A27EE277A49
:1012A000D7ED147A37EE277A3D4BD3ED007A77EEFF
:1012B000277AC7ED147A3B4B3B61324BD3ED007A72
:1012C000B1EE677AD7ED167A27EE277A2E4BD3ED5B
:1012D000006AD7ED157A66EEA77A37EE677A2B4B60
:1012E000D3ED006AD7ED147A66EEA77A37EE677A07
:1012F000D7ED047A27EE277A214BD3ED007A77EEEB
:10130000277A1F4BC3ED007A1D4B93ED007AD7ED82
:10131000167A27EE277A1C4BD3ED006AD7ED147AA4
:1013200066EEA77A37EE277A184BD3ED006AD7ED31
:10133000157A66EEA77A37EE677AD7ED047A27EE4C
:10134000277A104BD3ED007A77EE277A0D4BC3ED59
:10135000007A0B4B93ED007AD7ED157A27EE277ABA
:10136000084BD3ED006AD7ED147A66EEA77A37EE14
:10137000677A19E024090020CDCCCC3EA9689237C9
:1013800000000020880400208C040020900400202D
:10139000CDCCCC3DCDCCCC3B940400209804002097
:1013A0009C040020CDCC4C3B444BD3ED006AD7EDE0
:1013B000167A66EEA77A37EE277AD7ED047A27EE0B
:1013C000277A3F4BD3ED007A77EE277A3C4BC3ED7B
:1013D000007A3C4B93ED007AD7ED147A27EE277A0A
:1013E000394BD3ED006AD7ED157A66EEA77A37EE62
:1013F000277A334BD3ED006AD7ED167A66EEA77ADB
:1014000037EE677AD7ED047A27EE277A2B4BD3EDA8
:10141000007A77EE277A294BC3ED007A97ED137A9D
:10142000D7ED107A37EE277AD7ED0E7A37EE277A96
:10143000D7ED0C7A77EE277AB0EE670A00F046F81F
:1014400087ED0B0A1F4B93ED007AD7ED0B7A67EE11
:10145000277A1C4BC3ED007A1B4B93ED007AD7ED36
:101460000B7A67EE277A184BC3ED007A144B93ED95
:10147000007AD7ED0B7A67EE277A114BC3ED007A2D
:101480000E4B93ED007AD7ED0B7A67EE277A0B4B74
:10149000C3ED007A0B4B1A687B681A600A4B1A6816
:1014A0007B685A60064B1A687B689A60034B1A681F
:1014B0007B68DA6000BF6837BD4680BD90040020BD
:1014C0008C040020000000208804002080B487B035
:1014D00000AF87ED010AD7ED017AB6EE007A67EE2C
:1014E000877AC7ED057A7B683B6107F110031B68BB
:1014F000FB60FB685A10124B9B1AFB6007F10C0350
:101500001B683B6197ED047AD7ED057A27EE277AC1
:10151000D7ED047A67EE277AB7EE087A37EE677A66
:10152000D7ED047A67EE277AC7ED047A3B6907EEB8
:10153000903AB0EE670A1C37BD465DF8047B7047F1
:10154000DF59375F0FB480B5C2B000AF07F58A73BB
:10155000C7F800313846D7F80031D7F81021FE21FE
:1015600013F050FCC7F804013B46D7F804111846A5
:1015700000F00AF8D7F80431184607F58477BD461D
:10158000BDE8804004B0704780B582B000AF78609D
:1015900039603B689AB24FF47A73796803480FF068
:1015A000A0FC002318460837BD4680BDF00C002083
:1015B00080B483B000AF78607B68334A1A607B6880
:1015C000324A5A607B684FF000029A607B684FF0A5
:1015D00080421A647B682E4ADA607B682C4A1A6162
:1015E0007B682C4A5A617B682B4ADA647B684FF02F
:1015F00000029A657B684FF00002DA657B68234A37
:101600009A617B684FF00002DA617B684FF080429C
:101610005A647B681E4A1A627B681D4A5A627B685C
:101620001C4A9A627B681C4A1A657B684FF000026C
:101630001A667B684FF000025A667B684FF0814261
:10164000DA627B684FF000021A637B684FF08042D9
:101650009A647B68114A5A637B680C4A9A637B6878
:101660000A4ADA637B684FF080425A657B684FF024
:1016700000029A667B684FF00002DA6600BF0C3702
:10168000BD465DF8047B70470AD7A33A000040408E
:101690000000A042000020410000A0410000614481
:1016A00080B487B000AFF860B9607A603B60BD4B32
:1016B000B3F90030C72B0BDCBB4B4FF000021A60B4
:1016C000BA4B4FF000021A60B94B4FF000021A609B
:1016D0003B6893ED007AF7EE006AC6EE877AB54B69
:1016E000C3ED007A3B6893ED167ABB68D3ED007AC0
:1016F00077EE677AC7ED057A3B6893ED007AD7ED10
:10170000057A27EE277AA84BD3ED007A77EE277A71
:10171000A54BC3ED007A3B6893ED137AA24BD3ED52
:10172000007AB4EEE77AF1EE10FA04D53B68DB6C90
:101730009D4A136014E03B68D3ED137AB1EE677AEB
:10174000994BD3ED007AB4EEE77AF1EE10FA07DDAB
:101750003B68D3ED137AF1EE677A934BC3ED007AD1
:10176000954BD3ED007A97ED057A37EE677A914B7A
:10177000D3ED007A67EE277AC7ED047A8E4A7B694B
:1017800013608E4BD3ED007A97ED047A77EE677A8B
:101790009FED8B7A27EE877A884BD3ED007A77EE30
:1017A000277AC7ED047A854A3B6913603B6893ED5D
:1017B000037AD7ED057A27EE277A3B68D3ED046AE2
:1017C000794BD3ED007A66EEA77A37EE277A3B683D
:1017D000D3ED056AD7ED047A66EEA77A77EE277A1D
:1017E0003B68C3ED177A3B68D3ED177A9FED757AA6
:1017F000F4EEC77AF1EE10FA02DD3B68724ADA6560
:101800003B68D3ED177A9FED717AF4EEC77AF1EE6B
:1018100010FA02D53B686E4ADA653B6893ED187A98
:10182000BB68D3ED017A77EE677AC7ED057A3B683E
:1018300093ED007AD7ED057A27EE277A5B4BD3ED4F
:10184000007A77EE277A594BC3ED007A3B6893ED27
:10185000147A564BD3ED007AB4EEE77AF1EE10FA33
:1018600004D53B681B6D514A136014E03B68D3ED0F
:10187000147AB1EE677A4D4BD3ED007AB4EEE77A85
:10188000F1EE10FA07DD3B68D3ED147AF1EE677ADA
:10189000464BC3ED007A4F4BD3ED007A97ED057AB6
:1018A00037EE677A434BD3ED007A67EE277AC7EDC0
:1018B000047A484A7B691360474BD3ED007A97ED71
:1018C000047A77EE677A9FED3E7A27EE877A424B6D
:1018D000D3ED007A77EE277AC7ED047A3E4A3B696A
:1018E00013603B6893ED087AD7ED057A27EE277AE7
:1018F0003B68D3ED096A2D4BD3ED007A66EEA77AEB
:1019000037EE277A3B68D3ED0A6AD7ED047A66EEA4
:10191000A77A77EE277A3B68C3ED197A3B68D3ED57
:10192000197A9FED287AF4EEC77AF1EE10FA02DD0B
:101930003B68254A5A663B68D3ED197A9FED237AB6
:10194000F4EEC77AF1EE10FA02D53B68204A5A66E7
:101950003B6893ED1A7ABB68D3ED027A77EE677A2B
:10196000C7ED057A3B6893ED007AD7ED057A27EE4F
:10197000277A0F4BD3ED007A77EE277A0C4BC3ED25
:10198000007A3B6893ED157A094BD3ED007AB4EEFB
:10199000E77AF1EE10FA21D53B685B6D044A1360DB
:1019A00031E000BF9E100020A0040020A40400200D
:1019B000A804002078090020AC040020B80400200E
:1019C000CDCCCC3C0000484400004844000048C452
:1019D000000048C4B0040020BC0400203B68D3EDE4
:1019E000157AB1EE677A744BD3ED007AB4EEE77AEC
:1019F000F1EE10FA07DD3B68D3ED157AF1EE677A68
:101A00006D4BC3ED007A6D4BD3ED007A97ED057AFF
:101A100037EE677A6A4BD3ED007A67EE277AC7ED27
:101A2000047A664A7B6913603B6893ED0D7AD7EDC3
:101A3000057A27EE277A3B68D3ED0E6A5E4BD3ED2D
:101A4000007A66EEA77A37EE277A3B68D3ED0F6A05
:101A5000D7ED047A66EEA77A77EE277A3B68C3ED76
:101A60001B7A3B68D3ED1B7A9FED567AF4EEC77A6A
:101A7000F1EE10FA02DD3B68534ADA663B68D3EDBB
:101A80001B7A9FED527AF4EEC77AF1EE10FA02D586
:101A90003B684F4ADA664F4BB3F9003007EE903A95
:101AA000F8EEE77A9FED4C7A67EE877A9FED4B7AF6
:101AB00077EE877AFDEEE77A17EE903A1AB2484B46
:101AC0001A80474BB3F9003007EE903AB8EEE77A48
:101AD0003B68D3ED177A37EE677A3B68D3ED197A16
:101AE00037EE677A3B68D3ED1B7A77EE277A9FED66
:101AF0003D7A77EE877A3B6AC3ED007A384BB3F9CB
:101B0000003007EE903AB8EEE77A3B68D3ED177AEB
:101B100037EE277A3B68D3ED197A37EE677A3B6860
:101B2000D3ED1B7A77EE677A9FED2E7A77EE877A80
:101B30003B6AC3ED017A2A4BB3F9003007EE903AC5
:101B4000B8EEE77A3B68D3ED177A37EE277A3B6831
:101B5000D3ED197A37EE277A3B68D3ED1B7A77EE0F
:101B6000277A9FED207A77EE877A3B6AC3ED027A77
:101B70001B4BB3F9003007EE903AB8EEE77A3B68BA
:101B8000D3ED177A37EE677A3B68D3ED197A37EEE3
:101B9000277A3B68D3ED1B7A77EE677A9FED117A4F
:101BA00077EE877A3B6AC3ED037A00BF1C37BD46E8
:101BB0005DF8047B704700BFA8040020B404002037
:101BC000780900200000484400004844000048C450
:101BD000000048C49E100020CDCC4C3D50551E4402
:101BE00074090020000000002DE9B04388B004AF64
:101BF0000023BB60314B4FF000021A602F4B4FF0B7
:101C000000025A602D4B4FF000029A602C4B4FF0AF
:101C100000021A602A4B4FF000025A60284B4FF026
:101C200000029A60274B4FF000021A60254B4FF0DC
:101C300000025A60234B4FF000029A60224B4FF093
:101C400000021A60204B4FF000025A601E4B4FF00A
:101C500000029A601D4B00221A601C4B00225A6041
:101C60001A4B00229A601A4B00221A60184B00226D
:101C70005A60174B00229A60164B00221A60154BCF
:101C800000225A60134B4FF47A729A60124B002272
:101C90001A60114B00225A600F4B00229A600F4BC2
:101CA0009B680F4A93600F4B4FF000021A600D4B78
:101CB0004FF000025A600023FB81EDE0B00B0020E2
:101CC000A4090020680B0020140C0020580D0020EF
:101CD000300D0020E40C0020640D00206010002076
:101CE000C80D0020840C0020B7F90E20CF49134600
:101CF0005B0013449B000B444FF000021A60B7F9DD
:101D00000E20CA4913465B0013449B000B44043366
:101D10004FF000021A60B7F90E20C44913465B0069
:101D200013449B000B4408334FF000021A60B7F9CC
:101D30000E20BF4913465B0013449B000B444FF039
:101D400000021A60B7F90E20B94913465B0013442C
:101D50009B000B4404334FF000021A60B7F90E20C9
:101D6000B34913465B0013449B000B4408334FF008
:101D700000021A60B7F90E20AE4913465B00134407
:101D80009B000B444FF000021A60B7F90E20A949DE
:101D900013465B0013449B000B4404334FF00002D6
:101DA0001A60B7F90E20A34913465B0013449B0049
:101DB0000B4408334FF000021A60B7F90E209E4919
:101DC00013465B0013449B000B444FF000021A6063
:101DD000B7F90E20984913465B0013449B000B444F
:101DE00004334FF000021A60B7F90E2092491346EF
:101DF0005B0013449B000B4408334FF000021A6051
:101E0000B7F90E208D4913465B0013449B000B4429
:101E10004FF000021A60B7F90E20884913465B00A4
:101E200013449B000B4404334FF000021A60B7F9CF
:101E30000E20824913465B0013449B000B44083379
:101E40004FF000021A60B7F90E207D4913465B007F
:101E500013449B000B444FF000021A60B7F90E20A8
:101E6000774913465B0013449B000B4404334FF047
:101E700000021A60B7F90E20714913465B00134443
:101E80009B000B4408334FF000021A60B7F90E3084
:101E90009BB201339BB2FB81B7F90E30032B7FF766
:101EA00023AF0BF0E7F900F083FA00F017FC00F025
:101EB000E7FA00F021FB00F073FB00F0C5FB00F037
:101EC000E9FB6048FFF73EFB002002F0ADFC01207B
:101ED00002F0AAFC002002F0EDFC012002F0EAFC76
:101EE00002F08AFD01F0F6F801F02AF9564B1B6862
:101EF0009FED560A184603F098FA534B1B680221CF
:101F0000184603F0BAFA504B1B680021184607F038
:101F1000A3FA4D4B1B688021184607F0F7FA4A4B8D
:101F20001B686021184607F0C4FA474B1B687A1DEE
:101F30001021184603F0C9FA7B7923F00103DBB2C4
:101F40007B71414B1B687A791021184603F0EBFA3C
:101F50003F4B1B680121184607F051FA3C4B1B68A8
:101F60006C221121184603F018FC3A4B1B688C2296
:101F70006021184603F01BFD364B1B6802226121CD
:101F8000184603F014FD01F011FC002132480DF059
:101F900013FF042130480DF00FFF08212E480DF0EB
:101FA0000BFF0C212C480DF007FF00212B480DF0F2
:101FB000A5FE042129480DF0A1FE082127480DF0B7
:101FC0009DFE0C2125480DF099FE25480DF046FE9A
:101FD0002448FFF7EDFA244801F01CFB0123FB80A5
:101FE000B7F906301946214802F0FFF91F4802F000
:101FF00013FA1F4B00221A701E4B00221A701E4843
:10200000FFF7A0FA01F0DCF801F01CFA1B4B1B688B
:102010001B49184603F0F6FD1A4B1B681A4918466F
:1020200003F002FF194B1B68012B31E02410002044
:10203000780E0020B40C0020A80F0020E40B002034
:10204000300B0020607C0108C40400200020D04533
:10205000C8040020CC0400203C0E0020B80A002058
:10206000840D0020440A0020A40C0020041100204C
:1020700023100020900C0020887C0108D004002050
:10208000A00C0020D4040020C80B0020E80400208D
:10209000C8D1BB4B00221A60BA4B1B680133B94A46
:1020A0001360B94B4FF000021A60B74B4FF00002BB
:1020B0005A60B54B4FF000029A60B44B4FF00002EB
:1020C0001A60B24B4FF000025A60B04B4FF0000262
:1020D0009A600023FB8175E0AB4B93ED007AB7F972
:1020E0000E20AB4913465B0013449B000B44D3ED19
:1020F000007A77EE277AA44BC3ED007AA24B93EDDA
:10210000017AB7F90E20A24913465B0013449B00E5
:102110000B440433D3ED007A77EE277A9A4BC3ED64
:10212000017A994B93ED027AB7F90E20984913463C
:102130005B0013449B000B440833D3ED007A77EE29
:10214000277A914BC3ED027A904B93ED007AB7F961
:102150000E20904913465B0013449B000B44D3EDC3
:10216000007A77EE277A894BC3ED007A874B93ED9F
:10217000017AB7F90E20874913465B0013449B0090
:102180000B440433D3ED007A77EE277A7F4BC3ED0F
:10219000017A7E4B93ED027AB7F90E207D49134602
:1021A0005B0013449B000B440833D3ED007A77EEB9
:1021B000277A764BC3ED027AB7F90E309BB2013322
:1021C0009BB2FB81B7F90E30042B85DD6E4B1B688B
:1021D0001846FEF7C1F968A3D3E90023FEF714FA05
:1021E00002460B4610461946FEF7E6FC0346664AD1
:1021F0001360654B5B681846FEF7AEF95EA3D3E942
:102200000023FEF701FA02460B4610461946FEF778
:10221000D3FC03465C4A53605B4B9B681846FEF751
:102220009BF955A3D3E90023FEF7EEF902460B46CE
:1022300010461946FEF7C0FC0346534A9360534BC1
:102240001B681846FEF788F94BA3D3E90023FEF775
:10225000DBF902460B4610461946FEF7ADFC034675
:102260004A4A1360494B5B681846FEF775F942A36A
:10227000D3E90023FEF7C8F902460B46104619467B
:10228000FEF79AFC0346414A5360404B9B68184650
:10229000FEF762F938A3D3E90023FEF7B5F9024649
:1022A0000B4610461946FEF787FC0346374A9360F3
:1022B000354BD3ED007AFDEEE77A17EE902A364BD8
:1022C0001A60314BD3ED017AFDEEE77A17EE902AD2
:1022D000314B5A602C4BD3ED027AFDEEE77A17EEC4
:1022E000902A2D4B9A60294BD3ED007AFDEEE77AC8
:1022F00017EE902A294B1A60244BD3ED017AFDEE9C
:10230000E77A17EE902A254B5A60204BD3ED027ADC
:10231000FDEEE77A17EE902A204B9A60204A1B497F
:102320001948FEF74DFE1F491D4801F08DF91D4B60
:102330001B681846FEF710F980468946194B5B6802
:102340001846FEF709F904460D46164B9B681846D9
:10235000FEF702F902460B46CDE90223CDE900451E
:1023600042464B461048FFF7EDF81048FFF7EAF8F1
:1023700058E600BFAFF300809A9999999999C93F9F
:10238000E804002000050020D80B0020BC0B002032
:10239000F40A0020740B0020780C0020CC0B0020E5
:1023A0008809002060100020B07C0108BC7C010876
:1023B00080B594B000AF0023BB602E4B1B6C2D4A40
:1023C00043F0805313642B4B1B6C03F08053BB60B2
:1023D000BB6800237B60284B1B6823F44043264ADC
:1023E00043F400431360244B1B6803F440437B60B9
:1023F0007B6801233B624FF480337B620223BB6323
:102400004FF48003FB6310233B644FF4A8737B6499
:102410000423BB640723FB6407F1200318460CF078
:1024200027FC0F23FB6002233B6100237B614FF4F9
:102430008053BB610023FB6107F10C0302211846A6
:102440000CF070FE0DF000F803460C4AA2FB0323CB
:102450009B0918460BF00DFB04200BF017FB002224
:1024600000214FF0FF300BF0CCFA00BF5037BD46D3
:1024700080BD00BF0038024000700040D34D6210A4
:1024800080B584B000AF1A4B1A4A1A60184B4FF44B
:1024900080325A60164B00229A60154B00221A6156
:1024A000134B00229A61124B00221A62104B002239
:1024B000DA620F4B0022DA600D4B0122DA610C4B1D
:1024C00000221A630A4B01225A6109480AF041FFAF
:1024D00009233B6001237B600023BB603B46194618
:1024E00003480AF079FF00BF1037BD4680BD00BF2A
:1024F000300C00200020014080B58AB000AF274B8F
:102500004FF080421A60254B14225A60234B002260
:102510009A60224B47F6FF72DA60204B00221A6164
:102520001E480DF070FB4FF48053BB6107F1180398
:1025300019461A480DF00AFF18480DF007FC002351
:102540003B6100237B6107F11003194613480EF02D
:1025500022FC0A233B6001237B600023BB60002335
:10256000FB603B46002219460C480DF08DFD3B46B2
:102570000422194609480DF087FD3B4608221946FA
:1025800006480DF081FD3B460C22194603480DF02C
:102590007BFD00BF2837BD4680BD00BF3C0E00203C
:1025A00080B58EB000AF264B264A1A60244B5422C9
:1025B0005A60234B00229A60214B40F2CF72DA60BE
:1025C0001F4B00221A611E480DF01DFB4FF4805373
:1025D000BB6207F12803194619480DF0B7FE1848E9
:1025E0000DF057FB00233B6200237B6207F12003C1
:1025F000194613480EF0CFFB60237B600023BB60BD
:102600000023FB6000237B613B1D002219460C4820
:102610000DF0D6FD3B1D0422194609480DF0D0FDF2
:102620003B1D0822194606480DF0CAFD3B1D0C2231
:10263000194603480DF0C4FD00BF3837BD4680BDC4
:10264000B80A00200008004080B584B000AF0F4BEE
:102650000F4A1A600D4B33225A600C4B00229A60CD
:102660000A4B40F2CF72DA60084B00221A61074829
:102670000DF0C9FA4FF480533B603B4619460348BE
:102680000DF064FE00BF1037BD4680BD840D0020F4
:102690000040014080B500AF0E4B0F4A1A600D4B51
:1026A0004FF4E1325A600B4B00229A60094B002232
:1026B000DA60084B00221A61064B0C225A61054B66
:1026C00000229A61034B0022DA6102480EF0BCFB43
:1026D00000BF80BDF00C00200010014080B588B024
:1026E00000AF0023BB601D4B1B6B1C4A43F004036F
:1026F00013631A4B1B6B03F00403BB60BB6800231E
:102700007B60164B1B6B154A43F001031363134B9D
:102710001B6B03F001037B607B6800233B600F4B66
:102720001B6B0E4A43F0020313630C4B1B6B03F04D
:1027300002033B603B683023FB6011233B610023B5
:102740007B610023BB6107F10C03194604480BF0C1
:10275000E1F900BF2037BD4680BD00BF0038024010
:102760000004024090B589B004AF7860A24B1B68AA
:10277000002B40F0C480A14B1B6801339F4A1360BB
:102780009E4B1B68B3F5487F40F3B9809C4B18689B
:102790009C4B19689C4B1A689C4B1B689C4C03947F
:1027A0009C4C02949C4C01949C4C009401F016F9B2
:1027B0009B4B1A68994B1B681344994A1360984BBA
:1027C0005A68964B5B681344954A5360944B9A68D9
:1027D000924B9B681344924A9360924B1A688E4BBB
:1027E0001B6813448F4A13608E4B5A688A4B5B6890
:1027F00013448C4A53608B4B9A68874B9B681344F5
:10280000884A93607D4B1B68B3F5C86F77DB844BB8
:102810001B6807EE903AF8EEE77A9FED837A67EE51
:10282000877AFDEEE77A17EE902A804B1A607C4B90
:102830005B6807EE903AF8EEE77A9FED7B7A67EEF9
:10284000877AFDEEE77A17EE902A784B5A60744B40
:102850009B6807EE903AF8EEE77A9FED737A67EEA1
:10286000877AFDEEE77A17EE902A704B9A606D4BEF
:102870001B6807EE903AF8EEE77A9FED6B7A67EE09
:10288000877AFDEEE77A17EE902A694B1A60654B5E
:102890005B6807EE903AF8EEE77A9FED637A67EEB1
:1028A000877AFDEEE77A17EE902A614B5A605D4B0E
:1028B0009B6807EE903AF8EEE77A9FED5B7A67EE59
:1028C000877AFDEEE77A17EE902A594B9A60544BBF
:1028D00000221A60524B00225A60514B00229A602B
:1028E000504B00221A604F4B00225A604D4B002281
:1028F0009A60424B00221A603F4B01221A603E4B05
:102900001B68012B40F0BF834A4B1B680133494AC7
:102910001360494B1B680133474A1360384B1868F2
:10292000384B1968384B1A68384B1B68384C03947D
:10293000384C0294384C0194384C009401F04EF815
:102940003E4B1B68012B40F0D580354B1A68334B4A
:102950001B681344324A1360314B5A682F4B5B6833
:1029600013442F4A53602E4B9A682C4B9B68134498
:102970002B4A93602B4B1A68274B1B681344294A38
:102980001360284B5A68244B5B681344254A5360F4
:10299000244B9A68204B9B681344224A9360284B2F
:1029A0001B680133264A1360254B1B68B3F5487F2B
:1029B000C0F2A0801A4B1B6807EE903AF8EEE77A57
:1029C0009FED197A67EE877AFDEEE77A17EE902A87
:1029D000164B1A60124B5B6807EE903AF8EEE77AF6
:1029E0009FED117A67EE877AFDEEE77A17EE902A6F
:1029F0000E4B5A6026E000BFF8040020FC040020C3
:102A0000C4040020C8040020CC040020D00400200E
:102A1000E00D002054100020940C00207C090020C0
:102A2000580D0020300D00200AD7A33AE40C0020F6
:102A3000640D0020EC040020F0040020D8040020E5
:102A4000E0040020AE4B9B6807EE903AF8EEE77A80
:102A50009FEDAC7A67EE877AFDEEE77A17EE902A63
:102A6000A94B9A60A94B1B6807EE903AF8EEE77AFB
:102A70009FEDA47A67EE877AFDEEE77A17EE902A4B
:102A8000A34B1A60A14B5B6807EE903AF8EEE77A29
:102A90009FED9C7A67EE877AFDEEE77A17EE902A33
:102AA0009B4B5A60994B9B6807EE903AF8EEE77A99
:102AB0009FED947A67EE877AFDEEE77A17EE902A1B
:102AC000934B9A608E4B00221A608D4B00225A6005
:102AD0008B4B00229A608D4B00221A608B4B002298
:102AE0005A608A4B00229A608A4B00221A608A4BF5
:102AF00000221A60894B1A68834B1B68D31A874AD5
:102B00001360864B5A68804B5B68D31A834A5360C4
:102B1000824B9A687C4B9B68A3F57A73D31A7F4AE1
:102B200093607F4B1A687A4B1B68D31A7C4A1360F8
:102B30007B4B5A68764B5B68D31A794A5360784B63
:102B40009A68734B9B68D31A754A9360734B1968E4
:102B5000744B1B685A1E07EE901AF8EEE77A72491A
:102B600013465B0013449B000B44C3ED007A6B4B90
:102B700059686C4B1B685A1E07EE901AF8EEE77AFC
:102B8000694913465B0013449B000B440433C3EDB7
:102B9000007A624B9968634B1B685A1E07EE901AC5
:102BA000F8EEE77A604913465B0013449B000B4440
:102BB0000833C3ED007A5D4B93ED027A584B1B68E6
:102BC00007EE903AF8EEE77A27EE277A574BD3EDE7
:102BD000036A574BD3ED007A66EEA77A37EE277A71
:102BE000524BD3ED046A524BD3ED037A66EEA77ACB
:102BF00037EE277A4D4BD3ED006A4E4BD3ED007A7A
:102C000066EEA77A37EE277A484BD3ED016A494B37
:102C1000D3ED037A66EEA77A77EE277A464BC3EDBB
:102C2000007A424B93ED027A3D4B5B6807EE903A97
:102C3000F8EEE77A27EE277A3C4BD3ED036A3C4B5C
:102C4000D3ED017A66EEA77A37EE277A374BD3EDCC
:102C5000046A374BD3ED047A66EEA77A37EE277A0B
:102C6000324BD3ED006A334BD3ED017A66EEA77A8F
:102C700037EE277A2D4BD3ED016A2E4BD3ED047A34
:102C800066EEA77A77EE277A2B4BC3ED017A274BB6
:102C900093ED027A224B9B6807EE903AF8EEE77AC2
:102CA00027EE277A214BD3ED036A214BD3ED027A2D
:102CB00066EEA77A37EE277A1C4BD3ED046A1C4BDD
:102CC000D3ED057A66EEA77A37EE277A174BD3ED68
:102CD000006A184BD3ED027A66EEA77A37EE277AB0
:102CE000124BD3ED016A134BD3ED057A66EEA77A4A
:102CF00077EE277A104BC3ED027A0123FB608EE05A
:102D0000580D00200AD7A33AE40C0020300D002013
:102D1000640D0020E0040020D80400207C0900207D
:102D2000940C0020F0040020B009002004000020D2
:102D3000A80F0020B40C0020680B0020FB685A1E6E
:102D4000664913465B0013449B000B4419686348B3
:102D5000FA6813465B0013449B0003441960FB6848
:102D60005A1E5E4913465B0013449B000B44043318
:102D700019685A48FA6813465B0013449B000344E1
:102D800004331960FB685A1E544913465B00134410
:102D90009B000B44083319685048FA6813465B00DF
:102DA00013449B00034408331960FB685A1E4C49C6
:102DB00013465B0013449B000B4419684848FA68AB
:102DC00013465B0013449B0003441960FB685A1EC2
:102DD000434913465B0013449B000B4404331968BA
:102DE0003F48FA6813465B0013449B0003440433D6
:102DF0001960FB685A1E3A4913465B0013449B0056
:102E00000B44083319683648FA6813465B001344CC
:102E10009B00034408331960FB68013BFB60FB68BF
:102E2000002B8BDC2F4B1B6807EE903AF8EEE77A0D
:102E30002A4BC3ED007A2B4B5B6807EE903AF8EE15
:102E4000E77A264BC3ED017A264B9B6807EE903A52
:102E5000F8EEE77A214BC3ED027A234B1B68204A38
:102E60001360214B5B681E4A53601F4B9B681C4AD2
:102E700093601E4B1B685A1E1B4B19681C48134657
:102E80005B0013449B0003441960184B1B685A1ED7
:102E9000154B5968164813465B0013449B000344C6
:102EA00004331960114B1B685A1E0F4B9968104868
:102EB00013465B0013449B000344083319600B4B1B
:102EC0001B68052B40F08680084B00221A60094BD6
:102ED00001221A600023BB6079E000BFA80F002028
:102EE000B40C0020940C0020680B0020F00400209B
:102EF000E40F0020E80400206549BA6813465B002F
:102F000013449B000B4419686248BA6813465B007F
:102F100013449B00034419605D49BA6813465B0083
:102F200013449B000B44043319685A48BA6813468B
:102F30005B0013449B000344043319605449BA688E
:102F400013465B0013449B000B4408331968514837
:102F5000BA6813465B0013449B00034408331960AE
:102F60004D49BA6813465B0013449B000B44196833
:102F70004A48BA6813465B0013449B000344196037
:102F80004549BA6813465B0013449B000B44043365
:102F900019684248BA6813465B0013449B00034417
:102FA000043319603C49BA6813465B0013449B0024
:102FB0000B44083319683948BA6813465B00134458
:102FC0009B00034408331960BB680133BB60BB68D6
:102FD000042B91DD324BD3ED007A9FED327A67EE10
:102FE000877A314BC3ED007A2D4BD3ED017A9FEDFB
:102FF0002D7A67EE877A2C4BC3ED017A284BD3EDFF
:10300000027A9FED287A67EE877A274BC3ED027A22
:10301000264B93ED027A244BD3ED027ADFED246A3E
:1030200067EEA67A77EE277A204BC3ED027A214B22
:10303000B3F90030C72B07DC1F4B4FF000029A603A
:103040001A4B4FF000029A601C4B1B78002B0CD0DF
:103050001B4B1B68002B08D01A4B00931A4B1B4AC2
:1030600011491B48FEF71CFB02E0164800F0D2FA9B
:10307000104BB3F90030C72B02DC124800F0CAFA3B
:10308000104800F01DFA00BF1437BD4690BD00BFC8
:10309000B0090020F40A0020E40F0020740B002087
:1030A000680B0020A96892374C0D002060100020AA
:1030B0000AD7A33A9E100020C80D0020A2100020BD
:1030C000DC040020A40C0020440A00208809002011
:1030D000140C002080B500AF1449002002F00CF859
:1030E0000346002B00D0FEE71149002002F045FA0C
:1030F0000346002B00D0FEE70E49002002F077FBCC
:103100000346002B00D0FEE70B49002002F079FCBB
:103110000346002B00D0FEE70849002002F09DFD89
:103120000346002B00D0FEE700BF80BDC404002092
:10313000C8040020CC040020D0040020D4040020C7
:1031400080B500AF144B1B68184602F01FF91348F6
:10315000FEF7F8F9124B1B68184602F0CFFA114837
:10316000FEF7F0F9104B1B68184602F0D1FB0F4830
:10317000FEF7E8F90E4B1B68184602F01FFD0D48DC
:10318000FEF7E0F90C4B1B68184602F029FE0B48CD
:10319000FEF7D8F900BF80BDC4040020D47C01082C
:1031A000C8040020087D0108CC040020387D0108F7
:1031B000D0040020687D0108D40400209C7D010813
:1031C000F0B58FB008AF01237B610023FB740023AF
:1031D0003B828348FEF7B6F909F06CFE814B1B6811
:1031E0001B0EDAB2804B1A70804B1B68DAB27E4B32
:1031F0005A707F4B1B681B0ADAB27B4B9A707B4B71
:103200001B681B0CDAB2784BDA70FB7C302B01D9CF
:103210008C2200E02822744B1A71734BC0225A7121
:103220000FF08EFD09F078FE7248FEF78BF907F17A
:10323000100207F11303114618460FF033FD034641
:10324000002B40F0BC8009F067FE6B48FEF77AF96E
:103250000FF0DBFA03467B617B69002B06D0674BDE
:1032600001221A706648FEF76DF9B2E0654B0193D2
:10327000654B0093654B0722002101200FF024FAD3
:1032800003467B617B69002B03D06148FEF75AF946
:103290009FE055480FF0F0FF78615E4A07F10803A0
:1032A00092E8030018600433198002330A0C1A7084
:1032B000564B1888544B198807F1080300930723CD
:1032C00000220FF026FC03467B615348FEF73AF9D3
:1032D00001230393514B0293002301931023009386
:1032E00007230022002101200FF03EFA03467B61F4
:1032F0007B69002B06D0414B01221A704848FEF72B
:1033000021F966E0FB7C9C463B8A1B0A9BB29E46E9
:103310003B8A1B099BB203F00F02FB7C302B04D9C4
:103320003B8A03F00F03603300E061232E494979A3
:1033300008462D4909790C462B49C9780D462A497A
:1033400089780E4628494978796027490978069195
:1033500079680591049603950294019000931346B1
:10336000724661462F48FEF7EDF8042101200FF068
:1033700068FC00F0FFFB03467B617B69002B03D1F7
:103380002948FEF7DFF805E01C4B01221A70274898
:10339000FEF7D8F800F078FB03467B617B69002BD1
:1033A00003D12348FEF7CEF805E0144B01221A7032
:1033B0002048FEF7C7F82048FEF7C4F805E00F4B99
:1033C00001221A701D48FEF7BDF81D48FEF7BAF835
:1033D00003E00A4B01221A7000BF1C37BD46F0BD46
:1033E000D07D0108147AFF1F600B0020107AFF1FA8
:1033F000187AFF1FF07D0108107E0108F4040020F8
:103400002C7E0108B40A00203C0D00202010002072
:10341000487E01081C8001085C7E010840E2010032
:10342000807E0108B07E0108107F01083C7F010802
:10343000687F0108947F0108C07F0108D87F0108D8
:10344000FC7F010880B582B000AF00F045FC034668
:103450007B607B68002B03D11348FEF773F802E012
:103460001248FEF76FF800F085FB03467B607B682F
:10347000002B03D10E48FEF765F802E00D48FEF779
:1034800061F800F001FB03467B607B68002B03D1F1
:103490000948FEF757F802E00848FEF753F800BF66
:1034A0000837BD4680BD00BF248001085080010858
:1034B000107F01083C7F0108687F0108947F0108A4
:1034C00080B483B000AF78607B68D3ED007A9FED65
:1034D0004F7AF4EEC77AF1EE10FA05DB4C4B1B681D
:1034E00040F26C725A6316E07B68D3ED007AF5EE19
:1034F000C07AF1EE10FA04D8454B1B6800225A63DB
:1035000009E07B68D3ED007A414B1B68FCEEE77A5B
:1035100017EE902A5A637B68D3ED017A9FED3B7AD0
:10352000F4EEC77AF1EE10FA05DB394B1B6840F276
:103530006C729A6316E07B68D3ED017AF5EEC07A7F
:10354000F1EE10FA04D8324B1B6800229A6309E0AE
:103550007B68D3ED017A2E4B1B68FCEEE77A17EE01
:10356000902A9A637B68D3ED027A9FED287AF4EE75
:10357000C77AF1EE10FA05DB254B1B6840F26C723E
:10358000DA6316E07B68D3ED027AF5EEC07AF1EEED
:1035900010FA04D81E4B1B680022DA6309E07B682E
:1035A000D3ED027A1A4B1B68FCEEE77A17EE902AED
:1035B000DA637B68D3ED037A9FED147AF4EEC77A71
:1035C000F1EE10FA05DB124B1B6840F26C721A64C4
:1035D00016E07B68D3ED037AF5EEC07AF1EE10FACF
:1035E00004D80B4B1B6800221A6409E07B68D3EDFA
:1035F000037A074B1B68FCEEE77A17EE902A1A64F1
:1036000000BF0C37BD465DF8047B70470080ED4479
:10361000B80A002080B483B000AF78607B684FF0B8
:1036200000021A607B684FF000025A607B684FF01E
:1036300000029A607B684FF00002DA6000BF0C372E
:10364000BD465DF8047B7047B0B58EB000AF7860C2
:1036500039607B6893ED007A7B68D3ED007A67EE82
:10366000277AC7ED0D7A7B6893ED017A7B68D3EDFD
:10367000017A67EE277AC7ED0C7A7B6893ED027AC0
:103680007B68D3ED027A67EE277AC7ED0B7A7B6809
:1036900093ED037A7B68D3ED037A67EE277AC7ED63
:1036A0000A7A7B68D3ED007A77EEA77AC7ED097ABC
:1036B0007B68D3ED017A77EEA77AC7ED087A7B684D
:1036C000D3ED027A77EEA77AC7ED077A7B68D3ED60
:1036D000037A97ED087A67EE277AC7ED067A7B685A
:1036E000D3ED027A97ED097A67EE277AC7ED057A6E
:1036F0007B68D3ED017A97ED097A67EE277AC7EDFB
:10370000047A7B68D3ED037A97ED077A67EE277A20
:10371000C7ED037A97ED047AD7ED037A77EE277A2F
:1037200017EE900AFCF718FF04460D4697ED0D7A48
:10373000D7ED0A7A37EE277AD7ED0C7A37EE677A2B
:10374000D7ED0B7A77EE677A17EE900AFCF704FF55
:1037500002460B4643EC112B45EC104B13F0D2FC08
:1037600053EC102B10461946FDF726FA02463B682B
:103770001A6097ED057AD7ED067A77EE677A17EE3D
:10378000900AFCF7E9FE02460B4643EC102B13F0BF
:103790007FFC53EC102B10461946FDF70DFA02463C
:1037A0003B685A6000BF3837BD46B0BD80B500AF3A
:1037B0000E4B00221A700E4B4FF47A721A600D4BAA
:1037C00000221A800C4B00221A800C4B00221A8017
:1037D0000B4B00221A8000F019F80A4B00221A60E5
:1037E000094800F0CBF800BF80BD00BFA210002048
:1037F00070100020A01000209C1000209E100020BF
:10380000F210002074100020A810002080B483B0B3
:1038100000AF134B00221A7000237B6016E0114AA0
:103820007B68134400221A700F4A7B68002142F81B
:1038300023100E4A7B68002142F823100C4A7B6853
:10384000002142F823107B6801337B607B68032BE7
:10385000E5D900BF00BF0C37BD465DF8047B70475B
:10386000A2100020781000207C100020F41000200E
:103870008C10002080B582B000AF7860002000F08E
:1038800023F800BF0837BD4680BD000080B500AFFB
:1038900000F0F6FD0A4B1B68B3F57A7F04DA084B9B
:1038A0001B680133064A1360054B1B681E2B01DDA4
:1038B000FFF7ACFF034B01221A7000BF80BD00BFB1
:1038C00070100020A210002080B483B000AF786098
:1038D000234BB3F90030002B14D1224BB3F9003045
:1038E00013F5966F0EDA204BB3F90030B3F5966FEF
:1038F00008DD1E4BB3F9003013F5966F02DA1C4B4E
:1039000001221A60164BB3F90030002B22D1154B5F
:10391000B3F9003013F5966F1CDA134BB3F900308E
:1039200013F5966F16DA114BB3F90030B3F5966FB5
:1039300010DD104B1B68002B06D10E4B01221A60C4
:103940000D4B01221A6005E00A4B00221A600A4B57
:1039500000221A6000BF0C37BD465DF8047B70473B
:103960009E1000209C100020A0100020F2100020CB
:10397000D8040020DC040020E404002080B485B0DA
:1039800000AF78607B6800221A807B6800225A8032
:103990007B6810229A807B680022DA807B68012293
:1039A0001A810023FB600FE07A68FB6802339B00FA
:1039B000134400225A807A68FB689B00134400225B
:1039C0009A81FB680133FB60FB680F2BECDD00BFC5
:1039D00000BF1437BD465DF8047B704780B594B0D6
:1039E00000AFF860B9607A603B6007F140031946A8
:1039F000F86801F0EFFC3B6CFB617B6C3B62BB6CDD
:103A00007B6207F134031946B86801F09BFE7B6BBB
:103A10003B61BB6B7B61FB6BBB6107F12803194604
:103A2000786801F099FFBA6A3B6E1A60FA6A3B6ED9
:103A30005A603A6B3B6E9A60796E386802F0E2F831
:103A40003B6A5A42BB6D1A60FA69BB6D5A607A6A6A
:103A5000BB6D9A607B695A42FB6D1A603A69FB6DD7
:103A60005A60BA69FB6D9A603B6E1B68FB643B6EE3
:103A70005B685A423B6E1A603B6EFA6C5A6000BF3C
:103A80005037BD4680BD000080B58CB006AF1B230B
:103A90003B71C5237B71D523BB71A523FB71022329
:103AA0003B7200237B72B423BB729A23FB72E12327
:103AB0003B7311237B730F23BB730023FB73002322
:103AC0003B7400237B740023BB740023FB74391DFB
:103AD000264B00930423012202200EF0B9FE034678
:103AE000FB75FB7D002B39D11B233B71C5237B71FB
:103AF000D523BB71A523FB7102233B7200237B728C
:103B00003623BB72AC23FB72E1233B7311237B731F
:103B10000F23BB730023FB7302233B7400237B74CE
:103B20000023BB740023FB74104B18883A1D104B04
:103B30000593012304931023039305230293002389
:103B4000019314230093142302210EF00DFF03466A
:103B5000FB75FB7D002B03D1002303E000BF00E0D9
:103B600000BF472318461837BD4680BD100500200A
:103B70001205002080B58CB006AF1B233B71C52316
:103B80007B71D523BB71A523FB7102233B720023FC
:103B90007B72B423BB729A23FB72E1233B73112324
:103BA0007B730E23BB730023FB7300233B74002342
:103BB0007B740023BB740023FB74391D434B0093BB
:103BC0000723012202200EF043FE0346FB75FB7D16
:103BD000002B71D11B233B71C5237B71D523BB7196
:103BE000A523FB7102233B7200237B723623BB7239
:103BF000AC23FB72E1233B7311237B730E23BB7356
:103C00000023FB7301233B7400237B740023BB74EC
:103C10000023FB742D4B18883A1D2D4B059301236F
:103C200004931023039305230293002301931E237F
:103C30000093142302210EF097FE0346FB75FB7DD3
:103C4000002B3BD11B233B71C5237B71D523BB715B
:103C5000A523FB7102233B7200237B723623BB72C8
:103C6000AC23FB72E1233B7311237B730E23BB73E5
:103C70000023FB7302233B7400237B740023BB747B
:103C80000023FB74114B18883A1D124B0593012336
:103C9000049310230393042302930023019312231C
:103CA0000093142302210EF05FFE0346FB75FB7D9B
:103CB000002B05D1002305E000BF02E000BF00E0BB
:103CC00000BF472318461837BD4680BD14050020A5
:103CD000160500201805002080B58CB006AF05231E
:103CE0007B611B233B70C5237B70D523BB70A52351
:103CF000FB7002233B7100237B71B423BB719A23B9
:103D0000FB71E1233B7211237B720123BB72002301
:103D1000FB7200233B7300237B730023BB730023E0
:103D2000FB737B69DBB21A4652001344DBB20133EA
:103D3000DBB23946AC4A0092012202200EF088FD27
:103D40000346FB74FB7C002B40F03D811B233B7042
:103D5000C5237B70D523BB70A523FB7002233B7169
:103D600000237B713623BB71AC23FB71E1233B72D3
:103D700011237B720123BB720023FB7200233B7370
:103D800000237B730023BB730023FB73BB7B43F0D7
:103D90000503DBB2BB73954B1B780433DAB2934B4C
:103DA0001A70BB7B43F00803DBB2BB738F4B1B78ED
:103DB0000233DAB28D4B1A70BB7B43F01003DBB2D7
:103DC000BB738A4B1B780433DAB2884B1A70864B6C
:103DD00018883A46864B05930023049310230393D7
:103DE0000423029300230193122300930C23022146
:103DF0000EF0BAFD0346FB74FB7C002B40F0E5801F
:103E00001B233B70C5237B70D523BB70A523FB70A0
:103E100002233B7100237B713623BB71AC23FB7102
:103E2000E1233B7211237B720123BB720023FB72DF
:103E300000233B7300237B73E023BB730023FB73DE
:103E4000694B18883A466B4B059300230493102363
:103E5000039304230293002301931023009314235C
:103E600002210EF081FD0346FB74FB7C002B40F029
:103E7000AE801B233B70C5237B70D523BB70A5236D
:103E8000FB7002233B7100237B713623BB71AC2393
:103E9000FB71E1233B7211237B720123BB72002370
:103EA000FB7200233B7304237B730023BB7300234B
:103EB000FB734D4B18883A464F4B059300230493F0
:103EC00010230393042302930023019312230093EE
:103ED000042302210EF048FD0346FB74FB7C002BFB
:103EE00077D11B233B70C5237B70D523BB70A523E3
:103EF000FB7002233B7100237B713623BB71AC2323
:103F0000FB71E1233B7211237B720123BB720023FF
:103F1000FB7200233B7300237B730023BB732023BE
:103F2000FB73314B18883A46344B059300230493B6
:103F3000102303930423029300230193122300937D
:103F4000032302210EF010FD0346FB74FB7C002BC3
:103F500041D11B233B70C5237B70D523BB70A523A8
:103F6000FB7002233B7100237B713623BB71AC23B2
:103F7000FB71E1233B7211237B720123BB7200238F
:103F8000FB7200233B7380237B730023BB730023EE
:103F9000FB73154B18883A46194B0593002304937D
:103FA0001023039301230293002301930C23009316
:103FB000072302210EF0D8FC0346FB74FB7C002B88
:103FC0000BD100230BE000BF08E000BF06E000BFFC
:103FD00004E000BF02E000BF00E000BF4723184636
:103FE0001837BD4680BD00BF040500201800002022
:103FF00006050020080500200A0500200C05002009
:104000000E05002080B500AF032009F0EFFC002270
:1040100000214FF0FF3009F0F4FC00BF80BD00002C
:1040200080B588B000AF78607B681B68104A934207
:1040300019D10023BB600F4B5B6C0E4A43F48073B5
:1040400053640C4B5B6C03F48073BB60BB6802234E
:10405000FB6003233B6100237B6107F10C031946DE
:10406000054809F057FD00BF2037BD4680BD00BFA1
:1040700000200140003802400004024080B58AB0B0
:1040800000AF78607B681B68514A934240F09C8087
:1040900000233B614F4B1B6B4E4A43F002031363FB
:1040A0004C4B1B6B03F002033B613B690023FB603D
:1040B000484B1B6B474A43F001031363454B1B6B93
:1040C00003F00103FB60FB680023BB60414B5B6CAA
:1040D000404A43F4805353643E4B5B6C03F480537B
:1040E000BB60BB6804237B610123BB610123FB61CF
:1040F00000233B6200237B6207F114031946364814
:1041000009F008FD00220421334809F09FFE202316
:104110007B610223BB610223FB6103233B62052316
:104120007B6207F1140319462C4809F0F3FC402385
:104130007B610223BB610023FB6103233B620523F8
:104140007B6207F114031946244809F0E3FC80233D
:104150007B610223BB610023FB6103233B620523D8
:104160007B6207F1140319461C4809F0D3FC0123B4
:104170007B610123BB610123FB6103233B620023BD
:104180007B6207F114031946134809F0C3FC0122AE
:104190000121114809F05AFE10237B61104BBB61CD
:1041A0000023FB6103233B6200237B6207F11403BE
:1041B00019460A4809F0AEFC002203210A2009F042
:1041C00020FC0A2009F039FC00BF2837BD4680BD1D
:1041D000003001400038024000040240000002406C
:1041E0000000111080B58AB000AF78607B681B6852
:1041F000B3F1804F26D100233B61344B1B6C334A13
:1042000043F001031364314B1B6C03F001033B616A
:104210003B690F237B610223BB610223FB61022305
:104220003B6201237B6207F114031946284809F019
:1042300071FC002202211C2009F0E3FB1C2009F084
:10424000FCFB3FE07B681B68224A93421FD100239E
:10425000FB601E4B1B6C1D4A43F0040313641B4B95
:104260001B6C03F00403FB60FB684FF470737B610D
:104270000223BB610023FB6100233B6202237B62BC
:1042800007F114031946144809F044FC1AE07B684E
:104290001B68124A934215D10023BB600B4B5B6C29
:1042A0000A4A43F480335364084B5B6C03F4803355
:1042B000BB60BB6800220321182009F0A2FB182074
:1042C00009F0BBFB00BF2837BD4680BD0038024067
:1042D000000002400008004000040240004001408D
:1042E00080B588B000AF78607B681B68164A93423F
:1042F00026D10023BB60154B5B6C144A43F01003BE
:104300005364124B5B6C03F01003BB60BB684FF44B
:10431000C063FB6002233B6101237B610323BB611C
:104320000723FB6107F10C031946094809F0F2FB6A
:1043300000220421252009F064FB252009F07DFBE3
:1043400000BF2037BD4680BD00100140003802404C
:104350000000024080B500AF08F0CAFF09F0B2FBD0
:1043600000BF80BD80B500AF02480BF085FD00BFE7
:1043700080BD00BF840D002080B500AF02480BF067
:104380007BFD00BF80BD00BF3C0E002080B500AFAC
:1043900002480BF0ADFA00BF80BD00BFE40D002065
:1043A00080B500AF02480BF0A3FA00BF80BD00BF8C
:1043B000EC09002080B500AF02480CF02BFE00BFD6
:1043C00080BD00BFF00C002080B500AF024809F0AE
:1043D0006FFD00BF80BD00BF1811002080B500AF89
:1043E000102009F04DFD00BF80BD80B483B000AF48
:1043F000786039607B683A685A607B6800229A600E
:104400007B680022DA607B6800221A6100BF0C37EB
:10441000BD465DF8047B704780B582B000AF786020
:1044200008F074FF02467B685B681A447B681A6078
:104430007B6801229A6000BF0837BD4680BD80B509
:1044400084B000AF78607B689B68002B14D008F0C4
:104450005DFF02467B681B689A420DD37B681B692F
:104460005A1C7B681A617B681B68FB607B685A6812
:10447000FB681A447B681A6000BF1037BD4680BDD8
:1044800080B500AF0248FFF7DAFF00BF80BD00BF74
:104490000411002080B582B000AF78607B68D3F84B
:1044A000EC237B6803F56F73194610460FF0B6F8DE
:1044B00000BF0837BD4680BD80B582B000AF7860D0
:1044C0000B46FB707B68D3F8EC03FA7879681346E7
:1044D000DB009B1A9B000B4403F501731A68FB7801
:1044E00019460FF0E8F800BF0837BD4680BD80B51B
:1044F00082B000AF78600B46FB707B68D3F8EC03AA
:10450000FA7879681346DB009B1A9B000B4444330E
:104510001A68FB7819460FF029F900BF0837BD4625
:1045200080BD80B582B000AF78607B68D3F8EC3393
:1045300018460FF00FFA00BF0837BD4680BD80B5A2
:1045400084B000AF78600123FB737B68DB68002BCD
:1045500002D0022B03D005E00023FB7305E001230A
:10456000FB7302E00123FB7300BF7B68D3F8EC33DD
:10457000FA7B114618460FF0B7F97B68D3F8EC3395
:1045800018460FF082F900BF1037BD4680BD00000D
:1045900080B582B000AF78607B68D3F8EC33184602
:1045A0000FF0B2F97B681B6803F560631B687A68DB
:1045B000126802F5606243F0010313607B681B6AB6
:1045C000002B05D0044B1B69034A43F0060313611B
:1045D00000BF0837BD4680BD00ED00E080B582B069
:1045E00000AF78607B68D3F8EC3318460FF0A1F980
:1045F00000BF0837BD4680BD80B582B000AF78608F
:104600000B46FB707B68D3F8EC33FA7811461846FA
:104610000FF0C7F900BF0837BD4680BD80B582B036
:1046200000AF78600B46FB707B68D3F8EC33FA7808
:10463000114618460FF0A8F900BF0837BD4680BDE7
:1046400080B582B000AF78607B68D3F8EC33184651
:104650000FF0B4F900BF0837BD4680BD80B582B009
:1046600000AF78607B68D3F8EC3318460FF0B1F9EF
:1046700000BF0837BD4680BD80B582B000AF78600E
:10468000084611461A460346FB700B46BB7013469C
:104690003B807B68D3F82002BB783A88F9780AF02F
:1046A000A6F8002318460837BD4680BD80B582B005
:1046B00000AF78600B46FB707B68D3F82032FA7845
:1046C000114618460AF0ACF9002318460837BD46D3
:1046D00080BD80B582B000AF78600B46FB707B6810
:1046E000D3F82032FA78114618460AF0F4F900237C
:1046F00018460837BD4680BD80B485B000AF7860ED
:104700000B46FB707B68D3F82032FB6097F90330CF
:10471000002B0BDAFB7803F07F02F9681346DB000D
:104720009B1A9B000B443A331B780BE0FB7803F099
:104730007F02F9681346DB009B1A9B000B4403F5CC
:10474000FD731B7818461437BD465DF8047B70472F
:1047500080B582B000AF78600B46FB707B68D3F801
:104760002032FA78114618460AF020F8002318463D
:104770000837BD4680BD80B584B000AFF8607A6070
:104780001A460B46FB7213463B81FB68D3F82002A6
:104790003B89F97A7A680AF0EBF80023184610375B
:1047A000BD4680BD80B584B000AFF8607A601A461F
:1047B0000B46FB7213463B81FB68D3F820023B8912
:1047C000F97A7A680AF07BF8002318461037BD465C
:1047D00080BD0000DFF834D0002103E00C4B5B58B3
:1047E000435004310B480C4B42189A42F6D30B4A03
:1047F00002E0002342F8043B094B9A42F9D301F04E
:104800003FFB0FF06DFDFDF7EFF970470000012051
:1048100088850108000000206C0400206C04002042
:1048200090150020FEE7000080B58AB000AF034677
:10483000FB71FB79002B0DD100233B611A4B1B6BE5
:10484000194A43F002031363174B1B6B03F0020377
:104850003B613B69FB79012B0DD10023FB60124BBF
:104860001B6B114A43F0020313630F4B1B6B03F0E6
:104870000203FB60FB68FB790C4A52F823307B6132
:104880000123BB610023FB6102233B62FB79084AE1
:1048900052F8233007F114021146184609F03AF98C
:1048A00000BF2837BD4680BD00380240A480010803
:1048B0001C00002080B582B000AF0346FB71FB797D
:1048C000074A52F82300FB79064A52F823309BB27C
:1048D0000122194609F0BAFA00BF0837BD4680BD6B
:1048E0001C000020A480010880B588B000AF3E48BD
:1048F0000BF0E0F80346002B71D10023BB603B4B6B
:104900001B6C3A4A43F480431364384B1B6C03F42A
:104910008043BB60BB6800237B60344B1B6B334A16
:1049200043F002031363314B1B6B03F002037B6004
:104930007B684FF40043FB6002233B6100237B61F3
:104940000323BB610523FB6107F10C0319462848CB
:1049500009F0E0F84FF40053FB6000237B6107F19E
:104960000C031946224809F0D5F81F4B214A1A605A
:104970001D4B4FF482725A601B4B4FF400429A60F9
:10498000194B0022DA60184B02221A61164B0122E1
:104990005A61154B4FF400729A61134B1822DA6179
:1049A000114B00221A62104B00225A620E4B002259
:1049B0009A620D4B0722DA620B480AF095FD0A4B0A
:1049C0001B681A68084B1B6842F480421A60064B49
:1049D0001B681A68044B1B6842F040021A600023EF
:1049E00018462037BD4680BD1C0500200038024017
:1049F000000402400038004080B588B000AF0122BA
:104A00004FF48071384809F021FA01224FF4005127
:104A1000364809F01BFA01224FF48051344809F05E
:104A200015FA0323BB6100237B6101233B61002353
:104A3000BB60304B1B6B2F4A43F0010313632D4BBC
:104A40001B6B03F00103BB60BB684FF48073FB601A
:104A500007F10C031946244809F05CF801224FF4D1
:104A60008071214809F0F2F900237B60214B1B6B18
:104A7000204A43F0020313631E4B1B6B03F0020337
:104A80007B607B684FF48053FB6007F10C03194691
:104A9000174809F03FF801224FF48051144809F0FB
:104AA000D5F900233B60134B1B6B124A43F0040300
:104AB0001363104B1B6B03F004033B603B684FF424
:104AC0000053FB6007F10C031946084809F022F86F
:104AD00001224FF40051054809F0B8F900231846A7
:104AE0002037BD4680BD00BF0000024000080240E4
:104AF000000402400038024080B58CB000AF7860FE
:104B00007B68FB6203237B6200233B620123FB6122
:104B1000FB6ADB78022B42D0022B5EDC002B02D03A
:104B2000012B1ED059E000237B612F4B1B6B2E4ABB
:104B300043F0010313632C4B1B6B03F001037B61F8
:104B40007B694FF48073BB6101224FF48071274869
:104B500009F07CF907F118031946244808F0DAFF38
:104B60003DE000233B61204B1B6B1F4A43F00203D7
:104B700013631D4B1B6B03F002033B613B694FF456
:104B80008053BB6101224FF48051194809F05EF94E
:104B900007F118031946164808F0BCFF1FE0002370
:104BA000FB60114B1B6B104A43F0040313630E4B65
:104BB0001B6B03F00403FB60FB684FF40053BB6105
:104BC00001224FF400510B4809F040F907F1180396
:104BD0001946084808F09EFF01E0032300E0002387
:104BE00018463037BD4680BD003802400000024004
:104BF000000402400008024080B584B000AFF860B5
:104C00007A601A460B46FB7213463B813B89F97A60
:104C10007A68F86800F040F8034618461037BD4639
:104C200080BD80B586B000AFF8607A601A460B464A
:104C3000FB7213463B81FB687B617B695B78002BD1
:104C40000AD13B89012B07D97B691B78BC2B03D187
:104C5000FB7A63F07F03FB727B695B78012B16D1D3
:104C60003B89012B0AD97B691B78332B01D0402B60
:104C700005E0FB7A43F04003FB7200E000BF3B8994
:104C8000F97A7A68F86800F037F8034600E0012303
:104C900018461837BD4680BD80B586B000AFF860B5
:104CA0007A601A460B46FB7213463B81F86800F0A7
:104CB00071F8FB7A19460F4800F0ECF90023FB75F8
:104CC0000AE0FB7D7A6813441B781946094800F016
:104CD000E1F9FB7D0133FB75FB7D9BB23A899A427A
:104CE000EFD8F86800F088F8002318461837BD465A
:104CF00080BD00BF1C05002080B584B000AFF86007
:104D00007A601A460B46FB7213463B81F86800F046
:104D100041F8FB7A63F07F03DBB219461C4800F0D0
:104D2000B9F91B4B1B681A68194B1B6822F040022B
:104D30001A60174B1B681A68154B1B6822F48042D7
:104D40001A603B89012B06D93B891A4679681048BD
:104D500000F049F903E079680D4800F087F8F86839
:104D600000F04AF80A4B1B681A68094B1B6842F4AA
:104D700080421A60064B1B681A68054B1B6842F09C
:104D800040021A60002318461037BD4680BD00BFA0
:104D90001C05002080B584B000AF78607B68FB60A4
:104DA000FB68DB78022B14D0022B19DC002B02D01D
:104DB000012B07D014E000224FF480710B4809F05A
:104DC00045F80DE000224FF48051094809F03EF803
:104DD00006E000224FF40051064809F037F800BF02
:104DE000002318461037BD4680BD00BF00000240BA
:104DF000000402400008024080B584B000AF786033
:104E00007B68FB60FB68DB78022B14D0022B19DC7B
:104E1000002B02D0012B07D014E001224FF4807147
:104E20000B4809F013F80DE001224FF480510948B6
:104E300009F00CF806E001224FF40051064809F091
:104E400005F800BF002318461037BD4680BD00BFDF
:104E500000000240000402400008024080B400AF9D
:104E600000231846BD465DF8047B704780B483B0CC
:104E700000AF7860396072B600BF7B681B681A6843
:104E80007B681B6842F040021A60BFF34F8FBFF38C
:104E90004F8FBFF34F8FBFF34F8FBFF34F8FBFF3D2
:104EA0004F8FBFF34F8FBFF34F8FBFF34F8FBFF3C2
:104EB0004F8FBFF34F8FBFF34F8FBFF34F8FBFF3B2
:104EC0004F8FBFF34F8FBFF34F8FBFF34F8FBFF3A2
:104ED0004F8FBFF34F8FBFF34F8FBFF34F8FBFF392
:104EE0004F8FBFF34F8FBFF34F8FBFF34F8FBFF382
:104EF0004F8FBFF34F8FBFF34F8FBFF34F8FBFF372
:104F00004F8FBFF34F8FBFF34F8FBFF34F8FBFF361
:104F10004F8FBFF34F8FBFF34F8FBFF34F8FBFF351
:104F20004F8FBFF34F8FBFF34F8FBFF34F8FBFF341
:104F30004F8FBFF34F8FBFF34F8FBFF34F8FBFF331
:104F40004F8FBFF34F8FBFF34F8FBFF34F8FBFF321
:104F50004F8FBFF34F8FBFF34F8FBFF34F8FBFF311
:104F60004F8FBFF34F8FBFF34F8FBFF34F8FBFF301
:104F70004F8FBFF34F8FBFF34F8FBFF34F8FBFF3F1
:104F80004F8FBFF34F8FBFF34F8FBFF34F8FBFF3E1
:104F90004F8FBFF34F8F7B681B681A687B681B6855
:104FA00022F040021A6062B600BF00BF7B681B6837
:104FB0009B6803F00103012BF8D17B681B680C335D
:104FC0001B78DAB23B681A7000BF7B681B689B686D
:104FD00003F08003802BF8D000BF00BF0C37BD4624
:104FE0005DF8047B704780B485B000AFF860B960AD
:104FF0001346FB8072B600BFFB681B681A68FB682B
:105000001B6842F040021A6013E0FB681B689B6853
:1050100003F00103002B0CD0FB681B680C331B78DA
:10502000DAB2BB681A70BB680133BB60FB88013B16
:10503000FB80FB88012BE8D8BFF34F8F00BFBFF385
:105040004F8F00BFFB681B681A68FB681B6822F063
:1050500040021A6062B600BF00BFFB681B689B6815
:1050600003F00103012BF8D1FB681B680C331B789C
:10507000DAB2BB681A7000BFFB681B689B6803F05C
:105080008003802BF8D000BF00BF1437BD465DF809
:10509000047B704780B483B000AF78600B46FB7030
:1050A00000BF7B681B689B6803F00203022BF8D1EA
:1050B0007B681B680C33FA781A7000BF7B681B682A
:1050C0009B6803F00203022BF8D100BF7B681B68CA
:1050D0009B6803F08003802BF8D000BF00BF0C3723
:1050E000BD465DF8047B704780B400AF00231846CE
:1050F000BD465DF8047B704780B582B000AF0346C3
:105100003960FB713B6800221A6097F90730002B69
:105110000FD0012B15D0386800F026F80346012B7C
:1051200017D1386800F0C0F80346012B11D10123D4
:1051300015E0386800F018F80346012B0BD1012365
:105140000DE0386800F0B0F80346012B05D10123CB
:1051500005E000BF02E000BF00E000BF00231846EA
:105160000837BD4680BD000080B584B000AF7860D0
:105170000023FB600C23FB72454B5B79012B01D1B3
:10518000012380E0FFF7B0FB0346012B01D101238F
:1051900079E03F4B6A221A703D4B01225A703C4B1A
:1051A000D6229A703A4B0022DA70394B00221A71DB
:1051B000374B00225A71364B00229A71344B012230
:1051C000DA71334B334A9A60314B334ADA60304BF1
:1051D000324A1A61324B334A1A602E4B304A1A60F7
:1051E0002C4B00225A607B68294A1A607B681B6836
:1051F0001846FFF781FC2B4B5B78002B0CD17B68AA
:10520000186807F10B0201231221FFF7F5FC034692
:10521000002B01D0012336E07B681B68DB68FB6054
:10522000FB681B68002B0BD17B681B6814220021D4
:1052300018460FF08FF87B6800221A60012322E0E5
:10524000FB681B687A681268104698470346012B72
:105250000BD17B681B681422002118460FF07AF8E6
:105260007B6800221A6001230DE07B681B68042123
:10527000184604F06AF80346002B01D1012302E02E
:10528000FFF7ECFD002318461037BD4680BD00BF78
:10529000740500209C050020F80100202801002052
:1052A000AC0500201015002080B584B000AF7860F8
:1052B0000023FB602F4B5B7E012B01D1012354E0C7
:1052C000FFF712FF0346012B01D101234DE0294BCB
:1052D00033221A75274B32229A75264B01221A76F1
:1052E000244B00225A76234B00229A76214B01222E
:1052F000DA76204B204ADA611E4B204A1A621D4B97
:1053000000225A621E4B1F4A9A601D4B0022DA602F
:105310007B681D4A1A607B681B68DB68FB60FB6862
:105320001B68002B0BD17B681B68142200211846D8
:105330000FF010F87B6800221A60012315E0FB686B
:105340001B687A681268104698470346012B0BD1F8
:105350007B681B681422002118460EF0FBFF7B6857
:1053600000221A60012300E0002318461037BD46D2
:1053700080BD00BF74050020A4050020D8000020D7
:105380009C050020B40500208805002080B584B06D
:1053900000AF78607B68FB600023BB60FB68002B7C
:1053A00001D1012312E0FB68DB68BB60BB689B682E
:1053B000002B01D1012309E0BB689B68F86898477E
:1053C0000346012B01D1012300E0002318461037CA
:1053D000BD4680BD80B584B000AF786039607B6821
:1053E000FB600023BB60FB68002B01D1012318E0A8
:1053F000FB68DB68BB603B68002B01D1012310E038
:10540000BB689B69002B01D101230AE0BB689B6943
:105410003968F86898470346012B01D1012300E061
:10542000002318461037BD4680BD80B584B000AF5C
:10543000786087ED000A7B68FB600023BB60FB6837
:10544000002B01D1012314E0FB68DB68BB60BB6863
:10545000DB6A002B01D101230BE0BB68DB6A97ED0F
:10546000000AF86898470346012B01D1012300E0A8
:10547000002318461037BD4680BD80B584B000AF0C
:1054800078600B46FB707B68FB600023BB60FB68A9
:10549000002B01D1012314E0FB68DB68BB60BB6813
:1054A0005B6B002B01D101230BE0BB685B6BFA78CF
:1054B0001146F86898470346012B01D1012300E00B
:1054C000002318461037BD4680BD80B586B000AFBA
:1054D000F8600B467A60FB72FB687B6100233B61DE
:1054E0007B69002B01D1012319E07B69DB683B61FB
:1054F0007B68002B01D1012311E03B695B6C002B21
:1055000001D101230BE03B695B6CF97A7A68786919
:1055100098470346012B01D1012300E000231846E0
:105520001837BD4680BD80B584B000AF78600B46AB
:10553000FB701346BB707B68FB600023BB60FB689D
:10554000002B01D1012314E0FB68DB68BB60BB6862
:105550009B6C002B01D101230BE0BB689B6CBA78DC
:10556000F978F86898470346012B01D1012300E040
:10557000002318461037BD4680BD80B582B000AF0D
:1055800003463960FB713B6800221A6097F90730C7
:10559000002B07D0386800F015F80346012B09D11D
:1055A00001230BE0386800F00DF80346012B03D10E
:1055B000012303E000BF00E000BF002318460837C6
:1055C000BD4680BD80B584B000AF78600023FB602D
:1055D0000C23FB72444B5B79012B01D101237EE04C
:1055E000FFF782F90346012B01D1012377E03E4BFF
:1055F0006A221A703C4B01225A703B4BD6229A7099
:10560000394B0022DA70384B00221A71364B0022D7
:105610005A71354B00229A71334B0122DA71324BA9
:10562000324A9A60304B324ADA602F4B00221A61BC
:10563000304B314A1A602D4B2E4A1A602B4B0022F8
:105640005A607B68284A1A607B681B681846FFF717
:1056500053FA294B1B78002B0CD17B68186807F193
:105660000B0201231221FFF7C7FA0346002B01D0DA
:10567000012334E07B681B68DB68FB60FB681B6808
:10568000002B0BD17B681B681422002118460EF0FA
:1056900061FE7B6800221A60012320E0FB681B6822
:1056A0007A681268104698470346012B0BD17B6835
:1056B0001B681422002118460EF04CFE7B68002265
:1056C0001A6001230BE07B681B680421184603F075
:1056D0003CFE0346002B01D1012300E000231846C5
:1056E0001037BD4680BD00BFB8050020CC050020A6
:1056F00048020020D40500201015002080B584B099
:1057000000AF78607B68FB600023BB60FB68002B08
:1057100001D1012312E0FB68DB68BB60BB689B68BA
:10572000002B01D1012309E0BB689B68F86898470A
:105730000346012B01D1012300E000231846103756
:10574000BD4680BD80B584B000AF786039607B68AD
:10575000FB600023BB60FB68002B01D1012318E034
:10576000FB68DB68BB603B68002B01D1012310E0C4
:10577000BB689B69002B01D101230AE0BB689B69D0
:105780003968F86898470346012B01D1012300E0EE
:10579000002318461037BD4680BD80B584B000AFE9
:1057A00078600B46FB701346BB707B68FB60002380
:1057B000BB60FB68002B01D1012314E0FB68DB68B0
:1057C000BB60BB689B6C002B01D101230BE0BB6865
:1057D0009B6CBA78F978F86898470346012B01D199
:1057E000012300E0002318461037BD4680BD80B578
:1057F00082B000AF03463960FB713B6800221A603B
:1058000097F90730002B07D0386800F015F80346E9
:10581000012B09D101230BE0386800F00DF8034695
:10582000012B03D1012303E000BF00E000BF0023F0
:1058300018460837BD4680BD80B584B000AF78609B
:105840000023FB602E4B5B79012B01D1012353E038
:105850002B4B40221A702A4B01225A70284B3C22B3
:105860009A70274B0122DA70254B00221A71244BC3
:1058700000225A71224B00229A71214B0022DA71C8
:105880001F4B204A9A601E4B1F4ADA601C4B0022B5
:105890001A611C4B1D4A1A601A4B00225A607B6821
:1058A000174A1A607B681B68DB68FB60FB681B6833
:1058B000002B0BD17B681B681422002118460EF0C8
:1058C00049FD7B6800221A60012315E0FB681B6814
:1058D0007A681268104698470346012B0BD17B6803
:1058E0001B681422002118460EF034FD7B6800224C
:1058F0001A60012300E0002318461037BD4680BD22
:10590000DC050020F005002028000020F80500201C
:1059100080B584B000AF78607B68FB600023BB601B
:10592000FB68002B01D1012312E0FB68DB68BB6040
:10593000BB689B68002B01D1012309E0BB689B6811
:10594000F86898470346012B01D1012300E00023AA
:1059500018461037BD4680BD80B584B000AF786072
:1059600039607B68FB600023BB60FB68002B01D1C2
:10597000012318E0FB68DB68BB603B68002B01D1AA
:10598000012310E0BB689B69002B01D101230AE0D1
:10599000BB689B693968F86898470346012B01D1B9
:1059A000012300E0002318461037BD4680BD80B5B6
:1059B00084B000AF78600B46FB701346BB707B6809
:1059C000FB600023BB60FB68002B01D1012314E0C6
:1059D000FB68DB68BB60BB681B6C002B01D101233B
:1059E0000BE0BB681B6CBA78F978F86898470346F7
:1059F000012B01D1012300E0002318461037BD46DA
:105A000080BD80B582B000AF03463960FB713B6852
:105A100000221A6097F90730002B07D0386800F091
:105A200015F80346012B09D101230BE0386800F07B
:105A30000DF80346012B03D1012303E000BF00E072
:105A400000BF002318460837BD4680BD80B584B02E
:105A500000AF78600023FB600123FB72524B5B793F
:105A6000012B01D101239BE0FEF73EFF0346012BF2
:105A700001D1012394E04C4BB1221A704A4B012210
:105A80005A70494BBA229A70474B0222DA70464B41
:105A900000221A71444B00225A71434B00229A7122
:105AA000414B0122DA71404B404A9A603E4B404ADA
:105AB000DA603D4B00221A613E4B3F4A1A603B4B75
:105AC0003C4A1A60394B00225A607B68364A1A6099
:105AD0007B681B681846FFF70FF8374B5B78002B85
