:020000040800F2
:10000000000001207D560008CD560008CD5600089E
:10001000CD560008CD560008CD560008000000005F
:10002000000000000000000000000000CD560008A5
:10003000CD56000800000000CD56000851520008BF
:10004000CD560008CD560008CD560008CD56000804
:10005000CD560008CD560008CD560008CD560008F4
:10006000CD560008CD560008D9520008CD560008DC
:10007000CD560008CD560008CD560008CD560008D4
:10008000CD560008CD560008CD56000800000000EF
:10009000000000000000000000000000CD56000835
:1000A00061520008CD560008CD560008CD56000814
:1000B00075520008CD560008CD560008CD560008F0
:1000C000CD560008CD560008CD56000889520008CC
:1000D0009D520008B1520008CD56000800000000F3
:1000E000CD560008CD560008CD560008000000008F
:1000F000000000000000000000000000CD560008D5
:1001000000000000CD560008CD560008CD5600086E
:1001100000000000000000000000000000000000DF
:10012000CD560008CD560008CD560008CD56000823
:10013000CD56000800000000000000000000000094
:10014000000000000000000000000000C552000890
:10015000CD560008CD560008CD560008CD560008F3
:10016000CD560008CD560008000000000000000039
:10017000000000000000000000000000000000007F
:1001800000000000CD560008000000000000000044
:04019000CD56000840
:1001A00010B5054C237833B9044B13B10448AFF3B1
:1001B00000800123237010BD6C04002000000000AB
:1001C000C492010808B5034B1BB103490348AFF3C0
:1001D000008008BD0000000070040020C4920108E7
:1001E000034613F8012B002AFBD1181A0138704777
:1001F00001F0FF01102A2BDB10F0070F08D010F8D8
:10020000013B013A8B422DD010F0070F42B3F6D1DB
:10021000F0B441EA012141EA014122F007047FF0F4
:1002200000070023F0E80256083C85EA010586EA4B
:10023000010685FA47F5A3FA87F586FA47F6A5FA87
:1002400087F68EB9EED1F0BC01F0FF0102F0070293
:1002500032B110F8013B013A83EA010313B1F8D13E
:100260000020704701387047002D06BF354603381F
:10027000073815F0010F07D1013015F4807F02BF58
:10028000013015F4C03F0130F0BC0138704700BFA9
:1002900081F0004102E000BF83F0004330B54FEA37
:1002A00041044FEA430594EA050F08BF90EA020FA4
:1002B0001FBF54EA000C55EA020C7FEA645C7FEA37
:1002C000655C00F0E2804FEA5454D4EB5555B8BF5A
:1002D0006D420CDD2C4480EA020281EA030382EACB
:1002E000000083EA010180EA020281EA0303362D5D
:1002F00088BF30BD11F0004F4FEA01314FF4801C30
:100300004CEA113102D0404261EB410113F0004F41
:100310004FEA03334CEA133302D0524263EB4303F8
:1003200094EA050F00F0A780A4F10104D5F1200E96
:100330000DDB02FA0EFC22FA05F2801841F10001F1
:1003400003FA0EF2801843FA05F359410EE0A5F1C5
:1003500020050EF1200E012A03FA0EFC28BF4CF0F6
:10036000020C43FA05F3C01851EBE37101F00045AC
:1003700007D54FF0000EDCF1000C7EEB00006EEBB9
:100380000101B1F5801F1BD3B1F5001F0CD3490843
:100390005FEA30004FEA3C0C04F101044FEA44529A
:1003A00012F5800F80F09A80BCF1004F08BF5FEA21
:1003B000500C50F1000041EB045141EA050130BD01
:1003C0005FEA4C0C404141EB0101013C28BFB1F513
:1003D000801FE9D291F0000F04BF01460020B1FA5E
:1003E00081F308BF2033A3F10B03B3F120020CDA31
:1003F0000C3208DD02F1140CC2F10C0201FA0CF00F
:1004000021FA02F10CE002F11402D8BFC2F1200C73
:1004100001FA02F120FA0CFCDCBF41EA0C01904029
:10042000E41AA2BF01EB0451294330BD6FEA040472
:100430001F3C1CDA0C340EDC04F11404C4F120025D
:1004400020FA04F001FA02F340EA030021FA04F36F
:1004500045EA030130BDC4F10C04C4F1200220FAC6
:1004600002F001FA04F340EA0300294630BD21FA04
:1004700004F0294630BD94F0000F83F4801306BFCA
:1004800081F480110134013D4EE77FEA645C18BFBE
:100490007FEA655C29D094EA050F08BF90EA020F55
:1004A00005D054EA000C04BF1946104630BD91EA4D
:1004B000030F1EBF0021002030BD5FEA545C05D150
:1004C0004000494128BF41F0004130BD14F580048F
:1004D0003CBF01F5801130BD01F0004545F0FE4103
:1004E00041F470014FF0000030BD7FEA645C1ABF38
:1004F000194610467FEA655C1CBF0B46024650EA6F
:10050000013406BF52EA033591EA030F41F400219A
:1005100030BD00BF90F0000F04BF0021704730B520
:100520004FF4806404F132044FF000054FF00001F5
:1005300050E700BF90F0000F04BF0021704730B5B6
:100540004FF4806404F1320410F0004548BF40428B
:100550004FF000013EE700BF42004FEAE2014FEAE0
:1005600031014FEA02701FBF12F07F4393F07F4FBB
:1005700081F06051704732F07F4208BF704793F0BE
:100580007F4F04BF41F40021704730B54FF46074D1
:1005900001F0004521F000411CE700BF50EA0102D4
:1005A00008BF704730B54FF000050AE050EA01027D
:1005B00008BF704730B511F0004502D5404261EBED
:1005C00041014FF4806404F132045FEA915C3FF42E
:1005D000D8AE4FF003025FEADC0C18BF03325FEACB
:1005E000DC0C18BF033202EBDC02C2F1200300FA7C
:1005F00003FC20FA02F001FA03FE40EA0E0021FAA1
:1006000002F11444BDE600BF70B54FF0FF0C4CF48E
:10061000E06C1CEA11541DBF1CEA135594EA0C0F40
:1006200095EA0C0F00F0DEF82C4481EA030621EA7B
:100630004C5123EA4C5350EA013518BF52EA0335B6
:1006400041F4801143F4801338D0A0FB02CE4FF068
:100650000005E1FB02E506F00042E0FB03E54FF098
:100660000006E1FB03569CF0000F18BF4EF0010E90
:10067000A4F1FF04B6F5007F64F5407404D25FEA8C
:100680004E0E6D4146EB060642EAC62141EA55513F
:100690004FEAC52040EA5E504FEACE2EB4F1FD0C81
:1006A00088BFBCF5E06F1ED8BEF1004F08BF5FEAFF
:1006B000500E50F1000041EB045170BD06F00046B1
:1006C00046EA010140EA020081EA0301B4EB5C045E
:1006D000C2BFD4EB0C0541EA045170BD41F4801156
:1006E0004FF0000E013C00F3AB8014F1360FDEBF7B
:1006F000002001F0004170BDC4F10004203C35DA57
:100700000C341BDC04F11404C4F1200500FA05F3D9
:1007100020FA04F001FA05F240EA020001F000427A
:1007200021F0004110EBD37021FA04F642EB0601F0
:100730005EEA430E08BF20EAD37070BDC4F10C041A
:10074000C4F1200500FA04F320FA05F001FA04F2DE
:1007500040EA020001F0004110EBD37041F10001CA
:100760005EEA430E08BF20EAD37070BDC4F12005D5
:1007700000FA05F24EEA020E20FA04F301FA05F23D
:1007800043EA020321FA04F001F0004121FA04F2E5
:1007900020EA020000EBD3705EEA430E08BF20EAB5
:1007A000D37070BD94F0000F0FD101F000464000EF
:1007B00041EB010111F4801F08BF013CF7D041EA71
:1007C000060195F0000F18BF704703F00046520075
:1007D00043EB030313F4801F08BF013DF7D043EA46
:1007E0000603704794EA0C0F0CEA135518BF95EAFC
:1007F0000C0F0CD050EA410618BF52EA4306D1D183
:1008000081EA030101F000414FF0000070BD50EAA1
:10081000410606BF1046194652EA430619D094EA2B
:100820000C0F02D150EA013613D195EA0C0F05D115
:1008300052EA03361CBF104619460AD181EA030169
:1008400001F0004141F0FE4141F470014FF0000021
:1008500070BD41F0FE4141F4780170BD70B54FF0BC
:10086000FF0C4CF4E06C1CEA11541DBF1CEA13553C
:1008700094EA0C0F95EA0C0F00F0A7F8A4EB05041E
:1008800081EA030E52EA03354FEA013100F0888015
:100890004FEA03334FF0805545EA131343EA1263DE
:1008A0004FEA022245EA111545EA10654FEA002693
:1008B0000EF000419D4208BF964244F1FD0404F54C
:1008C000407402D25B084FEA3202B61A65EB0305A8
:1008D0005B084FEA32024FF480104FF4002CB6EB65
:1008E000020E75EB030E22BFB61A754640EA0C00E5
:1008F0005B084FEA3202B6EB020E75EB030E22BF25
:10090000B61A754640EA5C005B084FEA3202B6EB65
:10091000020E75EB030E22BFB61A754640EA9C0024
:100920005B084FEA3202B6EB020E75EB030E22BFF4
:10093000B61A754640EADC0055EA060E18D04FEAB2
:10094000051545EA16754FEA06164FEAC30343EA52
:1009500052734FEAC2025FEA1C1CC0D111F4801F1F
:100960000BD141EA00014FF000004FF0004CB6E718
:1009700011F4801F04BF01430020B4F1FD0C88BFB7
:10098000BCF5E06F3FF6AFAEB5EB030C04BFB6EBC2
:10099000020C5FEA500C50F1000041EB045170BDB5
:1009A0000EF0004E4EEA113114EB5C04C2BFD4EBE2
:1009B0000C0541EA045170BD41F480114FF0000E66
:1009C000013C90E645EA060E8DE60CEA135594EAE2
:1009D0000C0F08BF95EA0C0F3FF43BAF94EA0C0FE5
:1009E0000AD150EA01347FF434AF95EA0C0F7FF45A
:1009F00025AF104619462CE795EA0C0F06D152EAAE
:100A000003353FF4FDAE1046194622E750EA410691
:100A100018BF52EA43067FF4C5AE50EA41047FF4A2
:100A20000DAF52EA43057FF4EBAE12E74FF0FF3C07
:100A300006E000BF4FF0010C02E000BF4FF0010CD8
:100A40004DF804CD4FEA410C7FEA6C5C4FEA430C51
:100A500018BF7FEA6C5C1BD001B050EA410C0CBFA0
:100A600052EA430C91EA030F02BF90EA020F002002
:100A7000704710F1000F91EA030F58BF994208BF69
:100A800090422CBFD8176FEAE37040F00100704726
:100A90004FEA410C7FEA6C5C02D150EA013C07D17D
:100AA0004FEA430C7FEA6C5CD6D152EA033CD3D0C8
:100AB0005DF8040B704700BF8446104662468C46C2
:100AC0001946634600E000BF01B5FFF7B7FF0028F5
:100AD00048BF10F1000F01BD4DF808EDFFF7F4FF1E
:100AE0000CBF012000205DF808FB00BF4DF808EDA9
:100AF000FFF7EAFF34BF012000205DF808FB00BFCC
:100B00004DF808EDFFF7E0FF94BF012000205DF8ED
:100B100008FB00BF4DF808EDFFF7CEFF94BF0120A2
:100B200000205DF808FB00BF4DF808EDFFF7C4FF9B
:100B300034BF012000205DF808FB00BF4FEA410CE4
:100B40007FEA6C5C02D150EA013C0AD14FEA430CC7
:100B50007FEA6C5C02D152EA033C02D14FF0000004
:100B600070474FF0010070474FEA410212F5001242
:100B700015D211D56FF47873B3EB625212D94FEAE4
:100B8000C12343F0004343EA505311F0004F23FACE
:100B900002F018BF404270474FF00000704750EA23
:100BA000013005D111F0004008BF6FF000407047E0
:100BB0004FF00000704700BF4FEA4102B2F1E0433E
:100BC00024BFB3F5001CDCF1FE5C0DD901F0004C34
:100BD0004FEAC0024CEA5070B2F1004F40EB830084
:100BE00008BF20F00100704711F0804F21D113F1B0
:100BF0003872BCBF01F00040704741F480114FEAE9
:100C00005252C2F11802C2F1200C10FA0CF320FA71
:100C100002F018BF40F001004FEAC1234FEAD3238E
:100C200003FA0CFC40EA0C0023FA02F34FEA4303F8
:100C3000CCE77FEA625307D150EA01331EBF4FF081
:100C4000FE4040F44000704701F0004040F0FE409C
:100C500040F40000704700BF7BB972B90029BEBFE5
:100C600000204FF0004106E008BF00281CBF6FF0D5
:100C700000414FF0FF3000F0A1B9ADF1080C6DE973
:100C800004CE002909DB002B1ADB00F035F8DDF873
:100C900004E0DDE9022304B07047404261EB41010A
:100CA000002B1BDB00F028F8DDF804E0DDE902236F
:100CB00004B0404261EB4101524263EB4303704791
:100CC000524263EB430300F017F8DDF804E0DDE97E
:100CD000022304B0404261EB41017047524263EB92
:100CE000430300F009F8DDF804E0DDE9022304B075
:100CF000524263EB430370472DE9F047089D0446D9
:100D00008C46002B40F083808A42174647D9B2FABE
:100D100082F242B1C2F1200024FA00F091409740E3
:100D200040EA010C94404FEA1748230CBCFBF8F64C
:100D30001FFA87FE08FB16C143EA014306FB0EF1CA
:100D4000994209D9FB1806F1FF3080F019819942C8
:100D500040F21681023E3B445B1AA4B2B3FBF8F0AA
:100D600008FB103344EA034400FB0EFEA64509D9F4
:100D70003C1900F1FF3380F00581A64540F2028165
:100D800002383C4440EA0640A4EB0E0400261DB1A4
:100D9000D4400023C5E900433146BDE8F08702B9DD
:100DA000FFDEB2FA82F2002A50D1CB1B4FEA174E77
:100DB0001FFA87F80126B3FBFEFC210C0EFB1C3347
:100DC00041EA034108FB0CF38B4207D979180CF177
:100DD000FF3002D28B4200F2E9808446C91AA3B2E6
:100DE000B1FBFEF00EFB101143EA014408FB00F8D2
:100DF000A04507D93C1900F1FF3302D2A04500F20B
:100E0000D9801846A4EB080440EA0C40BFE78B42A7
:100E100009D9002D00F0B1800026C5E90001304657
:100E20003146BDE8F087B3FA83F6002E4AD18B42F3
:100E300002D3824200F2B880841A61EB03010120E0
:100E40008C46002DA8D0C5E9004CA5E7C2F12003CF
:100E500020FA03F6974001FA02F04FEA174ED94004
:100E60003043030CB1FBFEF61FFA87F80EFB161198
:100E700043EA014306FB08F1994204FA02F409D956
:100E8000FB1806F1FF3C80F08D80994240F28A8089
:100E9000023E3B445B1A81B2B3FBFEF00EFB103303
:100EA00041EA034100FB08F38B4207D9791800F1AE
:100EB000FF3C73D28B4271D902383944CB1A40EAD5
:100EC000064678E7C6F1200C03FA06F422FA0CF382
:100ED0001C4320FA0CF701FA06F34FEA144E21FAEC
:100EE0000CF11F433B0CB1FBFEF91FFA84F80EFB1B
:100EF000191143EA014109FB08FA8A4502FA06F290
:100F000000FA06F308D9611809F1FF3048D28A4582
:100F100046D9A9F102092144A1EB0A01BFB2B1FBF4
:100F2000FEF00EFB101147EA014700FB08F8B84538
:100F300007D9E71900F1FF312ED2B8452CD9023874
:100F4000274440EA0940A7EB0807A0FB02894F4568
:100F5000C64649461AD317D05DB1B3EB0E0267EB14
:100F6000010707FA0CFCF2404CEA0202F740C5E91F
:100F7000002700263146BDE8F0872E4628460BE7BD
:100F80000646E9E61846FDE64345E5D2B8EB020E13
:100F900069EB04010138DFE70846D2E760468DE7D8
:100FA0008146B9E7664675E730464AE7ACF1020C80
:100FB000394413E702383C4424E700BF704700BFC0
:100FC00080B59AB000AFF860B9607A60044BB3F9AD
:100FD0000030C72B0ADC034B034A1A6009E000BF4C
:100FE000BE1000204C09002000002041E14BE24AE5
:100FF0001A60FB681B687B66FB685B683B66FB6886
:101000009B68FB65BB68D3ED007A9FEDDC7A67EEE9
:10101000877AC7ED167ABB68D3ED017A9FEDD77A50
:1010200067EE877AC7ED157ABB68D3ED027A9FED3C
:10103000D37A67EE877AC7ED147AD14B93ED007AB5
:10104000CF4BD3ED007A67EE277AC7ED137ACC4BFE
:1010500093ED007ACB4BD3ED007A67EE277AC7ED9C
:10106000127AC74B93ED007AC74BD3ED007A67EE47
:10107000277AC7ED117AC34B93ED007AC14BD3EDBC
:10108000007A67EE277AC7ED107ABE4B93ED007AAF
:10109000BE4BD3ED007A67EE277AC7ED0F7ABA4BD5
:1010A00093ED007AB84BD3ED007A67EE277AC7ED5F
:1010B0000E7AB54B93ED007AB44BD3ED007A67EE20
:1010C000277AC7ED0D7AB14B93ED007AAF4BD3ED94
:1010D000007A67EE277AC7ED0C7AD7ED197A27EEFA
:1010E000A77AD7ED187A67EEA77A37EE277AD7ED89
:1010F000177A67EEA77A77EE277AB0EE670A00F0E4
:10110000E5F987ED0B0A97ED197AD7ED0B7A67EEC3
:10111000277AC7ED197A97ED187AD7ED0B7A67EE33
:10112000277AC7ED187A97ED177AD7ED0B7A67EE25
:10113000277AC7ED177A97ED0F7AD7ED117A77EE08
:10114000677A77EEA77AC7ED0A7A97ED127AD7ED2C
:101150000D7A77EE277A77EEA77AC7ED097A97EDC1
:10116000137AD7ED107A37EE677AD7ED0E7A77EEED
:10117000677A97ED0C7A77EE277AC7ED087A97EDC4
:10118000187AD7ED087A27EE277AD7ED176AD7EDC8
:10119000097A66EEA77A77EE677AC7ED077A97ED58
:1011A000177AD7ED0A7A27EE277AD7ED196AD7EDA5
:1011B000087A66EEA77A77EE677AC7ED067A97ED3A
:1011C000197AD7ED097A27EE277AD7ED186AD7ED85
:1011D0000A7A66EEA77A77EE677AC7ED057AD7EDD9
:1011E000077A9FED6B7A67EE877A9FED6A7A27EE32
:1011F000877A694BD3ED007A77EE277A664BC3ED99
:10120000007AD7ED067A9FED627A67EE877A9FEDD6
:10121000617A27EE877A614BD3ED007A77EE277AF1
:101220005E4BC3ED007AD7ED057A9FED597A67EEF4
:10123000877A9FED587A27EE877A594BD3ED007A5B
:1012400077EE277A564BC3ED007A4A4B93ED007A3E
:10125000D7ED077A27EE277AD7ED167A37EE277A79
:101260004D4BD3ED007A77EE277AC7ED167A414BD6
:1012700093ED007AD7ED067A27EE277AD7ED157A27
:1012800037EE277A454BD3ED007A77EE277AC7ED14
:10129000157A384B93ED007AD7ED057A27EE277A49
:1012A000D7ED147A37EE277A3D4BD3ED007A77EEFF
:1012B000277AC7ED147A3B4B3B61324BD3ED007A72
:1012C000B1EE677AD7ED167A27EE277A2E4BD3ED5B
:1012D000006AD7ED157A66EEA77A37EE677A2B4B60
:1012E000D3ED006AD7ED147A66EEA77A37EE677A07
:1012F000D7ED047A27EE277A214BD3ED007A77EEEB
:10130000277A1F4BC3ED007A1D4B93ED007AD7ED82
:10131000167A27EE277A1C4BD3ED006AD7ED147AA4
:1013200066EEA77A37EE277A184BD3ED006AD7ED31
:10133000157A66EEA77A37EE677AD7ED047A27EE4C
:10134000277A104BD3ED007A77EE277A0D4BC3ED59
:10135000007A0B4B93ED007AD7ED157A27EE277ABA
:10136000084BD3ED006AD7ED147A66EEA77A37EE14
:10137000677A19E04C090020CDCCCC3EA9689237A1
:1013800000000020880400208C040020900400202D
:10139000CDCCCC3DCDCCCC3B940400209804002097
:1013A0009C040020CDCC4C3B444BD3ED006AD7EDE0
:1013B000167A66EEA77A37EE277AD7ED047A27EE0B
:1013C000277A3F4BD3ED007A77EE277A3C4BC3ED7B
:1013D000007A3C4B93ED007AD7ED147A27EE277A0A
:1013E000394BD3ED006AD7ED157A66EEA77A37EE62
:1013F000277A334BD3ED006AD7ED167A66EEA77ADB
:1014000037EE677AD7ED047A27EE277A2B4BD3EDA8
:10141000007A77EE277A294BC3ED007A97ED137A9D
:10142000D7ED107A37EE277AD7ED0E7A37EE277A96
:10143000D7ED0C7A77EE277AB0EE670A00F046F81F
:1014400087ED0B0A1F4B93ED007AD7ED0B7A67EE11
:10145000277A1C4BC3ED007A1B4B93ED007AD7ED36
:101460000B7A67EE277A184BC3ED007A144B93ED95
:10147000007AD7ED0B7A67EE277A114BC3ED007A2D
:101480000E4B93ED007AD7ED0B7A67EE277A0B4B74
:10149000C3ED007A0B4B1A687B681A600A4B1A6816
:1014A0007B685A60064B1A687B689A60034B1A681F
:1014B0007B68DA6000BF6837BD4680BD90040020BD
:1014C0008C040020000000208804002080B487B035
:1014D00000AF87ED010AD7ED017AB6EE007A67EE2C
:1014E000877AC7ED057A7B683B6107F110031B68BB
:1014F000FB60FB685A10124B9B1AFB6007F10C0350
:101500001B683B6197ED047AD7ED057A27EE277AC1
:10151000D7ED047A67EE277AB7EE087A37EE677A66
:10152000D7ED047A67EE277AC7ED047A3B6907EEB8
:10153000903AB0EE670A1C37BD465DF8047B7047F1
:10154000DF59375F0FB480B5C2B000AF07F58A73BB
:10155000C7F800313846D7F80031D7F81021FE21FE
:1015600014F090FFC7F804013B46D7F80411184661
:1015700000F00AF8D7F80431184607F58477BD461D
:10158000BDE8804004B0704780B582B000AF78609D
:1015900039603B689AB24FF47A737968034810F067
:1015A0003AFD002318460837BD4680BD100D0020C7
:1015B0002DE9B04386B004AF314B4FF000021A6002
:1015C0002F4B4FF000025A602D4B4FF000029A60F3
:1015D0002C4B4FF000021A602A4B4FF000025A6069
:1015E000284B4FF000029A60274B4FF000021A6020
:1015F000254B4FF000025A60234B4FF000029A60D7
:10160000224B4FF000021A60204B4FF000025A604C
:101610001E4B4FF000029A601D4B00221A601C4BBB
:1016200000225A601A4B00229A601A4B00221A605C
:10163000184B00225A60174B00229A60164B00226A
:101640001A60154B00225A60134B4FF47A729A605D
:10165000124B00221A60114B00225A600F4B0022DD
:101660009A600F4B9B680F4A93600F4B4FF000023C
:101670001A600D4B4FF000025A600023FB80EDE032
:10168000D00B0020C4090020880B0020340C00205F
:10169000780D0020500D0020040D0020840D002046
:1016A00080100020E80D0020A40C0020B7F90620CF
:1016B000B54913465B0013449B000B444FF00002F6
:1016C0001A60B7F90620B04913465B0013449B002B
:1016D0000B4404334FF000021A60B7F90620AA4900
:1016E00013465B0013449B000B4408334FF0000289
:1016F0001A60B7F90620A54913465B0013449B0006
:101700000B444FF000021A60B7F906209F491346B8
:101710005B0013449B000B4404334FF000021A603B
:10172000B7F90620994913465B0013449B000B440C
:1017300008334FF000021A60B7F9062094491346A7
:101740005B0013449B000B444FF000021A60B7F992
:1017500006208F4913465B0013449B000B4404335F
:101760004FF000021A60B7F90620894913465B0062
:1017700013449B000B4408334FF000021A60B7F982
:101780000620844913465B0013449B000B444FF032
:1017900000021A60B7F906207E4913465B00134425
:1017A0009B000B4404334FF000021A60B7F9062087
:1017B000784913465B0013449B000B4408334FF0F9
:1017C00000021A60B7F90620734913465B00134400
:1017D0009B000B444FF000021A60B7F906206E49D7
:1017E00013465B0013449B000B4404334FF000028C
:1017F0001A60B7F90620684913465B0013449B0042
:101800000B4408334FF000021A60B7F90620634911
:1018100013465B0013449B000B444FF000021A6018
:10182000B7F906205D4913465B0013449B000B4447
:1018300004334FF000021A60B7F9062057491346E7
:101840005B0013449B000B4408334FF000021A6006
:10185000B7F906309BB201339BB2FB80B7F9063073
:10186000032B7FF723AF0CF08FFC00F053FB00F04D
:10187000E7FC00F0B7FB00F0F1FB00F043FC00F0E8
:1018800095FC00F0B9FC4648FFF75CFE002003F031
:101890001FFF012003F01CFF002003F079FF01204F
:1018A00003F076FF04F016F801F09AF901F0CEF992
:1018B00001F0E0FC01F0B0FE00213A480FF018FB07
:1018C000042138480FF014FB082136480FF010FBB4
:1018D0000C2134480FF00CFB33480FF0B9FA3348B1
:1018E00001F0CEFD3248FFF72DFE01F0EFF901F0D7
:1018F0002FFB3048FFF726FE2F4B1B682F49184659
:1019000005F00AF92E4B1B682E49184605F016FA09
:1019100001233B602C4B1B68002B04D02A4B002278
:101920001A6012F0ABFC294B1B78002B04D002F09C
:101930009BFD264B00221A70254B1B68012B40F0A3
:10194000B082234B00221A60224B1B680133214ACC
:101950001360214B4FF000021A601F4B4FF0000242
:101960005A601D4B4FF000029A601C4B4FF0000272
:101970001A601A4B4FF000025A60184B4FF00002E9
:101980009A600023FB80A1E044100020980E002004
:10199000D40C0020C80F0020040C0020500B0020A5
:1019A000E0920108D80A0020A40D0020C40C0020F9
:1019B000049301082C930108B8040020C00C0020F7
:1019C000BC040020E80B0020A00400201800002028
:1019D000D0040020E8040020F80B0020DC0B0020DD
:1019E000BF4B93ED007AB7F90620BE4913465B0062
:1019F00013449B000B44D3ED007A77EE277AB84B63
:101A0000C3ED007AB64B93ED017AB7F90620B549DC
:101A100013465B0013449B000B440433D3ED007A60
:101A200077EE277AAE4BC3ED017AAD4B93ED027A98
:101A3000B7F90620AB4913465B0013449B000B44E7
:101A40000833D3ED007A77EE277AA54BC3ED027AFF
:101A5000A54B93ED007AB7F90620A44913465B0025
:101A600013449B000B44D3ED007A77EE277A9E4B0C
:101A7000C3ED007A9C4B93ED017AB7F906209B49A0
:101A800013465B0013449B000B440433D3ED007AF0
:101A900077EE277A944BC3ED017A934B93ED027A5C
:101AA000B7F90620914913465B0013449B000B4491
:101AB0000833D3ED007A77EE277A8B4BC3ED027AA9
:101AC000B7F906309BB201339BB2FB80B7F9063001
:101AD000042B85DD824B1B681846FEF73DFD7EA377
:101AE000D3E90023FEF790FD02460B461046194647
:101AF000FFF762F803467A4A1360794B5B68184631
:101B0000FEF72AFD74A3D3E90023FEF77DFD02460C
:101B10000B4610461946FFF74FF80346704A5360CC
:101B20006F4B9B681846FEF717FD6BA3D3E90023A4
:101B3000FEF76AFD02460B4610461946FFF73CF8D1
:101B40000346674A9360684B1B681846FEF704FD1E
:101B500061A3D3E90023FEF757FD02460B4610466A
:101B60001946FFF729F803465F4A13605E4B5B682E
:101B70001846FEF7F1FC58A3D3E90023FEF744FD15
:101B800002460B4610461946FFF716F80346564A1A
:101B90005360554B9B681846FEF7DEFC4EA3D3E915
:101BA0000023FEF731FD02460B4610461946FFF7AB
:101BB00003F803464C4A9360494BD3ED007AFDEE9F
:101BC000E77A17EE902A4A4B1A60454BD3ED017A1B
:101BD000FDEEE77A17EE902A454B5A60404BD3ED65
:101BE000027AFDEEE77A17EE902A414B9A603E4B5F
:101BF000D3ED007AFDEEE77A17EE902A3D4B1A609E
:101C0000394BD3ED017AFDEEE77A17EE902A394B86
:101C10005A60354BD3ED027AFDEEE77A17EE902A43
:101C2000344B9A60344A30492D48FFF7C9F933499B
:101C3000314801F03FFC324B9B78803B9BB21A4607
:101C40001203D21AD2001A44520013449BB21AB2A1
:101C50002C4B1A802A4BDB789BB21A4652001A444E
:101C6000920013449BB21AB2274B1A80244B1B7963
:101C7000803B9BB21A461203D21AD2001A44520079
:101C800013449BB21AB2214B1A801D4B5B79803BE7
:101C90009BB21A4652001A44920013449BB21AB2E5
:101CA0001B4B1A80174BB3F900301946164BB3F98A
:101CB00000301A46154BB3F900301846144BB3F9EF
:101CC0000030009303461348FFF73CFC0B4B1B68A6
:101CD000184621E0AFF300809A9999999999C93FE4
:101CE000F80B0020140B0020DC0B0020940B0020CC
:101CF000980C0020EC0B0020A80900208010002088
:101D0000A404002012110020BE100020C0100020EA
:101D1000BC10002040930108FEF71EFC8046894657
:101D20006E4B5B681846FEF717FC04460D466B4B7E
:101D30009B681846FEF710FC02460B46CDE90223CD
:101D4000CDE9004542464B466548FFF7FBFB654839
:101D5000FFF7F8FB644BDB791AB2644B1A80634BD4
:101D6000B3F900309BB203F00403002B14BF01232E
:101D70000023DBB21A463B681340002B09D05C4BB2
:101D800001221A605B4B01221A60012003F0E6FC7D
:101D900005E0574B00221A60564B00221A60554B43
:101DA0001B68002B2BD0544BB3F9003007EE903A50
:101DB000F8EEE77A514BC3ED007A4F4BB3F90030A0
:101DC00007EE903AF8EEE77A4C4BC3ED017A4A4BB6
:101DD000B3F9003007EE903AF8EEE77A474BC3EDDF
:101DE000027A454BB3F9003007EE903AF8EEE77A05
:101DF000424BC3ED037A414801F098FA05E03F48B1
:101E000001F03EFB3D4801F091FA3D4B1B68002B71
:101E100009D03C4B01221A7001F0D8F801F008F902
:101E200001F01CFA11E0374B00221A70324B0022ED
:101E30001A802F4B00221A602E4B00221A600020BD
:101E400003F0A6FC012003F0A3FC274BDB7903F091
:101E50000203002B05D02C4B01221A60002003F056
:101E60007DFC274B1B68002B09D0264B01221A70E2
:101E700001F0ACF801F0DCF801F0F0F911E0214BD1
:101E800000221A701C4B00221A80194B00221A6083
:101E9000184B00221A60002003F07AFC012003F0A6
:101EA00077FC1A4B9B68002BBFF634AD104B002219
:101EB0001A60104B00221A6000233B600C4B1B6819
:101EC000DBB2184602F07EFA0C4801F0D9FA0B4852
:101ED00001F02CFA0E48FFF735FB1BE580100020BF
:101EE0006893010884930108A4040020440C002096
:101EF000C4040020CC040020BE100020C40C00202C
:101F0000F4040020C2100020C00400209C0900201E
:101F1000B093010880B594B000AF0023BB602E4B96
:101F20001B6C2D4A43F0805313642B4B1B6C03F046
:101F30008053BB60BB6800237B60284B1B6823F485
:101F40004043264A43F400431360244B1B6803F4C8
:101F500040437B607B6801233B624FF480337B62AC
:101F60000223BB634FF48003FB6310233B644FF4F5
:101F7000A8737B640423BB640723FB6407F120037D
:101F800018460DF06FFF0F23FB6002233B61002317
:101F90007B614FF48053BB610023FB6107F10C03AD
:101FA000022118460EF0B8F90EF048FB03460C4A21
:101FB000A2FB03239B0918460CF055FE04200CF0ED
:101FC0005FFE002200214FF0FF300CF014FE00BF36
:101FD0005037BD4680BD00BF003802400070004051
:101FE000D34D621080B584B000AF1A4B1A4A1A6004
:101FF000184B4FF480325A60164B00229A60154BF2
:1020000000221A61134B00229A61124B00221A62BD
:10201000104B0022DA620F4B0022DA600D4B0122D6
:10202000DA610C4B00221A630A4B01225A610948FB
:102030000CF022F909233B6001237B600023BB6085
:102040003B46194603480CF0C1FA00BF1037BD46A5
:1020500080BD00BF500C00200020014080B58AB038
:1020600000AF274B4FF080421A60254B14225A6074
:10207000234B00229A60224B47F6FF72DA60204B16
:1020800000221A611E480EF0B8FE4FF48053BB6167
:1020900007F1180319461A480FF0F2F918480EF024
:1020A0004FFF00233B6100237B6107F110031946BA
:1020B00013480FF00AFF0A233B6001237B600023D3
:1020C000BB600023FB603B46002219460C480FF022
:1020D00074F83B460422194609480FF06EF83B4657
:1020E0000822194606480FF068F83B460C221946AC
:1020F00003480FF062F800BF2837BD4680BD00BF1F
:102100005C0E002080B58EB000AF264B264A1A60C8
:10211000244B54225A60234B00229A60214B40F2F8
:10212000CF72DA601F4B00221A611E480EF065FE66
:102130004FF48053BB6207F12803194619480FF08A
:102140009FF918480EF09FFE00233B6200237B623C
:1021500007F12003194613480FF0B7FE60237B6098
:102160000023BB600023FB6000237B613B1D00223A
:1021700019460C480FF0BEF83B1D042219460948C9
:102180000FF0B8F83B1D0822194606480FF0B2F8C8
:102190003B1D0C22194603480FF0ACF800BF38373E
:1021A000BD4680BDD80A00200008004080B584B03C
:1021B00000AF0F4B0F4A1A600D4B33225A600C4B85
:1021C00000229A600A4B40F2CF72DA60084B00227C
:1021D0001A6107480EF011FE4FF480533B603B46F6
:1021E000194603480FF04CF900BF1037BD4680BDBB
:1021F000A40D00200040014080B500AF0E4B0F4AF7
:102200001A600D4B4FF4E1325A600B4B00229A607A
:10221000094B0022DA60084B00221A61064B0C229F
:102220005A61054B00229A61034B0022DA61024891
:102230000FF0A4FE00BF80BD100D00200010014073
:1022400080B588B000AF0023BB601D4B1B6B1C4AE0
:1022500043F0040313631A4B1B6B03F00403BB60CE
:10226000BB6800237B60164B1B6B154A43F00103D0
:102270001363134B1B6B03F001037B607B6800232C
:102280003B600F4B1B6B0E4A43F0020313630C4B76
:102290001B6B03F002033B603B683023FB601123A0
:1022A0003B6100237B610023BB6107F10C031946EE
:1022B00004480CF029FD00BF2037BD4680BD00BF9B
:1022C000003802400004024090B589B004AF786045
:1022D000A24B1B68002B40F0C480A14B1B6801334C
:1022E0009F4A13609E4B1B68B3F5487F40F3B9804B
:1022F0009C4B18689C4B19689C4B1A689C4B1B683C
:102300009C4C03949C4C02949C4C01949C4C0094D7
:1023100001F09AFA9B4B1A68994B1B681344994A2F
:102320001360984B5A68964B5B681344954A536008
:10233000944B9A68924B9B681344924A9360924BD9
:102340001A688E4B1B6813448F4A13608E4B5A6871
:102350008A4B5B6813448C4A53608B4B9A68874B5B
:102360009B681344884A93607D4B1B68B3F5C86F24
:1023700077DB844B1B6807EE903AF8EEE77A9FED27
:10238000837A67EE877AFDEEE77A17EE902A804B24
:102390001A607C4B5B6807EE903AF8EEE77A9FEDA7
:1023A0007B7A67EE877AFDEEE77A17EE902A784B14
:1023B0005A60744B9B6807EE903AF8EEE77A9FED0F
:1023C000737A67EE877AFDEEE77A17EE902A704B04
:1023D0009A606D4B1B6807EE903AF8EEE77A9FED36
:1023E0006B7A67EE877AFDEEE77A17EE902A694BF3
:1023F0001A60654B5B6807EE903AF8EEE77A9FED5E
:10240000637A67EE877AFDEEE77A17EE902A614BE2
:102410005A605D4B9B6807EE903AF8EEE77A9FEDC5
:102420005B7A67EE877AFDEEE77A17EE902A594BD2
:102430009A60544B00221A60524B00225A60514B52
:1024400000229A60504B00221A604F4B00225A60C3
:102450004D4B00229A60424B00221A603F4B0122F2
:102460001A603E4B1B68012B40F0A0834A4B1B684F
:102470000133494A1360494B1B680133474A1360D3
:10248000384B1868384B1968384B1A68384B1B683A
:10249000384C0394384C0294384C0194384C0094D6
:1024A00001F0D2F93E4B1B68012B40F0D580354B33
:1024B0001A68334B1B681344324A1360314B5A6815
:1024C0002F4B5B6813442F4A53602E4B9A682C4B5A
:1024D0009B6813442B4A93602B4B1A68274B1B684D
:1024E0001344294A1360284B5A68244B5B681344F1
:1024F000254A5360244B9A68204B9B681344224A18
:102500009360284B1B680133264A1360254B1B68D8
:10251000B3F5487FC0F2A0801A4B1B6807EE903AD3
:10252000F8EEE77A9FED197A67EE877AFDEEE77AA3
:1025300017EE902A164B1A60124B5B6807EE903A22
:10254000F8EEE77A9FED117A67EE877AFDEEE77A8B
:1025500017EE902A0E4B5A6026E000BFE0040020E0
:10256000E4040020AC040020B0040020B4040020E7
:10257000B8040020000E002074100020B40C0020CD
:102580009C090020780D0020500D00200AD7A33AA6
:10259000040D0020840D0020D4040020D804002065
:1025A000C0040020C8040020AE4B9B6807EE903AA0
:1025B000F8EEE77A9FEDAC7A67EE877AFDEEE77A80
:1025C00017EE902AA94B9A60A94B1B6807EE903A28
:1025D000F8EEE77A9FEDA47A67EE877AFDEEE77A68
:1025E00017EE902AA34B1A60A14B5B6807EE903A56
:1025F000F8EEE77A9FED9C7A67EE877AFDEEE77A50
:1026000017EE902A9B4B5A60994B9B6807EE903AC5
:10261000F8EEE77A9FED947A67EE877AFDEEE77A37
:1026200017EE902A934B9A608E4B00221A608D4BC6
:1026300000225A608B4B00229A608D4B00221A6058
:102640008B4B00225A608A4B00229A608A4B0022F0
:102650001A608A4B00221A60894B1A68834B1B68E8
:10266000D31A874A1360864B5A68804B5B68D31A2B
:10267000834A5360824B9A687C4B9B68A3F57A73BC
:10268000D31A7F4A93607F4B1A687A4B1B68D31A20
:102690007C4A13607B4B5A68764B5B68D31A794A45
:1026A0005360784B9A68734B9B68D31A754A936052
:1026B000734B1968744B1B685A1E07EE901AF8EE9C
:1026C000E77A724913465B0013449B000B44C3ED49
:1026D000007A6B4B59686C4B1B685A1E07EE901AB8
:1026E000F8EEE77A694913465B0013449B000B44FC
:1026F0000433C3ED007A624B9968634B1B685A1E22
:1027000007EE901AF8EEE77A604913465B0013442F
:102710009B000B440833C3ED007A5D4B93ED027AC6
:10272000584B1B6807EE903AF8EEE77A27EE277AC7
:10273000574BD3ED036A574BD3ED007A66EEA77A79
:1027400037EE277A524BD3ED046A524BD3ED037A1E
:1027500066EEA77A37EE277A4D4BD3ED006A4E4BE3
:10276000D3ED007A66EEA77A37EE277A484BD3EDA1
:10277000016A494BD3ED037A66EEA77A77EE277AA2
:10278000464BC3ED007A424B93ED027A3D4B5B68BA
:1027900007EE903AF8EEE77A27EE277A3C4BD3ED36
:1027A000036A3C4BD3ED017A66EEA77A37EE277ABF
:1027B000374BD3ED046A374BD3ED047A66EEA77A34
:1027C00037EE277A324BD3ED006A334BD3ED017AE3
:1027D00066EEA77A37EE277A2D4BD3ED016A2E4BA2
:1027E000D3ED047A66EEA77A77EE277A2B4BC3ED0A
:1027F000017A274B93ED027A224B9B6807EE903AC1
:10280000F8EEE77A27EE277A214BD3ED036A214BC6
:10281000D3ED027A66EEA77A37EE277A1C4BD3ED1A
:10282000046A1C4BD3ED057A66EEA77A37EE277A59
:10283000174BD3ED006A184BD3ED027A66EEA77AF8
:1028400037EE277A124BD3ED016A134BD3ED057A9D
:1028500066EEA77A77EE277A104BC3ED027A012352
:10286000FB608EE0780D00200AD7A33A040D00200B
:10287000500D0020840D0020C8040020C00400205A
:102880009C090020B40C0020D8040020D0090020AE
:1028900004000020C80F0020D40C0020880B00206A
:1028A000FB685A1E664913465B0013449B000B44A9
:1028B00019686348FA6813465B0013449B0003449D
:1028C0001960FB685A1E5E4913465B0013449B0067
:1028D0000B44043319685A48FA6813465B001344E2
:1028E0009B00034404331960FB685A1E5449134685
:1028F0005B0013449B000B44083319685048FA6886
:1029000013465B0013449B00034408331960FB68C3
:102910005A1E4C4913465B0013449B000B44196834
:102920004848FA6813465B0013449B00034419604F
:10293000FB685A1E434913465B0013449B000B443B
:10294000043319683F48FA6813465B0013449B0040
:10295000034404331960FB685A1E3A4913465B006E
:1029600013449B000B44083319683648FA68134631
:102970005B0013449B00034408331960FB68013B70
:10298000FB60FB68002B8BDC2F4B1B6807EE903A3B
:10299000F8EEE77A2A4BC3ED007A2B4B5B6807EE23
:1029A000903AF8EEE77A264BC3ED017A264B9B6806
:1029B00007EE903AF8EEE77A214BC3ED027A234B0B
:1029C0001B68204A1360214B5B681E4A53601F4BF3
:1029D0009B681C4A93601E4B1B685A1E1B4B196850
:1029E0001C4813465B0013449B0003441960184BBA
:1029F0001B685A1E154B5968164813465B00134452
:102A00009B00034404331960114B1B685A1E0F4B83
:102A10009968104813465B0013449B000344083335
:102A200019600B4B1B68052B40F08680084B002279
:102A30001A60094B01221A600023BB6079E000BFD5
:102A4000C80F0020D40C0020B40C0020880B0020FC
:102A5000D804002004100020D00400205549BA6892
:102A600013465B0013449B000B4419685248BA6834
:102A700013465B0013449B00034419604D49BA6838
:102A800013465B0013449B000B44043319684A4807
:102A9000BA6813465B0013449B0003440433196077
:102AA0004449BA6813465B0013449B000B44083347
:102AB00019684148BA6813465B0013449B000344FD
:102AC000083319603D49BA6813465B0013449B0004
:102AD0000B4419683A48BA6813465B0013449B00DC
:102AE000034419603549BA6813465B0013449B00E0
:102AF0000B44043319683248BA6813465B00134428
:102B00009B000344043319602C49BA6813465B00E8
:102B100013449B000B44083319682948BA681346CC
:102B20005B0013449B00034408331960BB68013306
:102B3000BB60BB68042B91DD224BD3ED007A9FED87
:102B4000227A67EE877A214BC3ED007A1D4BD3EDD5
:102B5000017A9FED1D7A67EE877A1C4BC3ED017AEF
:102B6000184BD3ED027A9FED187A67EE877A174BF0
:102B7000C3ED027A164B93ED027A144BD3ED027A31
:102B8000DFED146A67EEA67A77EE277A104BC3ED75
:102B9000027A114BB3F90030C72B07DC0F4B4FF013
:102BA00000029A600A4B4FF000029A6000BF14378F
:102BB000BD4690BDD0090020140B00200410002059
:102BC000940B0020880B0020A96892376C0D002020
:102BD000801000200AD7A33ABE100020E80D002084
:102BE00080B500AF1449002003F0F4F90346002B30
:102BF00000D0FEE71149002003F02DFC0346002B16
:102C000000D0FEE70E49002003F05FFD0346002BD5
:102C100000D0FEE70B49002003F061FE0346002BC5
:102C200000D0FEE70849002003F0A1FF0346002B77
:102C300000D0FEE700BF80BDAC040020B00400203F
:102C4000B4040020B8040020BC04002080B500AF0C
:102C5000144B1B68184603F007FB1348FEF772FC81
:102C6000124B1B68184603F0B7FC1148FEF76AFCCC
:102C7000104B1B68184603F0B9FD0F48FEF762FCC5
:102C80000E4B1B68184603F007FF0D48FEF75AFC71
:102C90000C4B1B68184604F02DF80B48FEF752FC4D
:102CA00000BF80BDAC040020BC930108B00400202C
:102CB000F4930108B404002028940108B80400200B
:102CC00058940108BC0400208C940108F0B58FB022
:102CD00008AF01237B610023FB7400233B82834800
:102CE000FEF730FC0BF070F8814B1B681B0EDAB25C
:102CF000804B1A70804B1B68DAB27E4B5A707F4B48
:102D00001B681B0ADAB27B4B9A707B4B1B681B0C4F
:102D1000DAB2784BDA70FB7C302B01D98C2200E0E0
:102D20002822744B1A71734BF9225A7111F05EFA12
:102D30000BF07CF87248FEF705FC07F1100207F172
:102D400013031146184611F003FA0346002B40F016
:102D5000BC800BF06BF86B48FEF7F4FB10F03CFF07
:102D600003467B617B69002B06D0674B01221A70FA
:102D70006648FEF7E7FBB2E0654B0193654B0093B5
:102D8000654B07220021012010F038FD03467B61CE
:102D90007B69002B03D06148FEF7D4FB9FE05548C8
:102DA00011F035FD78615E4A07F1080392E80300EF
:102DB00018600433198002330A0C1A70564B1888B5
:102DC000544B198807F1080300930723002211F0E0
:102DD00087F803467B615348FEF7B4FB0123039356
:102DE000514B0293002301931023009307230022E9
:102DF0000021012010F04DFE03467B617B69002B12
:102E000006D0414B01221A704848FEF79BFB66E052
:102E1000FB7C9C463B8A1B0A9BB29E463B8A1B0955
:102E20009BB203F00F02FB7C302B04D93B8A03F0EA
:102E30000F03603300E061232E49497908462D498C
:102E400009790C462B49C9780D462A4989780E46DE
:102E50002849497879602749097806917968059168
:102E600004960395029401900093134672466146BE
:102E70002F48FEF767FB0421012011F0F6F800F05F
:102E8000E3FD03467B617B69002B03D12948FEF7F4
:102E900059FB05E01C4B01221A702748FEF752FB34
:102EA00000F05CFD03467B617B69002B03D1234866
:102EB000FEF748FB05E0144B01221A702048FEF78C
:102EC00041FB2048FEF73EFB05E00F4B01221A7044
:102ED0001D48FEF737FB1D48FEF734FB03E00A4BA5
:102EE00001221A7000BF1C37BD46F0BDC494010812
:102EF000147AFF1F800B0020107AFF1F187AFF1F23
:102F0000E494010804950108DC04002020950108E0
:102F1000D40A00205C0D0020401000203C950108E0
:102F2000109701085095010840E2010074950108CE
:102F3000A495010804960108309601085C960108E2
:102F400088960108B4960108CC960108F09601080D
:102F500080B582B000AF00F025FF03467B607B6840
:102F6000002B03D11348FEF7EDFA02E01248FEF7FA
:102F7000E9FA00F069FD03467B607B68002B03D112
:102F80000E48FEF7DFFA02E00D48FEF7DBFA00F02C
:102F9000E5FC03467B607B68002B03D10948FEF704
:102FA000D1FA02E00848FEF7CDFA00BF0837BD4667
:102FB00080BD00BF189701084497010804960108D6
:102FC000309601085C9601088896010880B58AB0A1
:102FD00000AF134B1B68FB61114B5B683B62104BEE
:102FE0009B687B620F4B1B683B610E4B5B687B6190
:102FF0000C4B9B68BB610C4B1B687B600A4B5B688E
:10300000BB60094B9B68FB603A1D07F1100107F19B
:103010001C03184601F05CF800BF2837BD4680BD90
:103020009C090020B40C0020741000200000000057
:1030300080B586B000AF00233B610023FB820023F4
:10304000FB810023BB817A480BF05AF97949784813
:103050000BF02DFA0346002B33D175480BF0A9FA7B
:103060000346754A1360744B1B681846FDF752FA05
:103070006BA3D3E90023FDF7C7FA02460B461046BF
:10308000194669A3D3E90023FDF7E8FB02460B4686
:10309000104619464FF00002684BFDF7B5FA02469C
:1030A0000B46104619464FF00002654BFDF7D6FB64
:1030B00002460B4610461946FDF77EFD0346614A5F
:1030C00013605B480BF0C0F95F4BD3ED007AFDEE67
:1030D000E77A17EE903ABB605B4B93ED007ABB68E2
:1030E00007EE903AF8EEE77A77EE677A9FED577A37
:1030F00067EE877AFDEEE77A17EE903A7B60BB6861
:10310000642202FB03F37A6813443B614D4BD3ED19
:10311000007A9FED4F7A77EEC77A9FED4C7A27EED3
:10312000877ADFED4C6AC7EE267A464BC3ED007A0C
:10313000444BD3ED007AF5EEC07AF1EE10FA03D5E8
:10314000404B4FF000021A603E4BD3ED007AFDEE8B
:10315000E77A17EE903ABB603A4BD3ED007AFDEE7A
:10316000E77A17EE902ABB68D21A13469B001344E5
:103170005B007B60BB689BB21A46920013445B0005
:103180009AB27B689BB21344FB82FB8AB3F57A7FC9
:1031900002D94FF47A73FB822F4BD3ED007AFDEE08
:1031A000E77A17EE903ABB602B4B93ED007ABB6841
:1031B00007EE903AF8EEE77A77EE677AB2EE047AA5
:1031C00067EE877AFDEEE77A17EE903A7B60BB6890
:1031D0009BB21A46920013445B009AB27B689BB282
:1031E00013449BB2BB81FA1C3B461146184611F0B2
:1031F00045FB97F903309BB21A46920013445B00DB
:103200009BB2FB81B7F90E30B7F90C20F98A386907
:1032100001F020F800BF1837BD4680BDAFF3008035
:103220006666666666660A400000000000FEAF4003
:10323000500C002040420F00400C002000003E4097
:1032400000003440EC040020000E00200000C842C2
:10325000CDCC6C40F8FFFF3EE80B002080B500AFFE
:10326000034B1B68DBB2184601F0ACF800BF80BD11
:10327000C404002080B582B000AF284B1B689FEDCE
:10328000280A184603F03FF8244B1B680221184611
:1032900003F061F8214B1B680021184607F066F81F
:1032A0001E4B1B688021184607F0BAF81B4B1B68A1
:1032B0006021184607F087F8184B1B68FA1D10218B
:1032C000184603F070F8FB7923F00103DBB2FB71C1
:1032D000124B1B68FA791021184603F092F8114B33
:1032E0001B680121184607F014F80E4B1B686C226E
:1032F0001121184603F0BFF90B4B1B688C2260218B
:10330000184603F0C2FA084B1B68022261211846D6
:1033100003F0BBFA00BF0837BD4680BDAC040020F7
:103320000020D045B0040020B404002080B483B055
:1033300000AF78607B68D3ED007A9FED4F7AF4EEB2
:10334000C77AF1EE10FA05DB4C4B1B6840F26C7249
:103350005A6316E07B68D3ED007AF5EEC07AF1EEA1
:1033600010FA04D8454B1B6800225A6309E07B68B9
:10337000D3ED007A414B1B68FCEEE77A17EE902AFA
:103380005A637B68D3ED017A9FED3B7AF4EEC77AFE
:10339000F1EE10FA05DB394B1B6840F26C729A6350
:1033A00016E07B68D3ED017AF5EEC07AF1EE10FA03
:1033B00004D8324B1B6800229A6309E07B68D3ED86
:1033C000017A2E4B1B68FCEEE77A17EE902A9A637F
:1033D0007B68D3ED027A9FED287AF4EEC77AF1EE9E
:1033E00010FA05DB254B1B6840F26C72DA6316E0BD
:1033F0007B68D3ED027AF5EEC07AF1EE10FA04D8CC
:103400001E4B1B680022DA6309E07B68D3ED027A69
:103410001A4B1B68FCEEE77A17EE902ADA637B689A
:10342000D3ED037A9FED147AF4EEC77AF1EE10FA39
:1034300005DB124B1B6840F26C721A6416E07B6865
:10344000D3ED037AF5EEC07AF1EE10FA04D80B4B07
:103450001B6800221A6409E07B68D3ED037A074BEE
:103460001B68FCEEE77A17EE902A1A6400BF0C374F
:10347000BD465DF8047B70470080ED44D80A00200B
:1034800080B483B000AF78607B684FF000021A60B0
:103490007B684FF000025A607B684FF000029A6030
:1034A0007B684FF00002DA6000BF0C37BD465DF864
:1034B000047B7047B0B58EB000AF786039607B6830
:1034C00093ED007A7B68D3ED007A67EE277AC7ED3B
:1034D0000D7A7B6893ED017A7B68D3ED017A67EE14
:1034E000277AC7ED0C7A7B6893ED027A7B68D3ED7F
:1034F000027A67EE277AC7ED0B7A7B6893ED037A41
:103500007B68D3ED037A67EE277AC7ED0A7A7B688A
:10351000D3ED007A77EEA77AC7ED097A7B68D3ED11
:10352000017A77EEA77AC7ED087A7B68D3ED027A45
:1035300077EEA77AC7ED077A7B68D3ED037A97ED2C
:10354000087A67EE277AC7ED067A7B68D3ED027AB0
:1035500097ED097A67EE277AC7ED057A7B68D3ED98
:10356000017A97ED097A67EE277AC7ED047A7B68CE
:10357000D3ED037A97ED077A67EE277AC7ED037AE2
:1035800097ED047AD7ED037A77EE277A17EE900A53
:10359000FCF7E2FF04460D4697ED0D7AD7ED0A7A67
:1035A00037EE277AD7ED0C7A37EE677AD7ED0B7ABC
:1035B00077EE677A17EE900AFCF7CEFF02460B46CD
:1035C00043EC112B45EC104B15F0DCF853EC102BB1
:1035D00010461946FDF7F0FA02463B681A6097ED6F
:1035E000057AD7ED067A77EE677A17EE900AFCF740
:1035F000B3FF02460B4643EC102B15F089F853EC51
:10360000102B10461946FDF7D7FA02463B685A6060
:1036100000BF3837BD46B0BD80B500AF0E4B0022AD
:103620001A700E4B4FF47A721A600D4B00221A80FA
:103630000C4B00221A800C4B00221A800B4B0022EC
:103640001A8000F019F80A4B00221A60094800F0AD
:10365000CBF800BF80BD00BFC2100020901000203A
:10366000C0100020BC100020BE100020121100204D
:1036700094100020C810002080B483B000AF134B1A
:1036800000221A7000237B6016E0114A7B68134405
:1036900000221A700F4A7B68002142F823100E4A5C
:1036A0007B68002142F823100C4A7B68002142F815
:1036B00023107B6801337B607B68032BE5D900BF57
:1036C00000BF0C37BD465DF8047B7047C210002078
:1036D000981000209C10002014110020AC10002035
:1036E00080B582B000AF7860002000F023F800BF02
:1036F0000837BD4680BD000080B500AF01F014FE64
:103700000A4B1B68B3F57A7F04DA084B1B68013358
:10371000064A1360054B1B681E2B01DDFFF7ACFF4B
:10372000034B01221A7000BF80BD00BF9010002023
:10373000C210002080B483B000AF7860234BB3F98F
:103740000030002B14D1224BB3F9003013F5966FE3
:103750000EDA204BB3F90030B3F5966F08DD1E4B3F
:10376000B3F9003013F5966F02DA1C4B01221A6090
:10377000164BB3F90030002B22D1154BB3F90030B2
:1037800013F5966F1CDA134BB3F9003013F5966FEF
:1037900016DA114BB3F90030B3F5966F10DD104B0C
:1037A0001B68002B06D10E4B01221A600D4B012223
:1037B0001A6005E00A4B00221A600A4B00221A60C8
:1037C00000BF0C37BD465DF8047B7047BE1000207B
:1037D000BC100020C010002012110020C0040020E6
:1037E000C4040020CC04002080B485B000AF786011
:1037F0007B6800221A807B6800225A807B68102236
:103800009A807B680022DA807B6801221A8100237B
:10381000FB600FE07A68FB6802339B0013440022D0
:103820005A807A68FB689B00134400229A81FB68E7
:103830000133FB60FB680F2BECDD00BF00BF1437CA
:10384000BD465DF8047B704780B594B000AFF8606A
:10385000B9607A603B6007F140031946F86802F0EE
:1038600027FD3B6CFB617B6C3B62BB6C7B6207F1B1
:1038700034031946B86802F0D3FE7B6B3B61BB6B27
:103880007B61FB6BBB6107F128031946786802F086
:10389000D1FFBA6A3B6E1A60FA6A3B6E5A603A6BA5
:1038A0003B6E9A60796E386803F036F93B6A5A428B
:1038B000BB6D1A60FA69BB6D5A607A6ABB6D9A601B
:1038C0007B695A42FB6D1A603A69FB6D5A60BA69AE
:1038D000FB6D9A603B6E1B68FB643B6E5B685A42F3
:1038E0003B6E1A603B6EFA6C5A6000BF5037BD46A3
:1038F00080BD000090B587B002AF0446084611466F
:103900001A462346FB800346BB800B46FB701346DA
:10391000BB706423FB73104B1B68002B05DD0E4B43
:103920001B68013B0C4A136010E0BC78FA78B98838
:10393000F8883B6A0093234610F0D2FA0346FB73E3
:10394000FB7B002B02D0044B1E221A60FB7B184627
:103950001437BD4690BD00BF4005002080B58CB037
:1039600006AF1B233B71C5237B71D523BB71A523F8
:10397000FB7102233B7200237B72B423BB729A2338
:10398000FB72E1233B7311237B730F23BB73002373
:10399000FB7300233B7400237B740023BB74002360
:1039A000FB74391D264B009304230122022010F0E2
:1039B00036F90346FB75FB7D002B39D11B233B7188
:1039C000C5237B71D523BB71A523FB7102233B72F9
:1039D00000237B723623BB72AC23FB72E1233B7363
:1039E00011237B730F23BB730023FB7302233B74F0
:1039F00000237B740023BB740023FB74104B1888D6
:103A00003A1D104B059301230493102303930523C0
:103A1000029300230193142300931423022110F036
:103A20008AF90346FB75FB7D002B03D1002303E0DD
:103A300000BF00E000BF472318461837BD4680BDD1
:103A4000040500200605002080B58CB006AF1B23BE
:103A50003B71C5237B71D523BB71A523FB71022369
:103A60003B7200237B72B423BB729A23FB72E12367
:103A70003B7311237B730E23BB730023FB73002363
:103A80003B7400237B740023BB740023FB74391D3B
:103A9000434B009307230122022010F0C0F8034695
:103AA000FB75FB7D002B71D11B233B71C5237B7103
:103AB000D523BB71A523FB7102233B7200237B72CC
:103AC0003623BB72AC23FB72E1233B7311237B7360
:103AD0000E23BB730023FB7301233B7400237B7411
:103AE0000023BB740023FB742D4B18883A1D2D4B0B
:103AF00005930123049310230393052302930023CA
:103B000001931E2300931423022110F014F903469D
:103B1000FB75FB7D002B3BD11B233B71C5237B71C8
:103B2000D523BB71A523FB7102233B7200237B725B
:103B30003623BB72AC23FB72E1233B7311237B73EF
:103B40000E23BB730023FB7302233B7400237B749F
:103B50000023BB740023FB74114B18883A1D124BD1
:103B6000059301230493102303930423029300235A
:103B70000193122300931423022110F0DCF8034672
:103B8000FB75FB7D002B05D1002305E000BF02E0A3
:103B900000BF00E000BF472318461837BD4680BD70
:103BA000080500200A0500200C05002080B586B01D
:103BB00002AF78600B46FB700023FB732DE0FA78B0
:103BC000FB7BD31ABB73BB7B142B28BF1423BB73A3
:103BD000FB7B7A681344BA7B1946144811F0BAFE8D
:103BE000134ABB7B1370134B1888134B1988FB7B4C
:103BF0007A681344BA7B00931346002210F070F9E0
:103C000003467B737B7B002B01D047230AE00A200D
:103C10000AF012FBFB7B1433FB73FA7BFB789A42AE
:103C2000CDD3002318461037BD4680BD10050020B7
:103C300024050020080500200C05002080B586B072
:103C400002AF78600B46FB700023FB7330E0FA781C
:103C5000FB7BD31ABB73BB7B142B28BF1423BB7312
:103C6000FB7B7A681344BA7B1946164811F072FE42
:103C7000154ABB7B1370154B1888154B1988FB7BB5
:103C80007A681344BA7B00931346002210F028F997
:103C900003467B737B7B002B04D00E48FDF752FC60
:103CA00047230AE014200AF0C7FAFB7B1433FB73A6
:103CB000FA7BFB789A42CAD3002318461037BD46D8
:103CC00080BD00BF280500203C050020080500201D
:103CD0000A0500206C97010880B584B002AF0B4B39
:103CE00018880B4B19880B4B1B780B4A009200224B
:103CF00010F0F6F80346FB71FB79002B01D0472347
:103D000000E0002318460837BD4680BD08050020A6
:103D10000C050020240500201005002080B584B08B
:103D200002AF184B1888184B1988184B1B78184A83
:103D30000092002210F0D4F80346FB71FB79002BAF
:103D40001BD0144B1B685B0A03F00103DBB2002B92
:103D50000ED01149114812F037FB0346104A136088
:103D60000F4B1B68DBB219460C48FFF71FFF02E040
:103D70000948FDF7E7FB472300E000231846083712
:103D8000BD4680BD080500200A0500203C05002036
:103D900028050020F00400206C970108C80E0020C0
:103DA0008C10002080B58CB006AF05237B611B23EF
:103DB0003B70C5237B70D523BB70A523FB7002230A
:103DC0003B7100237B71B423BB719A23FB71E12308
:103DD0003B7211237B720123BB720023FB72002311
:103DE0003B7300237B730023BB730023FB737B694E
:103DF000DBB21A4652001344DBB20133DBB2394660
:103E0000AC4A0092012202200FF009FF0346FB7426
:103E1000FB7C002B40F03D811B233B70C5237B7056
:103E2000D523BB70A523FB7002233B7100237B715C
:103E30003623BB71AC23FB71E1233B7211237B72F0
:103E40000123BB720023FB7200233B7300237B73AF
:103E50000023BB730023FB73BB7B43F00503DBB282
:103E6000BB73954B1B780433DAB2934B1A70BB7B50
:103E700043F00803DBB2BB738F4B1B780233DAB21B
:103E80008D4B1A70BB7B43F01003DBB2BB738A4BC4
:103E90001B780433DAB2884B1A70864B18883A467E
:103EA000864B05930023049310230393042302936A
:103EB00000230193122300930C2302210FF03BFFF8
:103EC0000346FB74FB7C002B40F0E5801B233B701A
:103ED000C5237B70D523BB70A523FB7002233B71E8
:103EE00000237B713623BB71AC23FB71E1233B7252
:103EF00011237B720123BB720023FB7200233B73EF
:103F000000237B73E023BB730023FB73694B18888A
:103F10003A466B4B05930023049310230393042329
:103F200002930023019310230093142302210FF026
:103F300002FF0346FB74FB7C002B40F0AE801B238A
:103F40003B70C5237B70D523BB70A523FB70022378
:103F50003B7100237B713623BB71AC23FB71E123E2
:103F60003B7211237B720123BB720023FB7200237F
:103F70003B7304237B730023BB730023FB734D4B04
:103F800018883A464F4B059300230493102303935C
:103F9000042302930023019312230093042302219C
:103FA0000FF0C9FE0346FB74FB7C002B77D11B236B
:103FB0003B70C5237B70D523BB70A523FB70022308
:103FC0003B7100237B713623BB71AC23FB71E12372
:103FD0003B7211237B720123BB720023FB7200230F
:103FE0003B7300237B730023BB732023FB73314B94
:103FF00018883A46344B0593002304931023039307
:10400000042302930023019312230093032302212C
:104010000FF091FE0346FB74FB7C002B41D11B2368
:104020003B70C5237B70D523BB70A523FB70022397
:104030003B7100237B713623BB71AC23FB71E12301
:104040003B7211237B720123BB720023FB7200239E
:104050003B7380237B730023BB730023FB73154BDF
:1040600018883A46194B05930023049310230393B1
:1040700001230293002301930C23009307230221C1
:104080000FF059FE0346FB74FB7C002B0BD1002381
:104090000BE000BF08E000BF06E000BF04E000BF87
:1040A00002E000BF00E000BF472318461837BD46B6
:1040B00080BD00BFF804002019000020FA04002091
:1040C000FC040020FE040020000500200205002062
:1040D00080B58CB002AFF860B9607A600AF0A0F8E1
:1040E0000346DB08DBB23B740AF09AF80346DB0AAE
:1040F000DBB27B74FB681B68DBB2BB74FB681B68BC
:104100001B12DBB2FB74FB685B68DBB23B75FB68C0
:104110005B681B12DBB27B75FB689B68DBB2BB750F
:10412000FB689B681B12DBB2FB75BB681B68424ACD
:1041300082FB03125211DB17D21ABB681A60BB68EC
:104140005B683D4A82FB03125211DB17D21ABB682F
:104150005A60BB689B68384A82FB03125211DB1716
:10416000D21ABB689A60BB681B68DBB23B76BB683F
:104170001B681B12DBB27B76BB685B68DBB2BB766D
:10418000BB685B681B12DBB2FB76BB689B68DBB26B
:104190003B77BB689B681B12DBB27B777B681B6835
:1041A000DBB2BB777B681B681B12DBB2FB777B68DB
:1041B0005B68DBB287F820307B685B681B12DBB280
:1041C00087F821307B689B68DBB287F822307B68F8
:1041D0009B681B12DBB287F82330184B1888184BEA
:1041E000198807F11003009314230022FFF782FBC4
:1041F000034687F8273097F82730002B17D0114B4C
:104200001B685B0A03F00103DBB2002B0DD00E49E3
:104210000E4812F0D9F803460D4A13600C4B1B6888
:10422000DBB219460948FFF7C1FC472300E0002331
:1042300018462837BD4680BD1F85EB51F804002085
:10424000FC040020F0040020D8970108C80E0020CC
:104250008C10002080B58AB002AFF8600846114685
:104260001A4603467B810B463B811346FB8009F0CF
:10427000D7FF0346DB08DBB23B7409F0D1FF0346EE
:10428000DB0ADBB27B740223FB77FB7F07F11002B2
:104290001344FA68D2B21A70FB681912FB7F01331B
:1042A00007F110021344CAB21A70FB681914FB7F9D
:1042B000023307F110021344CAB21A70FB681916D0
:1042C000FB7F033307F110021344CAB21A70FB7F5D
:1042D0000433FB77FB7F07F1100213447A89D2B2D3
:1042E0001A707B891B0A99B2FB7F013307F1100218
:1042F0001344CAB21A70FB7F0233FB77FB7F07F1CE
:10430000100213443A89D2B21A70B7F908301B125E
:1043100019B2FB7F013307F110021344CAB21A70BD
:10432000FB7F0233FB77FB7F07F110021344FA880F
:10433000D2B21A70B7F906301B1219B2FB7F0133E3
:1043400007F110021344CAB21A70FB7F0233FB77E5
:10435000164B1888164B198807F1100300930C238D
:1043600000220FF0BDFD0346BB77BB7F002B17D0AB
:10437000104B1B685B0A03F00103DBB2002B0DD06E
:104380000D490E4812F020F803460D4A13600C4BFD
:104390001B68DBB219460948FFF708FC472300E019
:1043A000002318462037BD4680BD00BFF80400201A
:1043B000FA040020F0040020FC970108C80E002039
:1043C0008C10002080B586B002AF0346FB7109F067
:1043D00027FF0346DB08DBB23B7309F021FF0346EE
:1043E000DB0ADBB27B73FB79BB73184B1888184B65
:1043F000198807F10C030093032300220FF070FDCE
:104400000346FB73FB7B002B1BD0124B1B685B0A24
:1044100003F00103DBB2002B0ED00F490F4811F05F
:10442000D3FF03460E4A13600D4B1B68DBB21946DF
:104430000A48FFF7BBFB02E00A48FDF783F8472371
:1044400000E0002318461037BD4680BDF804002068
:1044500000050020F004002020980108C80E00206C
:104460008C10002040980108B0B592B008AF2E4AD9
:1044700007F1200392E8030083E803002B4B3C1D67
:104480001D460FCD0FC495E8070003C42280284BBA
:104490005B793B76264B1B797B76254BDB78BB76AD
:1044A000234B9B78FB76224B5B783B77204B1B782A
:1044B0007B773B7D43F02003DBB23B757B7D43F094
:1044C0000503DBB27B757B7D43F00803DBB27B75B4
:1044D0007B7D43F01003DBB27B75BB7D63F07F0314
:1044E000DBB2BB750021002010F050F900230693C9
:1044F00000230593002304930023039307F1200373
:10450000029308230193002300930123002200213A
:1045100000200FF0C3F93B1D19461A200FF00AFBCB
:1045200000BF2837BD46B0BD5C98010864980108FB
:10453000800B0020B0B586B004AF78600B467B805E
:104540001D4B01221A601D4A7B8813807B6805334E
:104550001B7818467B6804331B781C467B68033342
:104560001B781D467B6802331B781A467B68013333
:104570001B7819467B681B780293019100922B46A9
:10458000224601460E48FCF7DDFF0E4B00221A6062
:104590000D4B9B69002B01D000F0ACFC074B188839
:1045A0004FF4C873009300230A220A210FF08EFDF6
:1045B00000BF0837BD46B0BDF40400203E05002012
:1045C00080980108F00400202411002080B500AF7D
:1045D000094B00221A600948FCF7B4FF084B01227E
:1045E0001A70084B00221A60074B9B69002B01D000
:1045F00000F080FC00BF80BDF4040020A4980108F6
:1046000018000020F00400202411002080B58AB09A
:1046100000AF0346FB80FA883E4B1B8801339A4269
:1046200047D100237B6200237B8400233B8400234B
:10463000FB83394B1B69002B32D0374B1B6907F1C9
:1046400013021146184602F04BFA0346002B27D1FD
:10465000314B1B6907F10C021146184602F05CFA57
:10466000D7ED037AFDEEE77A17EE903ABB6197ED4E
:10467000037ABB6907EE903AF8EEE77A77EE677A4D
:104680009FED267A67EE877AFDEEE77A17EE903A8D
:104690007B61BB69642202FB03F37A6913447B628A
:1046A000B7F91E30B7F92020798C786AFFF7D2FD70
:1046B00023E0FA881A4B1B8801339A4206D1164B25
:1046C00093F828301846FFF77DFE16E0FA88154B60
:1046D0001B8801339A4210D0FA88134B1B88013390
:1046E0009A4202D1FFF7F8FA07E0FA880F4B1B88CD
:1046F00001339A4201D1FFF711FB0D4B1B88002BB0
:1047000004D00B4B1B8818460FF082FC00BF2837E3
:10471000BD4680BDFA040020241100200000C842DC
:1047200000050020FE0400200C0500200A050020E2
:104730003E05002080B584B000AF03463960FB80A1
:1047400013467B71FA887E4B1B8802339A4200F035
:10475000F380FA887B4B1B8802339A4216D13B6860
:104760001B78012B06D1784B1B6843F40073764A03
:104770001360E1E03B681B78002B40F0DD80724B5A
:104780001B6823F40073704A1360D5E0FA886F4BFE
:104790001B8802339A4216D13B681B78012B06D145
:1047A000694B1B6843F48073674A1360C4E03B683D
:1047B0001B78002B40F0C080634B1B6823F4807390
:1047C000614A1360B8E0FA88604B1B8801339A4253
:1047D00011D10123FB607B791946386800F0CCF8D1
:1047E000F860FB68002B00F0A7807B7919463868D9
:1047F000FFF724FAA0E0FA88554B1B8802339A424F
:104800004DD13B681B78012B0CD14F4B1B6843F0FB
:1048100002034D4A13604F4B93F828301846FFF7B8
:10482000D1FD09E03B681B78002B05D1464B1B6886
:1048300023F00203444A1360434B1B681B0A03F036
:104840000103DBB2002B1AD03F4B1B685B0803F05F
:104850000103DBB2002B01D03F4B00E03F4B1A4677
:104860003F49404811F0B0FD03463F4A13603E4BBC
:104870001B68DBB219463B48FFF7E0F95CE0324BBE
:104880001B685B0803F00103DBB2002B01D0324B45
:1048900000E0324B19463248FCF754FE4CE0FA88EF
:1048A000274B1B8801339A4205D17B79194638681A
:1048B00000F09AFA40E0FA882C4B1B8801339A42A8
:1048C00020D13B685A782A4B1A703B689A78284B5B
:1048D0005A703B68DA78264B9A703B681A79244BF9
:1048E000DA703B685A79224B1A713B689A79204BEF
:1048F0005A713B68DA791E4B9A713B681A7A1C4BE5
:10490000DA7119E0104B1B685B0A03F00103DBB29C
:10491000002B0ED01749134811F056FD0346124ADA
:104920001360114B1B68DBB219460E48FFF73EF9C6
:1049300002E01048FCF706FE00BF1037BD4680BD00
:10494000060500200C050020F00400200A050020C8
:104950000005002024110020BC980108C09801081F
:10496000C4980108C80E00208C1000200205002009
:10497000A4040020D4980108F0B59DB00CAF786174
:104980000B46FB740123FB637B691B783F2B0CBF39
:1049900001230023DAB27B6901331B783F2B0CBF64
:1049A00001230023DBB21340DBB2002B10D0002325
:1049B000FB636A496A4811F007FD0346694A1360C0
:1049C000684B1B68DBB219466548FFF737F95CE1B5
:1049D0007B691B78702B0CBF01230023DAB27B6943
:1049E00001331B78722B0CBF01230023DBB2134071
:1049F000DBB2002B02D00023FB6346E10922796978
:104A0000594811F001FD0346002B18D130230293C1
:104A10003123019331230093544B554A5549504853
:104A200011F0D2FC03464F4A13604E4B1B68DBB2B9
:104A300019464B48FFF702F90023FB6325E10422E6
:104A400079694D4811F0E0FC0346002B3ED100236C
:104A5000FB6330230193312300933123434A4749B9
:104A60003F4811F0B1FC03463E4A13603D4B1B68C2
:104A7000DBB219463A48FFF7E1F809F0F4FB0346C8
:104A80001D0E09F0F0FB03461B0CDEB209F0EBFB38
:104A900003461B0ADCB209F0E6FB0346DBB2384AE8
:104AA0000392384A02920193009433462A463649CB
:104AB0002B4811F089FC03462A4A1360294B1B68D6
:104AC000DBB219462648FFF7B9F8DEE0092279691A
:104AD0002E4811F099FC0346002B00F0D6800A22E4
:104AE00079692B4811F090FC0346002B58D107F14F
:104AF0002E0207F13103114618460FF029FB97F8F3
:104B00003130302B01D9234900E02349FB8D1B0AAA
:104B10009BB21846FB8D1B099BB203F00F0297F85E
:104B20003130302B04D9FB8D03F00F03603300E0EC
:104B300061230193009203460A461849084811F080
:104B400043FC0346074A1360064B1B68DBB2194659
:104B50000348FFF773F80023FB6396E0F49801081D
:104B6000C80E00208C100020609901086C99010883
:104B7000749901087C990108909901089899010895
:104B8000009A01080C9A0108C8990108189A0108AE
:104B9000249A0108309A0108389A01083C9A0108C1
:104BA0007B691B78752B0CBF01230023DAB27B696C
:104BB00001331B78692B0CBF01230023DBB21340A8
:104BC000DBB21A467B6902331B78642B0CBF0123CE
:104BD0000023DBB21340002B57D07E4BBB637E4BD0
:104BE0001B68C3F30B037B63BB6B03331B789C46CF
:104BF000BB6B02331B789E46BB6B01331B781A4696
:104C0000BB6B1B781946BB6B07331B781846BB6B15
:104C100006331B781C46BB6B05331B781D46BB6BEC
:104C200004331B781E46BB6B0B331B78FB60BB6BDE
:104C30000A331B78BB60BB6B09331B787B60BB6B93
:104C400008331B783B607B6B0A933B6809937B6856
:104C50000893BB680793FB68069305960495039435
:104C6000029001910092734662465C495C4811F0E3
:104C7000ABFB03465B4A13605A4B1B68DBB2194619
:104C80005748FEF7DBFF0023FB63FB6B002B00F0B4
:104C90009C807B691B78402B40F097807B690133B7
:104CA0001B78542B48D1082387F83230002387F82B
:104CB0002430042387F82530002387F8263000238A
:104CC00087F82730FF2387F828307B6902331B7869
:104CD000443B092B26D801A252F823F01D4D0008B1
:104CE000254D0008254D0008254D0008154D0008EC
:104CF000254D0008254D0008254D0008054D0008EC
:104D00000D4D0008322387F829300BE00A2387F87D
:104D1000293007E0012387F8293003E0002387F8D2
:104D2000293000BF97F8322007F1240311461846B6
:104D300000F05AF8F86348E07B6901331B78412B97
:104D400043D1082387F8333000233B7780237B77D8
:104D50000023BB770023FB77FF2387F820307B6994
:104D600002331B78443B092B26D801A252F823F0CA
:104D7000B14D0008B94D0008B94D0008B94D000803
:104D8000A94D0008B94D0008B94D0008B94D0008FB
:104D9000994D0008A14D0008322387F821300BE01F
:104DA0000A2387F8213007E0012387F8213003E048
:104DB000002387F8213000BF97F8332007F11C0348
:104DC0001146184600F010F8F863FB6B184644379C
:104DD000BD46F0BD107AFF1F002004E04C9A010888
:104DE000C80E00208C10002080B485B000AF786021
:104DF0000B46FB700123FB60FB6818461437BD4669
:104E00005DF8047B7047000080B58AB000AF786021
:104E10007B687B627B6A01333B627B6A1B78042B75
:104E20005DD13B6A1B78FF2B1FD0FF2B5CDC052B71
:104E300002D03E2B03D057E0FFF7C8FB54E03B6A9B
:104E40000233FB60FB681B78012B4AD1FB680133FE
:104E5000BB60BB685A1DBB68B3F801309BB21946F2
:104E60001046FFF767FB00BF3BE03B6A0233FB6184
:104E7000FB691B889BB240F6014293420DD040F67D
:104E8000144293422FD1FB690233BB61BB695B883B
:104E90009BB21846FFF7BAFB20E0154B93F8293078
:104EA000012B0DD1FB6902333B613B695B8898B2F2
:104EB0003B69D91D3B691B791A46FFF73BFC0CE0A7
:104EC000FB6902337B617B695B8898B27B69591D02
:104ED0007B691B791A46FFF72DFC00BF03E000BF7A
:104EE00002E000BF00E000BF2837BD4680BD00BF24
:104EF0002411002080B400AF00BFBD465DF8047BE4
:104F0000704780B500AF032009F06AFE002200213F
:104F10004FF0FF3009F06FFE00BF80BD80B588B054
:104F200000AF78607B681B68104A934219D1002358
:104F3000BB600F4B5B6C0E4A43F4807353640C4BA5
:104F40005B6C03F48073BB60BB680223FB600323CC
:104F50003B6100237B6107F10C031946054809F00A
:104F6000D3FE00BF2037BD4680BD00BF00200140FA
:104F7000003802400004024080B58AB000AF78607B
:104F80007B681B68514A934240F09C8000233B6140
:104F90004F4B1B6B4E4A43F0020313634C4B1B6B8E
:104FA00003F002033B613B690023FB60484B1B6B32
:104FB000474A43F001031363454B1B6B03F00103A6
:104FC000FB60FB680023BB60414B5B6C404A43F4D1
:104FD000805353643E4B5B6C03F48053BB60BB68EF
:104FE00004237B610123BB610123FB6100233B623E
:104FF00000237B6207F114031946364809F084FE4A
:105000000022042133480AF01BF820237B6102238D
:10501000BB610223FB6103233B6205237B6207F133
:10502000140319462C4809F06FFE40237B610223CC
:10503000BB610023FB6103233B6205237B6207F115
:1050400014031946244809F05FFE80237B61022384
:10505000BB610023FB6103233B6205237B6207F1F5
:10506000140319461C4809F04FFE01237B610123FC
:10507000BB610123FB6103233B6200237B6207F1D9
:1050800014031946134809F03FFE0122012111487B
:1050900009F0D6FF10237B61104BBB610023FB613D
:1050A00003233B6200237B6207F1140319460A487D
:1050B00009F02AFE002203210A2009F09CFD0A20A3
:1050C00009F0B5FD00BF2837BD4680BD0030014066
:1050D00000380240000402400000024000001110AD
:1050E00080B58AB000AF78607B681B68B3F1804FF1
:1050F00026D100233B61344B1B6C334A43F0010340
:105100001364314B1B6C03F001033B613B690F23BC
:105110007B610223BB610223FB6102233B6201230B
:105120007B6207F114031946284809F0EDFD0022BF
:1051300002211C2009F05FFD1C2009F078FD3FE0F2
:105140007B681B68224A93421FD10023FB601E4BE1
:105150001B6C1D4A43F0040313641B4B1B6C03F0D0
:105160000403FB60FB684FF470737B610223BB6137
:105170000023FB6100233B6202237B6207F11403DF
:105180001946144809F0C0FD1AE07B681B68124AF2
:10519000934215D10023BB600B4B5B6C0A4A43F46E
:1051A00080335364084B5B6C03F48033BB60BB6893
:1051B00000220321182009F01EFD182009F037FDF8
:1051C00000BF2837BD4680BD0038024000000240C5
:1051D00000080040000402400040014080B588B053
:1051E00000AF78607B681B68164A934226D1002383
:1051F000BB60154B5B6C144A43F010035364124BB5
:105200005B6C03F01003BB60BB684FF4C063FB60D2
:1052100002233B6101237B610323BB610723FB6105
:1052200007F10C031946094809F06EFD002204211C
:10523000252009F0E0FC252009F0F9FC00BF20370B
:10524000BD4680BD00100140003802400000024011
:1052500080B500AF08F0D6FF09F02EFD00BF80BD7D
:1052600080B500AF02480BF0A0FE00BF80BD00BFBC
:10527000A40D002080B500AF02480BF096FE00BFE1
:1052800080BD00BF5C0E002080B500AF02480BF06F
:1052900029FC00BF80BD00BF040E002080B500AF18
:1052A00002480BF01FFC00BF80BD00BF0C0A0020AD
:1052B00080B500AF02480CF047FF00BF80BD00BFC3
:1052C000100D002080B500AF024809F0EBFE00BFD2
:1052D00080BD00BF6411002080B500AF102009F030
:1052E000C9FE00BF80BD80B584B000AF78607B6828
:1052F0009B68002B14D008F093FF02467B681B6864
:105300009A420DD37B681B695A1C7B681A617B68C3
:105310001B68FB607B685A68FB681A447B681A60EC
:1053200000BF1037BD4680BD80B500AF0248FFF713
:10533000DAFF00BF80BD00BF5011002080B582B0F1
:1053400000AF78607B68D3F8EC237B6803F56F735C
:10535000194610460FF06FFC00BF0837BD4680BDF0
:1053600080B582B000AF78600B46FB707B68D3F8E5
:10537000EC03FA7879681346DB009B1A9B000B4418
:1053800003F501731A68FB7819460FF0A1FC00BF02
:105390000837BD4680BD80B582B000AF78600B464F
:1053A000FB707B68D3F8EC03FA7879681346DB006E
:1053B0009B1A9B000B4444331A68FB7819460FF084
:1053C000E2FC00BF0837BD4680BD80B582B000AFAB
:1053D00078607B68D3F8EC3318460FF0C8FD00BF47
:1053E0000837BD4680BD80B584B000AF786001232A
:1053F000FB737B68DB68002B02D0022B03D005E037
:105400000023FB7305E00123FB7302E00123FB7320
:1054100000BF7B68D3F8EC33FA7B114618460FF0D7
:1054200070FD7B68D3F8EC3318460FF03BFD00BFEE
:105430001037BD4680BD000080B582B000AF7860F7
:105440007B68D3F8EC3318460FF06BFD7B681B6864
:1054500003F560631B687A68126802F5606243F0C6
:10546000010313607B681B6A002B05D0044B1B698A
:10547000034A43F00603136100BF0837BD4680BDF1
:1054800000ED00E080B582B000AF78607B68D3F8B3
:10549000EC3318460FF05AFD00BF0837BD4680BDFB
:1054A00080B582B000AF78600B46FB707B68D3F8A4
:1054B000EC33FA78114618460FF080FD00BF08372C
:1054C000BD4680BD80B582B000AF78600B46FB70F2
:1054D0007B68D3F8EC33FA78114618460FF061FD7B
:1054E00000BF0837BD4680BD80B582B000AF786090
:1054F0007B68D3F8EC3318460FF06DFD00BF08371A
:10550000BD4680BD80B582B000AF78607B68D3F8BF
:10551000EC3318460FF06AFD00BF0837BD4680BD6A
:1055200080B582B000AF7860084611461A4603463F
:10553000FB700B46BB7013463B807B68D3F82002A0
:10554000BB783A88F9780AF04CFA002318460837F5
:10555000BD4680BD80B582B000AF78600B46FB7061
:105560007B68D3F82032FA78114618460AF052FBCD
:10557000002318460837BD4680BD80B582B000AF15
:1055800078600B46FB707B68D3F82032FA781146BE
:1055900018460AF09AFB002318460837BD4680BD1E
:1055A00080B485B000AF78600B46FB707B68D3F8A1
:1055B0002032FB6097F90330002B0BDAFB7803F005
:1055C0007F02F9681346DB009B1A9B000B443A33B9
:1055D0001B780BE0FB7803F07F02F9681346DB00D1
:1055E0009B1A9B000B4403F5FD731B781846143778
:1055F000BD465DF8047B704780B582B000AF78602F
:105600000B46FB707B68D3F82032FA7811461846B7
:105610000AF0C6F9002318460837BD4680BD80B59C
:1056200084B000AFF8607A601A460B46FB721346EE
:105630003B81FB68D3F820023B89F97A7A680AF04B
:1056400091FA002318461037BD4680BD80B584B05E
:1056500000AFF8607A601A460B46FB7213463B8136
:10566000FB68D3F820023B89F97A7A680AF021FABC
:10567000002318461037BD4680BD0000DFF834D047
:10568000002103E00C4B5B58435004310B480C4B9A
:1056900042189A42F6D30B4A02E0002342F8043B38
:1056A000094B9A42F9D301F075FB10F027F9FBF78B
:1056B0007FFF704700000120989F01080000002034
:1056C0006C0400206C040020DC150020FEE70000C4
:1056D00080B58AB000AF0346FB71FB79002B0DD17A
:1056E00000233B611A4B1B6B194A43F002031363FF
:1056F000174B1B6B03F002033B613B69FB79012BEA
:105700000DD10023FB60124B1B6B114A43F00203C7
:1057100013630F4B1B6B03F00203FB60FB68FB7909
:105720000C4A52F823307B610123BB610023FB61EB
:1057300002233B62FB79084A52F8233007F1140236
:105740001146184609F0E0FA00BF2837BD4680BD73
:1057500000380240B49A01081C00002080B582B0D5
:1057600000AF0346FB71FB79074A52F82300FB792F
:10577000064A52F823309BB20022194609F060FC19
:1057800000BF0837BD4680BD1C000020B49A010848
:1057900080B582B000AF0346FB71FB79074A52F82F
:1057A0002300FB79064A52F823309BB201221946A6
:1057B00009F046FC00BF0837BD4680BD1C00002034
:1057C000B49A010880B588B000AF3E480BF06CFA7F
:1057D0000346002B71D10023BB603B4B1B6C3A4A44
:1057E00043F480431364384B1B6C03F48043BB6069
:1057F000BB6800237B60344B1B6B334A43F00203CE
:105800001363314B1B6B03F002037B607B684FF427
:105810000043FB6002233B6100237B610323BB61E8
:105820000523FB6107F10C031946284809F06CFABF
:105830004FF40053FB6000237B6107F10C03194612
:10584000224809F061FA1F4B214A1A601D4B4FF4A0
:1058500082725A601B4B4FF400429A60194B00222F
:10586000DA60184B02221A61164B01225A61154B5D
:105870004FF400729A61134B1822DA61114B002227
:105880001A62104B00225A620E4B00229A620D4B94
:105890000722DA620B480AF021FF0A4B1B681A68DC
:1058A000084B1B6842F480421A60064B1B681A685A
:1058B000044B1B6842F040021A6000231846203750
:1058C000BD4680BD4405002000380240000402406F
:1058D0000038004080B588B000AF01224FF48071DD
:1058E000384809F0ADFB01224FF40051364809F069
:1058F000A7FB01224FF48051344809F0A1FB032398
:10590000BB6100237B6101233B610023BB60304B03
:105910001B6B2F4A43F0010313632D4B1B6B03F0EA
:105920000103BB60BB684FF48073FB6007F10C039D
:105930001946244809F0E8F901224FF48071214802
:1059400009F07EFB00237B60214B1B6B204A43F058
:10595000020313631E4B1B6B03F002037B607B6827
:105960004FF48053FB6007F10C031946174809F008
:10597000CBF901224FF48051144809F061FB002358
:105980003B60134B1B6B124A43F004031363104B31
:105990001B6B03F004033B603B684FF40053FB6058
:1059A00007F10C031946084809F0AEF901224FF43B
:1059B0000051054809F044FB002318462037BD4636
:1059C00080BD00BF00000240000802400004024009
:1059D0000038024080B58CB000AF78607B68FB6215
:1059E00003237B6200233B620123FB61FB6ADB78BC
:1059F000022B42D0022B5EDC002B02D0012B1ED0EA
:105A000059E000237B612F4B1B6B2E4A43F00103AF
:105A100013632C4B1B6B03F001037B617B694FF419
:105A20008073BB6101224FF48071274809F008FBA5
:105A300007F118031946244809F066F93DE00023F0
:105A40003B61204B1B6B1F4A43F0020313631D4B4A
:105A50001B6B03F002033B613B694FF48053BB6156
:105A600001224FF48051194809F0EAFA07F11803AE
:105A70001946164809F048F91FE00023FB60114B56
:105A80001B6B104A43F0040313630E4B1B6B03F0B4
:105A90000403FB60FB684FF40053BB6101224FF429
:105AA00000510B4809F0CCFA07F1180319460848D1
:105AB00009F02AF901E0032300E0002318463037FB
:105AC000BD4680BD00380240000002400004024094
:105AD0000008024080B584B000AFF8607A601A46D2
