:020000040800F2
:10000000480D0020A9010008B1010008B301000853
:10001000B5010008B7010008B901000800000000A0
:10002000000000000000000000000000BB0100080C
:10003000BD01000800000000BF0100086D2000089D
:10004000C3010008C3010008C3010008C301000880
:10005000C3010008C3010008C3010008C301000870
:10006000C3010008C3010008F9060008C301000825
:10007000C3010008C3010008C3010008C301000850
:10008000C301000855050008C30100080000000076
:10009000000000000000000000000000FF06000853
:1000A000C3010008C3010008C3010008C301000820
:1000B000C3010008C3010008C3010008C301000810
:1000C000C3010008C3010008C3010008C301000800
:1000D000C3010008C3010008FD260008000000005D
:1000E000F1060008C3010008C30100080000000079
:1000F000000000000000000000000000C301000834
:1001000000000000C3010008C3010008C30100088B
:1001100000000000000000000000000000000000DF
:10012000C3010008C3010008C3010008C30100089F
:10013000C3010008000000000000000000000000F3
:10014000000000000000000000000000C3010008E3
:10015000C3010008C3010008C3010008C30100086F
:10016000C3010008C30100080000000000000000F7
:10017000000000000000000000000000000000007F
:1001800000000000C30100080000000000000000A3
:10019000C3010008DFF80CD000F084F900480047E4
:1001A0008D510008480D002006488047064800474A
:1001B000FEE7FEE7FEE7FEE7FEE7FEE7FEE7FEE717
:1001C000FEE7FEE7F52000089501000840EA01037C
:1001D0009B0703D009E008C9121F08C0042AFAD2FD
:1001E00003E011F8013B00F8013B521EF9D27047C1
:1001F000D2B201E000F8012B491EFBD27047002269
:10020000F6E710B513460A4604461946FFF7F0FF15
:10021000204610BD034611F8012B00F8012B002ADF
:10022000F9D1184670472DE9FE4F81EA030404F026
:10023000004421F0004100944FF0000B23F00043F4
:1002400050EA01045ED052EA03045BD0C3F30A54BF
:10025000C1F30A552C44A4F2F3340194A0FB0254D8
:10026000C1F3130141F48011C3F3130343F480136A
:1002700001FB024400FB034E840A970A44EA8154BE
:1002800047EA8357A4FB076802958D0A05FB07859B
:100290004FEA932C04FB0C542705029D4FEA0658A5
:1002A00047EA1637B5EB08056EEB070C870E920E82
:1002B00047EA811742EA8312A7FB0201B6EB0B0162
:1002C00064EB00042B0D43EA0C335E1844EB1C5026
:1002D000DA465146E7FB0201C5F313044FEA0B333C
:1002E00043EA14534FEA0432019C43EA0603A4F1A3
:1002F0000C040294009CCDE900B400F084F803B033
:10030000BDE8F08F00200146F9E70EB5C10F80EA85
:10031000E0700844CA07002140F233438DE80E0024
:100320000A460B4600F06FF803B000BD70B5C1F38C
:100330000A5201F000450024C1F3130140F2FF33DB
:1003400041F480119A4201DA002070BD40F233433B
:100350009A42A2F2334203DC524200F035F800E048
:1003600090402C43F1D0404270BD000030B5041ED7
:1003700071F1000404DB4FF00044404264EB0101E2
:10038000141E73F1000405DB1C464FF0004352427B
:1003900063EB04038B4208BF824230BD30B50B468D
:1003A000014600202022012409E021FA02F59D42A5
:1003B00005D303FA02F5491B04FA02F52844151E79
:1003C000A2F10102F1DC30BD202A04DB203A21FA3F
:1003D00002F00021704721FA02F3D040C2F120025E
:1003E000914008431946704710B5141E73F100047C
:1003F00008DA401C41F1000192185B411A4301D117
:1004000020F0010010BD2DE9F04D92469B4611B140
:10041000B1FA81F202E0B0FA80F22032904600F0A8
:1004200053F804460F4640EA0A0041EA0B015346DE
:100430005A46084313D0114653EA010019D0C8F1B7
:1004400040025046FFF7C0FF05460E46504659464B
:10045000424600F039F8084305D0012004E0204668
:100460003946BDE8F08D0020054346EAE0762C438E
:1004700037430A986305E40AA0EB08000022FD0A4E
:1004800044EA47540A3002D500200146E9E7010555
:1004900010196941DDE9084500196941BDE8F04DD1
:1004A000A2E70000064C074D06E0E06840F00103BB
:1004B00094E8070098471034AC42F6D3FFF76EFE7D
:1004C000705B0008905B0008202A04DB203A00FAE9
:1004D00002F1002070479140C2F1200320FA03F39B
:1004E00019439040704770B58D1810F8014B14F007
:1004F000030201D110F8012B231106D110F8013BA2
:1005000003E010F8016B01F8016B521EF9D1ABB199
:1005100010F8012B04F00C048A1A0C2C03D0A2EB67
:1005200084129B1C08E010F8014BA2EB0422F8E7B0
:1005300012F8014B01F8014B5B1EF9D5A942D4D347
:10054000002070BD4FF40051014800F027BB0000AF
:1005500000080240014800F0F7B8000050080020F1
:1005600001681823CAB2103AB2FBF3F2054B6FF3DD
:100570000901032A9B5CC36500D9091D81650846F2
:1005800070470000685A000810B5014600208B69CA
:100590008A6A4FF0C07453B1B3F5005F15D072B1E1
:1005A000012A0CD0022A0AD0032A09D104E01AB188
:1005B000012A06D0022A03D1C96AC90100D5012047
:1005C00010BDC96AA142FAD010BD002AF7D0012A95
:1005D000F2D0022AF3D0032AF3D010BD2DE9F14F57
:1005E00040A184B0D1E900010024CDE9010100213E
:1005F000204604F05DF9641C032CF8DBDFF8ECB056
:100600000024A0464FF052094FF0540A0BF1240683
:1006100004EBC40000EB041006EB0015012185F883
:100620006091C5F86881D5F8640104F041F90220B1
:1006300000F0C6F90AEB44076A46C021284602F0DA
:100640000DFCA8B9BDF80000A0F56E41AA390FD184
:10065000F9B2284602F038FC50B985F860716A4654
:10066000C021284602F0FAFB284602F0C5F850B334
:100670000021204604F01CF9641C032CC8DB0498FC
:10068000E0B100200DF1040200EBC00101EB00110C
:1006900006EB0111D1F868311BB1131891F8611103
:1006A0005970401C0328EFDB20208DF80400104611
:1006B00004F034F94FF47A7000F082F9DBF80800A6
:1006C00005B0BDE8F08F0121C5F86811DBF80820FE
:1006D000521CCBF80820DBF81420A1401143CBF8C2
:1006E0001410C9E720202020000000000000002096
:1006F0004FF4806000F082B9102000F07FB98020B4
:1007000000F07CB910B500238B4204D108B15D2400
:1007100002E05B2400E02D245B1C02F8014B042B5B
:10072000F2DB10BD90F83510022903D0802141651D
:1007300001207047052180F835100068016821F01C
:1007400001010160002070472DE9F84304464FF095
:100750000008CDF8008064484FF41651A56D00687C
:10076000B0FBF1F72E6894F85C10082000FA01F154
:1007700031420FD021680A6852070BD50A6822F06F
:1007800004020A6094F85C108840A860606D40F034
:100790000100606594F85C1054488840304208D0ED
:1007A00021684969090604D5A860606D40F002001F
:1007B00060654E4894F85C10C01C8840304208D0F8
:1007C00021680968890704D5A860606D40F00400BD
:1007D000606594F85C1010208840304218D0216881
:1007E0000968090714D5A86020680168490304D581
:1007F0000068000308D5A16C07E00168C90503D4AF
:10080000016821F008010160216C09B12046884788
:1008100094F85C102020884030424FF0010631D01F
:1008200021680968C9062DD5A86094F83500052807
:100830002068016806D0490347D5006800031DD42D
:10084000616C1CE021F0160101602068416921F013
:1008500080014161206C08B9A06C20B1206801685A
:1008600021F00801016094F85C103F208840A860E6
:1008700084F8348084F83560216D1FE0E16B09B1A4
:1008800020468847606D00282BD0606DC00714D0CB
:10089000052084F835002068016821F0010101601D
:1008A0000098401C0090B84203D820680068C00738
:1008B000F6D184F8348084F83560E16C002910D0DA
:1008C00001B02046BDE8F04308470168C905D5D40A
:1008D000016821F01001016084F8348084F83560EB
:1008E000CCE7BDE8F8830000D404002001008000BC
:1008F0002DE9F041044600F05BF906465CB10025A5
:1009000084F83450022084F835002068016821F012
:10091000010101600DE00120BDE8F08100F048F91F
:10092000801B052805D920206065032084F8350048
:10093000F2E720680068C007F0D1226811681F48FC
:100940000140D4E901031843D4E903363343184383
:1009500063691843A3691843E3691843236A18437A
:100960000843616A042903D1D4E90B1319430843EE
:10097000106020684069666A20F0070130460E4327
:10098000012704280AD1A06A06432046FFF7FCFD90
:1009900020B14020606584F83570BCE7206846616E
:1009A0002046FFF7DDFD94F85C203F2191408160F7
:1009B000656584F835700020AEE700003F8010F0D8
:1009C00031B500F0F5F8044600F0F2F80099001B8C
:1009D0008842F9D338BD10B5102809D080280AD034
:1009E000B0F5806F03D10146022001F08DFE10BDED
:1009F00001460120F9E701460020F6E7044910B559
:100A00000A68024202D00860FFF7E5FF10BD00004F
:100A1000143C01402DE9F84FDFF860B100224FF09F
:100A200001084FF0030A4FF00F090BF1040E00BF4D
:100A30000B6808FA02F42340A3426ED14D68022DE0
:100A400001D0122D0ED1D50800EB850CDCF820501A
:100A50005607F70E09FA07F6B5430E69BE402E4356
:100A6000CCF82060066855000F790AFA05FC07F0FB
:100A7000030726EA0C06AF40374307604E68012E95
:100A800005D0022E03D0112E01D0122E0ED1866871
:100A9000CF6826EA0C06AF40374387604668A64316
:100AA0000C79C4F30014944034434460C6688C68E5
:100AB00026EA0C06AC403443C4604C68E40056D5CA
:100AC0002F4C256845F480452560246822F00305F5
:100AD00004F4804400942B4C2E19D6F8084895074E
:100AE0002F0F09FA07F5AC43274DA84201D1002585
:100AF00015E0264DA84201D1012510E0244DA84261
:100B000001D102250BE0234DA84201D1032506E0C7
:100B1000214DA84202D1042501E028E00725BD406F
:100B20002543C6F80858DBF800405D464E689C43F4
:100B3000F60300D51C432C60DEF8004075464E6875
:100B40009C43B60300D51C432C600C4D08352C6823
:100B50004E689C43F60200D51C432C60074D0C35B3
:100B60002C684E689C43B60200D51C432C60521C76
:100B7000102AFFF45DAFBDE8F88F0000003C014093
:100B800044380240003001400000024000040240AE
:100B900000080240000C02400010024000690840BA
:100BA00000D0012070470AB1816170470904FBE75A
:100BB0000148006870470000D804002070B50400A8
:100BC00004D094F83D00002510B106E0012070BD6E
:100BD00084F83C50204600F005FA242084F83D00BB
:100BE0002068016821F00101016000F039FB334900
:100BF0002268B0FBF1F15160314A6368934206D933
:100C00004FF4967359434FF47A73B1FBF3F12368B1
:100C1000491C1962616891420BD84900B0FBF1F29E
:100C2000C2F30B02042A01D2042019E0B0FBF1F058
:100C300016E0A3689BB301EBC10202EB0112B0FB0B
:100C4000F2F242F48042120530D04BB301EBC10204
:100C500002EB0111B0FBF1F040F4804040F40040A1
:100C60002168C861D4E90701084321680860D4E914
:100C70000310084321688860D4E90501084321680E
:100C8000C8602068016841F00101016025642020EE
:100C900084F83D00256384F83E50002070BD00E0DC
:100CA00006E001EB4102B0FBF2F2CCE70120D7E70E
:100CB00001EB4101B0FBF1F0D0E7000040420F0032
:100CC000A08601002DE9F84F1F4690468A4604464B
:100CD000DDF82890FFF76CFF054694F83D002028CA
:100CE0006FD1192301226E492046009500F04DFF77
:100CF0000028F5D194F83C00012862D0012084F846
:100D00003C0020680168C90703D1016841F0010176
:100D100001602068016821F400610160222084F8EC
:100D20003D00102084F83E0000262664C4F824808C
:100D300067855C48E062608D20852B464A465146B7
:100D4000204600F041FE28B1206C84F83C60042865
:100D500041D04DE0208D544F68B1012814D00228B5
:100D60002068016816D041F4806101602068416903
:100D70008069009085E0206841698169009101687F
:100D800041F4007101607CE02068016821F4806119
:100D90000160F0E721F4806101602068016841F49E
:100DA0000061E2E7032849D801280BD0022817D0B8
:100DB0004B46002239462046009500F0E6FEB8B9C1
:100DC0002AE06AE02A464946204600F053FF28B14F
:100DD000206C20280CD00120BDE8F88F206845E069
:100DE0004B46002239462046009500F0CEFE08B161
:100DF0000320F1E72068016841F400710160206878
:100E00000169606A421C62620170208D401E20856B
:100E1000608D401E6085E1E72068016821F48061F3
:100E2000016020680169606A421C62620170208D65
:100E3000401E2085608D401E6085D1E72A464946C8
:100E4000204600F017FF0028C2D120680269606ABE
:100E5000411C61620270208D401E2085608D401E05
:100E6000608520684169C94349070AD40169606AFD
:100E7000421C62620170208D401E2085608D401EE4
:100E80006085208D00288DD1202084F83D0084F8D5
:100E90003E6084F83C6000209EE702209CE7000052
:100EA000020010000000FFFF040001002DE9F84FD0
:100EB0001F4690468A460446DDF82890FFF778FEE4
:100EC000064694F83D0020287DD11923012243498C
:100ED0002046009600F059FE00287CD194F83C0092
:100EE000012878D0012084F83C0020680168C907F7
:100EF00003D1016841F0010101602068016821F41B
:100F000000610160212084F83D00102084F83E003B
:100F100000252564C4F8248067853148E062608D2F
:100F2000208533464A465146204600F0BDFD28B193
:100F3000206C84F83C5004284BD00DE020684169B7
:100F4000806900902FE032464946204600F0C3FEFB
:100F500028B1206C042837D00320BDE8F88F606AE0
:100F6000411C6162216800780861608D401E6085C7
:100F7000208D401E208521684869C04340070BD45E
:100F800057B1606A421C626200780861608D401E41
:100F90006085208D401E208532464946204600F05F
:100FA000CDFD0028D5D1208D0028CCD154F83D0BA3
:100FB000016841F400710160202004F81E09E57702
:100FC00065770020C9E706E02068016841F40071F8
:100FD00001600120C1E70220BFE70000020010000D
:100FE0000000FFFF7047000002480168491C0160D3
:100FF00070470000D80400200B4810B5016841F488
:1010000000710160016841F480610160016841F490
:1010100080710160032000F053F80F2000F006F803
:1010200000F018F8002010BD003C024010B5044646
:1010300007484FF47A710068B0FBF1F000F0EDFA68
:1010400000222146501E00F01BF8002010BD0000B9
:10105000D404002010B5072000F032F80022BDE8CB
:1010600010401146501E00F00BB800F01F02012185
:1010700091404009800000F1E020C0F80011704765
:10108000F0B40E4B1B680C46C3F30223C3F10705F3
:10109000042D00D90425191D072901D2002300E0E1
:1010A000DB1E012606FA05F1491E214099409E40AB
:1010B000761E16403143F0BC00F09ABE0CED00E005
:1010C000064900F0070208684FF6FF03184040EA9F
:1010D0000220034A10430860704700000CED00E056
:1010E0000000FA052DE9F047DFF8649105460F4648
:1010F000D9F8000000F00F01F8B28046B94208D2DA
:10110000014689F80010D9F8000000F00F00B8423D
:1011100074D128784F4C800705D52068A96820F045
:10112000F000084320602878C00759D04949686812
:10113000083901281AD002281BD0032819D00968C1
:10114000890700295ADA216821F00301014321604F
:10115000FFF72EFD6968064641F28830012911D05B
:1011600002291DD00329824627D035E0096889036A
:10117000E7E709688901E4E7FFF71AFD811B51459C
:1011800001D926E082462068C0F381000128F3D10E
:1011900026E000BFFFF70CFD811B514501D918E087
:1011A00082462068C0F381000228F3D118E000BF16
:1011B000FFF7FEFC811B51450BD82068C0F381006E
:1011C0000328F5D10CE000BFFFF7F2FC811B51456D
:1011D00002D90320BDE8F087206810F00C0FF3D18E
:1011E000D9F80010484601F00F01B94208D980F83B
:1011F0000080006800F00F00B84201D00120E9E74C
:101200002878400705D52068E96820F4E0500843B5
:1012100020602878000706D52068296920F46040FE
:1012200040EAC100206000F04BF82168F02292FAF9
:10123000A2F201F0F001B2FA82F2D140064A515C0A
:10124000C840064908600F20FFF7F0FE0020C1E704
:10125000003C024008380240585A0008D4040020DC
:1012600008480949006809684FF4E05292FAA2F26E
:1012700001F4E051B2FA82F2D140044A515CC84014
:1012800070470000D404002008380240585A000873
:1012900008480949006809684FF4604292FAA2F2CE
:1012A00001F46041B2FA82F2D140044A515CC84074
:1012B00070470000D404002008380240585A000843
:1012C00030B51948006810F00C01184812D0184CBD
:1012D00004290ED008290DD11349091F0A6802F00C
:1012E0003F030A68550247F6C07204D5B4FBF3F019
:1012F00003E0204630BDB0FBF3F00B6809681340F3
:1013000092FAA2F2B2FA82F2D34058434FF440323A
:1013100092FAA2F201F44031B2FA82F2D140491CB1
:101320004900B0FBF1F030BD083802400024F40061
:1013300040787D012DE9F84F0446DFF8CC82007833
:10134000A8F1040BC007ABF1040537D0D8F80010A2
:101350004046C1F38101012908D00068C0F3810033
:1013600002280AD1DBF80000400206D52868800375
:1013700024D56068002878D020E0A3492079891F0F
:101380000870606868B1FFF713FC064605E000BF0F
:10139000FFF70EFC801B642868D828688003F7D507
:1013A0000CE0FFF705FC064605E000BFFFF700FC78
:1013B000801B6428F0D828688003F7D42078934EE7
:1013C00080074FF0010A4FF0000742D5D8F800100F
:1013D000404611F00C0F08D00068C0F381000228CD
:1013E0000AD1DBF80000400206D42868800714D533
:1013F000E068012839D110E0E068D8B1C6F800A053
:10140000FFF7D6FB814605E0FFF7D2FBA0EB090012
:101410000228C1D828688007F6D52868F82292FAF1
:10142000A2F22169B2FA82F220F0F800914008435A
:1014300028600EE03760FFF7BBFB814606E000BF87
:10144000FFF7B6FBA0EB090002280FD82868800739
:10145000F6D42078000728D56D486169A1B1C0F89D
:1014600000A0FFF7A5FB814608E0CAE079E000BFD5
:10147000FFF79EFBA0EB0900022872D862486C308F
:1014800000688007F4D510E00760FFF791FB814604
:1014900006E000BFFFF78CFBA0EB0900022860D834
:1014A00059486C3000688007F4D42078400749D54B
:1014B00055483830016841F080510160006800F003
:1014C000805000905348016841F480710160FFF73B
:1014D0006FFB814606E000BFFFF76AFBA0EB090047
:1014E00002283ED84B480068C005F5D5DFF81891B2
:1014F000207A09F1680989F80000A06888B1FFF72F
:1015000057FB009008E000BFFFF752FB0099411A1B
:1015100041F2883081426CD8D9F800008007F3D5B9
:1015200010E0FFF745FB009008E000BFFFF740FB2D
:101530000099411A41F2883081425AD8D9F8000006
:101540008007F3D4A069E0B3D8F80010C1F381019B
:10155000022956D00228376604D0FFF729FB04463B
:101560004AE046E0FFF724FB074604E0FFF720FBD4
:10157000C01B02283DD828688001F7D4D4E90701B0
:10158000084347F6C07292FAA2F2616AB2FA82F296
:101590009140A26A4FF0FF3303EB52024FF4403305
:1015A00093FAA3F3B3FA83F39A40114308434FF03D
:1015B000706292FAA2F2E16AB2FA82F291400843B2
:1015C00000E01CE0CBF80000C6F860A0FFF7F0FADE
:1015D000044604E0FFF7ECFA001B022809D828684B
:1015E0008001F7D50BE000BFFFF7E2FA001B0228ED
:1015F00002D90320BDE8F88F28688001F4D40020C8
:10160000F8E70120F6E700000838024000004742F2
:10161000800E474200700040704710B5401EB0F188
:10162000807F01D3012010BD4FF0E02460610F21C5
:10163000601700F0DDFB0020A06107202061002082
:1016400010BD10B5FFF7E8FF10BD30B590F8382099
:10165000012A20D0012280F83820022380F8393076
:1016600003685C6824F070045C6003685C680D6863
:101670002C435C6003689C6824F080049C600368D1
:101680009C6849680C439C6080F83920002180F8F0
:101690003810084630BD022030BD022180F83910D4
:1016A00001680A6842F001020A60012180F83910DD
:1016B0000020704770B5044690F8380001280DD01E
:1016C000012584F83850022084F8390042B1042AF8
:1016D0000AD0082A0CD00C2A11D10DE0022070BDCE
:1016E000206800F079FD0AE0206800F09DFD06E02A
:1016F000206800F0C5FD02E0206800F0EDFD84F8F0
:101700003950002084F8380070BD10B5040003D0B3
:1017100094F8390010B107E0012010BD002084F8D2
:101720003800204600F00CF8022084F83900211D12
:10173000206800F009FD012084F83900002010BD68
:1017400008B501680B48B1F1804F0BD00A4A9142AD
:1017500007D1016841F008010160006800F008004D
:10176000009008BD016841F001010160006800F0CF
:101770000100F5E740380240000C004070470000CF
:1017800070B5026804461068D168536910F00F0FF5
:1017900051D003F0010501F4907635435DD0C207C6
:1017A00005D0CA0503D5E26B42F00102E2634207AD
:1017B00005D5DA0703D0E26B42F00202E26382074A
:1017C00005D5DA0703D0E26B42F00402E2630207B8
:1017D00005D5DA0703D0E26B42F00802E263E26B60
:1017E000002A34D0800604D5880602D5204600F0B1
:1017F000B7FD20684069E16BC0F3801001F008017B
:101800000143204624D000F09DFD2068416949062F
:101810001AD5416921F040014161606BA0B11B49BB
:101820000165606BFEF77EFF002810D0606B016DD4
:10183000BDE87040084783060FD58B060DD52046BE
:10184000BDE8704000F08CBD2046FFF797FF70BDEB
:10185000FFF794FF0020E06370BD030606D50B067A
:1018600004D52046BDE8704000F016BF4006F3D511
:101870004806F1D5D168204621F04001D1602021F1
:1018800084F8391000F07DF870BD000035230008A1
:1018900070B5040004D094F83900002510B106E0BA
:1018A000012070BD84F83850204600F023F8242031
:1018B00084F839002068C16821F40051C1602046D5
:1018C00000F094FD2068016921F4904101612068D5
:1018D000416921F02A0141612068C16841F4005149
:1018E000C160E563202084F8390084F83A000020C4
:1018F00070BD000070B5064600681C4986B088427D
:1019000032D11B480025016841F4003101600068B4
:10191000694600F4003005900C2000900220CDE9CB
:1019200001050720CDE903501248FFF773F8134C67
:10193000114820604FF0006060604020C4E902055B
:101940000001C4E90405A561E561256220466562E0
:10195000FEF7CEFF3463002211462620A663FFF770
:101960008FFB2620FFF781FB06B070BD00440040CE
:101970004038024000000240A060024050080020B1
:10198000704770471FB5024603A1684603F01CF973
:10199000684602F0C3FFFEE74572256400000000C0
:1019A00001684A69D24352050CD46FF480624A61DF
:1019B00004210164002140F8301F2022427301738A
:1019C00001207047002070472DE9F84F0446C06A97
:1019D0001E4692460D4621680A6842F480620A60FB
:1019E000042807D0012805D010F5803F02D0206BD5
:1019F000112804D12068016841F4807101604FF022
:101A000001185346002241462046009600F0BDF8DA
:101A1000B8BB206908F10109B0F5804F12D006204B
:101A2000216800EAD51747F0F000086133465246B6
:101A300008F10701204600F0D9F838B1206C0428DD
:101A40002FD01EE0E8B240F001001FE02168E8B2AC
:101A50000861334652464946204600F0C7F8002840
:101A6000ECD12068416981690091016841F480717D
:101A700001605346002241462046009600F085F85A
:101A800010B10320BDE8F88F47F0F100216808612C
:101A9000334652464946204600F0A8F80028CDD1EA
:101AA000F0E70120EEE70000F8B50446C06A1E46E4
:101AB0000D461746042807D0012805D010F5803FB1
:101AC00002D0206B122804D12068016841F4807193
:101AD0000160134600224FF001112046009600F0ED
:101AE00054F8A0B92069B0F5804F12D006202168C3
:101AF00000EAD51040F0F000086133463A460E493E
:101B0000204600F073F838B1206C042811D003206F
:101B1000F8BD05F0FE0000E0E8B221680861064962
:101B200033463A46891F204600F060F80028EBD182
:101B3000F8BD0120F8BD00000800010070B5164690
:101B40000D4604461AE02046FFF72AFF08B101209F
:101B500070BD681C12D025B1FFF72AF8801BA8427F
:101B60000CD954F8400F40F0200044F81009002030
:101B70002060202161732073032070BD20684069BC
:101B8000C0434007DFD4002070BD2DE9F0471E465A
:101B900090460D460446C1F30747DDF8209012E059
:101BA000701C10D02EB1FFF703F8A0EB0900B04273
:101BB00009D9002044F8300F20216173A0732073ED
:101BC0000320BDE8F0872068012F0AD0806925EA4C
:101BD00000000004000C06D000214145E0D00020A8
:101BE000EFE74069F3E70121F7E700002DE9F0474F
:101BF0009A4691460D46044600264FF02008C1F350
:101C000007472AE020684069C043400512D4206895
:101C1000016841F40071016021686FF480604861DF
:101C200004202064266384F83D8084F83C60012011
:101C3000BDE8F087B9F1FF3F0FD0B9F1000F05D033
:101C4000FEF7B6FFA0EB0A01494506D944F8306F0C
:101C500084F80D8026730320EAE72068012F07D05F
:101C6000D0F8180025EA00000004000CE0D0C9E715
:101C70004069F7E72DE9F041002590460E460446FD
:101C8000202721E04069C043C0060CD421686FF0D2
:101C9000100048612564256384F83D7084F83C5049
:101CA0000120BDE8F0812EB1FEF782FFA0EB080015
:101CB000B04209D954F8400F40F0200044F804091C
:101CC000677025700320ECE720684169C943490625
:101CD000D8D40020E5E770B516460D4604461AE054
:101CE0002046FFF75DFE08B1012070BD681C12D0D0
:101CF00025B1FEF75DFF801BA8420CD954F8400FB8
:101D000040F0200044F81009002020602021617379
:101D10002073032070BD20684069C0430006DFD4F3
:101D2000002070BD10B51C4886B00024016841F049
:101D300004010160016801F004010591016841F0AE
:101D400080010160016801F080010591016841F0A6
:101D500001010160016801F001010591016841F094
:101D6000020101600068694600F0020005904FF42E
:101D7000005000900948CDE901040948FEF74AFEE9
:101D8000202000900120CDE9010469460548039414
:101D9000FEF740FE06B010BD3038024000001210C1
:101DA000000802400000024010B510488AB00E49F9
:101DB000016053210024C0E90114611EC0E903142D
:101DC000FFF7A3FC079407A908480894FFF73DFC18
:101DD0000094019402940022694604480494FFF799
:101DE00069FC0AB010BD0000000C0040D4070020C0
:101DF0000907090E002806DA00F00F0000F1E020C4
:101E000080F8141D704700F1E02080F8001470473E
:101E100070B5FEF7CDFE04464FF47A7508E000BFBA
:101E2000FEF7C6FE001BA84202D908A002F076FD0C
:101E3000FEF788FB0028F3D0FEF7BAFE001BA8428D
:101E400001D9012070BD002070BD00002072622009
:101E500000000000F0B50246406CD66C7EB1012E49
:101E60000DD002C8176C874200D1104608C88742BF
:101E700000D11046591A002903DD012102E000209B
:101E8000F0BDC91702251AE010C8874200D11046DC
:101E9000012904D0B1F1FF3F05D041B10DE0E31AB3
:101EA0000BD500210DE0E31A002BFADC05E0E11A66
:101EB000002901DD012100E0C91723466D1CAE4257
:101EC000E2DC0846F0BDD0E91310814201D10120C7
:101ED000704700207047102901DA0A4601E04FF0F0
:101EE0001002016500EB8202C0E910204FF00001F2
:101EF000C0E9120101DC084670474FF0FF3070471F
:101F0000F0B50546002600F014F8014600206C6C80
:101F1000EA6C09E008CC5F1A00D5CF1A2B6C3E445E
:101F2000A34200D12C46401C8242F3DC96FBF2F027
:101F3000F0BD10B5044600F025F8E16C90FBF1F01F
:101F400010BD00B5020013D0906C0160906C001DB4
:101F50009064116C884200D192641046FFF7B3FF81
:101F600058B1D2E91010001D884204D1526407E034
:101F70004FF0FF3000BD506402E0D06C401CD064D4
:101F8000002000BD30B500221346C46C416C06E051
:101F900020C92B44056C8D4200D10146521C94424D
:101FA000F6DC184630BD000010B5FEF717FB002820
:101FB00006DD012808D10549D1F8F812002903D11E
:101FC0004FF0FF30FFF7DEFC10BD000024000020C2
:101FD0000A7E2AB180F880210121C0F87C11704767
:101FE000002280F88021D0F87C311BB1C0F87C2120
:101FF00009890AE0064A09895268C2F580734B4391
:10200000D0F8781101FB02310912C0F8781170473D
:10201000000000207FB5144E002500BF05EBC50071
:1020200000EB051006EB0014D4F86801C0B120469F
:1020300001F028F9204601AA694600F0A0FE2046DA
:1020400003AA02A900F09EFE2046002100F040FFF6
:10205000204644F6206101F052F80120C4F87C01CA
:102060006D1C032DDADB7FBD2400002010B5FEF7C8
:10207000BBFFBDE81040FFF7E4BA000030B51B48D5
:1020800093B00024016841F080510160006800F0C5
:10209000805011901648016821F4404141F40041FC
:1020A00001600068022500F4404011900120039077
:1020B00006200490009506951020CDE907404FF4C6
:1020C000A870099004200A9007200B906846FFF73B
:1020D00031F90520CDE90C05E802CDE90E400221D9
:1020E0000CA81094FEF7FEFF13B030BD403802403C
:1020F000007000401048016841F4700101600F4811
:10210000016841F0010101600C4A002108321160B0
:1021100002680B4B1A400260031D0A4A1A600268EB
:1021200022F48022026005480C3001600249580602
:10213000803908607047000088ED00E000380240F8
:10214000FFFFF6FE10300024F0B502681B4B1C4C5C
:102150009F031C4D1C4E984207D0B84205D0A042A8
:1021600003D0A84201D0B04204D122F0700C4A68DA
:1021700042EA0C02984210D0B8420ED0A0420CD0D5
:10218000A8420AD0B04208D0104CA04205D0104C52
:10219000A04202D00F4CA04203D122F44074CA687E
:1021A000224302608A68C2620A688262984201D150
:1021B0000969016301214161F0BD00000000014097
:1021C0000004004000080040000C004000400140B6
:1021D000004401400048014030B5026A22F001028B
:1021E0000262026A4368846924F073050C682C4318
:1021F00022F002058A682A430A4DA8420BD122F038
:102200000805CA6823F440732A434D6922F004028A
:102210001D438B692B4343608461496841630262BB
:1022200030BD00000000014030B5026A22F010020B
:102230000262026A436884690D6824F4E64444EA51
:1022400005248D6822F0200242EA05120B4DA842B7
:102250000ED1CD6822F0800242EA05124D6923F4C6
:10226000406343EA85038D6922F0400243EA850317
:102270004360846149688163026230BD00000140AF
:1022800030B5026A22F480720262036A4268C4694D
:1022900023F4007324F073050C682C438D6843EA23
:1022A00005230C4DA8420ED1CD6823F4006343EA08
:1022B00005234D6922F4405242EA05128D6923F448
:1022C000806342EA05124260C4614968C1630362E7
:1022D00030BD00000000014030B5026A22F4805297
:1022E0000262046A4268C3690D6823F4E64343EA64
:1022F00005238D6824F4005444EA0534064DA842B1
:1023000004D14D6922F4804242EA85124260C361E1
:1023100049680164046230BD0000014010B5044802
:10232000FFF7BBF9024900200968486210BD0000B0
:10233000D407002010B5806B0021C185C184FFF750
:102340001DFA10BD0168CA6822F49072CA60016863
:102350004A6922F001024A61202180F83A10704750
:1023600010B590F83A10222901D0022010BD8168E2
:10237000B1F5805F11D00169002901681FD049685B
:1023800001F07F03816A4A1C82620B70C18D491E75
:102390000904090CC18518D026E00269816A002A67
:1023A0000268526805D0D2B20A80816A491C8162F3
:1023B000ECE7C2F308020A80816A891CF7E74A68E1
:1023C000816A4B1C83620A70E0E70168CA6822F4E4
:1023D0009072CA6001684A6922F001024A612021B4
:1023E00080F83A10FFF7CCFA002010BD2DE9F0413B
:1023F00004460068016921F44052E168114301611B
:102400002168C86849F20C6290432369A268E569B3
:102410001A4363692B431A430243CA60216848691F
:1024200020F44072A06910434861E1696425B1F568
:10243000004F9748974A21684FF032083FD09142A9
:1024400001D081427CD1FEF723FF00EBC00101EBFC
:10245000001061688900B0FBF1F6FEF719FF00EB90
:10246000C00101EB001061688900B0FBF1F0B0FB26
:10247000F5F06FF01801484306EB800108EB0110FE
:10248000B0FBF5F000F0F006FEF702FF00EBC00134
:1024900001EB001061688900B0FBF1F0B0FBF5F0D2
:1024A00006EB0016FEF7F4FE00EBC00101EB001096
:1024B00061688900B0FBF1F7FEF7EAFED2E09142D5
:1024C00001D081423DD1FEF7E3FE00EBC00101EBFC
:1024D000001061684900B0FBF1F0B0FBF5F00601B7
:1024E000FEF7D6FE00EBC00101EB00106168490069
:1024F000B0FBF1F7FEF7CCFE00EBC00101EB0010E2
:1025000061684900B0FBF1F0B0FBF5F06FF0180125
:10251000484307EB800108EBC100B0FBF5F000F089
:10252000F80006EB4006FEF7B3FE00EBC00101EB3E
:10253000001061684900B0FBF1F7FEF7A9FE3CE02E
:1025400055E0FEF78DFE00EBC00101EB0010616865
:102550004900B0FBF1F0B0FBF5F00601FEF780FE9C
:1025600000EBC00101EB001061684900B0FBF1F71E
:10257000FEF776FE00EBC00101EB00106168490038
:10258000B0FBF1F0B0FBF5F06FF01801484307EB3A
:10259000800108EBC100B0FBF5F000F0F80006EB9D
:1025A0004006FEF75DFE00EBC00101EB0010616824
:1025B0004900B0FBF1F7FEF753FE00EBC00101EB61
:1025C000001061684900B0FBF1F0B0FBF5F06FF06E
:1025D0001801484307EB800108EBC100B0FBF5F0A0
:1025E00000F00700216830448860BDE8F081FEF704
:1025F00037FE00EBC00101EB001061688900B0FB01
:10260000F1F6FEF72DFE00EBC00101EB0010616852
:102610008900B0FBF1F0B0FBF5F06FF01801484312
:1026200006EB800108EB0110B0FBF5F000F0F006BE
:10263000FEF716FE00EBC00101EB00106168890097
:10264000B0FBF1F0B0FBF5F006EB0016FEF708FE6C
:1026500000EBC00101EB001061688900B0FBF1F7ED
:10266000FEF7FEFD00EBC00101EB00106168890080
:10267000B0FBF1F0B0FBF5F06FF01801484307EB49
:10268000800108EB0110B0FBF5F000F00F00A9E7A6
:10269000001401400010014090F83910212901D0A8
:1026A000022070478168B1F5805F016A0BD04A1C37
:1026B0000262026809785160C18C491E0904090C44
:1026C000C1840ED017E009880268C1F30801516087
:1026D00001690029016A02D0491C0162ECE7891CEA
:1026E000FBE70168CA6822F08002CA600068C1681E
:1026F00041F04001C1600020704700000148FFF731
:102700003FB8000010080020074A93695B1C9361E2
:10271000D1611062032805D2044951F82020521CCF
:1027200041F820207047000000000020C80700206A
:102730007CB50446002094F8DA200D46012A03D027
:10274000022A01D0032A14D101AB6A460121204696
:1027500000F091F9009A4FF47F018A4202D8019A61
:102760008A4206D9002804D125B10F49204601F03C
:10277000D9FC7CBD0422FF21204600F053FE054613
:1027800000227021204600F04DFE05430022FF216B
:10279000204600F047FE054300228021204600F03D
:1027A00041FE28437CBD0000CF050020F8B5064659
:1027B000002401220B21304600F034FE074600229F
:1027C0000B21304600F02EFE40EA07056A46132131
:1027D000304600F00BFB641C9DF800102843E4B267
:1027E000490704D0032C04D20028E2D0F8BD032C02
:1027F000FCD36FF00B00F8BDF0B591B00446002299
:10280000882100F00FFE002584F8F0504FF47A7014
:10281000A4F852014FF4C870A4F854015748C4F802
:10282000580157482562C4F8D4006946204600F094
:10283000A9F8060009D18DF800508DF8015040220A
:10284000694604F11000FDF7C1FC6420A4F83401CE
:102850004FF46170A4F836014FF4FA70A4F838010F
:102860004FF42060A4F83C01012784F850713A46E7
:102870008021204600F0D6FD06430122FF2120469C
:1028800000F0D0FD064300221146204600F0CAFDAC
:10289000064310AA9121204600F0A8FA06439DF8AD
:1028A000400084F83A0101220021204600F0BAFDE0
:1028B00006430022FF21204600F0B4FD064300221B
:1028C0008021204600F0AEFD30430026002852D182
:1028D000B1B20122204600F0A9FB761C062EF5DBE2
:1028E000002848D100220221204600F09FFB00284A
:1028F00041D100220321204600F098FB00283AD164
:1029000000220421204600F091FB002833D1002250
:102910000521204600F08AFB00282CD14FF49012AC
:102920000021204600F0C3FB002824D14FF4804250
:102930000121204600F0BBFB00281CD14FF40C12F3
:102940000221204600F0B3FB002814D1002203210D
:10295000204600F0ACFB00280DD1FF2084F83001A8
:1029600002460121204600F05DFD84F83271002806
:1029700001D184F8155111B0F0BD0000856B010044
:10298000A470090070B506460C46007C01F8080BDF
:10299000304600F044F8002833D1207304F11001D0
:1029A000304600F0D6F900282BD104F1140130464E
:1029B00000F0E2F8002824D1002501E0002820D111
:1029C00004EB8502A9B23046243200F07AF80028E0
:1029D00017D16219A9B23046183200F066F86D1CA2
:1029E000062DEBDB00280CD104F13C01304600F051
:1029F00095F9002805D1211D3046BDE8704000F052
:102A0000B9B870BD10B50C460A46092100F0EEF9C0
:102A1000002803D1217801F00101217010BD3EB5DD
:102A20000C46054602AAF82100F018FA00280ED13B
:102A30006A460421284600F0EDF9002807D1BDF8C8
:102A4000081029B1009AB2FBF1F12160A9613EBDE5
:102A50002168FBE738B50C466A46132100F0C6F939
:102A60009DF8001001F0070211F0180F226001D04C
:102A70006FF0050038BDF8B515461C4606466A4697
:102A80000E2100F0EBF9BDF800100905C908296016
:102A9000002809D16A460C21304600F0DFF9BDF864
:102AA00000100905C9082160F8BD03460020062969
:102AB00002D3001F002102E0194491F82810117080
:102AC0007047F8B504460020154606292DD2DFE8E8
:102AD00001F00305191B1D1D646B24E06A464421A7
:102AE000204600F0BBF9002803D1BDF800104FEAE2
:102AF000412606D1E6B12E604FF00101A66384F8AD
:102B00002910F8BDE46B0EE0246C0CE06A464FF02F
:102B10006401204600F0A2F9002803D1BDF800109E
:102B20004FEA4124EDD12C60F8BD6FF00300F8BDF1
:102B3000A16B29604FF00001E1E77CB50C4690F8ED
:102B4000DA100025012604290AD06A46142100F073
:102B50004DF900280BD19DF80010C90706D007E0F9
:102B600001A9FFF777FF0199042901D025707CBDE9
:102B700026707CBD01F014B901F074B9F0B58DB0C8
:102B80000C4605460C2302AA142100F085F9060024
:102B90007ED10021A17521609DF813009DF81220BF
:102BA000616000EB02209DF80F209DF80E304FF47D
:102BB0007A7E02EB03221204D209E2609DF8113002
:102BC0009DF8106080B203EB06231B04DB09236130
:102BD0009DF80B309DF80A6003EB06239BB2A3829D
:102BE000B5F852619DF8087095F831C176451FD04F
:102BF000464306F5FA7696FBFEF02E8C95F81CE01F
:102C000080B2B6B2BEF1000F12D05E43B2EB262FF7
:102C100008D1BCF1000F02D042F2B82008E048F61B
:102C2000E0200DE05043A2EB2626B0FBF6F080B288
:102C3000BCF1000F04D0810821818001E07501E022
:102C40002081E1750CA8CDE900403946284601F005
:102C500023F9060024D19DF8307005F15001277644
:102C60001C220D4605A8FDF7B1FA2089ADF81C001D
:102C7000E07D8DF82B006089ADF81E00606806903D
:102C8000E068089020690990A08AADF8280000E06B
:102C900006E08DF82C701C2205A92846FDF796FA4F
:102CA0000DB03046F0BD38B5054600200C468DF815
:102CB00000006A460121284600F098F800282AD131
:102CC00023469DF800200021284602F021FC002820
:102CD00021D1A31C9DF800200121284602F018FCF8
:102CE000002818D1631C9DF800200221284602F01C
:102CF0000FFC00280FD1E31C9DF80020032128467B
:102D000002F006FC002806D1231D9DF800200421B6
:102D1000284602F0FDFB38BD01F0D6B938B50C46A7
:102D200005466A46012100F061F800280BD19DF8A4
:102D3000001085F83011090601D5012100E00021BD
:102D4000217085F84C1038BD02460020127F0A70B1
:102D5000704738B50D4604466A46202100F07EF8DB
:102D6000002807D1BDF8001029B1C90029602162EF
:102D70000121217738BD216A29600021F9E701236B
:102D800001F077BA01F095BA70B5047C054614B924
:102D900000F00EFA10B9284601F016FA50EA0401C4
:102DA00002D1032185F8321170BD70B50C4605467D
:102DB000002100F08DF8002810D12846FFF7E4FF2D
:102DC00000280BD121462846FFF7D8FE002805D160
:102DD0002846BDE870400021FFF7E8BC70BD10B583
:102DE00000240220FDF7ECFD204610BDF7B5164685
:102DF00007460024012201A901F04AFE6FF01305E5
:102E000028B901223146384601F032FE00B12C4685
:102E10002046FEBDF7B5164607460024012201A94B
:102E200001F036FE6FF0130528B904220A4938462E
:102E300001F01EFE08B12C460BE00748C17802786D
:102E400001EB026142788078120402EB0020084412
:102E500030602046FEBD0000B0080020F7B51646E1
:102E600007460024012201A901F012FE6FF01305AC
:102E700028B902220749384601F0FAFD08B12C466C
:102E800005E004484178007801EB002030802046BE
:102E9000FEBD0000B00800202DE9FF4117461E4688
:102EA00080460024012201A901F0F2FD6FF0130514
:102EB00028B932463946404601F0DAFD00B12C46C9
:102EC00004B02046BDE8F0814A088A2100F0AABA81
:102ED0000246002003290BD003DC49B1012904D1AB
:102EE00006E0142904D0152902D06FF007007047BE
:102EF0001174704770B51C46049E054611B16FF001
:102F0000090070BD142A08D0152A0FD0052C6FD2E5
:102F1000DFE804F066686A6C6F002EB10122BDE83C
:102F20007040842100F07EBA1022F8E70122FF21D0
:102F300000F078FA044600221146284600F072FAA2
:102F400004430022FF21284600F06CFA04430122CA
:102F50008021284600F066FA044302228521284693
:102F600000F060FA04430422FF21284600F05AFAD8
:102F700004430022CD21284600F054FA04431122D4
:102F8000CC21284600F04EFA04430722FF212846B0
:102F900000F048FA04430022BE21284600F042FA1D
:102FA00004430622FF21284600F03CFA044309228C
:102FB000CC21284600F036FA04430022FF2128469F
:102FC00000F030FA04430122FF21284600F02AFADB
:102FD000044300221146284600F024FA204370BD25
:102FE000002207E0012205E0022203E0032201E0C3
:102FF00017E004220A21284600F014FA0028EED136
:1030000096B11023EF228421284600F0F5F900281C
:10301000E5D185F8DA402846BDE870400021FFF789
:10302000C5BB6FF00A0070BD0023EBE72DE9F0414E
:10303000044600200D461646071F03460146024679
:10304000062D02D33846BDE8F08156B104EB850168
:103050004B6B0121062DF5D2DFE805F005080F12B4
:1030600015180122F6E784F8281017E0C3F34F2261
:103070004421204600F0E8F90EE084F82A100DE023
:1030800084F82B100AE05300FE2201E01301EF2226
:103090006021204600F0B0F90028D4D1611926B192
:1030A0005FF0010281F82820CDE70022FAE770B531
:1030B00014460022431800EB810593F82830DBB159
:1030C000C4F34F23062914D2DFE801F00305080AF0
:1030D0000C0C446310E01A46442105E0C4630BE085
:1030E000046409E01A46642100F0AEF9020003D03E
:1030F00003E06FF0030200E06C63104670BD01F066
:1031000096BA2DE9F8430746002090460E468DF802
:1031100000006A4601213846FFF768FE05009DF869
:10312000000004462ED1291FB8F1010F06D0052E4C
:103130002CD2DFE806F0191C1F222500052E25D20F
:10314000DFE806F00306090C0F0044F0100419E054
:1031500044F0280416E044F0040413E044F0400472
:1031600010E044F080040DE004F0EF040AE004F005
:10317000D70407E004F0FB0404E004F0BF0401E01E
:1031800004F07F04844210D015B10EE00D460CE02F
:1031900022460121384600F045F9050005D187F89F
:1031A000304138467969FFF7AAFF2846BDE8F88321
:1031B000F8B501250646047C2A46802100F032F944
:1031C0000122FF21304600F02DF900221146304641
:1031D00000F028F996F83A219121304600F022F9C2
:1031E00001220021304600F01DF90022FF21304667
:1031F00000F018F900228021304600F013F93CB1AC
:103200000425012C26D0032C2FD06FF00700F8BD29
:1032100001220021304600F005F98DF80050002809
:10322000F5D100244FF4FA6705E024B16A46002185
:103230003046FFF7DBFD9DF80020641C25EA020103
:10324000014304D0BC42E2D36FF00600F8BDBC429B
:10325000EBD3F9E718B901213046FFF769FA0222EA
:1032600009E000BF86F83251F8BD18B90121304697
:10327000FFF75EFA04220021304600F0D3F8002860
:10328000F0D0F8BD30B597B00446402101A8FCF756
:10329000B6FF00258DF84450ADF850508DF85450CD
:1032A00001212046169500F0E7FA94F8142194F8CD
:1032B0001311012A06D802D1202903D808E03AB90F
:1032C0000C2905D915AA16A9204600F0F2FF02E044
:1032D000204601F00DFA474900287DD194F85001AD
:1032E00008B9D4F84C11204600F01CFF00287ED10C
:1032F00000220423114620460095FFF7FBFD00281D
:1033000075D10122FF21204600F08CF8054614AA51
:1033100084212046FFF7A2FD05430022FF2120461D
:1033200000F080F8284362D1BDF8500001A90001E7
:10333000C4F8D4002046FFF725FB002857D111A977
:103340002046FFF75FFB002851D19DF8440084F828
:103350003101402201A904F11000FCF737FF11AA46
:1033600001212046FFF742FD002840D19DF844008E
:1033700084F83001002211462046FFF7C2FE0028E3
:1033800035D1002202212046FFF7BBFE00282ED1B6
:10339000032084F8320112AA00212046FFF7BCFC6A
:1033A000002824D19DF8480084F8E80012AA0121E1
:1033B0002046FFF7B1FC002819D19DF8480084F899
:1033C000E00013AA0321204601F05AFE00280ED186
:1033D000139813AA042100E009E0C4F8E400204691
:1033E00001F04EFE002802D11399C4F8DC1017B08A
:1033F00030BD0000DC040020F8B515461C460E4622
:1034000007466A46FFF7F2FC002809D19DF8002024
:1034100031462A4022438DF80020384600F002F859
:10342000F8BD0000034610B5064800240170427044
:1034300001460222184601F02BFB08B16FF013047D
:10344000204610BDB0080020034610B507480024F0
:103450000170110A4170827001460322184601F082
:1034600017FB08B16FF01304204610BDB008002010
:1034700070B51C460025134606463F2C01D9281F6F
:1034800070BD0848224600F8011B1946FCF79EFE55
:10349000621C0449304601F0FBFA08B16FF01305D5
:1034A000284670BDB00800202DE9F047B0F854C19F
:1034B000D0F85801DDE90A860CFB00F58035DDE91E
:1034C00008972C0A4FF0000A04FB0CF4554652B141
:1034D000880200EB5200B0FBF2F000EB40004043EA
:1034E00000F50040050C07F50040000C0622C01C4A
:1034F000B0FBF2F003FB09F303F50043190C494359
:10350000C0EBC000B0F5803F01D31C4808E0FF1CB1
:10351000B7FBF2F0C0EBC00000F50040000C4043E8
:10352000084400EB5800B0FBF8F08003FE227F3027
:10353000B0FBF2F068434FF47A7100F5FA70B0FB1B
:10354000F1F0000100F5FA70B0FBF1F7402004F152
:103550002001B1FBF0F000F0CFFD054627B104EBF0
:103560005700B0FBF7F000E0002000F0C5FD35602B
:10357000854200D930605046BDE8F0870000F0FF7A
:1035800001EBC10140F277600902A1FB0001704725
:103590002DE9FF4F87B00446006A06908846086907
:1035A0004FF47A714843000C0390D8F80C00059052
:1035B000DFF8F8B14FF4481604AA4146204600F05F
:1035C0005EFD06AA4146204600F067FD81464FF4A5
:1035D0007A710498069D484300F50040070C4D435E
:1035E000B54200D93546B9F1000074D1D4F8DC00F9
:1035F000019094F8E06001463246204600F0DCF885
:103600008246D4F8E4000090014694F8E820204671
:1036100000F0D2F801460320082E00D102205144C8
:103620004143C9024FF47A7001F5FA71B1FBF0F130
:1036300040F27762514301F5FA71B1FBF0FA049858
:103640008030010A01FB0AF08030060A080204906B
:103650000FB14EB109E00999C1F800B0C4F840B10A
:103660000A98002101609DE001264FF44870029005
:1036700003984F490004B0FBF7F0884200D9084690
:103680004FF4167100FB01F906EB4600800000F0D4
:1036900033FD40000390B8F8081046486A424143A1
:1036A000380400EB42024FF47A7002F5FA72B2FB72
:1036B000F0F2431003EB0743B3FBF0F01202B2FB4E
:1036C000F0F0002800DA404298F8182000021AB101
:1036D0004FF480350FE066E041F25C22B1FBF2F17D
:1036E000C0F58030484300F50040000C00F5803004
:1036F00040084043850B4FF4487105FB01F000F58D
:103700000040000C10FB00F109F50040000C4043A4
:10371000084400F0F1FC000464213230B0FBF1F108
:103720000398B1FBF0F040F6B531484341F28831DF
:1037300008444900B0FBF1F74FF47040874200D9CC
:103740000746DDE9001008444FF47A7800F5FA7076
:10375000B0FBF8F04FF4C81101EB5001B1FBF0F0F1
:1037600000F0CAFC000200F5FA70B0FBF8F07F43ED
:103770004043384400F0C0FC414648430EB1584530
:1037800000D9584609990860C4F840010A98029B7C
:1037900003908DE80806DDE904122B462046FFF76A
:1037A00083FE814648460BB0BDE8F08FAE878F029E
:1037B000666666009A99060000B50B461146FFF74B
:1037C000DFFE4FF47A7100F5FA70B0FBF1F04B4375
:1037D00003EB5001B1FBF0F000BD00B50B46114604
:1037E000FFF7CEFE4FF47A7100F5FA70B0FBF1F0FE
:1037F000434303F5FA73B3FBF1F000BD0146C0B2D9
:10380000090A8840401C70474000801CC0B27047C5
:10381000F8B5064600228321FFF704FE040011D10B
:1038200000254FF4FA676A4683213046FFF7DEFA37
:1038300004469DF8000020430BD0BD4202D300BFD8
:103840006FF00604012283213046FFF7EBFD204391
:10385000F8BD6D1CBD42E6D3F2E70022114648B127
:10386000401E02E04008491C89B2020AFAD161F305
:103870001F2082B2104670472DE9F04F95B0002509
:1038800004460E954FF4C8500F95CDE9045012959B
:1038900094F8F0600F46AB46AA46072E7ED0012270
:1038A00080212046FFF7BEFD80460122FF212046F1
:1038B000FFF7B8FD40EA0805002211462046FFF751
:1038C000B1FD40EA05080622FF212046FFF7AAFDC8
:1038D00040EA080502AA83212046FFF787FA40EA5A
:1038E00005089DF80800832140F004022046FFF7F8
:1038F00099FD40EA08050722FF212046FFF792FDC7
:1039000040EA0508012281212046FFF78BFD40EAAD
:1039100008052046FFF763FA40EA050801228021E6
:103920002046FFF77FFD40EA0805F80755D0F0076D
:1039300053D16B2294212046FFF774FD40EA05081D
:103940002046FFF765FF40EA080501AA90212046BE
:10395000FFF760FA40EA050801982422C0F3062127
:10396000C0F3C03B129194212046FFF75BFD40EA73
:1039700008052046FFF74CFF40EA050801AA902100
:103980002046FFF747FA40EA08050198010E8DF836
:103990002C10010C8DF82D10010A00E0FCE18DF8CF
:1039A0002E108DF82F00252294212046FFF73AFD96
:1039B00040EA05082046FFF72BFF40EA080901AA64
:1039C00090212046FFF726FA40EA09050198010EEA
:1039D0008DF83010000C8DF83100B8077ED5B00797
:1039E0007CD4022294212046FFF71CFD40EA050802
:1039F0002046FFF70DFF40EA080513AA9021204654
:103A0000FFF7F4F940EA05087B2294212046FFF7EE
:103A100009FD40EA08052046FFF7FAFE40EA0508DE
:103A200010AA90212046FFF7E1F940EA0805772225
:103A300094212046FFF7F6FC40EA05082046FFF7F0
:103A4000E7FE40EA080501AA90212046FFF7E2F9C7
:103A500040EA050801987822410E8DF81810C0F34D
:103A600086418DF81910C0F3C6218DF81A10C0F3E5
:103A700006110007400E8DF81B108DF808009421E8
:103A80002046FFF7CFFC40EA08052046FFF7C0FEBE
:103A900040EA050801AA90212046FFF7BBF940EA59
:103AA00008059DF80810019801EB50718DF81C1065
:103AB000C0F386518DF81D10C0F3C6318DF81E106D
:103AC000C0F306218DF81F10C0F34601C007400E59
:103AD0008DF820108DF80800792200E055E094213F
:103AE0002046FFF79FFC40EA05082046FFF790FEBE
:103AF00040EA080501AA90212046FFF78BF940EA29
:103B000005089DF8081001987A2201EB90618DF864
:103B10002110C0F3C6418DF82210C0F306318DF894
:103B20002310C0F34611C006400E8DF824108DF806
:103B3000080094212046FFF775FC40EA080520465E
:103B4000FFF766FE40EA050801AA90212046FFF72C
:103B500061F940EA08059DF80810019801EB9071A1
:103B60008DF82510C0F3C6518DF82610C0F306411C
:103B70008DF82710C0F346218DF82810C0F3860079
:103B80008DF8290000208DF82A0078077ED570076F
:103B90007CD47B2294212046FFF744FC40EA0508B0
:103BA0002046FFF735FE40EA08050EAA9021204680
:103BB000FFF730F940EA05087C2294212046FFF700
:103BC00031FC40EA08092046FFF722FE40EA0905D9
:103BD0000FAA90212046FFF71DF940EA050873223D
:103BE00094212046FFF71EFC40EA08052046FFF717
:103BF0000FFE40EA050801AA90212046FFF70AF9C6
:103C000040EA08050198742200064FEA1049942101
:103C10002046FFF707FC40EA05082046FFF7F8FDBD
:103C200040EA080501AA90212046FFF7F3F8019920
:103C300040EA050849EA1160049075229421204663
:103C4000FFF7F0FB40EA08052046FFF7E1FD40EAF8
:103C5000050901AA90212046FFF7DCF840EA09088F
:103C60000198762200064FEA104994212046FFF77A
:103C7000D9FB40EA08052046FFF7CAFD40EA0508DF
:103C800001AA90212046FFF7C5F800E004E0019961
:103C900040EA080549EA116A002281212046FFF71F
:103CA000C1FB40EA05080622FF212046FFF7BAFBC8
:103CB00040EA080502AA83212046FFF797F840EA68
:103CC00005089DF80800832100F0FB022046FFF75D
:103CD000A9FB40EA08050122FF212046FFF7A2FBCD
:103CE00040EA0508012200212046FFF79BFB40EA3D
:103CF00008050022FF212046FFF794FB40EA050853
:103D0000002280212046FFF78DFB50EA080543D1B1
:103D1000F8070FD0F0070DD1129884F8130184F83A
:103D200014B100200BA923180A5C401C83F82A2137
:103D30000628F8DBB8070ED5B0070CD49DF84C0068
:103D400084F8F1009DF8400084F8F20004F1F300DB
:103D500006A9FCF75FFA780719D5700717D40E98F3
:103D6000C4F818010F98C4F81C0104984002C4F864
:103D700020010020BAF1000F08D00599AAEB01003C
:103D80004FF47A1148430014404200B2E0603E43D1
:103D90008DF8086084F8F06015B02846BDE8F08F13
:103DA00030B585B005464FF4FA60029000200390CC
:103DB00040F6363008600C4669462846FEF773FF29
:103DC00000284DD19DF8001029B99DF8011011B9B6
:103DD0009DF8021011B302AA0221284601F050F901
:103DE00000283DD19DF8001029B10299226801F206
:103DF0004E21114421609DF8021031B102992268D0
:103E000001F2B22102EB410107E09DF8011029B156
:103E10000299226801F52571114421609DF8031073
:103E200061B103AA0321284601F02AF90399226807
:103E300001F5257111442160002811D19DF804106D
:103E400061B104AA0421284601F01AF904992268F4
:103E500001F2262111442160002801D12168696105
:103E600005B030BD38B50C4640F2FF756A462821D2
:103E7000FEF7F4FF00280ED1BDF80010C1F30B02CD
:103E8000ADF80020AA424FF0FA0101DDA2F5805200
:103E900012FB01F1216038BD2DE9FF4F8BB04FF0CF
:103EA0000009199D8DF800909A460646C8464F466F
:103EB0008DF804908DF808908DF80C90ADF8109066
:103EC000C1F3C304CDF81490BCB1052C15D0072C58
:103ED00013D00C2C11D00D2C0FD00E2C0DD00F2C7C
:103EE0000BD0002083466A4600213046FEF7DDFDF8
:103EF0009DF80010C9B110B11DE00120F2E705AB3B
:103F000006AA30461899FFF743FBA0B918990598FF
:103F100007AA488100213046FEF7D3FD079921B159
:103F2000069A8A4201D94FF0010920B902AA02215A
:103F30003046FEF7BAFD9DF8081011B338BB08AA49
:103F400002213046FEF7BDFD80B90122FF21304637
:103F5000FFF768FA50B904AAB6213046FEF77EFF93
:103F600020B90022FF213046FFF75CFABDF810109F
:103F70004902C6F84811089A1AB1914201D94FF086
:103F8000010820B903AA03213046FEF78EFD9DF8F3
:103F90000C1091B190B9BAF1000F12D00D98010236
:103FA000B1FBFAF0824609AA03213046FEF789FDEB
:103FB000099911B18A4500D2012720B1287858B358
:103FC0002DE00020EEE7BBF1000F01D0FF2013E051
:103FD000012C10D0022C0ED0032C0CD0062C0DD0AE
:103FE000092C0BD0082C04D00A2C02D0B8F1000FF9
:103FF00006D0032000E00520287010E00420FBE735
:10400000042C00D00FB10220F6E7B9F1000F01D067
:104010000120F1E70020287018990020488101AAAA
:1040200001213046FEF741FD002825D19DF8001002
:1040300011B15FEA090100D0012186F82E10042C8D
:1040400015D09DF8041091B15FF0000186F82F1093
:104050009DF8081011B15FEA080100D0012186F82F
:1040600030109DF80C1001B11FB1012102E00121B7
:10407000ECE7002186F831100FB0BDE8F08F38B5BD
:104080001446CA6822606A4600F007F8002803D187
:104090002168009A1144216038BDF8B50646002019
:1040A0000D461060144669463046FEF74DFE002866
:1040B00009D19DF80010002905D0A98A326A514320
:1040C0008031090A2160F8BD38B5144621B10129B3
:1040D00005D06FF003010DE06A46502101E06A4609
:1040E0007021FEF783FE010004D19DF80000FFF768
:1040F0008BFB2070084638BD024600204FF08041FF
:1041000000E089089142FCD808E04318934203D8A4
:10411000D21A01EB500000E0400889080029F4D1D0
:1041200070470000F8B5074600200D460446061FFC
:1041300013E0CBB2641CFF2B05D0042B0CD8295DF7
:1041400000206A4639E0295D641C61B1012912D062
:10415000022918D003291ED03046295D002901D03C
:104160000028E6D0F8BD2A5D641C295D01EB022120
:10417000A7F8341116E0295D641C2A5D02EB0121C9
:10418000A7F836110EE02A5D641C295D01EB0221BF
:10419000A7F8381106E0295D641C2A5D02EB0121B5
:1041A000A7F83C11641C295D0029C2D1F8BD00BFED
:1041B00015F804C002F800C0401C641C9842F7DBEC
:1041C0003846FFF755F9C8E7F8B5064600208DF8E0
:1041D000000004464FF4FA6569463046FEF7ADFC30
:1041E000002807D19DF80010012903D0641CAC42BF
:1041F00001D3C01FF8BD3046FEF7F1FDECE72DE915
:10420000F04385B01D0091460E4607464FF000046E
:1042100001D097F8304102220121FFF703F94FF056
:10422000000838B90021384600F052F910B9B9F148
:10423000010F11D086F8008000280AD1002D08D087
:10424000224601213846FFF7EDF8002801D187F812
:10425000304105B0BDE8F083012004A9CDE9001686
:10426000CDE90280424601461346384600F086F901
:10427000E2E72DE9F0411E461746054690F8304129
:104280000023324600F040F9002810D100233246C6
:1042900039462846FFF7B3FF002808D122460121FE
:1042A0002846FFF7BFF8002801D185F83041BDE866
:1042B000F0812DE9F74F96B006462C200B90002098
:1042C0000E9011908DF84C008DF850001290B6F8B9
:1042D0003CA14FF0B4094FF0030B01464FF0060824
:1042E000074672180020491C82F824014145F8D382
:1042F0000122FF213046FFF795F8040079D1002212
:104300004F213046FFF78EF80400F7D12C224E21C2
:104310003046FFF787F80400F0D10022FF21304635
:10432000FFF780F80400E9D14A46B6213046FFF78E
:1043300079F80400E2D1002280213046FFF772F8BC
:104340000400DBD1002314AA13A93046FFF791FF24
:104350000400D3D106F592730EAACDF8008006931F
:104360000E90CDE903B29A1D0A92CDE90190014663
:10437000304600F0F3FD04003BD109A930460E9D04
:1043800001F094F8040034D1BDF82410514531D91E
:1043900000213218401C82F824114045F9D300E076
:1043A0006D1C09EB050000F0E5FE10B90B98854285
:1043B000F6D301200EA9CDF800801590CDE903B108
:1043C000CDE9019501463046069B0A9A00F0C6FDEC
:1043D000040079D109A930460E9D01F067F8040068
:1043E00072D1BDF82410514505D901205F461290C5
:1043F00001E051E0159089B2514555D215981290BF
:104400005F4642460FA80699FBF7E0FEBDF8241070
:10441000B1EB0A0000D54042834611AB2A46414623
:104420000A9800F0FAFD1198411C0FD0484400F0A2
:10443000A1FE159988422ED1119D41462A467F1C26
:10444000069800F0D5FD040003D03DE06FF0310484
:104450003AE030466D1C069901F076F8040033D13D
:1044600009A9304601F022F804002DD1BDF824102E
:10447000B1EB0A0000D5404251450ED958450AD942
:104480000FA9304601F060F8044642460FA906988D
:10449000FBF79CFE7F1E3CB116E0834642460FA808
:1044A0000699FBF793FEB8E71798076018991298DA
:1044B0000870012086F815011798007886F8130116
:1044C0001898007886F8140119B02046BDE8F08FDE
:1044D00010B541F0010204460021FEF7A3FF0028B9
:1044E00011D12046FFF770FE00280CD10021204694
:1044F000FEF75CF9002806D120460022BDE81040F6
:104500001146FEF78FBF10BD2DE9F04385B04FF087
:1045100000051E0091460F4680462C468DF810502F
:1045200001D098F8305101221146FEF77BFF38B9CF
:1045300040214046FFF7CCFF10B9B9F1010F10D070
:104540003C7000280AD1002E08D02A46012140469E
:10455000FEF768FF002801D188F8305105B0BDE8AA
:10456000F083012004A900970394CDE901102246AD
:1045700001461346404600F001F8E2E72DE9FF4FFF
:1045800081B00020DDE90EA9DDE910650F468DF848
:1045900000009B460122FF210198FEF743FF0446DD
:1045A000002211460198FEF73DFF40EA0408002270
:1045B000FF210198FEF736FF40EA08046FB12EB1E3
:1045C0005246CB210198FEF711FC0443A5B16A467F
:1045D000EE210198FEF70AFC0DE02EB1CB21039AE3
:1045E0000198FEF71FFF044335B15B468022EE21A0
:1045F0000198FEF701FF04430122FF210198FEF715
:1046000011FF0443012200210198FEF70BFF044330
:104610000022FF210198FEF705FF9DF800102043BE
:1046200001F0EF0289F8002005B0BDE8F08F2DE918
:10463000FF4107464FF4FA6002900020039044F6D1
:1046400020600E466FF0030581424FD3A6F6363444
:1046500069463846FEF727FB002844D19DF8001034
:1046600029B99DF8011011B99DF8021001B302AAF1
:104670000221384600F004FD002834D19DF80010D6
:1046800029B1029901F24E21A1422FD2641A9DF85C
:10469000021021B1029901F2B221490005E09DF812
:1046A000011029B1029901F52571A1421ED2641AA7
:1046B0009DF8031061B103AA0321384600F0E0FC25
:1046C000039901F52571A14210D2641A00280AD17C
:1046D0009DF80410002906D0A4F2262204213846B1
:1046E00000F037FF7E6104B0BDE8F0812846FAE7AC
:1046F0002DE9F0479046894686B004460025B42649
:1047000006274FF02C0A0122FF21FEF78BFEB0B9DD
:1047100000224F212046FEF785FE80B92C224E2133
:104720002046FEF77FFE50B90022FF212046FEF70B
:1047300079FE20B93246B6212046FEF773FE0020EE
:1047400001462218401C82F82411B842F9D3B8F16E
:10475000000F01D106E06D1C701900F00BFD08B9C7
:104760005545F8D305A90097CDE90391CDE9016539
:1047700004F592739A1D4146204600F0EFFB002895
:1047800006D1012184F8151184F8139184F814815D
:1047900006B0BDE8F087000010B586B000F086F9DD
:1047A00019480024016841F002010160006800F02E
:1047B0000200059014481030016841F400110160B6
:1047C0000068694600F4001005904FF440700090B6
:1047D0001220CDE901040420CDE903400B48FCF789
:1047E00019F90C480A4901600B49C0E901144FF45A
:1047F0008041C0E9034144618461C4610462FCF703
:10480000DDF906B010BD000030380240000402405F
:1048100000540040F0080020801A060038B500F06F
:10482000AFF8FFF7B9FF02236A460021862000F0A7
:10483000D1F8002838D19DF80010002934D19DF816
:104840000110162930D102236A460021842000F08D
:10485000C1F8002828D19DF80010002924D19DF826
:104860000110162920D1114DFF24022328608DF854
:1048700000408DF801406A461421862000F0C8F8F7
:10488000002811D18DF80040BF208DF801000223CF
:104890006A461421842000F0BBF8002804D16FF090
:1048A000C020286000F0CEF838BD00009807002036
:1048B000194A632853780DD005DCC0B1012809D00E
:1048C000022804D11AE06C2811D0722816D04FF0BB
:1048D000FF307047D07820F08000D07011B140F0E8
:1048E0008000D070012313218420D21C11E023F01A
:1048F0004000507049B140F0400005E023F08000D6
:10490000507011B140F080005070012313218620B7
:10491000521C00F07DB80000980700202DE9F041FE
:10492000154F00217F223B1FDFF850E011E000BF50
:104930001EF8044017F821C022EA040502FA0CF41C
:104940001E6805FA0CF5A6432E43491C1E60042977
:104950000EDA445C002CEBD108E000BF17F8210010
:104960001C6802FA00F00443491C1C600429F5DBB2
:10497000BDE8F04100F066B89C070020705A0008BE
:1049800038B511480024016841F400110160006845
:10499000224600F40010009021461120FCF770FB25
:1049A0001120FCF762FB0A48084901604FF4E1312D
:1049B000C0E901140C21C460C0E904418461C461F0
:1049C000BDE83840FCF764BF303802400044004086
:1049D000100800207CB5054664201C4616468DF85C
:1049E00004100090A9B2012301AA0848FCF75EFA5E
:1049F000002809D1642104FB01F00090A3B2A9B200
:104A000032460248FCF75EF97CBD0000F008002049
:104A100030B585B01C46134605468DF80410224675
:104A200019460DF10500FBF7D1FB6420641C0090D2
:104A3000A3B2A9B201AA0248FCF738FA05B030BD0A
:104A4000F008002010B50223084A12218620FFF743
:104A5000DFFF002808D1054A0223921C1221BDE87D
:104A600010408420FFF7D4BF10BD0000980700203D
:104A700038B502F10A03009393B290F86021D0F8A0
:104A80005C0142F001040A462146FCF71BF938BDDF
:104A900038B502F10A03009393B290F860410A46D8
:104AA000D0F85C012146FCF701FA38BD2DE9F04F42
:104AB000DFF80881002687B0D8F80010B24641F030
:104AC0000201C8F80010D8F80000012200F002002E
:104AD0003B4C1702069039462046FCF764F8012249
:104AE000550229462046FCF75EF84FF440700190CD
:104AF00011204FF00109CDE9020901A92046FBF779
:104B000089FFAB460025002239462046FCF74BF8CA
:104B10000120FBF755FF012239462046FCF743F8F8
:104B20000120FBF74DFF6D1C0A2DECDB594620469A
:104B3000FCF734F818B93046761C0728E2DB5946F2
:104B40002046FCF72BF8002835D1D8F8002042F099
:104B50000102C8F80020D8F8000001A900F0010007
:104B60000090202081E80106164C2046FBF752FFFA
:104B70004FF42575012220212046FCF714F821204E
:104B8000FBF71EFF002220212046FCF70CF8212015
:104B9000FBF716FF012220212046FCF704F8212014
:104BA000FBF70EFF002220212046FBF7FCFF2846E2
:104BB000FBF706FFDEE707B0BDE8F08F30380240B4
:104BC00000040240000002400FB4084B10B504A9D5
:104BD00002AA039800F01CF8044602A9002000F085
:104BE000B8F9204610BC5DF814FB0000534F0008D4
:104BF00002E008C8121F08C1002AFAD170477047A6
:104C0000002001E001C1121F002AFBD17047000003
:104C10002DE9FF4F8BB088460546002606E0252883
:104C20000BD0DDE90D1290476D1C761C287800280A
:104C3000F5D10FB03046BDE8F08F0024A146A24662
:104C40000122AE4900E0044315F8013F203B02FA7F
:104C500003F00842F7D128782A2810D06FF02F02ED
:104C60002878A0F13001092915D809EB890102EB58
:104C7000410144F0020400EB01096D1CF0E758F813
:104C8000041B5FEA010903D544F40054C9F100098B
:104C900044F002046D1C28782E2817D115F8010F56
:104CA00044F004042A280ED06FF02F022878A0F1D7
:104CB000300109290AD80AEB8A0102EB410100EB15
:104CC000010A6D1CF2E758F804AB6D1C28786C28BB
:104CD0000FD006DC4C2817D068280DD06A2814D1D4
:104CE00004E0742810D07A280FD10DE044F40014A9
:104CF0000AE044F4801401E044F4401469788142ED
:104D000002D104F580146D1C6D1C2878692865D0CB
:104D100006DC00288DD0632827D0642806D15DE00A
:104D20006E2808D073282AD0752877D0DDE90D12B7
:104D30009047761CE0E0C4F30250022809D0032813
:104D40000DD0D8F8001004280DD00E6008F104082A
:104D5000D2E0D8F80010F217C1E90062F6E7D8F8FF
:104D600000100E80F2E70E70F0E718F8041B8DF8C3
:104D7000001000208DF80100EB46012003E058F8F8
:104D800004BB4FF0FF3061074FF0000701D40AE089
:104D90007F1C57450DDA8742FADB1BF80710002904
:104DA000F6D106E07F1C8742FCDB1BF807100029C8
:104DB000F8D1DDE90D23A9EB07008146214600F07B
:104DC000B1F83044C61904E0DDE90D121BF8010BFF
:104DD00090477F1EF8D22146484688E058F8040BD9
:104DE000C4F302514FF00A0B032900D100B2042989
:104DF00000D140B2002802DA40422D2102E0210514
:104E000005D52B218DF82410012104E006E0E107EF
:104E100010D02021F6E708AF089113E058F8040BF2
:104E2000C4F302514FF00A0B032900D180B20429C8
:104E300000D1C0B20021EEE75946FBF7AFFA30319E
:104E400007F8011D0028F7D1ADEB070000F1200B9A
:104E5000600702D524F4803401E04FF0010ADA45FE
:104E600002DDAAEB0B0000E00020824600EB0B0104
:104E700008980144A9EB01000A90E00306D4DDE99B
:104E80000D2321460A9800F04DF806444FF0000922
:104E900008E009A911F80900DDE90D12904709F1B0
:104EA0000109761C08998945F3DBE0030CD5DDE99F
:104EB0000D2321460A9800F035F8064404E0DDE9A8
:104EC0000D1230209047761CBAF10001AAF1010AB8
:104ED000F5DC05E0DDE90D1217F8010B9047761CB3
:104EE000BBF10001ABF1010BF4DC0A982146DDE9CE
:104EF0000D2300F005F806446D1C97E60928010013
:104F00002DE9F041044600251E461746880404D4C6
:104F100005E039462020B0476D1C641EF9D52846AF
:104F2000BDE8F0812DE9F041044600251E4690467B
:104F3000C80301D5302700E02027880404D505E008
:104F400041463846B0476D1C641EF9D52846BDE879
:104F5000F0810A68531C0B60107070472DE9FF4FF9
:104F600083B00024DDE9125A149F9B46DDF840907F
:104F700026466FF0310800951AE06B462A464946EE
:104F8000059800F04AF80098411C06D01199084491
:104F900000F0F0F80499884202D044463D6023E0D6
:104FA000009D49462A46584600F022F86D1C761CA2
:104FB0005645E2D33D60BCB95946039800F0C4FAA7
:104FC000040011D101A9039800F055F8044600200F
:104FD00001A907E01BF800200B5C9A4201D044466F
:104FE00002E0401C4845F5D307B02046BDE8F08FED
:104FF00070B50825B2FBF5F3B2FBF5F604460020C8
:1050000005FB16228B4202D36FF0310070BDE15CCC
:10501000012595402943E15470BD2DE9F043082551
:1050200081464FF0FF301860B2FBF5F0B2FBF5F6A9
:1050300005FB10274FF0000C304615E0002219F850
:105040000040B04202D1FC403A460AE05FEAC47830
:1050500005D000FB05224FF0010C1A6003E0640844
:10506000521CAA42F2D3401C884202D2BCF1000F6B
:10507000E4D0BDE8F08306230A46B021FDF70CBF5B
:105080002DE9F04100248AB0174680468DF81C4077
:105090002546ADF81840264641B1012906D002291F
:1050A00004D0032912D0042929D05DE06A460021EA
:1050B0004046FDF731FE040005D107AA46214046CF
:1050C000FDF794FE04469DF81C0015E06A46002199
:1050D0004046FDF721FE040046D16A4600214046C5
:1050E000FDF71AFE040005D106AA51214046FDF73E
:1050F000B5FE0446BDF81800FEF780FB2DE004A9BC
:105100004046FDF7D0FD9DF81300002590B16A469A
:1051100000214046FDF700FE04001DD106AA5121E2
:105120004046FDF79BFE0446BDF81800FEF766FBFF
:1051300085B28CB96A4601214046FDF7EDFD0400B9
:105140000AD108AA71214046FDF788FE0446BDF841
:105150002000FEF753FB86B2701B81B29DF8002041
:105160004046FEF73AFB05463D600AB02046BDE8E2
:10517000F08100000146044A8909012052F82110FB
:10518000002900D10020704788070020D2B00024F9
:105190004F9401208DF82C4125464E940490FBF746
:1051A0002BFFFCF76BFFFCF7BDFDFCF7FDFDFDF7EA
:1051B000B5F8FFF733FBA9A0FFF7B0FB4FF425705C
:1051C000FBF7FEFB0120FCF7EFFEA64E4D900127FA
:1051D000C6F86C41C6F8FC7205A94FF49670C6F883
:1051E0008C4400F0E9FB20A800F0D8FB3AA800238B
:1051F00000904FF47A7219464FF4C87000F0B4FB77
:10520000FCF708FFA246BB46B14606E0022D04D0DB
:10521000032D0CD00120FCF7B5FBC9F86CA1C9F82F
:10522000FCB24FF001084846C9F88CA408E0C9F860
:105230006CB1C9F88CB44FF002084846C9F8FCA21A
:105240000026074606EBC60000EB061007EB00142D
:10525000B946D4F8680138B1D4F86C0120B12046C1
:10526000FDF7A6FFC4F870A1761C032EEADB002729
:105270000120FBF7A5FB002606EBC60000EB06119C
:1052800009EB0114D4F86801C0B1D4F86C01A8B1DD
:1052900020464BA9FDF751FC9DF82C0170B120462A
:1052A0000021FDF783FA70492046FDF767FC204690
:1052B0006D49FCF78DFE7F1CC4F870B1761C032E7F
:1052C000DADB4745D4DB35B1012D2FD0022D55D087
:1052D000032D28D182E099F810034C4660B163A1F8
:1052E00001A8FFF771FC94F8F1028DF8040000BFEB
:1052F000FBF728F950B16DE0D9F808130A2091FBAB
:10530000F0F25CA101A8FFF75FFCF1E7FCF780FD7C
:1053100010B14D98032807D0012558A101A8FFF727
:1053200053FCFCF7FBFF89E0032525E099F81013F7
:1053300039B105A94FF4966000F0A4FA012804D011
:105340000BE005A9D9F80803F6E74F9848B100200B
:105350004AA14F9001A8FFF737FCFBF7F3F820B103
:105360006CE0012047A14F90F4E7FCF751FD10B12C
:105370004D980328D8D0022544A1CFE799F81013FF
:1053800021B9D9F8080308B120A902E020A94FF4F7
:10539000966000F0BBF9022807D14E9848B1002072
:1053A0003CA14E9001A8FFF70FFCFBF7CBF820B112
:1053B00044E0012039A14E90F4E7FCF729FD10B13B
:1053C0004D980328B0D0002536A101A8FFF7FCFBBB
:1053D000FCF7A4FF01A8FFF7A1FA1EE799F88001E6
:1053E000494670B14FF4966091F8A02462B14FF431
:1053F00096613AAA00F02EF9082808D0092810D0A2
:1054000019E0D1F87801EFE7D9F89814F1E704989A
:10541000401C032800DD00200146049001AA012061
:1054200007E00498401E00D503200146049001AA1D
:105430000020FBF767F9FBF785F828B101A8FFF713
:105440006DFA012DC9D0E1E6FCF7E2FC0028BAD1E3
:10545000FCF764FF01A8FFF761FAE8E635334C304A
:105460000000000024000020AC070020722D2D2D2C
:105470000000000025336463000000005B40405DD5
:1054800000000000205B5D20000000002D2D2D2D70
:10549000000000005F5F5F5F000000005E5E5E5E18
:1054A00000000000202020200000000070B50E4603
:1054B00088B0054690F83041C0220121FDF7B2FFC7
:1054C000002823D169462846FDF76FFC00281DD12E
:1054D0000122FF212846FDF7A5FF002816D13246FC
:1054E000B6212846FDF7BAFC00280FD10022FF2183
:1054F0002846FDF797FF002808D1224601212846BB
:10550000FDF790FF002801D185F8304108B070BD4B
:1055100010B500201870052913D2DFE801F003064A
:10552000090C0F00C2F3001109E0C2F3C00106E04C
:10553000C2F3800103E0C2F3801100E0D1091970C9
:1055400010BD6FF0030010BD06230A46B021FDF721
:105550008FBFF0B587B01646054661B101290AD064
:10556000022908D0032922D004293ED06FF0030479
:1055700007B02046F0BD05AA0021FDF7CDFB0400D1
:10558000F6D19DF8142031462846FEF715F980B271
:10559000B0F5807F01D9FF2201E0401EC2B2A5F81C
:1055A000D82046212846FDF73DFF0446E0E705AA3E
:1055B0000021FDF7B1FB04469DF814203146284632
:1055C000FEF7FAF880B2FEF748F9ADF80800024697
:1055D000A5F8D800002CCBD151212846FDF734FF87
:1055E0000400C5D1C5F8E460C2E703A9FDF75BFB81
:1055F0009DF80F00002798B105AA00212846FDF765
:105600008BFB0400B4D102AA51212846FDF726FCE9
:105610000446BDF80800FEF7F1F887B2002CA7D1C8
:1056200005AA01212846FDF777FB0400A0D19DF8CB
:10563000142031462846FEF7BFF83844FEF70DF92E
:10564000024671212846FDF7FFFE040090D1C5F8FF
:10565000DC608DE72DE9F0411446884606460025BA
:10566000FBF7A6FA074604F10C01304600F0B7F943
:10567000064604F12001404600F0B1F9626B0021BA
:1056800012B1012A38D124E094F808C001235A1F2E
:10569000BCF1000F04D0032807D0012802D02BE072
:1056A000032804D0032E09D026E0012E24D121683E
:1056B000606A88420BDD84F8383005E02668606A4D
:1056C000B04204DD84F83810E763636314E01546E4
:1056D00012E0E26B6368BA1A934203DA6FF00205D4
:1056E000616309E094F8382012B1032E07D001E07D
:1056F000032804D04FF0FF352846BDE8F0816163F0
:105700000AB10925F8E70825F6E700002DE9F04180
:105710000C462DED048B0746FBF74AFA054600219F
:105720009FED509B206848B105281ED0062863D005
:1057300021602068BDEC048BBDE8F081206D10B1C4
:10574000201DFCF7F6FBA065FAF7DFFD53EC192BE3
:10575000FAF769FDFAF7EAFDB84248DD606E10B16C
:10576000401E6066E5E705202EE0206D10B1201D8B
:10577000FCF7DFFBE065FAF7C8FD9FED3C1B53EC3F
:10578000112BFAF750FD41EC180B3846FAF7BDFD26
:10579000884648EC100B064653EC182B51EC100BC6
:1057A000FAF7E4FD0FD348EC186BE06DFAF7ADFDA6
:1057B0009FED301B53EC112BFAF735FD53EC182BF2
:1057C000FAF7D4FD0BD2062020601021201DFCF733
:1057D00082FB3946201DFCF7B4FB2566A9E7206E45
:1057E000281AB0F57A7F02DD6FF0020033E0394607
:1057F000201DFCF7A6FB9CE73846FAF786FD0F460E
:10580000064647EC180BA06DFAF77FFD53EC192BF9
:10581000FAF709FD53EC182BFAF7A8FD15D2A06D85
:10582000FAF773FD9FED151B53EC112BFAF7FBFCF8
:1058300041EC100B47EC116B53EC102B51EC110B9E
:10584000FAF794FD01D2022005E0206E281A6428A0
:1058500088DD6FF0010020601021201DFCF73BFB6C
:1058600067E700009A9999999999E93F333333335F
:105870003333E33F666666666666F63F333333333B
:105880003333F33F2DE9F0470C460646FBF790F91A
:10589000054604F108006168824621B14FF0000915
:1058A000052923D056E0606D10B15046FCF741FB4E
:1058B0006066FAF72AFD9FED2A1B53EC112BFAF7CD
:1058C000B2FCFAF733FD86420BDA05206060102146
:1058D0005046FCF700FB31465046FCF732FBA5660C
:1058E0003AE031465046FCF72CFB35E03146FCF7F8
:1058F00028FB216E606D88422ED15046FCF700FBDC
:1059000007465046FCF7A6FAE16D4FF00408691A05
:105910000C2F19DD002817DAFA2915DD2168606ED1
:10592000884207DD10215046FCF7D5FA0320C4E970
:10593000180611E010215046E565FCF7CCFA01206D
:10594000C4F86080606007E010215046FCF7C3FA9D
:10595000C4F86080C4F804906068BDE8F087000077
:10596000666666666666EE3F2DE9F0470E46089C61
:105970001D469046814604F10C0100F065F807468B
:1059800004F12001484600F05FF8C4E9006838439C
:10599000257200216163E163BDE8F08710B504461C
:1059A0001021001DFCF797FA01460020A065E06574
:1059B00020606066084610BD70B50C460546102193
:1059C00004F10800FCF787FA014600200422C4E92C
:1059D00017026066C4E90050A066084670BD70B545
:1059E0000C460546FBF7E4F8227C00215AB12174ED
:1059F000C4E902502068A84201DD012000E0022035
:105A00000121616070BD61602268AA4201DD01214F
:105A100000E00021A368934201DB012200E00022A4
:105A2000A560E36892EA010FA0EB0303636004D072
:105A300009B1012106E0022104E009B1042100E0DE
:105A40000321E060084670BD086001200874002052
:105A500048608860C86070470000000001020304CD
:105A600001020304060708090006101600061016B6
:105A70000000000000000000000000000000000026
:105A80000000000000000000000000000000000016
:105A9000000000000000000000007F000004000083
:105AA0007B603D7C665E5F687F7E00000014002D99
:105AB000186F571B001F0F7E676071671349457B86
:105AC0002F2F055E1773513267763D1B0078081043
:105AD00000555715753F0F7E4701714711494555D0
