:020000040800F2
:10000000580D00209D01000823220008191F000838
:1000100021220008AD05000865310008000000003D
:100020000000000000000000000000002927000878
:10003000BD0500080000000045220008C92700088F
:10004000B7010008B7010008B7010008B7010008B0
:10005000B7010008B7010008B7010008B7010008A0
:10006000B7010008B7010008E3060008B70100085F
:10007000B7010008B7010008B7010008B701000880
:10008000B7010008B1050008B7010008B701000872
:10009000B7010008B7010008B7010008E906000829
:1000A000B7010008B7010008B7010008B701000850
:1000B000B7010008B7010008B7010008B701000840
:1000C000B7010008B7010008B7010008B701000830
:1000D000B7010008B701000859310008B70100084E
:1000E000DB060008B7010008B7010008B7010008E7
:1000F000B7010008B7010008B7010008B701000800
:10010000B7010008B7010008B7010008B7010008EF
:10011000B7010008B7010008B7010008B7010008DF
:10012000B7010008B7010008B7010008B7010008CF
:10013000B7010008B7010008B7010008B7010008BF
:10014000B7010008B7010008B7010008B7010008AF
:10015000B7010008B7010008B7010008B70100089F
:10016000B7010008B7010008B7010008B70100088F
:10017000B7010008B7010008B7010008000000003F
:10018000B7010008B7010008DFF80CD000F0C8F98B
:1001900000480047315C0008580D002006488047A1
:1001A00006480047FEE7FEE7FEE7FEE7FEE7FEE75C
:1001B000FEE7FEE7FEE7FEE7712800088901000878
:1001C0002DE9F05F0546002092469B46884606468C
:1001D000814640241BE0284641464746224600F01F
:1001E00032F953465A46C01A914110D31146184667
:1001F000224600F019F92D1A67EB01084F462246F6
:100200000120002100F010F917EB00094E41201EDB
:10021000A4F10104DFDC484631462A46434600F09B
:1002200000B830BCBDE8C09F40EA01039B0703D083
:1002300009E008C9121F08C0042AFAD203E011F825
:10024000013B00F8013B521EF9D27047D2B201E0E7
:1002500000F8012B491EFBD270470022F6E710B5CB
:1002600013460A4604461946FFF7F0FF204610BD24
:10027000034611F8012B00F8012B002AF9D118468A
:1002800070472DE9FE4F81EA030404F0004421F099
:10029000004100944FF0000B23F0004350EA0104AA
:1002A0005ED052EA03045BD0C3F30A54C1F30A558B
:1002B0002C44A4F2F3340194A0FB0254C1F31301C3
:1002C00041F48011C3F3130343F4801301FB024490
:1002D00000FB034E840A970A44EA815447EA835795
:1002E000A4FB076802958D0A05FB07854FEA932C4E
:1002F00004FB0C542705029D4FEA065847EA1637BF
:10030000B5EB08056EEB070C870E920E47EA8117D6
:1003100042EA8312A7FB0201B6EB0B0164EB000477
:100320002B0D43EA0C335E1844EB1C50DA46514661
:10033000E7FB0201C5F313044FEA0B3343EA1453FE
:100340004FEA0432019C43EA0603A4F10C04029430
:10035000009CCDE900B400F095F803B000F003B8BC
:1003600000200146F9E730BCBDE8C08F0EB5C10FD3
:1003700080EAE0700844CA07002140F233438DE868
:100380000E000A460B4600F07DF803B000BD70B5C4
:10039000C1F30A5201F000450024C1F3130140F2F9
:1003A000FF3341F480119A4201DA002070BD40F21F
:1003B00033439A42A2F2334203DC524200F043F844
:1003C00000E090402C43F1D0404270BD30B5041E97
:1003D00071F1000404DB4FF00044404264EB010182
:1003E000141E73F1000405DB1C464FF0004352421B
:1003F00063EB04038B4208BF824230BD30B50B462D
:10040000014600202022012409E021FA02F59D4244
:1004100005D303FA02F5491B04FA02F52844151E18
:10042000A2F10102F1DC30BD202A04DB203A00FAFF
:1004300002F1002070479140C2F1200320FA03F33B
:10044000194390407047202A04DB203A21FA02F039
:100450000021704721FA02F3D040C2F120029140FE
:1004600008431946704710B5141E73F1000408DAEA
:10047000401C41F1000192185B411A4301D120F068
:10048000010010BD2DE9F04D92469B4611B1B1FA25
:1004900081F202E0B0FA80F220329046FFF7C4FF0A
:1004A00004460F4640EA0A0041EA0B0153465A4609
:1004B000084313D0114653EA010019D0C8F1400295
:1004C0005046FFF7C0FF05460E4650465946424685
:1004D000FFF7AAFF084305D0012004E02046394673
:1004E000BDE8F08D0020054346EAE0762C43374313
:1004F0000A986305E40AA0EB08000022FD0A44EA1A
:1005000047540A3002D500200146E9E701051019D9
:100510006941DDE9084500196941BDE8F04DA2E7F0
:10052000064C074D06E0E06840F0010394E8070040
:1005300098471034AC42F6D3FFF72AFE386600081D
:100540005866000870B58C1810F8015B15F00703A9
:1005500001D110F8013B2A1106D110F8012B03E05C
:1005600010F8016B01F8016B5B1EF9D12B0705D464
:100570000023521E0DD401F8013BFAE710F8013BAD
:10058000CB1A921C03E013F8015B01F8015B521EC9
:10059000F9D5A142D8D3002070BD00004FF400511E
:1005A000014800F0B6BA000000080048FEE700006D
:1005B000014800F0D3B80000800800207047000018
:1005C0002DE9F14F40A084B0D0E90010CDE9001032
:1005D00000240021204604F0BDFE641C032CF8DB3F
:1005E000DFF8EC800024A1464FF0520A4FF0540B84
:1005F00008F1240604EBC40000EB041006EB001520
:10060000012185F860A1C5F86891D5F8640104F06E
:10061000A1FE022000F06AF90BEB440702AAC021F8
:10062000284603F053F9A8B9BDF80800A0F56E41BB
:10063000AA390FD1F9B2284603F07EF950B985F8EE
:10064000607102AAC021284603F040F9284602F052
:1006500005FE48B30021204604F07CFE641C032CF8
:10066000C8DB0498D8B100206A4600EBC00101EB5A
:10067000001106EB0111D1F868311BB1131891F884
:1006800061115970401C0328EFDB20208DF8000019
:10069000104604F095FE4FF47A7000F027F9D8F870
:1006A000080005B000F016B80121C5F86811D8F8A7
:1006B0000820521CC8F80820D8F81420A140114383
:1006C000C8F81410CAE70000202020200000000015
:1006D0000000002030BCBDE8C08F4FF4806000F007
:1006E00023B9102000F020B9802000F01DB910B50A
:1006F00000238B4204D108B15D2402E05B2400E0BA
:100700002D245B1C02F8014B042BF2DB10BD70B5ED
:1007100090F825100024022903D00421C16301248C
:100720001AE001680A6822F00E020A6001680A688D
:1007300022F001020A60016C4B6890F844500126D7
:1007400006FA05F213434B6080F82560002180F81B
:100750002410816B01B18847204670BDF0B4016C54
:100760000B6801680A68446C042606FA04F51D4209
:1007700011D055070FD50A68920603D40A6822F0F3
:1007800004020A60016C4A6890F844309E4032438B
:100790004A60016B1FE0022707FA04FC1CEA030F02
:1007A0004FF000064FF0010519D05FEA827C16D5A4
:1007B0000A68920605D40A6822F00A020A6080F8E4
:1007C0002550016C4A6890F844309F403A434A6093
:1007D00080F82460C16A00291AD0F0BC08470827B5
:1007E000A7401F4214D0120712D50A6822F00E0249
:1007F0000A60016C4A6890F8443005FA03F31A4322
:100800004A60C56380F8255080F82460416BE2E7B8
:10081000F0BC704770B570B1314D01681424314A95
:100820008368A94209D2304D0D44B5FBF4F4A4000D
:10083000C0E910240BE0012070BD294D6D420D442C
:10084000B5FBF4F4A4004464254C083C0464022481
:1008500080F825400C6843F6F075AC43C5682B431F
:10086000D0E9045635432B4385692B43C5692B4397
:10087000056A2B4323430B608168B1F5804F21D07B
:10088000016C0F2391420ED152F8A81F90F84440FA
:10089000A3409943116090F844304168994013682F
:1008A000194311600EE00E49A0310A6890F84440E7
:1008B000A3409A430A6090F8443042689A400B681B
:1008C0001A430A600021C162016341638163C1630D
:1008D000012280F8252080F82410084670BD000011
:1008E0000804024000000240F8FFFDBF70B5044656
:1008F00000F01AF9054600F017F9401BA042FAD3A0
:1009000070BD10B5102809D080280AD0B0F5806FCE
:1009100003D10146022002F027FC10BD0146012050
:10092000F9E701460020F6E7044910B50A680242DB
:1009300002D00860FFF7E5FF10BD0000140401407D
:100940002DE9F84FDFF8A091002209F1040A0AF11D
:10095000040B4FF00F080BF1040EBEE0012494408D
:10096000234075D04D68022D01D0122D11D1D5082C
:1009700000EB85073E6A5507ED0E08FA05FC26EAEE
:100980000C06D1F810C00CFA05FC4CEA060CC7F8AE
:1009900020C007685500032691F804C0AE400CF053
:1009A000030CB7430CFA05FC4CEA070CC0F800C076
:1009B0004F68012F05D0022F03D0112F01D0122F25
:1009C00015D18768D1F80CC0B7430CFA05FC4CEA86
:1009D000070CC0F808C0476891F804C0A743CCF3DF
:1009E000001C0CFA02FC4CEA070CC0F804C0D1F859
:1009F00004C06FEA0C07BF0706D1C76AA743CCF350
:100A0000C00494403C43C462C468B4438E68AE40A2
:100A10002643C6604C68E4005ED5344C256E45F034
:100A200001052566246E22F0030504F001040094FC
:100A30002F4C2E19B7689407250F08FA05F4A74321
:100A4000B0F1904F05D02B4CA04204D101241CE002
:100A500042E0002419E0284CA04201D1022414E015
:100A6000264CA04201D103240FE0254CA04201D125
:100A700004240AE0234CA04201D1052405E0224CC5
:100A8000A04201D1062400E00724AC403C43B460FE
:100A9000D9F800404D464E689C43F60300D51C43F0
:100AA0002C60DAF8004055464E689C43B60300D5EA
:100AB0001C432C60DBF800405D464E689C43F60208
:100AC00000D51C432C60DEF8004075464E689C4300
:100AD000B60200D51C432C60521C0B6833FA02F49A
:100AE0007FF43CAF00F012B8000401400010024057
:100AF000000001400004004800080048000C0048C5
:100B000000100048001400480018004818BCBDE858
:100B1000E08F0069084000D0012070470AB1816170
:100B2000704781627047000001480068704700000C
:100B3000D804002070B5040004D094F841000025CA
:100B400010B106E0012070BD84F84050204600F04E
:100B50007AF9242084F841002068016821F001011D
:100B600001606068216820F0706008612068816819
:100B700021F400418160A06830B1E168012907D00B
:100B800040F4044021688860E068022803D006E051
:100B900040F40040F6E721684FF4006048602068A8
:100BA00041680F4A11434160D4E904010843A16937
:100BB00040EA01202168C860D4E9070108432168A0
:100BC00008602068016841F001010160656420202F
:100BD00084F84100256384F84250002070BD000075
:100BE000008000022DE9F84F044690F84100DDF83E
:100BF00028A01F4690468B4620287CD194F84000C0
:100C0000012878D0012084F84000FFF78DFF0646C8
:100C1000012200901923D103204601F0E1F940BBE5
:100C2000222084F84100102084F8420000256564E9
:100C3000C4F8248067856563618DFF274FF41050E9
:100C40004FF080784FF00079FF2903D927853A4685
:100C5000009032E0618D2185009033E059462046B6
:100C600001F0ACF932E001F0E5F918B1606C04284C
:100C700048D019E02068416A606A421C62620170D3
:100C8000208D401E0004000C2085618DA1F1010122
:100C900061851BD1608DC8B153460022802120465A
:100CA000009601F09DF910B1032000F031B8608D7D
:100CB000FF2804D927853A4600954346CEE7608D44
:100CC0002085009594F828204B46C7E7608D324672
:100CD000002851462046C6D101F0ECF90028C5D1C4
:100CE00020682021C16120684268084B1A40426098
:100CF00084F8411000E007E084F8425084F8405046
:100D00000020D2E70120D0E70220CEE700E800FE75
:100D100018BCBDE8E08F00002DE9F84F044690F8BC
:100D20004100DDF828A01F4690468B4620287CD144
:100D300094F8400001287FD0012084F84000FFF79C
:100D4000F3FE0646012200901923D103204601F04C
:100D500047F938BB212084F84100102084F8420074
:100D600000256564C4F8248067856563618D400251
:100D7000FF274FF080784FF00079FF2903D92785AE
:100D80003A46009031E0618D2185009032E059466D
:100D9000204601F013F931E001F0B3F918B1606CAD
:100DA000042847D018E0606A411C6162216800781D
:100DB0008862608D401E6085208D401E0004000CFE
:100DC00020851BD1608DC8B153460022802120466A
:100DD000009601F005F910B1032000F031B8608DE4
:100DE000FF2804D927853A4600954346CFE7608D12
:100DF0002085009594F828204B46C8E7608D324640
:100E0000002851462046C7D101F054F90028C6D128
:100E100020682021C16120684268084B1A40426066
:100E200084F8411084F8425000E005E084F8405016
:100E30000020D2E70120D0E70220CEE700E800FE44
:100E400018BCBDE8E08F704702480168491C01608A
:100E500070470000D8040020074810B5016841F42D
:100E600080710160032000F053F80F2000F006F8B5
:100E700000F018F8002010BD0020024010B5044614
:100E800007484FF47A710068B0FBF1F000F025FEDE
:100E900000222146501E00F01BF8002010BD00006B
:100EA000D404002010B5032000F032F80022BDE881
:100EB00010401146501E00F00BB800F01F02012137
:100EC00091404009800000F1E020C0F80011704717
:100ED000F0B40E4B1B68C3F30223C3F10704042CC8
:100EE00000D904241D1D072D01D2002300E0DB1EC4
:100EF000012606FA04F56D1E0D409D409E40761EAB
:100F0000164045EA0601F0BC01F08CB90CED00E09A
:100F1000064A00F0070110684FF6FF03184040EA48
:100F20000120034908431060704700000CED00E009
:100F30000000FA051549B0F5007F0868C0F34120AC
:100F400009D0022805D0086820F4C06040F4806011
:100F50000860002070470128FBD0086820F4C060BA
:100F600040F4007008600A480A4A0068B0FBF2F0DA
:100F70003222504300E0401E10B14A695205FAD4B3
:100F800048694005E5D50320704700000070004027
:100F9000D404002040420F000248006800F4C06002
:100FA00070470000007000402DE9F84F044600250E
:100FB0000088E44E2F46010504F1200B1DD5606E1C
:100FC00078B1B0F5800F11D0B0F5000F04D0B0F5B6
:100FD000400F22D001250FE0F06840F48030F0602F
:100FE0001BE00021201D01F0F9F903E00021584623
:100FF00001F0AAFA050010D02F462088C00426D59B
:10100000A06EC0B1B0F1807F1AD0B0F1007F0DD0DA
:10101000B0F1407F19D0012518E0D6F88800616E44
:1010200020F440000843C6F88800E6E7F06840F482
:101030008030F06009E00021201D01F0CFF903E0CD
:101040000021584601F080FA0546F5B12F46206888
:10105000800366D5B06D4FF00009C00009D4B06DB3
:1010600040F08050B065B06D4FF0010900F0805045
:101070000090DFF8D4A2DAF8001041F48071CAF8C9
:101080000010FFF751FD804610E0D6F88800A16EF1
:1010900020F040700843C6F88800D8E7FFF744FD09
:1010A000A0EB0800022801D9032532E0DAF800009D
:1010B000C005F3D56DBBD6F8900010F4407015D084
:1010C000D4F88410814211D0D6F89000D6F8901050
:1010D00020F4407041F48031C6F89010D6F890109A
:1010E00021F48031C6F89010C6F89000C0074ED0A9
:1010F000FFF71AFD804641F2883A05E0FFF714FD3C
:10110000A0EB08015145CFD8D6F890008007F5D55F
:10111000EDB32F46B9F1000F03D0B06D20F0805031
:10112000B0652078C00707D0D6F88800A16B20F002
:1011300003000843C6F888002078800707D5D6F852
:101140008800E16B20F00C000843C6F88800207886
:10115000400707D5D6F88800216C20F030000843FE
:10116000C6F888002078000707D5D6F88800616C9B
:1011700020F0C0000843C6F888002078C00609D5D2
:10118000D6F88800A16C20F44070084300E05AE0D3
:10119000C6F888002078800607D5D6F88800E16C6C
:1011A00020F440600843C6F888002088800507D5F1
:1011B000D6F88800E16D20F440200843C6F8880086
:1011C0002088400507D5D6F88800216E20F440100D
:1011D0000843C6F888002078400607D5D6F888006E
:1011E000216D20F440500843C6F88800207800069E
:1011F00007D5D6F88800616D20F440400843C6F852
:1012000088002088C00507D5D6F88800A16D20F495
:1012100040300843C6F8880020884FF000658004FD
:101220004FF0806821D5D6F88800E16E20F040604C
:101230000843C6F88800E06EA8420ED1F06840F47A
:101240008010F06011E0D6F89000D4F8841020F4FB
:1012500040700843C6F890005CE7404505D1012185
:10126000201D01F0BBF800B107462068000317D528
:10127000D6F88800216F20F040600843C6F8880047
:10128000206FA84204D1F06840F48010F06007E0BD
:10129000404505D10121201D01F0A0F800B107460D
:1012A0002068400317D5D6F88800616F20F04060B1
:1012B0000843C6F88800606FA84204D1F06840F483
:1012C0008010F06007E0404505D10121201D01F0AC
:1012D00085F800B10746208840041AD5D6F8880062
:1012E000A16F20F040500843C6F88800A06FB0F10D
:1012F000805F03D0B0F1005F05D00AE00221201D1D
:1013000001F06CF803E00221584601F01DF900B12C
:1013100007462088000407D5D6F88800E16F20F042
:1013200080400843C6F888002068C00307D556F8F7
:10133000880FD4F8801020F0004008433060384611
:1013400000F004B8001002400070004018BCBDE876
:10135000E08F00002DE9F047DFF8648104460E4677
:10136000D8F8000000F00700B0420CD2D8F8001006
:1013700021F007013143C8F80010D8F8000000F050
:101380000700B04272D120784E4F800705D5B8686B
:10139000A16820F0F0000843B8602078C00754D05E
:1013A0006068022818D0032819D03968D0B14905DF
:1013B00000295BDAB96821F003010143B960FFF746
:1013C000B3FB0546606841F28831022812D0032839
:1013D0001DD0894638B333E039688903E8E73968B6
:1013E0008901E5E78907E3E7FFF79EFB411B4945D4
:1013F00001D922E08946B868C0F381000228F3D100
:1014000023E0FFF791FB411B494501D915E08946CF
:10141000B868C0F381000328F3D116E0FFF784FB1E
:10142000411B494509D8B86810F00C0FF6D10CE003
:10143000FFF77AFB411B494502D90320BDE8F0873D
:10144000B868C0F381000128F2D1D8F800104046F6
:1014500001F00701B1420BD9016821F007013143C6
:101460000160006800F00700B04201D00120E5E70C
:101470002078400705D5B868E16820F4E0600843AB
:10148000B8602078000706D5B868216920F460505C
:1014900040EAC100B86000F051F8B968F02292FA51
:1014A000A2F201F0F001B2FA82F2D140064A515C98
:1014B000C840064908600F20FFF7E0FC0020BDE7A8
:1014C0000020024000100240F0640008D404002014
:1014D0000148006870470000D4040020084809490A
:1014E000006889684FF4E06292FAA2F201F4E061C8
:1014F000B2FA82F2D140044A515CC8407047000001
:10150000D404002000100240306500080848094952
:10151000006889684FF4605292FAA2F201F46051B7
:10152000B2FA82F2D140044A515CC84070470000D0
:10153000D4040020001002403065000870B53B4B19
:101540000022104699683A4C11F00C0F4FEA6405DE
:1015500014D09968C1F38101032904D1D96801F03D
:10156000030101290AD09968C1F38101012921D021
:101570009968C1F3810102291ED01EE0196809078C
:1015800006D4D3F894104FF4706201F4706103E054
:101590001968F02201F0F00192FAA2F2B2FA82F296
:1015A000D140244A52F82120996811F00C0F04D13F
:1015B000104602E0204600E028469968C1F3810108
:1015C000032931D1D868D96800F00300702696FA53
:1015D000A6F601F07001B6FA86F6F140491C4FF408
:1015E000FE46022804D0032805D0B2FBF1F004E047
:1015F000B4FBF1F001E0B5FBF1F0D96896FAA6F280
:1016000001F4FE41B2FA82F2D1404843D9684FF06A
:10161000C06292FAA2F201F0C061B2FA82F2D14045
:10162000491C4900B0FBF1F070BD00000010024001
:101630000024F400006500082DE9F8430446007812
:10164000FE4DC00663D5A86810F00C0F0AD0A06943
:101650000028286878D040F001002860FFF764FA7D
:1016600006465AE02868800702D5A06900286AD09B
:10167000216A28684FF0F006000703D5286800F0BB
:10168000F00003E0D5F8940006EA1010814216D964
:10169000084600F0F7FF002855D1286840F0080000
:1016A00028602868216A20F0F000084328606868F4
:1016B000E16920F47F4040EA0120686015E0286875
:1016C00040F0080028602868216A20F0F0000843F4
:1016D00028606868E16920F47F4040EA0120686082
:1016E000206A00F0CFFF0028D6D1FFF727FFA968B6
:1016F00096FAA6F201F0F001B2FA82F2D140D04A95
:10170000515CC840CF4908600F20FFF7B7FB2AE0C3
:10171000FFF70AFA801B02287ED828688007F7D5D1
:10172000286840F0080028602868216A20F0F0004E
:10173000084328606868E16920F47F4040EA01209E
:10174000686010E000E0BBE020F001002860FFF7D7
:10175000EBF9064604E0FFF7E7F9801B0228DBD827
:1017600028688007F7D4207841F28838C00748D02D
:10177000A868C0F3810002281ED0A868C0F38100C9
:10178000032803D1E868C043800715D06068B0F52E
:10179000803F18D0B0F5A02F286818D020F48030F2
:1017A0002860286820F4802028606068E0B1FFF796
:1017B000BBF90646474613E02868800321D56068D8
:1017C00000287DD01DE0286840F48030ECE740F42C
:1017D00080202860F7E7FFF7A7F9801BB8429BD865
:1017E00028688003F7D50CE0FFF79EF906464746C8
:1017F00004E0FFF799F9801BB8428DD82868800370
:10180000F7D42078800752D5A8684FF0F857C0F376
:101810008100012816D000E0B8E0A868C0F381007C
:10182000032804D1E86800F0030002280AD0E06829
:10183000002828682CD040F480702860FFF774F9E5
:10184000064616E02868400502D5E0680028B8D0B2
:10185000686897FAA7F220F0F8512069B2FA82F28C
:1018600090400143696022E0FFF75EF9801B022887
:10187000B5D828684005F7D5686897FAA7F22169B6
:10188000B2FA82F220F0F8509140084368600EE00E
:1018900020F480702860FFF747F9064604E0FFF760
:1018A00043F9801B022871D828684005F7D42078B6
:1018B000000729D560690028D5F8940013D000E00E
:1018C000FAE040F00100C5F89400FFF72DF9064654
:1018D00004E0FFF729F9801B022857D8D5F89400B7
:1018E0008007F6D510E020F00100C5F89400FFF75E
:1018F0001BF9064604E0FFF717F9801B022845D8BC
:10190000D5F894008007F6D42078400760D5A86DFC
:101910000027C00008D4A86D40F08050A865A86DCD
:10192000012700F08050009047480168C90511D494
:101930000168814641F480710160FFF7F5F80646C1
:1019400004E0FFF7F1F8801B02281FD8D9F8000047
:10195000C005F6D5A068012813D00528D5F8900059
:1019600015D020F00100C5F89000D5F8900020F0C7
:101970000400C5F89000A068C0B1FFF7D5F806468E
:101980000FE0D5F8900040F00100F2E77DE040F074
:101990000400C5F89000F4E7FFF7C6F8811B414545
:1019A00073D8D5F890008007F6D50CE0FFF7BCF8A7
:1019B000064604E0FFF7B8F8811B414574D8D5F816
:1019C00090008007F6D41FB1A86D20F08050A86564
:1019D000A06A90B3A968C1F3810103296CD00228E1
:1019E000286820F08070286011D02868000106D493
:1019F0002868800003D4E86820F00300E860E86805
:101A000012490840E860FFF78FF804464FE0FFF7FF
:101A10008BF8064604E0FFF787F8801B022843D8BE
:101A200028688001F7D4206BE16A00011038084370
:101A3000616BA26B090212090AE03BE00010024050
:101A4000F0640008D404002000700040FFFFEEFEA8
:101A500041EA42410843A18F184A490802EB41512B
:101A6000084394F840104908120102EB4161084311
:101A7000E860286840F080702860E86840F0807076
:101A8000E860FFF751F8044605E00DE0FFF74CF879
:101A9000001B022808D828688001F7D50AE0FFF764
:101AA00043F8001B022802D90320BDE8F883286808
:101AB0008001F4D40020F8E70120F6E70000E0FF01
:101AC0004FF0E0210428086903D020F004000861E9
:101AD000704740F00400FAE7704710B5401EB0F1BF
:101AE000807F01D3012010BD4FF0E02460610F2101
:101AF000601700F097FB0020A06107202061002004
:101B000010BD10B5FFF7E8FF10BD000030B590F82C
:101B10003820012A1FD0012280F8382003685A6833
:101B20009D680E4CA34202D00D4CA34203D122F477
:101B300070044A68224322F070040A6889682243CC
:101B400025F0800421435A6002689160002180F8EA
:101B50003810084630BD022030BD0000002C014086
:101B600000340140022180F8391001680A6842F00F
:101B700001020A60012180F839100020704770B519
:101B8000044690F8380001280ED0012584F838501A
:101B9000022084F839000C2A19D007DC5AB1042A33
:101BA0000DD0082A1ED10EE0022070BD102A12D0DE
:101BB000142A17D113E0206800F0D8FE12E0206844
:101BC00000F022FF0EE0206800F066FF0AE02068C7
:101BD00000F0AAFF06E0206800F0E0FF02E02068C5
:101BE00001F014F884F83950002084F8380070BDF2
:101BF00010B5040003D094F8390010B107E00120BB
:101C000010BD002084F83800204600F00DF80220B6
:101C100084F83900211D206800F04CFE012084F872
:101C20003900002010BD000008B500680B49B0F174
:101C3000804F0BD00A4A904207D1886D40F00800CF
:101C40008865886D00F00800009008BD886D40F040
:101C500001008865886D00F00100F5E70010024082
:101C6000000C00407047704770B501680446C869B1
:101C70000A6810F00F0508D1830606D5930604D52F
:101C80002046BDE8704001F0AFB88B68002D66D0EB
:101C900040F201152B4262D0C50707D0D50505D506
:101CA00001250D62E16E41F00101E166810708D571
:101CB000D90706D0256802212962E16E41F00401AE
:101CC000E166410708D5D90706D0256804212962B5
:101CD000E16E41F00201E16601070CD502F020013E
:101CE00003F00103194306D0236808211962E16E4D
:101CF00041F00801E166E16E002929D0800604D593
:101D0000900602D5204601F06FF8E06E000703D47C
:101D10002068806840061CD5204601F057F82068EE
:101D20008168490611D5816821F040018160606EAB
:101D300058B133498163606EFEF7E9FC002807D093
:101D4000606E816BBDE8704008472046FFF78BFF4F
:101D500070BD2046FFF787FF0020E06670BD8B68EE
:101D6000C6024FF020050CD55B020AD5E8030862D5
:101D700084F8695084F86A502046BDE87040FFF747
:101D800071BF03062DD513062BD594F869002128C1
:101D9000E4D1B4F8520020B1A068B0F5805F0AD059
:101DA0000BE0086820F0800008602068016841F0BE
:101DB0004001016070BD206950B1E06C411CE164DC
:101DC00021680078088534F8520F401E208070BDCD
:101DD000E06C0088C0F308000885E06C801CE064BB
:101DE000F1E74006F3D55006F1D50A68204622F007
:101DF00040020A6084F8695000F07FF870BD00006E
:101E0000B92D000810B5040003D094F8690010B192
:101E100007E0012010BD002084F86800204600F093
:101E200027F8242084F869002068016821F0010166
:101E30000160204601F014F80128EBD0606A10B16F
:101E4000204600F027FF2068416821F4904141605E
:101E50002068816821F02A0181602068016841F0D2
:101E6000010101602046BDE8104000F077BF00008E
:101E7000F0B5064600681C4987B0884231D11B483E
:101E8000816D41F400318165806D022700F40030DE
:101E900005900C20CDE9000700250320CDE9025074
:101EA0000720049069464FF09040FEF749FD114C21
:101EB0000F48C4E900071020C4E902058020C4E9E6
:101EC0000405A561E56120462562FEF7A3FC3466A2
:101ED000002211462620A662FEF7FAFF2620FEF712
:101EE000ECFF07B0F0BD00000044004000100240CD
:101EF0008000024080080020704770471FB50246EE
:101F000003A1684603F0B2FB684603F059FAFEE706
:101F10004572256400000000FEE701688A69D2432B
:101F2000920701D400228A6200688169C943C90707
:101F300003D0816941F00101816170472DE9F041D1
:101F40000446006816460D468069C043C00630D47A
:101F50004FF00008202720688069C043800610D514
:101F6000681CF8D025B1FEF7DFFD801BA842F2D92E
:101F700084F8417084F8428084F840800320BDE8F2
:101F8000F08121681020C8612068C7612046FFF7F2
:101F9000C4FF54F8440B4168074A114041600420D3
:101FA00044F82009677784F81E8084F81C8001209B
:101FB000E5E70020E3E7000000E800FE70B50068F8
:101FC000049D4468C1F30901044E41EA02411943EA
:101FD000344029432143416070BD0000009800FC5B
:101FE0002DE9F0411C4617460E460546DDF81880DF
:101FF00013E0601C11D02CB1FEF796FDA0EB080099
:10200000A0420AD9202085F84100002085F842002E
:1020100085F840000320BDE8F0812868806936EA31
:10202000000004D00020B842E3D00020F3E70120F4
:10203000F9E700002DE9F04116460D4604464FF041
:10204000000820272DE0324629462046FFF776FF7C
:1020500010B10120BDE8F08120688069C04380068E
:102060000FD42068C76120684168114A114041605F
:10207000C4F8448084F8417084F8428084F8408039
:10208000E7E725B1FEF750FD801BA84209D9606C37
:1020900040F02000606484F8417084F840800320A0
:1020A000D8E720688069C0434007CCD40020D1E73E
:1020B00000E800FE70B516460D4604461AE03246AA
:1020C00029462046FFF73AFF08B1012070BD25B12F
:1020D000FEF72AFD801BA8420CD954F8440F40F0AB
:1020E000200044F80409202060700020A0702070B7
:1020F000032070BD20688069C0438006DFD40020C3
:1021000070BD70B516460D4604461CE032462946A1
:102110002046FFF713FF08B1012070BD681C12D0E4
:1021200025B1FEF701FD801BA8420CD954F8440FDD
:1021300040F0200044F80409202060700020A070C6
:102140002070032070BD20688069C0438007DDD403
:10215000002070BD1D4810B5C16C86B041F004016F
:10216000C164C16C01F004010591C16C41F08001B2
:10217000C164C16C01F080010591C16C41F00101A5
:10218000C164C16C01F001010591C16C41F0020113
:10219000C164C06C002400F0020005904FF40050B0
:1021A00000900B48CDE9010469460A48FEF7C8FBD8
:1021B000202000900120CDE9010469464FF09040B5
:1021C0000394FEF7BDFB06B010BD000000100240F6
:1021D000000012100008004810B510488AB00E49DF
:1021E000016053210024C0E90114611EC0E90314F9
:1021F000FFF7FEFC079407A908480994FFF786FC3F
:102200000094019402940022694604480494FFF764
:10221000B6FC0AB010BD0000000C0040D40700203E
:10222000FEE770470907090E002806DA00F00F00E4
:1022300000F1E02080F8141D704700F1E02080F8E4
:10224000001470477047000070B5FEF76DFC04463F
:102250004FF47A7507E0FEF767FC001BA84202D92D
:1022600007A003F0ADF8FEF799F90028F3D0FEF7C8
:102270005BFC001BA84201D9012070BD002070BD8D
:102280002072622000000000F0B50446406CE76C4C
:102290007FB1012F0DD002C8266C864200D12046A6
:1022A00008C8864200D12046591A002903DD0121C1
:1022B00002E00020F0BDC91702251BE004C88642D9
:1022C00000D12046012904D1B2EB030C01D5002135
:1022D00012E0B1F1FF3F01D021B109E0D31A002B88
:1022E000F5DC05E0D11A002901DD012100E0C91764
:1022F00013466D1CAF42E1DC0846F0BDD0E9131077
:10230000814201D10120704700207047102901DA75
:102310000A4601E04FF01002016500EB8202C0E9BD
:1023200010204FF00001C0E9120101DC084670479F
:102330004FF0FF307047F0B50546002600F014F866
:1023400003460021EF6C6C6C09E001CCC21A00D589
:102350001A1A286C1644A04200D12C46491C8F4200
:10236000F3DC96FBF7F0F0BD10B5044600F025F85D
:10237000E16C90FBF1F010BD00B5020013D0906C41
:102380000160906C001D9064116C884200D19264D1
:102390001046FFF7B3FF58B1D2E91010001D884274
:1023A00004D1526407E04FF0FF3000BD506402E0FA
:1023B000D06C401CD064002000BD30B50022134614
:1023C000C46C416C06E020C92B44056C8D4200D1E1
:1023D0000146521C9442F6DC184630BD2DE9F0410E
:1023E000554E05468846F0680024820728684FF05D
:1023F000700113D0F26802F0030282420CD158B18E
:10240000F06891FAA1F100F07000B1FA81F1C840D2
:102410006968401C884221D001248AE0012809D043
:1024200002280AD00328F7D13268920309D432680F
:10243000520304E03268920701E032685205002A34
:10244000EADAF26891FAA1F122F073036A68B1FA4C
:1024500081F1521E8A4013430343F360306820F039
:1024600080603060FEF760FB074604E0FEF75CFB2F
:10247000C01B022853D830680001F7D4DCBB4FF4EE
:10248000FE40B8F1000F23D090FAA0F0A968B8F18F
:10249000010FB0FA80F04FF0FF3201FA00F12BD0BB
:1024A000686902EB50004FF0C06292FAA2F2B2FAF1
:1024B00082F2904001433069204A1040014331616B
:1024C000306840F080603060FEF72EFB074628E061
:1024D00090FAA0F0A968B0FA80F08140E8684FF463
:1024E000003292FAA2F20009B2FA82F2904001435D
:1024F0003069134AE1E71CE0286902EB50004FF411
:10250000C00292FAA2F2B2FA82F29040014330691C
:102510000C4AD2E7FEF708FBC01B022801D90324AE
:1025200007E030680001F5D51CB93069A969084396
:1025300030612046BDE8F08100100240FF80FFF9C5
:10254000FF80FDFFFF809FFF2DE9F0414A4E0546C9
:102550008846F0680024810728684FF0700213D085
:10256000F16801F0030181420CD158B1F06892FA90
:10257000A2F100F07000B1FA81F1C8406968401C16
:10258000884221D0012473E0012809D002280AD012
:102590000328F7D13168890309D43168490304E07D
:1025A0003168890701E0316849050029EADAF168F4
:1025B00092FAA2F221F073036968B2FA82F2491E1C
:1025C00091400B430343F360306820F0805030604B
:1025D000FEF7AAFA074604E0FEF7A6FAC01B022897
:1025E0003CD830688000F7D494BB4FF4FE4191FA98
:1025F000A1F1A868B8F1000FB1FA81F100FA01F079
:1026000019D029694FF0FF3202EB51014FF0C0623F
:1026100092FAA2F2B2FA82F2914008437169174A23
:10262000114008437061306840F080503060FEF720
:102630007BFA074614E0E9684FF4003292FAA2F2FE
:102640000909B2FA82F29140084371690C4AE7E73E
:102650000EE0FEF769FAC01B022801D9032407E047
:1026600030688000F5D51CB97069696908437061EC
:102670002046BDE8F081000000100240FF80FFF915
:10268000FF80FDFFF8B51C4E05460024B06DC0006C
:1026900002D5FEF781FC0DE0B06D40F08050B065D2
:1026A000B06D00F080500090FEF776FCB16D21F027
:1026B0008051B165B0F5007F04D0802D07D94FF06F
:1026C00003040AE0802D08D9A02D01D804E001D12F
:1026D000022402E0702D00D101240848016821F095
:1026E000070121430160006800F00700A04201D00B
:1026F0000120F8BD0020F8BD00100240002002407B
:1027000010B5FDF75DFF002806DD012808D1054959
:10271000D1F8F812002903D14FF0FF30FFF7EEFB9C
:1027200010BD000024000020704700000A7E2AB17E
:1027300080F880210121C0F87C117047002280F8C8
:102740008021D0F87C311BB1C0F87C2109890AE0D6
:10275000064A09895268C2F580734B43D0F8781154
:1027600001FB02310912C0F8781170470000002007
:102770007FB5144E002505EBC50000EB051006EBF8
:102780000014D4F86801C0B1204601F0BFFA204619
:1027900001AA694601F02BF8204603AA02A901F01C
:1027A00029F82046002101F0CBF8204644F62061AC
:1027B00001F0EBF90120C4F87C016D1C032DDADB7C
:1027C0007FBD00002400002010B5FEF73DFBBDE8F2
:1027D0001040FFF796B9000030B5B9B00224E0010F
:1027E00025901020229426902C940120CDE92D4094
:1027F0000A202F900720CDE9300422A83294FEF75A
:102800001BFF0F20002533900320CDE934053695BA
:10281000042133A83795FEF79DFD402014950090C4
:102820006846FEF7C1FB0F9568460094FEF7BCFBB7
:102830000E48816D41F080518165806D00F08050BF
:1028400038902002FEF776FBFEF742FE4FF47A71D5
:10285000B0FBF1F0FFF741F90420FFF731F9002256
:102860001146501EFEF734FB39B030BD0010024057
:102870000D48016841F4700101600C48016841F0A5
:1028800001010160002181600268094B1A40026069
:102890008214C260026822F48022026081610249CF
:1028A000C00380390860704788ED00E000100240E6
:1028B000FFFFF6EA2DE9F0470268244C244D254E2F
:1028C000254F264B4FF0804AA04209D0504507D0F3
:1028D000A84205D0B04203D0B84201D0984204D1FA
:1028E00022F0700C4A6842EA0C02DFF874C0DFF88C
:1028F0007480DFF87490A0420FD050450DD0A842EC
:102900000BD0B04209D0B84207D0984205D06045FC
:1029100003D0404501D0484503D122F44075CA6830
:102920002A4302608A68C2620A688262A04207D0B3
:10293000984205D0604503D0404501D0484501D1BB
:102940000969016301214161BDE8F087002C014064
:102950000004004000080040000C0040003401402A
:102960000040014000440140004801402DE9F0438F
:10297000026A22F001020262056A426883691C4C05
:1029800025F0020523400C6823F003031C438B68E9
:10299000194E2B43174D194FDFF864C0DFF86490D0
:1029A000A84207D0B04205D0B84203D0604501D05C
:1029B000484506D123F00808CB6843EA080323F012
:1029C0000403A84207D0B04205D0B84203D0604506
:1029D00001D0484505D14D6922F4407215438A69FA
:1029E0002A4342608461496841630362BDE8F08321
:1029F0008FFFFEFF002C01400034014000400140E9
:102A00000044014000480140F0B5026A22F0100283
:102A10000262056A42688369194C1B4E23400C68A8
:102A200023F4407343EA042425F020038D6843EA2D
:102A30000513144DA84201D0B04206D1CF6823F04F
:102A4000800343EA071323F04003A8420AD0B042B0
:102A500008D00E4DA84205D00D4DA84202D00D4D14
:102A6000A84207D14D6922F4406242EA85028D698D
:102A700042EA850242608461496881630362F0BD75
:102A8000FF8FFFFE002C0140003401400040014058
:102A90000044014000480140F0B5026A22F480720F
:102AA0000262056A4268C369194C1B4E23400C68D8
:102AB00023F003031C4325F400738D6843EA0523C8
:102AC000144DA84201D0B04206D1CF6823F4006370
:102AD00043EA072323F48063A8420AD0B04208D017
:102AE0000E4DA84205D00E4DA84202D00D4DA84271
:102AF00007D14D6922F4405242EA05128D6942EA3B
:102B000005124260C4614968C1630362F0BD000000
:102B10008FFFFEFF002C01400034014000400140C7
:102B2000004401400048014030B5026A22F480525E
:102B30000262046A4268C369124D2B400D6823F497
:102B4000407343EA052524F400538C6843EA0433B8
:102B50000D4CA0420BD00D4CA04208D00C4CA04212
:102B600005D00C4CA04202D00B4CA04204D14C69C1
:102B700022F4804242EA84124260C56149680164DD
:102B8000036230BDFF8FFFFE002C01400034014086
:102B900000400140004401400048014030B5026A55
:102BA00022F480320262056A4268436D114C234070
:102BB0000C681C4325F400330D8943EA05430E4D90
:102BC000A8420BD00D4DA84208D00D4DA84205D00B
:102BD0000C4DA84202D00C4DA84204D14D6922F4FC
:102BE000803242EA05224260446549688165036299
:102BF00030BD00008FFFFEFF002C0140003401407B
:102C000000400140004401400048014030B5026AE4
:102C100022F480120262056A4268436D114C23401F
:102C20000C6843EA042425F400130D8943EA055394
:102C30000D4DA8420BD00D4DA84208D00C4DA84216
:102C400005D00C4DA84202D00B4DA84204D14D69CD
:102C500022F4802242EA8522426044654968C165C7
:102C6000036230BDFF8FFFFE002C014000340140A5
:102C700000400140004401400048014010B50448B4
:102C8000FEF770FF024900200968486210BD00008D
:102C9000D407002090F82410C90706D001684A68BC
:102CA000836A22F400321A434A6090F8241089079C
:102CB00006D501684A68C36A22F480321A434A6022
:102CC00090F82410490706D501684A68036B22F47E
:102CD00080221A434A6090F82410090706D501683B
:102CE0004A68436B22F400421A434A6090F8241069
:102CF000C90606D501688A68836B22F480521A439C
:102D00008A6090F82410890606D501688A68C36B2A
:102D100022F400521A438A6090F82410490611D513
:102D200001684A68036C22F480121A434A60016CFD
:102D3000B1F5801F06D101684A68436C22F4C002D5
:102D40001A434A6090F82410090606D501684A68BB
:102D5000806C22F4002202434A607047F8B50025D7
:102D60000446C566FDF7E0FE0746206800686FF080
:102D70007E46000708D53B4600224FF4001120464E
:102D8000009600F0B7F960B92068006840070AD5DE
:102D90003B4600224FF480012046009600F0AAF93D
:102DA00008B10320F8BD202084F8690084F86A0087
:102DB00084F868500020F8BD10B5806A0021A0F8A2
:102DC0005A10A0F85210FEF74EFF10BD202180F8D7
:102DD0006A1001680A6822F490720A6000688168CB
:102DE00021F001018160704710B5B0F85C2090F8C7
:102DF0006A300168222B05D0088B40F00800088358
:102E0000022010BD898C8368B3F5805F01D103690E
:102E10006BB11140426D531C43651170B0F85A10EC
:102E2000491E0904090CA0F85A1007D015E0436D9B
:102E300011401980416D891C4165EFE701680A68FE
:102E400022F490720A6001688A6822F001028A60A6
:102E5000202180F86A10FFF74FF8002010BD000015
:102E60002DE9F041044600682769A168D4F81CC028
:102E7000394367691025002247EA0C073943914B13
:102E800007681646DFF840C207EA0C070F430760E1
:102E900020684168E76821F4405139434160216866
:102EA000A069994201D0276A38438F6827F43067B8
:102EB00007438F60854F21688548B9420DD1D0F80E
:102EC000880010F0030006D001285AD0022856D0FE
:102ED000032859D157E0012556E07E4FB9420BD166
:102EE000D0F8880010F00C0047D0042849D00828FA
:102EF00045D00C2848D146E0774FB9420BD1D0F8E5
:102F0000880010F0300038D010283AD0202836D071
:102F1000302839D137E0714FB9420BD1D0F8880051
:102F200010F0C00029D040282BD0802827D0C028FE
:102F30002AD128E06A4FB9420ED1D0F8880010F4A7
:102F400040701AD0B0F5807F1BD0B0F5007F16D04E
:102F5000B0F5407F18D116E0994215D1D0F888001D
:102F600010F4406009D0B0F5806F0AD0B0F5006F62
:102F700005D0B0F5406F07D105E0002504E002253B
:102F800002E0042500E00825564F4FF40040994226
:102F900044D135B1022D07D0042D07D0082D10D112
:102FA00007E0FEF79BFA03E0384602E0FEF7C6FAB8
:102FB00098B3626802EB4201814202D8B0EB023F53
:102FC00001D901267BE000276DB1022D0ED0042D22
:102FD00013D0082D1AD00126434AA0F54071914222
:102FE000EFD821686AE0FEF779FA08E050083F4917
:102FF0000FE00023FDF7E4F8EEE7FEF79FFA6268C2
:10300000010E0302500818187941F2E750084FF4F6
:103010000001401847F10001EBE750E0E36983420B
:1030200026D1092D1DD2DFE805F00508121C151C5C
:103030001C1C1800FEF752FA01E0FEF767FA410087
:10304000606801EB5001B1FBF0F082B20AE0284960
:103050006068F6E7FEF772FAF1E74FF480316068D6
:10306000EFE7012622F00F00C2F342010843B8E760
:10307000092DA6D2DFE805F006090C0512050505A5
:103080001C009EE7FEF72AFA0AE0FEF73FFA07E087
:10309000606807EB5002B2FBF0F00EE0FEF74EFA6C
:1030A0000146606801EB5001B1FBF0F080B298E797
:1030B000626800EB5200B0FBF2F080B2C8603046AC
:1030C000BDE8F08100800040F369FFEF0038014067
:1030D000001002400044004000480040004C004006
:1030E000005000400024F400FFFC0F00000024F416
:1030F0000048E8012DE9F0411E461746884604467F
:10310000069D1CE0681C1AD025B1FDF70DFD801B43
:10311000A84214D92068016821F4D07101602068A8
:10312000816821F001018160202084F8690084F821
:103130006A00002084F868000320BDE8F081206860
:10314000C16938EA010004D00020B842DAD000207A
:10315000F3E70120F9E700000148FEF785BD000014
:1031600010080020FEE70000074A93695B1C93618A
:10317000D1611062032805D2044951F82020521C65
:1031800041F820207047000000000020C807002000
:103190007CB50546002095F8DA200C46012A03D0BC
:1031A000022A01D0032A14D101AB6A460121284624
:1031B00000F093F900994FF47F02914202D80199EF
:1031C000914206D9002804D124B11049284601F0C3
:1031D000F2FC7CBD0422FF21284600F067FE064673
:1031E00000227021284600F061FE40EA0604002219
:1031F000FF21284600F05AFE40EA04060022802102
:10320000284600F053FE30437CBD0000CF0500206F
:10321000F8B50646002401220B21304600F046FE98
:10322000074600220B21304600F040FE40EA070529
:103230006A461321304600F011FB641C9DF8001013
:103240002843E4B2490704D0032C04D20028E2D07A
:10325000F8BD032CFCD36FF00B00F8BDF0B591B0B6
:1032600004460022882100F021FE002684F8F06048
:103270004FF47A70A4F852014FF4C870A4F85401C6
:103280005748C4F8580157482662C4F8D400694624
:10329000204600F0A9F8050009D18DF800608DF8EE
:1032A00001604022694604F11000FCF7BDFF642074
:1032B000A4F834014FF46170A4F836014FF4FA70A9
:1032C000A4F838014FF42060A4F83C01012784F8E9
:1032D00050713A468021204600F0E8FD0543012266
:1032E000FF21204600F0E2FD054300221146204662
:1032F00000F0DCFD054310AA9121204600F0AEFA53
:1033000005439DF8400084F83A010122002120463F
:1033100000F0CCFD05430022FF21204600F0C6FD51
:10332000054300228021204600F0C0FD28430025EF
:10333000002852D1A9B20122204600F0BEFB6D1C2C
:10334000062DF5DB002848D100220221204600F09E
:10335000B4FB002841D100220321204600F0ADFB40
:1033600000283AD100220421204600F0A6FB0028C4
:1033700033D100220521204600F09FFB00282CD1EC
:103380004FF490120021204600F0D7FB002824D1F2
:103390004FF480420121204600F0CFFB00281CD1D1
:1033A0004FF40C120221204600F0C7FB002814D174
:1033B00000220321204600F0C0FB00280DD1FF2091
:1033C00084F8300102460121204600F06FFD84F8A8
:1033D0003271002801D184F8156111B0F0BD0000F0
:1033E000856B0100A470090070B506460D46007C8F
:1033F00001F8080B304600F044F8002833D1287358
:1034000005F11001304600F0DCF900282BD105F160
:103410001401304600F0E8F8002824D1002401E02F
:10342000002820D105EB8402A1B23046243200F0FE
:103430007AF8002817D12A19A1B23046183200F0C4
:1034400066F8641C062CEBDB00280CD105F13C016E
:10345000304600F09BF9002805D1291D3046BDE813
:10346000704000F0BFB870BD10B50C460A46092187
:1034700000F0F4F9002803D1217801F00101217056
:1034800010BD7CB50C4605466A46F82100F01EFAD0
:1034900000280ED101AA0421284600F0F3F90028E3
:1034A00007D1BDF800202AB10199B1FBF2F12160EA
:1034B000A9617CBD2168FBE738B50C466A4613213B
:1034C00000F0CCF99DF8002002F0070112F0180F6F
:1034D000216001D06FF0050038BDF8B515461C46D7
:1034E00006466A460E2100F0F1F9BDF80010090504
:1034F000C9082960002809D16A460C21304600F02D
:10350000E5F9BDF800100905C9082160F8BD0346BA
:103510000020062902D3001F002102E0194491F87F
:103520002810117070472DE9F843054600200E461B
:1035300017468046062E2FD2DFE806F0030511134A
:1035400015156C6B2FE06A464421284600F0BEF941
:1035500010B9BDF800104C024FF001080CE0EC6B04
:1035600021E02C6C1FE06A466421284600F0AEF989
:1035700010B9BDF800104C0200280BD1B8F1000FB3
:1035800011D005EB8601AA194CB13C604C630121B6
:1035900082F82810BDE8F8836FF00300FAE7496B62
:1035A00039600021F4E73C60F4E77CB50C4690F804
:1035B000DA100025012604290AD06A46142100F0F9
:1035C0004DF900280BD19DF80010C90706D007E07F
:1035D00001A9FFF771FF0199042901D025707CBD75
:1035E00026707CBD01F024B901F084B9F0B58DB02E
:1035F0000C4605460C2309AA142100F085F90600A3
:103600007ED1844684F816C0C4F800C09DF82F000F
:103610009DF82E10C4F804C000EB01209DF82B107B
:103620009DF82A204FF47A7E01EB02210904CA0991
:10363000E2609DF82D109DF82C3080B201EB032143
:103640000904C90921619DF827109DF8263001EB76
:1036500003218BB2A382B5F852119DF8246095F82E
:10366000317171451DD0414301F5FA7191FBFEF0B6
:10367000298C95F81CE080B289B2BEF1000F10D001
:103680005943B2EB212F06D117B142F2B82008E01E
:1036900048F6E02005E05043A2EB2121B0FBF1F019
:1036A00080B227B1810821818001E07502E020818C
:1036B00084F817C00CA8CDE900403146284601F037
:1036C00033F9060024D19DF8307005F150012776BA
:1036D0001C220D4602A8FCF7A7FD2089ADF81000BA
:1036E000E07D8DF81F006089ADF8120060680390DE
:1036F000E068059020690690A08AADF81C0000E003
:1037000006E08DF820701C2202A92846FCF78CFDEB
:103710000DB03046F0BD38B5054600200C468DF89A
:1037200000006A460121284600F098F800282AD1B6
:1037300023469DF800200021284602F033FC002893
:1037400021D1A31C9DF800200121284602F02AFC6B
:10375000002818D1631C9DF800200221284602F0A1
:1037600021FC00280FD1E31C9DF8002003212846EE
:1037700002F018FC002806D1231D9DF8002004212A
:10378000284602F00FFC38BD01F0E8B938B50C4608
:1037900005466A46012100F061F800280BD19DF82A
:1037A000001085F83011090601D5012100E0002143
:1037B000217085F84C1038BD02460020127F0A7037
:1037C000704738B50D4604466A46202100F07EF861
:1037D000002807D1BDF8001029B1CA002A600121D4
:1037E0002262217738BD216A29600021F9E701238F
:1037F00001F083BA01F0A1BA70B5047C054614B992
:1038000000F01BFA10B9284601F022FA50EA040130
:1038100002D1032185F8321170BD70B50C46054602
:10382000002100F08DF8002810D12846FFF7E4FFB2
:1038300000280BD121462846FFF7D8FE002805D1E5
:103840002846BDE870400021FFF7E2BC70BD10B50E
:1038500000240220FDF74AF8204610BDF7B51646B1
:1038600007460024012201A901F064FE6FF0130550
:1038700028B901223146384601F04CFE00B12C46F1
:103880002046FEBDF7B5164607460024012201A9D1
:1038900001F050FE6FF0130528B904220A4938469A
:1038A00001F038FE08B12C460BE00748C1780278D9
:1038B00001EB026142788078120402EB0020084498
:1038C00030602046FEBD0000C8080020F7B516464F
:1038D00007460024012201A901F02CFE6FF0130518
:1038E00028B902220749384601F014FE08B12C46D7
:1038F00005E004484178007801EB00203080204644
:10390000FEBD0000C80800202DE9FF4117461E46F5
:1039100080460024012201A901F00CFE6FF013057E
:1039200028B932463946404601F0F4FD00B12C4634
:1039300004B02046BDE8F0814A088A2100F0B6BAFA
:103940000246002003290BD003DC49B1012904D130
:1039500006E0142904D0152902D06FF00700704743
:10396000117470472DE9F0411D46069E044619B1B9
:103970006FF00900BDE8F081142A08D0152A0FD095
:10398000052D74D2DFE805F07476787A7C002EB1CC
:103990000122BDE8F041842100F088BA1022F8E746
:1039A0000122FF2100F082FA06460022114620463D
:1039B00000F07CFA40EA06050022FF21204600F0D4
:1039C00075FA40EA050701228021204600F06EFAD0
:1039D00040EA070602228521204600F067FA40EA05
:1039E00006050422FF21204600F060FA40EA0506A1
:1039F0000022CD21204600F059FA40EA06051122A6
:103A0000CC21204600F052FA40EA05060722FF21A9
:103A1000204600F04BFA40EA06050022BE2120466F
:103A200000F044FA40EA05060622FF21204600F095
:103A30003DFA40EA06050922CC21204600F036FA7C
:103A400040EA05060022FF21204600F02FFA40EA56
:103A500006050122FF21204600F028FA40EA05066B
:103A600000221146204600F021FA304382E71FE091
:103A7000002206E0012204E0022202E0032200E02C
:103A800004220A21204600F011FA0028EED196B156
:103A90001023EF228421204600F0F2F90028E5D11E
:103AA00084F8DA502046BDE8F0410021FFF7B0BBB2
:103AB0006FF00A005EE70023EBE72DE9F0410446D2
:103AC00000200D461646071F034601460246062DF6
:103AD0002FD256B104EB85014B6B0121062D28D264
:103AE000DFE805F005080F1215180122F6E784F843
:103AF000281017E0C3F34F224421204600F0E8F9D4
:103B00000EE084F82A100DE084F82B100AE0530030
:103B1000FE2201E01301EF226021204600F0B0F9FF
:103B2000002804D1611936B1012281F82820BDE8AE
:103B3000F0813846FBE70022F7E770B51446002213
:103B4000431800EB810593F82830DBB1C4F34F2311
:103B5000062914D2DFE801F00305080A0C0C4463BF
:103B600010E01A46442105E0C4630BE0046409E058
:103B70001A46642100F0ACF9020003D003E06FF0B4
:103B8000030200E06C63104670BD01F0A5BA2DE998
:103B9000F8430746002090460E468DF800006A461E
:103BA00001213846FFF75AFE9DF8004005002046E7
:103BB00030D1291FB8F1010F06D0052E29D2DFE838
:103BC00006F0191C1F222500052E22D2DFE806F080
:103BD0000306090C0F0044F010041BE044F0280415
:103BE00018E044F0040415E044F0400412E044F00E
:103BF00080040FE004F0EF040CE004F0D70409E0C7
:103C000004F0FB0406E004F0BF0403E004F07F04CA
:103C100000E00D4684420DD065B9224601213846A8
:103C200000F044F9050005D187F83041384679693C
:103C3000FFF7ABFF2846BDE8F883F8B50125064637
:103C4000047C2A46802100F031F90122FF21304610
:103C500000F02CF900221146304600F027F996F8C2
:103C60003A219121304600F021F90122002130460D
:103C700000F01CF90022FF21304600F017F9002265
:103C80008021304600F012F93CB10425012C26D0E9
:103C9000032C2ED06FF00700F8BD01220021304622
:103CA00000F004F98DF800500028F5D100244FF4FD
:103CB000FA6705E024B16A4600213046FFF7CEFDE1
:103CC0009DF80020641C25EA0201014304D0BC4297
:103CD000E2D36FF00600F8BDBC42EBD3F9E718B9A8
:103CE00001213046FFF754FA022208E086F83251EB
:103CF000F8BD18B901213046FFF74AFA0422002125
:103D0000304600F0D3F80028F0D0F8BD70B598B078
:103D10000446402101A8FCF7A0FA00258DF8445084
:103D2000ADF850508DF8545001212046169500F002
:103D3000E6FA94F8142194F81311012A06D802D156
:103D4000202903D808E03AB90C2905D915AA16A9E3
:103D5000204600F0F2FF02E0204601F020FA474939
:103D600000287DD194F8500108B9D4F84C112046B0
:103D700000F021FF00287FD10022042311462046B5
:103D80000095FFF7EFFD002876D10122FF212046A4
:103D900000F08CF8064614AA84212046FFF796FD11
:103DA00040EA06050022FF21204600F07FF8284364
:103DB00062D1BDF8500001A90001C4F8D40020462A
:103DC000FFF712FB002857D111A92046FFF74CFB43
:103DD000002851D19DF8440084F83101402201A906
:103DE00004F11000FCF720FA11AA01212046FFF788
:103DF00035FD002840D19DF8440084F830010022B0
:103E000011462046FFF7C3FE002835D100220221CB
:103E10002046FFF7BCFE00282ED1032084F8320193
:103E200012AA00212046FFF7AFFC002824D19DF8FC
:103E3000480084F8E80012AA01212046FFF7A4FCFC
:103E4000002819D19DF8480084F8E00013AA032146
:103E5000204601F068FE00280ED1139813AA00E056
:103E60000AE0C4F8E4000421204601F05CFE0028CA
:103E700002D11399C4F8DC1018B070BDDC04002026
:103E8000F8B515461C460E4607466A46FFF7E6FC9F
:103E9000002809D19DF8002031462A4022438DF8A0
:103EA0000020384600F002F8F8BD0000034610B5C7
:103EB000064800240170427001460222184601F0B3
:103EC00039FB08B16FF01304204610BDC80800206C
:103ED00010B5074B00241970110A59709A7003220B
:103EE000194601F027FB08B16FF01304204610BDFE
:103EF000C808002070B51C460025134606463F2C16
:103F000001D9281F70BD0848224600F8011B194638
:103F1000FCF78AF9621C0449304601F00BFB08B13A
:103F20006FF01305284670BDC80800202DE9F04346
:103F3000B0F85441D0F85801DDE909C604FB00F59A
:103F40008035DDE907872D0A4FF0000965434C46AF
:103F500052B1880200EB5200B0FBF2F000EB4000DF
:103F6000404300F50040040C07F50040000C062219
:103F7000C01CB0FBF2F003FB08F303F50043190C7F
:103F80004943C0EBC000B0F5803F01D31C4808E0B6
:103F9000FF1CB7FBF2F0C0EBC00000F50040000CC6
:103FA0004043084400EB5C00B0FBFCF08003FE22C1
:103FB0007F30B0FBF2F060434FF47A7100F5FA7095
:103FC000B0FBF1F0000100F5FA70B0FBF1F4402015
:103FD00005F12001B1FBF0F000F0D8FD074624B157
:103FE00005EB5400B0FBF4F000E0002000F0CEFD43
:103FF0003760874200D930604846BDE8F083000052
:104000000000F0FF01EBC10140F277600902A1FB63
:10401000000170472DE9FF4F87B00446006A069003
:10402000884608694FF47A714843000C0390D8F829
:104030000C000490DFF8F8B14FF4481505AA41468A
:10404000204600F066FD06AA4146204600F06FFDBE
:1040500081464FF47A710598069F484300F5004069
:10406000060C4F43AF4200D92F46B9F1000074D17E
:10407000D4F8DC00009094F8E05001462A4620462F
:1040800000F0DFF88246D4F8E4000190014694F88D
:10409000E820204600F0D5F801460320082D00D185
:1040A000022051444143C8024FF47A7100F5FA707E
:1040B000B0FBF1F040F27762504300F5FA70B0FBCC
:1040C000F1FA05988030000A00FB0AF180310D0AF0
:1040D000000205900EB14DB109E00999C1F800B098
:1040E000C4F840B10A98002101609DE001254FF419
:1040F0004870029003984F490004B0FBF6F08842E4
:1041000000D908464FF4167100FB01F905EB450094
:10411000800000F03BFD40000390B8F808104648CE
:104120007A424143300400EB42004FF47A7200F5CA
:10413000FA70B0FBF2F0531003EB0643B3FBF2F25C
:104140000002B0FBF2F0002800DA404298F8182094
:1041500000021AB14FF480360FE066E041F25C22B3
:10416000B1FBF2F1C0F58030484300F50040000C8F
:1041700000F5803040084043860B4FF4487106FB41
:1041800001F000F50040000C10FB00F109F50040C3
:10419000000C4043084400F0F9FC00046421323074
:1041A000B0FBF1F10398B1FBF0F040F6B5314843B4
:1041B00041F2883108444900B0FBF1F74FF47040F8
:1041C000874200D90746DDE9000108444FF47A78B8
:1041D00000F5FA70B0FBF8F04FF4C81101EB500194
:1041E000B1FBF0F000F0D2FC000200F5FA70B0FB79
:1041F000F8F07F434043384400F0C8FC4146484350
:104200000DB1584500D9584609990860C4F84001D5
:10421000029B0A9903918DE80806DDE904213346E3
:104220002046FFF783FE814648460BB000F006B8F3
:10423000AE878F02666666009A99060030BCBDE8BC
:10424000C08F00B50B461146FFF7DCFE4FF47A71C4
:1042500000F5FA70B0FBF1F04B4303EB5001B1FBFA
:10426000F0F000BD00B50B461146FFF7CBFE4FF452
:104270007A7100F5FA70B0FBF1F0434303F5FA737D
:10428000B3FBF1F000BDC1B2000A8140481C704789
:104290004000801CC0B27047F8B507460022832159
:1042A000FFF704FE040010D100254FF4FA666A46B9
:1042B00083213846FFF7D2FA04469DF800002043D8
:1042C0000AD0B54201D36FF006040122832138469B
:1042D000FFF7ECFD2043F8BD6D1CB542E7D3F2E7D4
:1042E0000022114648B1401E02E04008491C89B234
:1042F000020AFAD161F31F2082B2104670472DE9FD
:10430000F04F91B0002704464FF4C8500A970C971D
:1043100009970B970F9094F8F0500E46BB46BA469B
:10432000072D7ED0012280212046FFF7BFFD0746E2
:104330000122FF212046FFF7B9FD40EA07080022CD
:1043400011462046FFF7B2FD40EA08070622FF218A
:104350002046FFF7ABFD40EA07086A468321204666
:10436000FFF77CFA40EA08079DF80000832140F03F
:1043700004022046FFF79AFD40EA07080722FF21C2
:104380002046FFF793FD40EA0807012281212046DD
:10439000FFF78CFD40EA07082046FFF758FA40EA8D
:1043A0000809012280212046FFF780FD40EA090725
:1043B000F00755D0E80753D16B2294212046FFF730
:1043C00075FD40EA07082046FFF766FF40EA080748
:1043D00001AA90212046FFF755FA40EA0708019804
:1043E0002422C0F30621C0F3C03B0C919421204647
:1043F000FFF75CFD40EA08072046FFF74DFF40EA63
:10440000070801AA90212046FFF73CFA40EA080776
:104410000198010E8DF81C10010C8DF81D10010A79
:1044200000E0FEE18DF81E108DF81F00252294217A
:104430002046FFF73BFD40EA07082046FFF72CFF28
:1044400040EA080901AA90212046FFF71BFA40EA3A
:1044500009070198010E8DF82010000C8DF821003D
:10446000B0077ED5A8077CD4022294212046FFF70E
:104470001DFD40EA07082046FFF70EFF40EA080747
:104480000DAA90212046FFF7E9F940EA07087B22B0
:1044900094212046FFF70AFD40EA08072046FFF76F
:1044A000FBFE40EA07080EAA90212046FFF7D6F946
:1044B00040EA0807772294212046FFF7F7FC40EAFC
:1044C00007082046FFF7E8FE40EA080701AA902106
:1044D0002046FFF7D7F940EA070801987822410EF5
:1044E0008DF80810C0F386418DF80910C0F3C6217D
:1044F0008DF80A10C0F306110007400E8DF80B105E
:104500008DF8000094212046FFF7D0FC40EA08090E
:104510002046FFF7C1FE40EA090701AA9021204684
:10452000FFF7B0F940EA07089DF80010019801EB89
:1045300050718DF80C10C0F386518DF80D10C0F33A
:10454000C6318DF80E10C0F306218DF80F10C0F3A0
:104550004601C007400E8DF810108DF8000079223A
:1045600000E055E094212046FFF7A0FC40EA080750
:104570002046FFF791FE40EA070801AA9021204655
:10458000FFF780F940EA08099DF8001001987A22A7
:1045900001EB90618DF81110C0F3C6418DF8121037
:1045A000C0F306318DF81310C0F346118DF81410C6
:1045B000C006400E8DF8000094212046FFF776FCDF
:1045C00040EA09072046FFF767FE40EA070801AA0C
:1045D00090212046FFF756F940EA08079DF80010A1
:1045E000019801EB90718DF81510C0F3C6518DF84C
:1045F0001610C0F306418DF81710C0F346218DF850
:104600001810C0F386008DF8190000208DF81A00EC
:1046100070077ED568077CD47B2294212046FFF763
:1046200045FC40EA07082046FFF736FE40EA080747
:1046300009AA90212046FFF725F940EA07087C22C5
:1046400094212046FFF732FC40EA08072046FFF796
:1046500023FE40EA07080AAA90212046FFF712F934
:1046600040EA0807732294212046FFF71FFC40EA26
:1046700007082046FFF710FE40EA080701AA90212C
:104680002046FFF7FFF840EA070801987422000669
:104690004FEA104A94212046FFF708FC40EA080937
:1046A0002046FFF7F9FD40EA090701AA90212046BC
:1046B000FFF7E8F8019940EA07084AEA11600B9011
:1046C000752294212046FFF7F1FB40EA08092046B5
:1046D000FFF7E2FD40EA090701AA90212046FFF713
:1046E000D1F840EA07080198762200064FEA1049FF
:1046F00094212046FFF7DAFB40EA08072046FFF73F
:10470000CBFD40EA070801AA90212046FFF7BAF83E
:1047100000E004E0019940EA080749EA116A002232
:1047200081212046FFF7C2FB40EA07080622FF214D
:104730002046FFF7BBFB40EA08096A468321204672
:10474000FFF78CF840EA09079DF80000832100F08C
:10475000FB022046FFF7AAFB40EA07080122FF21DF
:104760002046FFF7A3FB40EA08070122002120466C
:10477000FFF79CFB40EA07090022FF212046FFF7D4
:1047800095FB40EA0908002280212046FFF78EFBB6
:1047900050EA080745D1072D43D0F0070FD0E807AE
:1047A0000DD10C9884F8130184F814B1002007A9E6
:1047B00023180A5C401C83F82A210628F8DBB0077E
:1047C0000ED5A8070CD49DF8340084F8F1009DF8AC
:1047D000380084F8F20004F1F30002A9FBF748FD69
:1047E000700719D5680717D40998C4F818010A98F2
:1047F000C4F81C010B984002C4F820010020BAF153
:10480000000F08D00F99AAEB01004FF47A1148432A
:104810000014404200B2E06035438DF8005084F847
:10482000F05011B0384600F000B830BCBDE8C08F81
:1048300030B585B005464FF4FA6002900020039031
:1048400040F6363008600C4669462846FEF763FF9E
:1048500000284DD19DF8001029B99DF8011011B91B
:104860009DF8021011B302AA0221284601F05BF95B
:1048700000283DD19DF8001029B10299226801F26B
:104880004E21114421609DF8021031B10299226835
:1048900001F2B22102EB410107E09DF8011029B1BC
:1048A0000299226801F52571114421609DF80310D9
:1048B00061B103AA0321284601F035F90399226862
:1048C00001F5257111442160002811D19DF80410D3
:1048D00061B104AA0421284601F025F9049922684F
:1048E00001F2262111442160002801D1216869616B
:1048F00005B030BD38B50C4640F2FF756A46282138
:10490000FEF7E4FF00280ED1BDF80010C1F30B0242
:10491000ADF80020AA424FF0FA0101DDA2F5805265
:1049200012FB01F1216038BD2DE9FF4F8BB04FF034
:104930000009199D8DF800909A460646C8464F46D4
:104940008DF804908DF808908DF80C90ADF81090CB
:10495000C1F3C304CDF81490BCB1052C15D0072CBD
:1049600013D00C2C11D00D2C0FD00E2C0DD00F2CE1
:104970000BD0002083466A4600213046FEF7C7FD73
:104980009DF80010C9B110B11DE00120F2E705ABA0
:1049900006AA30461899FFF73DFBA0B9189905986B
:1049A00007AA488100213046FEF7BDFD079921B1D5
:1049B000069A8A4201D94FF0010920B902AA0221C0
:1049C0003046FEF7A4FD9DF8081011B338BB08AAC5
:1049D00002213046FEF7A7FD80B90122FF213046B3
:1049E000FFF764FA50B904AAB6213046FEF76EFF0D
:1049F00020B90022FF213046FFF758FABDF8101009
:104A00004902C6F84811089A1AB1914201D94FF0EB
:104A1000010820B903AA03213046FEF778FD9DF86E
:104A20000C1091B190B9BAF1000F12D00D9801029B
:104A3000B1FBFAF0824609AA03213046FEF773FD66
:104A4000099911B18A4500D2012720B1287858B3BD
:104A50002DE00020EEE7BBF1000F01D0FF2013E0B6
:104A6000012C10D0022C0ED0032C0CD0062C0DD013
:104A7000092C0BD0082C04D00A2C02D0B8F1000F5E
:104A800006D0032000E00520287010E00420FBE79A
:104A9000042C00D00FB10220F6E7B9F1000F01D0CD
:104AA0000120F1E70020287018990020488101AA10
:104AB00001213046FEF72BFD002824D19DF800107F
:104AC00011B15FEA090100D0012186F82E10042CF3
:104AD00014D09DF8041089B1002186F82F109DF89C
:104AE000081011B15FEA080100D0012186F83010EA
:104AF0009DF80C1001B11FB1012102E00121ECE78A
:104B0000002186F831100FB000F000B830BCBDE8CD
:104B1000C08F38B51446CA6822606A4600F007F8AC
:104B2000002803D12168009A1144216038BDF8B5EE
:104B3000064600200D461060144669463046FEF7D2
:104B40003BFE002809D19DF80010002905D0A98A54
:104B5000326A51438031090A2160F8BD38B51446E4
:104B600021B1012905D06FF003010DE06A46502103
:104B700001E06A467021FEF771FE010004D19DF844
:104B80000000FFF785FB2070084638BD0246002074
:104B90004FF0804100E089089142FCD808E04318BA
:104BA000934203D8D21A01EB500000E04008890874
:104BB0000029F4D17047F8B5064600200D4604469A
:104BC000071F12E0641CFF2B05D0042B0CD8295DB5
:104BD00000206A4635E0295D641C61B1012912D0CC
:104BE000022919D003291FD038462B5D002B01D094
:104BF0000028E7D0F8BD295D641C2A5D02EB012185
:104C0000A6F8341106E0295D641C2A5D02EB01213F
:104C1000A6F83611641CE8E7295D641C2A5D02EBE6
:104C20000121A6F83811F5E7295D641C2A5D02EB25
:104C30000121A6F83C11EDE715F804C002F800C008
:104C4000401C641C9842F7DB3046FFF753F9CCE771
:104C5000F8B5064600208DF8000004464FF4FA65CA
:104C600069463046FEF7A1FC002807D19DF80010E8
:104C7000012903D0641CAC4201D3C01FF8BD3046EB
:104C8000FEF7E5FDECE72DE9F04385B01D00914608
:104C90000E4607464FF0000401D097F8304102223B
:104CA0000121FFF703F94FF0000838B90021384619
:104CB00000F05EF910B9B9F1010F11D086F800804B
:104CC00000280AD1002D08D0224601213846FFF7DE
:104CD000EDF8002801D187F8304105B0BDE8F08338
:104CE000012004A9CDE90016CDE902804246014623
:104CF0001346384600F092F9E2E72DE9F0411E46EE
:104D00001746054690F830410023324600F04CF932
:104D1000002810D10023324639462846FFF7B3FF5A
:104D2000002808D1224601212846FFF7BFF80028B5
:104D300001D185F83041BDE8F0812DE9F74F0646F5
:104D40002C2090B00022079208920D908DF8382008
:104D50008DF83C200C92B6F83C814FF0B40A4FF02D
:104D6000030B10464FF00609174633180021401C6C
:104D700083F824114845F8D30122FF213046FFF77C
:104D800095F804007AD100224F213046FFF78EF8C3
:104D90000400F7D12C224E213046FFF787F804009B
:104DA000F0D10022FF213046FFF780F80400E9D15E
:104DB0005246B6213046FFF779F80400E2D10022CE
:104DC00080213046FFF772F80400DBD100230FAAE0
:104DD0000EA93046FFF791FF0400D3D107A9CDF803
:104DE00000900790CDE903B1CDE901A006F59273DB
:104DF0009A1DCDE905320146304600F004FE04005C
:104E00003CD109A93046079D01F09AF8040036D13B
:104E1000BDF82410414532D9014603E03218401C48
:104E200082F824114845F9D300E06D1C0AEB050017
:104E300000F0F2FE10B90D988542F6D301200D90D6
:104E400007A8CDF80090CDE903B0CDE901A5DDE9D3
:104E500005320121304600F0D6FD04000ED109A92B
:104E60003046079D01F06CF804007AD1BDF824109B
:104E7000414508D901205F460C9004E030E0002055
:104E80000D90002C6DD1BDF82410414559D20D98DC
:104E90000C905F464A460AA80599FBF7C5F9BDF88C
:104EA0002410B1EB080000D540428346002000905A
:104EB00008AB2A464946069800F006FE0898411CB1
:104EC0000FD0504400F0A8FE0D99884238D1089DBB
:104ED00049462A467F1C059800F0E1FD040003D0F6
:104EE0003FE06FF031043CE030466D1C059901F065
:104EF00075F8040035D109A9304601F021F8040005
:104F00002FD1BDF82410B1EB080000D54042414537
:104F10000DD9584514D90AA9304601F05FF8044666
:104F20004A460AA90598FBF77FF97F1E08E08346E9
:104F30004A460AA80599FBF777F900980028B7D0E8
:104F40007CB91198076012990C980870012086F8B6
:104F500015011198007886F813011298007886F8E8
:104F6000140113B0204600F000B830BCBDE8C08F7B
:104F700010B541F0010204460021FEF797FF00281A
:104F800011D12046FFF764FE00280CD100212046F5
:104F9000FEF73EF9002806D120460022BDE8104069
:104FA0001146FEF783BF10BD2DE9F04385B04FF0E9
:104FB00000041E0091460F46804625468DF810409D
:104FC00001D098F8304101221146FEF76FFF38B941
:104FD00040214046FFF7CCFF10B9B9F1010F10D0C6
:104FE0003D7000280AD1002E08D0224601214046FB
:104FF000FEF75CFF002801D188F8304105B0BDE81C
:10500000F083012004A900970395CDE901102A46F9
:1050100001461346404600F001F8E2E72DE9FF4F54
:1050200081B00020DDE90EA9DDE910650F468DF89D
:1050300000009B460122FF210198FEF737FF04463E
:10504000002211460198FEF731FF40EA04080022D1
:10505000FF210198FEF72AFF40EA08046FB12EB144
:105060005246CB210198FEF7F9FB0443A5B16A46ED
:10507000EE210198FEF7F2FB0DE02EB1CB21039A51
:105080000198FEF713FF044335B15B468022EE2101
:105090000198FEF7F5FE04430122FF210198FEF777
:1050A00005FF40EA0405012200210198FEF7FEFEFB
:1050B00040EA05040022FF210198FEF7F7FE9DF863
:1050C0000010204301F0EF0289F8002005B000F045
:1050D00000B830BCBDE8C08F2DE9FF4107464FF452
:1050E000FA6002900020039044F620600E466FF0B4
:1050F0000305814251D3A6F6363469463846FEF799
:105100000AFB002846D19DF8001029B99DF801102E
:1051100011B99DF8021011B302AA0221384600F01D
:1051200002FD002836D19DF8001029B1029901F244
:105130004E21A14231D2641A9DF8021031B1029978
:1051400001F2B221490007E0641A08E09DF801105D
:1051500029B1029901F52571A142F5D31DE09DF811
:10516000031061B103AA0321384600F0DCFC039967
:1051700001F52571A14210D2641A00280AD19DF8C8
:105180000410002906D0A4F226220421384600F09B
:105190002AFF7E6104B0BDE8F0812846FAE72DE9D8
:1051A000F04791468A4686B005460024B426062775
:1051B0004FF02C080122FF21FEF778FEB0B9002243
:1051C0004F212846FEF772FE80B92C224E21284638
:1051D000FEF76CFE50B90022FF212846FEF766FE5E
:1051E00020B93246B6212846FEF760FE002001466F
:1051F0002A18401C82F82411B842F9D3B9F1000FE3
:1052000001D106E0641C301900F006FD08B94445E0
:10521000F8D305A90097CDE903A1CDE9016405F50F
:1052200092739A1D4946284600F0EDFB002806D1EE
:10523000012185F8151185F813A185F8149106B0A0
:10524000BDE8F08710B586B000F082F91748C16C50
:1052500041F00201C164C16C01F002010591816D50
:1052600041F400118165806D002400F40010059068
:105270004FF4407000901220CDE901040420CDE9E4
:10528000034069460A48FBF75BFB0B48094901608C
:105290000A49C0E901140121C0E903144461C46151
:1052A0000462FBF747FC06B010BD0000001002408E
:1052B000000400480054004008090020380F300066
:1052C00038B500F0ADF8FFF7BDFF02236A460021B4
:1052D000862000F0D1F8002838D19DF80010002970
:1052E00034D19DF80110162930D102236A460021DD
:1052F000842000F0C1F8002828D19DF80010002972
:1053000024D19DF80110162920D1114DFF2402232C
:1053100028608DF800408DF801406A4614218620EF
:1053200000F0C8F8002811D18DF80040BF208DF89A
:10533000010002236A461421842000F0BBF80028F3
:1053400004D16FF0C020286000F0CEF838BD000016
:1053500098070020194A632853780DD005DCC0B1A6
:10536000012809D0022804D11AE06C2811D0722833
:1053700016D04FF0FF307047D07820F08000D0700A
:1053800011B140F08000D070012313218420D21C81
:1053900011E023F04000507049B140F0400005E0BA
:1053A00023F08000507011B140F080005070012354
:1053B00013218620521C00F07DB8000098070020C1
:1053C0002DE9F041144F00217F243E1FDFF84CE00F
:1053D00010E01EF80220356824EA020317F82120A5
:1053E00004FA02FC934025EA0C051D43491C356074
:1053F00004290DDA425C002AEBD107E017F82100FE
:10540000326804FA00F00243491C32600429F5DBDB
:10541000BDE8F04100F068B89C070020386500083E
:10542000124808B5816C41F001018164806C002252
:1054300000F00100009011461120FBF749FD1120FA
:10544000FBF73BFD0B480A4901604FF4E131416035
:10545000002181600C22C160C0E904128161C16138
:1054600001624162BDE80840FCF7CCBC001002407C
:1054700000440040100800207CB5054664201C460E
:1054800016468DF804100090A9B2012301AA08481D
:10549000FBF742FC002809D1642104FB01F00090D5
:1054A000A3B2A9B232460248FBF79CFB7CBD0000C8
:1054B0000809002030B585B01C46134605468DF816
:1054C0000410224619460DF10500FAF7ADFE6420DE
:1054D000641C0090A3B2A9B201AA0248FBF71CFC0D
:1054E00005B030BD0809002010B50223084A12217A
:1054F0008620FFF7DFFF002808D1054A0223921C0F
:105500001221BDE810408420FFF7D4BF10BD000079
:105510009807002038B50C4602F10A01009190F876
:10552000601193B241F00101D0F85C012246FBF713
:1055300059FB38BD38B50C4602F10A01009193B20F
:1055400090F86011D0F85C012246FBF7E5FB38BD0E
:105550002DE9F047DFF80C8186B00025D8F84C1013
:1055600041F00201C8F84C10D8F84C00012200F0BC
:1055700002003D4E1702059039463046FBF7CEFA41
:105580000122540221463046FBF7C8FA4FF440701E
:10559000009011204FF00109CDE90109694630461C
:1055A000FBF7CEF9A2460024002239463046FBF72D
:1055B000B5FA0120FBF79AF9012239463046FBF78C
:1055C000ADFA0120FBF792F9641C0A2CECDB514682
:1055D0003046FBF79EFA18B928466D1C0728E2DB17
:1055E00051463046FBF795FA002838D1D8F84C10D0
:1055F00041F00101C8F84C10D8F84C004FF090442D
:1056000000F0010005902020CDE900090020029063
:1056100069462046FBF794F94FF4257501222021B5
:105620002046FBF77BFA2120FBF760F900222021BE
:105630002046FBF773FA2120FBF758F901222021BD
:105640002046FBF76BFA2120FBF750F900222021BE
:105650002046FBF763FA2846FBF748F9DEE706B079
:10566000BDE8F08700100240000400480FB4084B6A
:1056700010B504A902AA039800F01CF8044602A978
:10568000002000F0BBF9204610BC5DF814FB0000C0
:10569000FD59000802E008C8121F08C1002AFAD10B
:1056A00070477047002001E001C1121F002AFBD1A2
:1056B000704700002DE9FF4F8BB088460546002655
:1056C00006E025280BD0DDE90D1290476D1C761CF5
:1056D00028780028F5D10FB0304600F063B90024D7
:1056E000A146A2460122AE4900E0044315F8013F5D
:1056F000203B02FA03F00842F7D128782A2810D07C
:105700006FF02F022878A0F13001092915D809EB94
:10571000890102EB410144F0020400EB01096D1C18
:10572000F0E758F8041B5FEA010903D544F400547C
:10573000C9F1000944F002046D1C28782E2817D105
:1057400015F8010F44F004042A280ED06FF02F0240
:105750002878A0F1300109290AD80AEB8A0102EB66
:10576000410100EB010A6D1CF2E758F804AB6D1C17
:1057700028786C280FD006DC4C2817D068280DD06C
:105780006A2814D104E0742810D07A280FD10DE0D3
:1057900044F400140AE044F4801401E044F440149A
:1057A0006978814202D104F580146D1C6D1C287843
:1057B000692865D006DC00288DD0632827D06428AE
:1057C00006D15DE06E2808D073282AD0752877D0DE
:1057D000DDE90D129047761CE0E0C4F30250022888
:1057E00009D003280DD0D8F8001004280DD00E6081
:1057F00008F10408D2E0D8F80010F217C1E90062FD
:10580000F6E7D8F800100E80F2E70E70F0E718F80F
:10581000041B8DF8001000208DF80100EB460120DC
:1058200003E058F804BB4FF0FF3061074FF000076A
:1058300001D40AE07F1C57450DDA8742FADB1BF8DA
:1058400007100029F6D106E07F1C8742FCDB1BF81D
:1058500007100029F8D1DDE90D23A9EB07008146E7
:10586000214600F0B4F83044C61904E0DDE90D1219
:105870001BF8010B90477F1EF8D22146484688E06E
:1058800058F8040BC4F302514FF00A0B032900D15E
:1058900000B2042900D140B2002802DA40422D2192
:1058A00002E0210505D52B218DF82410012104E00B
:1058B00006E0E10710D02021F6E708AF089113E0D9
:1058C00058F8040BC4F302514FF00A0B032900D11E
:1058D00080B2042900D1C0B20021EEE75946FAF7A0
:1058E0008DFD303107F8011D0028F7D1ADEB070021
:1058F00000F1200B600702D524F4803401E04FF062
:10590000010ADA4502DDAAEB0B0000E00020824626
:1059100000EB0B0108980144A9EB01000A90E00399
:1059200006D4DDE90D2321460A9800F050F806441C
:105930004FF0000908E009A911F80900DDE90D128E
:10594000904709F10109761C08998945F3DBE003CA
:105950000CD5DDE90D2321460A9800F038F80644FD
:1059600004E0DDE90D1230209047761CBAF1000109
:10597000AAF1010AF5DC05E0DDE90D1217F8010BCB
:105980009047761CBBF10001ABF1010BF4DC0A98E7
:105990002146DDE90D2300F008F806446D1C97E66A
:1059A0000928010030BCBDE8C08F2DE9F041044654
:1059B00000251E461746880404D405E039462020F9
:1059C000B0476D1C641EF9D52846BDE8F0812DE96D
:1059D000F041044600251E469046C80301D53027F5
:1059E00000E02027880404D505E041463846B0474A
:1059F0006D1C641EF9D52846BDE8F0810A68531C69
:105A00000B60107070472DE9FF4F83B00025DDE972
:105A1000127B98468A46DDF840902C466FF031069E
:105A2000009718E06B463A464946059800F04CF856
:105A30000098411C05D01199084400F0EDF850453C
:105A400001D0354609E0009F49463A46404600F0FD
:105A500026F8641C7F1C5C45E4D314980760BDB92C
:105A60004146039800F0BAFA050011D101A9039844
:105A700000F054F80546002101A807E018F80120BD
:105A8000435C9A4201D0354602E0491C4945F5D3B2
:105A900007B0284600F000B830BCBDE8C08F70B534
:105AA0000824B2FBF4F3B2FBF4F60546002004FB35
:105AB00016228B4202D36FF0310070BDE95C0124E5
:105AC00094402143E95470BD2DE9F04308258946EF
:105AD0000026711E1960B2FBF5F1B2FBF5F705FB6C
