:020000040800F2
:10000000000001207D2E0008CD2E0008CD2E000816
:10001000CD2E0008CD2E0008CD2E000800000000D7
:10002000000000000000000000000000CD2E0008CD
:10003000CD2E000800000000CD2E0008512A000837
:10004000CD2E0008CD2E0008CD2E0008CD2E0008A4
:10005000CD2E0008CD2E0008CD2E0008CD2E000894
:10006000CD2E0008CD2E0008D92A0008CD2E00087C
:10007000CD2E0008CD2E0008CD2E0008CD2E000874
:10008000CD2E0008CD2E0008CD2E00080000000067
:10009000000000000000000000000000CD2E00085D
:1000A000612A0008CD2E0008CD2E0008CD2E0008B4
:1000B000752A0008CD2E0008CD2E0008CD2E000890
:1000C000CD2E0008CD2E0008CD2E0008892A00086C
:1000D0009D2A0008B12A0008CD2E0008000000006B
:1000E000CD2E0008CD2E0008CD2E00080000000007
:1000F000000000000000000000000000CD2E0008FD
:1001000000000000CD2E0008CD2E0008CD2E0008E6
:1001100000000000000000000000000000000000DF
:10012000CD2E0008CD2E0008CD2E0008CD2E0008C3
:10013000CD2E0008000000000000000000000000BC
:10014000000000000000000000000000C52A0008B8
:10015000CD2E0008CD2E0008CD2E0008CD2E000893
:10016000CD2E0008CD2E0008000000000000000089
:10017000000000000000000000000000000000007F
:1001800000000000CD2E000800000000000000006C
:04019000CD2E000868
:1001A00010B5054C237833B9044B13B10448AFF3B1
:1001B00000800123237010BD6004002000000000B7
:1001C0001843010808B5034B1BB103490348AFF3BB
:1001D000008008BD000000006404002018430108EE
:1001E000034613F8012B002AFBD1181A0138704777
:1001F00001F0FF01102A2BDB10F0070F08D010F8D8
:10020000013B013A8B422DD010F0070F42B3F6D1DB
:10021000F0B441EA012141EA014122F007047FF0F4
:1002200000070023F0E80256083C85EA010586EA4B
:10023000010685FA47F5A3FA87F586FA47F6A5FA87
:1002400087F68EB9EED1F0BC01F0FF0102F0070293
:1002500032B110F8013B013A83EA010313B1F8D13E
:100260000020704701387047002D06BF354603381F
:10027000073815F0010F07D1013015F4807F02BF58
:10028000013015F4C03F0130F0BC0138704700BFA9
:1002900081F0004102E000BF83F0004330B54FEA37
:1002A00041044FEA430594EA050F08BF90EA020FA4
:1002B0001FBF54EA000C55EA020C7FEA645C7FEA37
:1002C000655C00F0E2804FEA5454D4EB5555B8BF5A
:1002D0006D420CDD2C4480EA020281EA030382EACB
:1002E000000083EA010180EA020281EA0303362D5D
:1002F00088BF30BD11F0004F4FEA01314FF4801C30
:100300004CEA113102D0404261EB410113F0004F41
:100310004FEA03334CEA133302D0524263EB4303F8
:1003200094EA050F00F0A780A4F10104D5F1200E96
:100330000DDB02FA0EFC22FA05F2801841F10001F1
:1003400003FA0EF2801843FA05F359410EE0A5F1C5
:1003500020050EF1200E012A03FA0EFC28BF4CF0F6
:10036000020C43FA05F3C01851EBE37101F00045AC
:1003700007D54FF0000EDCF1000C7EEB00006EEBB9
:100380000101B1F5801F1BD3B1F5001F0CD3490843
:100390005FEA30004FEA3C0C04F101044FEA44529A
:1003A00012F5800F80F09A80BCF1004F08BF5FEA21
:1003B000500C50F1000041EB045141EA050130BD01
:1003C0005FEA4C0C404141EB0101013C28BFB1F513
:1003D000801FE9D291F0000F04BF01460020B1FA5E
:1003E00081F308BF2033A3F10B03B3F120020CDA31
:1003F0000C3208DD02F1140CC2F10C0201FA0CF00F
:1004000021FA02F10CE002F11402D8BFC2F1200C73
:1004100001FA02F120FA0CFCDCBF41EA0C01904029
:10042000E41AA2BF01EB0451294330BD6FEA040472
:100430001F3C1CDA0C340EDC04F11404C4F120025D
:1004400020FA04F001FA02F340EA030021FA04F36F
:1004500045EA030130BDC4F10C04C4F1200220FAC6
:1004600002F001FA04F340EA0300294630BD21FA04
:1004700004F0294630BD94F0000F83F4801306BFCA
:1004800081F480110134013D4EE77FEA645C18BFBE
:100490007FEA655C29D094EA050F08BF90EA020F55
:1004A00005D054EA000C04BF1946104630BD91EA4D
:1004B000030F1EBF0021002030BD5FEA545C05D150
:1004C0004000494128BF41F0004130BD14F580048F
:1004D0003CBF01F5801130BD01F0004545F0FE4103
:1004E00041F470014FF0000030BD7FEA645C1ABF38
:1004F000194610467FEA655C1CBF0B46024650EA6F
:10050000013406BF52EA033591EA030F41F400219A
:1005100030BD00BF90F0000F04BF0021704730B520
:100520004FF4806404F132044FF000054FF00001F5
:1005300050E700BF90F0000F04BF0021704730B5B6
:100540004FF4806404F1320410F0004548BF40428B
:100550004FF000013EE700BF42004FEAE2014FEAE0
:1005600031014FEA02701FBF12F07F4393F07F4FBB
:1005700081F06051704732F07F4208BF704793F0BE
:100580007F4F04BF41F40021704730B54FF46074D1
:1005900001F0004521F000411CE700BF50EA0102D4
:1005A00008BF704730B54FF000050AE050EA01027D
:1005B00008BF704730B511F0004502D5404261EBED
:1005C00041014FF4806404F132045FEA915C3FF42E
:1005D000D8AE4FF003025FEADC0C18BF03325FEACB
:1005E000DC0C18BF033202EBDC02C2F1200300FA7C
:1005F00003FC20FA02F001FA03FE40EA0E0021FAA1
:1006000002F11444BDE600BF70B54FF0FF0C4CF48E
:10061000E06C1CEA11541DBF1CEA135594EA0C0F40
:1006200095EA0C0F00F0DEF82C4481EA030621EA7B
:100630004C5123EA4C5350EA013518BF52EA0335B6
:1006400041F4801143F4801338D0A0FB02CE4FF068
:100650000005E1FB02E506F00042E0FB03E54FF098
:100660000006E1FB03569CF0000F18BF4EF0010E90
:10067000A4F1FF04B6F5007F64F5407404D25FEA8C
:100680004E0E6D4146EB060642EAC62141EA55513F
:100690004FEAC52040EA5E504FEACE2EB4F1FD0C81
:1006A00088BFBCF5E06F1ED8BEF1004F08BF5FEAFF
:1006B000500E50F1000041EB045170BD06F00046B1
:1006C00046EA010140EA020081EA0301B4EB5C045E
:1006D000C2BFD4EB0C0541EA045170BD41F4801156
:1006E0004FF0000E013C00F3AB8014F1360FDEBF7B
:1006F000002001F0004170BDC4F10004203C35DA57
:100700000C341BDC04F11404C4F1200500FA05F3D9
:1007100020FA04F001FA05F240EA020001F000427A
:1007200021F0004110EBD37021FA04F642EB0601F0
:100730005EEA430E08BF20EAD37070BDC4F10C041A
:10074000C4F1200500FA04F320FA05F001FA04F2DE
:1007500040EA020001F0004110EBD37041F10001CA
:100760005EEA430E08BF20EAD37070BDC4F12005D5
:1007700000FA05F24EEA020E20FA04F301FA05F23D
:1007800043EA020321FA04F001F0004121FA04F2E5
:1007900020EA020000EBD3705EEA430E08BF20EAB5
:1007A000D37070BD94F0000F0FD101F000464000EF
:1007B00041EB010111F4801F08BF013CF7D041EA71
:1007C000060195F0000F18BF704703F00046520075
:1007D00043EB030313F4801F08BF013DF7D043EA46
:1007E0000603704794EA0C0F0CEA135518BF95EAFC
:1007F0000C0F0CD050EA410618BF52EA4306D1D183
:1008000081EA030101F000414FF0000070BD50EAA1
:10081000410606BF1046194652EA430619D094EA2B
:100820000C0F02D150EA013613D195EA0C0F05D115
:1008300052EA03361CBF104619460AD181EA030169
:1008400001F0004141F0FE4141F470014FF0000021
:1008500070BD41F0FE4141F4780170BD70B54FF0BC
:10086000FF0C4CF4E06C1CEA11541DBF1CEA13553C
:1008700094EA0C0F95EA0C0F00F0A7F8A4EB05041E
:1008800081EA030E52EA03354FEA013100F0888015
:100890004FEA03334FF0805545EA131343EA1263DE
:1008A0004FEA022245EA111545EA10654FEA002693
:1008B0000EF000419D4208BF964244F1FD0404F54C
:1008C000407402D25B084FEA3202B61A65EB0305A8
:1008D0005B084FEA32024FF480104FF4002CB6EB65
:1008E000020E75EB030E22BFB61A754640EA0C00E5
:1008F0005B084FEA3202B6EB020E75EB030E22BF25
:10090000B61A754640EA5C005B084FEA3202B6EB65
:10091000020E75EB030E22BFB61A754640EA9C0024
:100920005B084FEA3202B6EB020E75EB030E22BFF4
:10093000B61A754640EADC0055EA060E18D04FEAB2
:10094000051545EA16754FEA06164FEAC30343EA52
:1009500052734FEAC2025FEA1C1CC0D111F4801F1F
:100960000BD141EA00014FF000004FF0004CB6E718
:1009700011F4801F04BF01430020B4F1FD0C88BFB7
:10098000BCF5E06F3FF6AFAEB5EB030C04BFB6EBC2
:10099000020C5FEA500C50F1000041EB045170BDB5
:1009A0000EF0004E4EEA113114EB5C04C2BFD4EBE2
:1009B0000C0541EA045170BD41F480114FF0000E66
:1009C000013C90E645EA060E8DE60CEA135594EAE2
:1009D0000C0F08BF95EA0C0F3FF43BAF94EA0C0FE5
:1009E0000AD150EA01347FF434AF95EA0C0F7FF45A
:1009F00025AF104619462CE795EA0C0F06D152EAAE
:100A000003353FF4FDAE1046194622E750EA410691
:100A100018BF52EA43067FF4C5AE50EA41047FF4A2
:100A20000DAF52EA43057FF4EBAE12E74FF0FF3C07
:100A300006E000BF4FF0010C02E000BF4FF0010CD8
:100A40004DF804CD4FEA410C7FEA6C5C4FEA430C51
:100A500018BF7FEA6C5C1BD001B050EA410C0CBFA0
:100A600052EA430C91EA030F02BF90EA020F002002
:100A7000704710F1000F91EA030F58BF994208BF69
:100A800090422CBFD8176FEAE37040F00100704726
:100A90004FEA410C7FEA6C5C02D150EA013C07D17D
:100AA0004FEA430C7FEA6C5CD6D152EA033CD3D0C8
:100AB0005DF8040B704700BF8446104662468C46C2
:100AC0001946634600E000BF01B5FFF7B7FF0028F5
:100AD00048BF10F1000F01BD4DF808EDFFF7F4FF1E
:100AE0000CBF012000205DF808FB00BF4DF808EDA9
:100AF000FFF7EAFF34BF012000205DF808FB00BFCC
:100B00004DF808EDFFF7E0FF94BF012000205DF8ED
:100B100008FB00BF4DF808EDFFF7CEFF94BF0120A2
:100B200000205DF808FB00BF4DF808EDFFF7C4FF9B
:100B300034BF012000205DF808FB00BF4FEA410CE4
:100B40007FEA6C5C02D150EA013C0AD14FEA430CC7
:100B50007FEA6C5C02D152EA033C02D14FF0000004
:100B600070474FF0010070474FEA410212F5001242
:100B700015D211D56FF47873B3EB625212D94FEAE4
:100B8000C12343F0004343EA505311F0004F23FACE
:100B900002F018BF404270474FF00000704750EA23
:100BA000013005D111F0004008BF6FF000407047E0
:100BB0004FF00000704700BF7BB972B90029BEBF7B
:100BC00000204FF0004106E008BF00281CBF6FF076
:100BD00000414FF0FF3000F0A1B9ADF1080C6DE914
:100BE00004CE002909DB002B1ADB00F035F8DDF814
:100BF00004E0DDE9022304B07047404261EB4101AB
:100C0000002B1BDB00F028F8DDF804E0DDE902230F
:100C100004B0404261EB4101524263EB4303704731
:100C2000524263EB430300F017F8DDF804E0DDE91E
:100C3000022304B0404261EB41017047524263EB32
:100C4000430300F009F8DDF804E0DDE9022304B015
:100C5000524263EB430370472DE9F047089D044679
:100C60008C46002B40F083808A42174647D9B2FA5F
:100C700082F242B1C2F1200024FA00F09140974084
:100C800040EA010C94404FEA1748230CBCFBF8F6ED
:100C90001FFA87FE08FB16C143EA014306FB0EF16B
:100CA000994209D9FB1806F1FF3080F01981994269
:100CB00040F21681023E3B445B1AA4B2B3FBF8F04B
:100CC00008FB103344EA034400FB0EFEA64509D995
:100CD0003C1900F1FF3380F00581A64540F2028106
:100CE00002383C4440EA0640A4EB0E0400261DB145
:100CF000D4400023C5E900433146BDE8F08702B97E
:100D0000FFDEB2FA82F2002A50D1CB1B4FEA174E17
:100D10001FFA87F80126B3FBFEFC210C0EFB1C33E7
:100D200041EA034108FB0CF38B4207D979180CF117
:100D3000FF3002D28B4200F2E9808446C91AA3B286
:100D4000B1FBFEF00EFB101143EA014408FB00F872
:100D5000A04507D93C1900F1FF3302D2A04500F2AB
:100D6000D9801846A4EB080440EA0C40BFE78B4248
:100D700009D9002D00F0B1800026C5E900013046F8
:100D80003146BDE8F087B3FA83F6002E4AD18B4294
:100D900002D3824200F2B880841A61EB0301012081
:100DA0008C46002DA8D0C5E9004CA5E7C2F1200370
:100DB00020FA03F6974001FA02F04FEA174ED940A5
:100DC0003043030CB1FBFEF61FFA87F80EFB161139
:100DD00043EA014306FB08F1994204FA02F409D9F7
:100DE000FB1806F1FF3C80F08D80994240F28A802A
:100DF000023E3B445B1A81B2B3FBFEF00EFB1033A4
:100E000041EA034100FB08F38B4207D9791800F14E
:100E1000FF3C73D28B4271D902383944CB1A40EA75
:100E2000064678E7C6F1200C03FA06F422FA0CF322
:100E30001C4320FA0CF701FA06F34FEA144E21FA8C
:100E40000CF11F433B0CB1FBFEF91FFA84F80EFBBB
:100E5000191143EA014109FB08FA8A4502FA06F230
:100E600000FA06F308D9611809F1FF3048D28A4523
:100E700046D9A9F102092144A1EB0A01BFB2B1FB95
:100E8000FEF00EFB101147EA014700FB08F8B845D9
:100E900007D9E71900F1FF312ED2B8452CD9023815
:100EA000274440EA0940A7EB0807A0FB02894F4509
:100EB000C64649461AD317D05DB1B3EB0E0267EBB5
:100EC000010707FA0CFCF2404CEA0202F740C5E9C0
:100ED000002700263146BDE8F0872E4628460BE75E
:100EE0000646E9E61846FDE64345E5D2B8EB020EB4
:100EF00069EB04010138DFE70846D2E760468DE779
:100F00008146B9E7664675E730464AE7ACF1020C20
:100F1000394413E702383C4424E700BF704700BF60
:100F20000FB480B5C2B000AF07F58A73C7F80031BF
:100F30003846D7F80031D7F81021FE2111F056F8C5
:100F4000C7F804013B46D7F80411184600F00AF828
:100F5000D7F80431184607F58477BD46BDE88040D0
:100F600004B0704780B582B000AF786039603B68EC
:100F70009AB24FF47A73796803480DF0ECFE0023BF
:100F800018460837BD4680BDA009002080B487B050
:100F900000AFF860B9607A603B60BD4BB3F90030D8
:100FA000C72B0BDCBB4B4FF000021A60BA4B4FF063
:100FB00000021A60B94B4FF000021A603B6893EDD3
:100FC000007AF7EE006AC6EE877AB54BC3ED007A79
:100FD0003B6893ED167ABB68D3ED007A77EE677ABB
:100FE000C7ED057A3B6893ED007AD7ED057A27EED9
:100FF000277AA84BD3ED007A77EE277AA54BC3ED7D
:10100000007A3B6893ED137AA24BD3ED007AB4EEED
:10101000E77AF1EE10FA04D53B68DB6C9D4A136069
:1010200014E03B68D3ED137AB1EE677A994BD3EDB8
:10103000007AB4EEE77AF1EE10FA07DD3B68D3ED03
:10104000137AF1EE677A934BC3ED007A954BD3EDAB
:10105000007A97ED057A37EE677A914BD3ED007AF7
:1010600067EE277AC7ED047A8E4A7B6913608E4B50
:10107000D3ED007A97ED047A77EE677A9FED8B7A5D
:1010800027EE877A884BD3ED007A77EE277AC7ED83
:10109000047A854A3B6913603B6893ED037AD7ED88
:1010A000057A27EE277A3B68D3ED046A794BD3EDB6
:1010B000007A66EEA77A37EE277A3B68D3ED056AA9
:1010C000D7ED047A66EEA77A77EE277A3B68C3ED10
:1010D000177A3B68D3ED177A9FED757AF4EEC77AED
:1010E000F1EE10FA02DD3B68724ADA653B68D3ED37
:1010F000177A9FED717AF4EEC77AF1EE10FA02D505
:101100003B686E4ADA653B6893ED187ABB68D3EDAD
:10111000017A77EE677AC7ED057A3B6893ED007A3E
:10112000D7ED057A27EE277A5B4BD3ED007A77EE81
:10113000277A594BC3ED007A3B6893ED147A564BEE
:10114000D3ED007AB4EEE77AF1EE10FA04D53B68FD
:101150001B6D514A136014E03B68D3ED147AB1EE75
:10116000677A4D4BD3ED007AB4EEE77AF1EE10FAE0
:1011700007DD3B68D3ED147AF1EE677A464BC3ED99
:10118000007A4F4BD3ED007A97ED057A37EE677A08
:10119000434BD3ED007A67EE277AC7ED047A484ACD
:1011A0007B691360474BD3ED007A97ED047A77EEB5
:1011B000677A9FED3E7A27EE877A424BD3ED007A2D
:1011C00077EE277AC7ED047A3E4A3B6913603B68A5
:1011D00093ED087AD7ED057A27EE277A3B68D3EDB1
:1011E000096A2D4BD3ED007A66EEA77A37EE277A9F
:1011F0003B68D3ED0A6AD7ED047A66EEA77A77EEFC
:10120000277A3B68C3ED197A3B68D3ED197A9FEDD5
:10121000287AF4EEC77AF1EE10FA02DD3B68254A2F
:101220005A663B68D3ED197A9FED237AF4EEC77ABC
:10123000F1EE10FA02D53B68204A5A663B6893EDFE
:101240001A7ABB68D3ED027A77EE677AC7ED057A32
:101250003B6893ED007AD7ED057A27EE277A0F4B9E
:10126000D3ED007A77EE277A0C4BC3ED007A3B681A
:1012700093ED157A094BD3ED007AB4EEE77AF1EEEF
:1012800010FA21D53B685B6D044A136031E000BF62
:101290004E0D00207C0400208004002084040020E7
:1012A000280600208804002094040020CDCCCC3CEB
:1012B0000000484400004844000048C4000048C4FE
:1012C0008C040020980400203B68D3ED157AB1EE21
:1012D000677A744BD3ED007AB4EEE77AF1EE10FA48
:1012E00007DD3B68D3ED157AF1EE677A6D4BC3ED00
:1012F000007A6D4BD3ED007A97ED057A37EE677A79
:101300006A4BD3ED007A67EE277AC7ED047A664A16
:101310007B6913603B6893ED0D7AD7ED057A27EE74
:10132000277A3B68D3ED0E6A5E4BD3ED007A66EE0A
:10133000A77A37EE277A3B68D3ED0F6AD7ED047AA8
:1013400066EEA77A77EE277A3B68C3ED1B7A3B6897
:10135000D3ED1B7A9FED567AF4EEC77AF1EE10FAD0
:1013600002DD3B68534ADA663B68D3ED1B7A9FED9A
:10137000527AF4EEC77AF1EE10FA02D53B684F4A82
:10138000DA664F4BB3F9003007EE903AF8EEE77AA1
:101390009FED4C7A67EE877A9FED4B7A77EE877AEE
:1013A000FDEEE77A17EE903A1AB2484B1A80474B97
:1013B000B3F9003007EE903AB8EEE77A3B68D3ED28
:1013C000177A37EE677A3B68D3ED197A37EE677A8A
:1013D0003B68D3ED1B7A77EE277A9FED3D7A77EE67
:1013E000877A3B6AC3ED007A384BB3F9003007EED9
:1013F000903AB8EEE77A3B68D3ED177A37EE277A62
:101400003B68D3ED197A37EE677A3B68D3ED1B7AE8
:1014100077EE677A9FED2E7A77EE877A3B6AC3ED97
:10142000017A2A4BB3F9003007EE903AB8EEE77A2A
:101430003B68D3ED177A37EE277A3B68D3ED197AFC
:1014400037EE277A3B68D3ED1B7A77EE277A9FED4C
:10145000207A77EE877A3B6AC3ED027A1B4BB3F9A9
:10146000003007EE903AB8EEE77A3B68D3ED177A92
:1014700037EE677A3B68D3ED197A37EE277A3B6807
:10148000D3ED1B7A77EE677A9FED117A77EE877A44
:101490003B6AC3ED037A00BF1C37BD465DF8047B91
:1014A000704700BF8404002090040020280600201C
:1014B0000000484400004844000048C4000048C4FC
:1014C0004E0D0020CDCC4C3D50551E44240600202E
:1014D0000000000080B500AF09F0E4FE00F038F82D
:1014E00000F0CCF900F09CF800F0D6F800F028F9F4
:1014F00000F07AF900F09EF91248FFF711FD002084
:1015000001F0E6FC012001F0E3FC002001F026FDE3
:10151000012001F023FD01F0DDFD00F0ABFE00F045
:10152000DFFE0948FFF7FCFC4FF47A7009F012FF68
:10153000002001F02DFD012001F02AFD0348FFF7F6
:10154000EFFCF1E7304301085C43010884430108E4
:1015500080B594B000AF0023BB602E4B1B6C2D4AAE
:1015600043F0805313642B4B1B6C03F08053BB6020
:10157000BB6800237B60284B1B6823F44043264A4A
:1015800043F400431360244B1B6803F440437B6027
:101590007B6801233B624FF480337B620223BB6391
:1015A0004FF48003FB6310233B644FF4A8737B6408
:1015B0000423BB640723FB6407F1200318460BF0E8
:1015C00059FB0F23FB6002233B6100237B614FF437
:1015D0008053BB610023FB6107F10C030221184615
:1015E0000BF0A2FD0BF032FF03460C4AA2FB0323D3
:1015F0009B0918460AF02DFA04200AF037FA002257
:1016000000214FF0FF300AF0FAF900BF5037BD4615
:1016100080BD00BF0038024000700040D34D621012
:1016200080B584B000AF1A4B1A4A1A60184B4FF4B9
:1016300080325A60164B00229A60154B00221A61C4
:10164000134B00229A61124B00221A62104B0022A7
:10165000DA620F4B0022DA600D4B0122DA610C4B8B
:1016600000221A630A4B01225A61094809F089FED7
:1016700009233B6001237B600023BB603B46194686
:10168000034809F0C1FE00BF1037BD4680BD00BF52
:10169000E00800200020014080B58AB000AF274B51
:1016A0004FF080421A60254B14225A60234B0022CF
:1016B0009A60224B47F6FF72DA60204B00221A61D3
:1016C0001E480CF0A2FA4FF48053BB6107F11803D7
:1016D00019461A480CF098FD18480CF0F6FA002349
:1016E0003B6100237B6107F11003194613480DF09D
:1016F0008CFA0A233B6001237B600023BB6000233C
:10170000FB603B46002219460C480CF01BFC3B4694
:101710000422194609480CF015FC3B4608221946DC
:1017200006480CF00FFC3B460C22194603480CF00F
:1017300009FC00BF2837BD4680BD00BFEC0A002071
:1017400080B58EB000AF264B264A1A60244B542237
:101750005A60234B00229A60214B40F2CF72DA602C
:101760001F4B00221A611E480CF04FFA4FF48053B1
:10177000BB6207F12803194619480CF045FD1848CB
:101780000CF06EFA00233B6200237B6207F120031A
:10179000194613480DF039FA60237B600023BB60C3
:1017A0000023FB6000237B613B1D002219460C488F
:1017B0000CF064FC3B1D0422194609480CF05EFC49
:1017C0003B1D0822194606480CF058FC3B1D0C2214
:1017D000194603480CF052FC00BF3837BD4680BDA7
:1017E000680700200008004080B584B000AF0F4BB0
:1017F0000F4A1A600D4B33225A600C4B00229A603C
:101800000A4B40F2CF72DA60084B00221A61074897
:101810000CF0FBF94FF480533B603B4619460348FC
:101820000CF0F2FC00BF1037BD4680BD340A00202A
:101830000040014080B500AF0E4B0F4A1A600D4BBF
:101840004FF4E1325A600B4B00229A60094B0022A0
:10185000DA60084B00221A61064B0C225A61054BD4
:1018600000229A61034B0022DA6102480DF026FA49
:1018700000BF80BDA00900200010014080B588B0E5
:1018800000AF0023BB601D4B1B6B1C4A43F00403DD
:1018900013631A4B1B6B03F00403BB60BB6800238C
:1018A0007B60164B1B6B154A43F001031363134B0C
:1018B0001B6B03F001037B607B6800233B600F4BD5
:1018C0001B6B0E4A43F0020313630C4B1B6B03F0BC
:1018D00002033B603B683023FB6011233B61002324
:1018E0007B610023BB6107F10C03194604480AF031
:1018F00001F900BF2037BD4680BD00BF003802405F
:101900000004024090B589B004AF7860A24B1B6818
:10191000002B40F0C480A14B1B6801339F4A136029
:101920009E4B1B68B3F5487F40F3B9809C4B186809
:101930009C4B19689C4B1A689C4B1B689C4C0394ED
:101940009C4C02949C4C01949C4C009400F084FEAE
:101950009B4B1A68994B1B681344994A1360984B28
:101960005A68964B5B681344954A5360944B9A6847
:10197000924B9B681344924A9360924B1A688E4B29
:101980001B6813448F4A13608E4B5A688A4B5B68FE
:1019900013448C4A53608B4B9A68874B9B68134463
:1019A000884A93607D4B1B68B3F5C86F77DB844B27
:1019B0001B6807EE903AF8EEE77A9FED837A67EEC0
:1019C000877AFDEEE77A17EE902A804B1A607C4BFF
:1019D0005B6807EE903AF8EEE77A9FED7B7A67EE68
:1019E000877AFDEEE77A17EE902A784B5A60744BAF
:1019F0009B6807EE903AF8EEE77A9FED737A67EE10
:101A0000877AFDEEE77A17EE902A704B9A606D4B5D
:101A10001B6807EE903AF8EEE77A9FED6B7A67EE77
:101A2000877AFDEEE77A17EE902A694B1A60654BCC
:101A30005B6807EE903AF8EEE77A9FED637A67EE1F
:101A4000877AFDEEE77A17EE902A614B5A605D4B7C
:101A50009B6807EE903AF8EEE77A9FED5B7A67EEC7
:101A6000877AFDEEE77A17EE902A594B9A60544B2D
:101A700000221A60524B00225A60514B00229A6099
:101A8000504B00221A604F4B00225A604D4B0022EF
:101A90009A60424B00221A603F4B01221A603E4B73
:101AA0001B68012B40F0BF834A4B1B680133494A36
:101AB0001360494B1B680133474A1360384B186861
:101AC000384B1968384B1A68384B1B68384C0394EC
:101AD000384C0294384C0194384C009400F0BCFD12
:101AE0003E4B1B68012B40F0D580354B1A68334BB9
:101AF0001B681344324A1360314B5A682F4B5B68A2
:101B000013442F4A53602E4B9A682C4B9B68134406
:101B10002B4A93602B4B1A68274B1B681344294AA6
:101B20001360284B5A68244B5B681344254A536062
:101B3000244B9A68204B9B681344224A9360284B9D
:101B40001B680133264A1360254B1B68B3F5487F99
:101B5000C0F2A0801A4B1B6807EE903AF8EEE77AC5
:101B60009FED197A67EE877AFDEEE77A17EE902AF5
:101B7000164B1A60124B5B6807EE903AF8EEE77A64
:101B80009FED117A67EE877AFDEEE77A17EE902ADD
:101B90000E4B5A6026E000BFD0040020D404002081
:101BA000A0040020A4040020A8040020AC0400200D
:101BB000900A0020040D0020440900202C0600207B
:101BC000080A0020E00900200AD7A33A940900205F
:101BD000140A0020C8040020CC040020B404002013
:101BE000BC040020AE4B9B6807EE903AF8EEE77A13
:101BF0009FEDAC7A67EE877AFDEEE77A17EE902AD2
:101C0000A94B9A60A94B1B6807EE903AF8EEE77A69
:101C10009FEDA47A67EE877AFDEEE77A17EE902AB9
:101C2000A34B1A60A14B5B6807EE903AF8EEE77A97
:101C30009FED9C7A67EE877AFDEEE77A17EE902AA1
:101C40009B4B5A60994B9B6807EE903AF8EEE77A07
:101C50009FED947A67EE877AFDEEE77A17EE902A89
:101C6000934B9A608E4B00221A608D4B00225A6073
:101C70008B4B00229A608D4B00221A608B4B002206
:101C80005A608A4B00229A608A4B00221A608A4B63
:101C900000221A60894B1A68834B1B68D31A874A43
:101CA0001360864B5A68804B5B68D31A834A536033
:101CB000824B9A687C4B9B68A3F57A73D31A7F4A50
:101CC00093607F4B1A687A4B1B68D31A7C4A136067
:101CD0007B4B5A68764B5B68D31A794A5360784BD2
:101CE0009A68734B9B68D31A754A9360734B196853
:101CF000744B1B685A1E07EE901AF8EEE77A724989
:101D000013465B0013449B000B44C3ED007A6B4BFE
:101D100059686C4B1B685A1E07EE901AF8EEE77A6A
:101D2000694913465B0013449B000B440433C3ED25
:101D3000007A624B9968634B1B685A1E07EE901A33
:101D4000F8EEE77A604913465B0013449B000B44AE
:101D50000833C3ED007A5D4B93ED027A584B1B6854
:101D600007EE903AF8EEE77A27EE277A574BD3ED55
:101D7000036A574BD3ED007A66EEA77A37EE277ADF
:101D8000524BD3ED046A524BD3ED037A66EEA77A39
:101D900037EE277A4D4BD3ED006A4E4BD3ED007AE8
:101DA00066EEA77A37EE277A484BD3ED016A494BA6
:101DB000D3ED037A66EEA77A77EE277A464BC3ED2A
:101DC000007A424B93ED027A3D4B5B6807EE903A06
:101DD000F8EEE77A27EE277A3C4BD3ED036A3C4BCB
:101DE000D3ED017A66EEA77A37EE277A374BD3ED3B
:101DF000046A374BD3ED047A66EEA77A37EE277A7A
:101E0000324BD3ED006A334BD3ED017A66EEA77AFD
:101E100037EE277A2D4BD3ED016A2E4BD3ED047AA2
:101E200066EEA77A77EE277A2B4BC3ED017A274B24
:101E300093ED027A224B9B6807EE903AF8EEE77A30
:101E400027EE277A214BD3ED036A214BD3ED027A9B
:101E500066EEA77A37EE277A1C4BD3ED046A1C4B4B
:101E6000D3ED057A66EEA77A37EE277A174BD3EDD6
:101E7000006A184BD3ED027A66EEA77A37EE277A1E
:101E8000124BD3ED016A134BD3ED057A66EEA77AB8
:101E900077EE277A104BC3ED027A0123FB608EE0C8
:101EA000080A00200AD7A33A94090020E00900207C
:101EB000140A0020BC040020B40400202C060020DA
:101EC00044090020CC04002060060020000000200F
:101ED000580C00206409002018080020FB685A1ED6
:101EE000664913465B0013449B000B441968634822
:101EF000FA6813465B0013449B0003441960FB68B7
:101F00005A1E5E4913465B0013449B000B44043386
:101F100019685A48FA6813465B0013449B0003444F
:101F200004331960FB685A1E544913465B0013447E
:101F30009B000B44083319685048FA6813465B004D
:101F400013449B00034408331960FB685A1E4C4934
:101F500013465B0013449B000B4419684848FA6819
:101F600013465B0013449B0003441960FB685A1E30
:101F7000434913465B0013449B000B440433196828
:101F80003F48FA6813465B0013449B000344043344
:101F90001960FB685A1E3A4913465B0013449B00C4
:101FA0000B44083319683648FA6813465B0013443B
:101FB0009B00034408331960FB68013BFB60FB682E
:101FC000002B8BDC2F4B1B6807EE903AF8EEE77A7C
:101FD0002A4BC3ED007A2B4B5B6807EE903AF8EE84
:101FE000E77A264BC3ED017A264B9B6807EE903AC1
:101FF000F8EEE77A214BC3ED027A234B1B68204AA7
:102000001360214B5B681E4A53601F4B9B681C4A40
:1020100093601E4B1B685A1E1B4B19681C481346C5
:102020005B0013449B0003441960184B1B685A1E45
:10203000154B5968164813465B0013449B00034434
:1020400004331960114B1B685A1E0F4B99681048D6
:1020500013465B0013449B000344083319600B4B89
:102060001B68052B40F08680084B00221A60094B44
:1020700001221A600023BB6079E000BF580C0020E9
:10208000640900204409002018080020CC04002026
:10209000940C0020C40400206549BA6813465B0014
:1020A00013449B000B4419686248BA6813465B00EE
:1020B00013449B00034419605D49BA6813465B00F2
:1020C00013449B000B44043319685A48BA681346FA
:1020D0005B0013449B000344043319605449BA68FD
:1020E00013465B0013449B000B44083319685148A6
:1020F000BA6813465B0013449B000344083319601D
:102100004D49BA6813465B0013449B000B441968A1
:102110004A48BA6813465B0013449B0003441960A5
:102120004549BA6813465B0013449B000B440433D3
:1021300019684248BA6813465B0013449B00034485
:10214000043319603C49BA6813465B0013449B0092
:102150000B44083319683948BA6813465B001344C6
:102160009B00034408331960BB680133BB60BB6844
:10217000042B91DD324BD3ED007A9FED327A67EE7E
:10218000877A314BC3ED007A2D4BD3ED017A9FED69
:102190002D7A67EE877A2C4BC3ED017A284BD3ED6D
:1021A000027A9FED287A67EE877A274BC3ED027A91
:1021B000264B93ED027A244BD3ED027ADFED246AAD
:1021C00067EEA67A77EE277A204BC3ED027A214B91
:1021D000B3F90030C72B07DC1F4B4FF000029A60A9
:1021E0001A4B4FF000029A601C4B1B78002B0CD04E
:1021F0001B4B1B68002B08D01A4B00931A4B1B4A31
:1022000011491B48FEF7C2FE02E0164800F052F9E1
:10221000104BB3F90030C72B02DC124800F04AF92A
:10222000104800F09DF800BF1437BD4690BD00BFB8
:1022300060060020A4070020940C00202408002041
:1022400018080020A9689237FC090020100D002012
:102250000AD7A33A4E0D0020780A0020520D002024
:10226000B804002054090020F4060020380600209D
:10227000C408002080B500AF1449002001F0AAFA7C
:102280000346002B00D0FEE71149002001F03BFC83
:102290000346002B00D0FEE70E49002001F043FD6D
:1022A0000346002B00D0FEE70B49002001F01BFE87
:1022B0000346002B00D0FEE70849002001F03FFF55
:1022C0000346002B00D0FEE700BF80BDA004002025
:1022D000A4040020A8040020AC040020B0040020C6
:1022E00080B500AF144B1B68184601F0BDFB1348C6
:1022F000FEF716FE124B1B68184601F0C5FC11488C
:10230000FEF70EFE104B1B68184601F09DFD0F48AE
:10231000FEF706FE0E4B1B68184601F0C1FE0D4885
:10232000FEF7FEFD0C4B1B68184601F0CBFF0B4877
:10233000FEF7F6FD00BF80BDA00400208C4301081D
:10234000A4040020C4430108A8040020F8430108A5
:10235000AC04002028440108B00400205C440108BB
:1023600080B483B000AF78607B68D3ED007A9FEDD6
:102370004F7AF4EEC77AF1EE10FA05DB4C4B1B688E
:1023800040F26C725A6316E07B68D3ED007AF5EE8A
:10239000C07AF1EE10FA04D8454B1B6800225A634C
:1023A00009E07B68D3ED007A414B1B68FCEEE77ACD
:1023B00017EE902A5A637B68D3ED017A9FED3B7A42
:1023C000F4EEC77AF1EE10FA05DB394B1B6840F2E8
:1023D0006C729A6316E07B68D3ED017AF5EEC07AF1
:1023E000F1EE10FA04D8324B1B6800229A6309E020
:1023F0007B68D3ED017A2E4B1B68FCEEE77A17EE73
:10240000902A9A637B68D3ED027A9FED287AF4EEE6
:10241000C77AF1EE10FA05DB254B1B6840F26C72AF
:10242000DA6316E07B68D3ED027AF5EEC07AF1EE5E
:1024300010FA04D81E4B1B680022DA6309E07B689F
:10244000D3ED027A1A4B1B68FCEEE77A17EE902A5E
:10245000DA637B68D3ED037A9FED147AF4EEC77AE2
:10246000F1EE10FA05DB124B1B6840F26C721A6435
:1024700016E07B68D3ED037AF5EEC07AF1EE10FA40
:1024800004D80B4B1B6800221A6409E07B68D3ED6B
:10249000037A074B1B68FCEEE77A17EE902A1A6462
:1024A00000BF0C37BD465DF8047B70470080ED44EB
:1024B0006807002080B483B000AF78607B684FF07D
:1024C00000021A607B684FF000025A607B684FF090
:1024D00000029A607B684FF00002DA6000BF0C37A0
:1024E000BD465DF8047B704780B483B000AF134BEA
:1024F00000221A7000237B6016E0114A7B681344A7
:1025000000221A700F4A7B68002142F823100E4AFD
:102510007B68002142F823100C4A7B68002142F8B6
:1025200023107B6801337B607B68032BE5D900BFF8
:1025300000BF0C37BD465DF8047B7047520D00208C
:10254000280D00202C0D0020A40D00203C0D0020A3
:1025500080B582B000AF7860002000F023F800BFA3
:102560000837BD4680BD000080B500AF00F0DCFA42
:102570000A4B1B68B3F57A7F04DA084B1B680133FA
:10258000064A1360054B1B681E2B01DDFFF7ACFFED
:10259000034B01221A7000BF80BD00BF200D002038
:1025A000520D002080B483B000AF7860234BB3F9A4
:1025B0000030002B14D1224BB3F9003013F5966F85
:1025C0000EDA204BB3F90030B3F5966F08DD1E4BE1
:1025D000B3F9003013F5966F02DA1C4B01221A6032
:1025E000164BB3F90030002B22D1154BB3F9003054
:1025F00013F5966F1CDA134BB3F9003013F5966F91
:1026000016DA114BB3F90030B3F5966F10DD104BAD
:102610001B68002B06D10E4B01221A600D4B0122C4
:102620001A6005E00A4B00221A600A4B00221A6069
:1026300000BF0C37BD465DF8047B70474E0D00208F
:102640004C0D0020500D0020A20D0020B4040020ED
:10265000B8040020C004002080B594B000AFF8603A
:10266000B9607A603B6007F140031946F86801F0F1
:102670001FFA3B6CFB617B6C3B62BB6C7B6207F1BE
:1026800034031946B86801F023FB7B6B3B61BB6BDD
:102690007B61FB6BBB6107F128031946786801F089
:1026A000F7FBBA6A3B6E1A60FA6A3B6E5A603A6B85
:1026B0003B6E9A60796E386801F016FD3B6A5A42AB
:1026C000BB6D1A60FA69BB6D5A607A6ABB6D9A601D
:1026D0007B695A42FB6D1A603A69FB6D5A60BA69B0
:1026E000FB6D9A603B6E1B68FB643B6E5B685A42F5
:1026F0003B6E1A603B6EFA6C5A6000BF5037BD46A5
:1027000080BD80B500AF032009F06EF900220021E2
:102710004FF0FF3009F073F900BF80BD80B588B07D
:1027200000AF78607B681B68104A934219D1002380
:10273000BB600F4B5B6C0E4A43F4807353640C4BCD
:102740005B6C03F48073BB60BB680223FB600323F4
:102750003B6100237B6107F10C031946054809F032
:10276000C9F900BF2037BD4680BD00BF0020014031
:10277000003802400004024080B58AB000AF7860A3
:102780007B681B68514A934240F09C8000233B6168
:102790004F4B1B6B4E4A43F0020313634C4B1B6BB6
:1027A00003F002033B613B690023FB60484B1B6B5A
:1027B000474A43F001031363454B1B6B03F00103CE
:1027C000FB60FB680023BB60414B5B6C404A43F4F9
:1027D000805353643E4B5B6C03F48053BB60BB6817
:1027E00004237B610123BB610123FB6100233B6266
:1027F00000237B6207F114031946364809F07AF981
:1028000000220421334809F011FB20237B610223BD
:10281000BB610223FB6103233B6205237B6207F15B
:10282000140319462C4809F065F940237B61022303
:10283000BB610023FB6103233B6205237B6207F13D
:1028400014031946244809F055F980237B610223BB
:10285000BB610023FB6103233B6205237B6207F11D
:10286000140319461C4809F045F901237B61012333
:10287000BB610123FB6103233B6200237B6207F101
:1028800014031946134809F035F9012201211148B2
:1028900009F0CCFA10237B61104BBB610023FB6174
:1028A00003233B6200237B6207F1140319460A48A5
:1028B00009F020F9002203210A2009F0A0F80A20DB
:1028C00009F0B9F800BF2837BD4680BD003001408F
:1028D00000380240000402400000024000001110D5
:1028E00080B58AB000AF78607B681B68B3F1804F19
:1028F00026D100233B61344B1B6C334A43F0010368
:102900001364314B1B6C03F001033B613B690F23E4
:102910007B610223BB610223FB6102233B62012333
:102920007B6207F114031946284809F0E3F80022F6
:1029300002211C2009F063F81C2009F07CF83FE01C
:102940007B681B68224A93421FD10023FB601E4B09
:102950001B6C1D4A43F0040313641B4B1B6C03F0F8
:102960000403FB60FB684FF470737B610223BB615F
:102970000023FB6100233B6202237B6207F1140307
:102980001946144809F0B6F81AE07B681B68124A29
:10299000934215D10023BB600B4B5B6C0A4A43F496
:1029A00080335364084B5B6C03F48033BB60BB68BB
:1029B00000220321182009F022F8182009F03BF822
:1029C00000BF2837BD4680BD0038024000000240ED
:1029D00000080040000402400040014080B588B07B
:1029E00000AF78607B681B68164A934226D10023AB
:1029F000BB60154B5B6C144A43F010035364124BDD
:102A00005B6C03F01003BB60BB684FF4C063FB60FA
:102A100002233B6101237B610323BB610723FB612D
:102A200007F10C031946094809F064F80022042153
:102A3000252008F0E4FF252008F0FDFF00BF203727
:102A4000BD4680BD00100140003802400000024039
:102A500080B500AF08F064FC09F024F800BF80BD29
:102A600080B500AF02480BF065F900BF80BD00BF24
:102A7000340A002080B500AF02480BF05BF900BFBC
:102A800080BD00BFEC0A002080B500AF02480AF00C
:102A900031FF00BF80BD00BF940A002080B500AFA9
:102AA00002480AF027FF00BF80BD00BF9C0600203F
:102AB00080B500AF02480CF0E7F900BF80BD00BF51
:102AC000A009002080B500AF024809F0F3F900BF6B
:102AD00080BD00BFC80D002080B500AF102009F0F8
:102AE000D1F900BF80BD80B584B000AF78607B684D
:102AF0009B68002B14D008F021FC02467B681B6801
:102B00009A420DD37B681B695A1C7B681A617B68EB
:102B10001B68FB607B685A68FB681A447B681A6014
:102B200000BF1037BD4680BD80B500AF0248FFF73B
:102B3000DAFF00BF80BD00BFB40D002080B582B0B9
:102B400000AF78607B68D3F8EC237B6803F56F7384
:102B5000194610460DF055FE00BF0837BD4680BD32
:102B600080B582B000AF78600B46FB707B68D3F80D
:102B7000EC03FA7879681346DB009B1A9B000B4440
:102B800003F501731A68FB7819460DF087FE00BF44
:102B90000837BD4680BD80B582B000AF78600B4677
:102BA000FB707B68D3F8EC03FA7879681346DB0096
:102BB0009B1A9B000B4444331A68FB7819460DF0AE
:102BC000C8FE00BF0837BD4680BD80B582B000AFEB
:102BD00078607B68D3F8EC3318460DF0AEFF00BF89
:102BE0000837BD4680BD80B584B000AF7860012352
:102BF000FB737B68DB68002B02D0022B03D005E05F
:102C00000023FB7305E00123FB7302E00123FB7348
:102C100000BF7B68D3F8EC33FA7B114618460DF001
:102C200056FF7B68D3F8EC3318460DF021FF00BF48
:102C30001037BD4680BD000080B582B000AF78601F
:102C40007B68D3F8EC3318460DF051FF7B681B68A6
:102C500003F560631B687A68126802F5606243F0EE
:102C6000010313607B681B6A002B05D0044B1B69B2
:102C7000034A43F00603136100BF0837BD4680BD19
:102C800000ED00E080B582B000AF78607B68D3F8DB
:102C9000EC3318460DF040FF00BF0837BD4680BD3D
:102CA00080B582B000AF78600B46FB707B68D3F8CC
:102CB000EC33FA78114618460DF066FF00BF08376E
:102CC000BD4680BD80B582B000AF78600B46FB701A
:102CD0007B68D3F8EC33FA78114618460DF047FFBD
:102CE00000BF0837BD4680BD80B582B000AF7860B8
:102CF0007B68D3F8EC3318460DF053FF00BF08375C
:102D0000BD4680BD80B582B000AF78607B68D3F8E7
:102D1000EC3318460DF050FF00BF0837BD4680BDAC
:102D200080B582B000AF7860084611461A46034667
:102D3000FB700B46BB7013463B807B68D3F82002C8
:102D4000BB783A88F97809F054FD00231846083713
:102D5000BD4680BD80B582B000AF78600B46FB7089
:102D60007B68D3F82032FA781146184609F05AFEEB
:102D7000002318460837BD4680BD80B582B000AF3D
:102D800078600B46FB707B68D3F82032FA781146E6
:102D9000184609F0A2FE002318460837BD4680BD3C
:102DA00080B485B000AF78600B46FB707B68D3F8C9
:102DB0002032FB6097F90330002B0BDAFB7803F02D
:102DC0007F02F9681346DB009B1A9B000B443A33E1
:102DD0001B780BE0FB7803F07F02F9681346DB00F9
:102DE0009B1A9B000B4403F5FD731B7818461437A0
:102DF000BD465DF8047B704780B582B000AF786057
:102E00000B46FB707B68D3F82032FA7811461846DF
:102E100009F0CEFC002318460837BD4680BD80B5BA
:102E200084B000AFF8607A601A460B46FB72134616
:102E30003B81FB68D3F820023B89F97A7A6809F074
:102E400099FD002318461037BD4680BD80B584B07B
:102E500000AFF8607A601A460B46FB7213463B815E
:102E6000FB68D3F820023B89F97A7A6809F029FDDA
:102E7000002318461037BD4680BD0000DFF834D06F
:102E8000002103E00C4B5B58435004310B480C4BC2
:102E900042189A42F6D30B4A02E0002342F8043B60
:102EA000094B9A42F9D301F031FA0EF00DFBFEF70F
:102EB00011FB704700000120D44B010800000020E6
:102EC000600400206004002040120020FEE70000A3
:102ED00080B58AB000AF0346FB71FB79002B0DD1A2
:102EE00000233B611A4B1B6B194A43F00203136327
:102EF000174B1B6B03F002033B613B69FB79012B12
:102F00000DD10023FB60124B1B6B114A43F00203EF
:102F100013630F4B1B6B03F00203FB60FB68FB7931
:102F20000C4A52F823307B610123BB610023FB6113
:102F300002233B62FB79084A52F8233007F114025E
:102F40001146184608F0D6FD00BF2837BD4680BDA3
:102F500000380240684701081400002080B582B0A4
:102F600000AF0346FB71FB79074A52F82300FB7957
:102F7000064A52F823309BB20122194608F056FF48
:102F800000BF0837BD4680BD140000206847010817
:102F900080B582B000AF0346FB71FB79074A52F857
:102FA0002320FB79064951F823309BB2194610467D
:102FB00008F055FF00BF0837BD4680BD1400002053
:102FC0006847010880B588B000AF3E480AF074FD3C
:102FD0000346002B71D10023BB603B4B1B6C3A4A6C
:102FE00043F480431364384B1B6C03F48043BB6091
:102FF000BB6800237B60344B1B6B334A43F00203F6
:103000001363314B1B6B03F002037B607B684FF44F
:103010000043FB6002233B6100237B610323BB6110
:103020000523FB6107F10C031946284808F062FDEF
:103030004FF40053FB6000237B6107F10C0319463A
:10304000224808F057FD1F4B214A1A601D4B4FF4D0
:1030500082725A601B4B4FF400429A60194B002257
:10306000DA60184B02221A61164B01225A61154B85
:103070004FF400729A61134B1822DA61114B00224F
:103080001A62104B00225A620E4B00229A620D4BBC
:103090000722DA620B480AF029FA0A4B1B681A6801
:1030A000084B1B6842F480421A60064B1B681A6882
:1030B000044B1B6842F040021A6000231846203778
:1030C000BD4680BDD8040020003802400004024004
:1030D0000038004080B588B000AF01224FF4807105
:1030E000384808F0A3FE01224FF40051364808F09A
:1030F0009DFE01224FF48051344808F097FE0323CF
:10310000BB6100237B6101233B610023BB60304B2B
:103110001B6B2F4A43F0010313632D4B1B6B03F012
:103120000103BB60BB684FF48073FB6007F10C03C5
:103130001946244808F0DEFC01224FF48071214832
:1031400008F074FE00237B60214B1B6B204A43F088
:10315000020313631E4B1B6B03F002037B607B684F
:103160004FF48053FB6007F10C031946174808F031
:10317000C1FC01224FF48051144808F057FE00238F
:103180003B60134B1B6B124A43F004031363104B59
:103190001B6B03F004033B603B684FF40053FB6080
:1031A00007F10C031946084808F0A4FC01224FF46B
:1031B0000051054808F03AFE002318462037BD4666
:1031C00080BD00BF00000240000802400004024031
:1031D0000038024080B58CB000AF78607B68FB623D
:1031E00003237B6200233B620123FB61FB6ADB78E4
:1031F000022B42D0022B5EDC002B02D0012B1ED012
:1032000059E000237B612F4B1B6B2E4A43F00103D7
:1032100013632C4B1B6B03F001037B617B694FF441
:103220008073BB6101224FF48071274808F0FEFDD6
:1032300007F118031946244808F05CFC3DE0002320
:103240003B61204B1B6B1F4A43F0020313631D4B72
:103250001B6B03F002033B613B694FF48053BB617E
:1032600001224FF48051194808F0E0FD07F11803DE
:103270001946164808F03EFC1FE00023FB60114B86
:103280001B6B104A43F0040313630E4B1B6B03F0DC
:103290000403FB60FB684FF40053BB6101224FF451
:1032A00000510B4808F0C2FD07F118031946084801
:1032B00008F020FC01E0032300E00023184630372B
:1032C000BD4680BD003802400000024000040240BC
:1032D0000008024080B584B000AFF8607A601A46FA
:1032E0000B46FB7213463B813B89F97A7A68F86892
:1032F00000F040F8034618461037BD4680BD80B543
:1033000086B000AFF8607A601A460B46FB7213462F
:103310003B81FB687B617B695B78002B0AD13B8931
:10332000012B07D97B691B78BC2B03D1FB7A63F097
:103330007F03FB727B695B78012B16D13B89012BE4
:103340000AD97B691B78332B01D0402B05E0FB7A2F
:1033500043F04003FB7200E000BF3B89F97A7A68D2
:10336000F86800F037F8034600E0012318461837E4
:10337000BD4680BD80B586B000AFF8607A601A4661
:103380000B46FB7213463B81F86800F071F8FB7A3C
:1033900019460F4800F0ECF90023FB750AE0FB7DAD
:1033A0007A6813441B781946094800F0E1F9FB7D5F
:1033B0000133FB75FB7D9BB23A899A42EFD8F868DE
:1033C00000F088F8002318461837BD4680BD00BFBE
:1033D000D804002080B584B000AFF8607A601A4647
:1033E0000B46FB7213463B81F86800F041F8FB7A0C
:1033F00063F07F03DBB219461C4800F0B9F91B4BA0
:103400001B681A68194B1B6822F040021A60174BA0
:103410001B681A68154B1B6822F480421A603B89AE
:10342000012B06D93B891A467968104800F049F902
:1034300003E079680D4800F087F8F86800F04AF872
:103440000A4B1B681A68094B1B6842F480421A60D9
:10345000064B1B681A68054B1B6842F040021A6055
:10346000002318461037BD4680BD00BFD804002099
:1034700080B584B000AF78607B68FB60FB68DB7868
:10348000022B14D0022B19DC002B02D0012B07D009
:1034900014E000224FF480710B4808F0C7FC0DE0E7
:1034A00000224FF48051094808F0C0FC06E00022D9
:1034B0004FF40051064808F0B9FC00BF002318463D
:1034C0001037BD4680BD00BF00000240000402402E
:1034D0000008024080B584B000AF78607B68FB6074
:1034E000FB68DB78022B14D0022B19DC002B02D0F6
:1034F000012B07D014E001224FF480710B4808F033
:1035000095FC0DE001224FF48051094808F08EFC33
:1035100006E001224FF40051064808F087FC00BF86
:10352000002318461037BD4680BD00BF0000024092
:10353000000402400008024080B400AF0023184697
:10354000BD465DF8047B704780B483B000AF7860FF
:10355000396072B600BF7B681B681A687B681B689D
:1035600042F040021A60BFF34F8FBFF34F8FBFF39B
:103570004F8FBFF34F8FBFF34F8FBFF34F8FBFF30B
:103580004F8FBFF34F8FBFF34F8FBFF34F8FBFF3FB
:103590004F8FBFF34F8FBFF34F8FBFF34F8FBFF3EB
:1035A0004F8FBFF34F8FBFF34F8FBFF34F8FBFF3DB
:1035B0004F8FBFF34F8FBFF34F8FBFF34F8FBFF3CB
:1035C0004F8FBFF34F8FBFF34F8FBFF34F8FBFF3BB
:1035D0004F8FBFF34F8FBFF34F8FBFF34F8FBFF3AB
:1035E0004F8FBFF34F8FBFF34F8FBFF34F8FBFF39B
:1035F0004F8FBFF34F8FBFF34F8FBFF34F8FBFF38B
:103600004F8FBFF34F8FBFF34F8FBFF34F8FBFF37A
:103610004F8FBFF34F8FBFF34F8FBFF34F8FBFF36A
:103620004F8FBFF34F8FBFF34F8FBFF34F8FBFF35A
:103630004F8FBFF34F8FBFF34F8FBFF34F8FBFF34A
:103640004F8FBFF34F8FBFF34F8FBFF34F8FBFF33A
:103650004F8FBFF34F8FBFF34F8FBFF34F8FBFF32A
:103660004F8FBFF34F8FBFF34F8FBFF34F8FBFF31A
:103670004F8F7B681B681A687B681B6822F04002CA
:103680001A6062B600BF00BF7B681B689B6803F0CE
:103690000103012BF8D17B681B680C331B78DAB26D
:1036A0003B681A7000BF7B681B689B6803F080034F
:1036B000802BF8D000BF00BF0C37BD465DF8047BFF
:1036C000704780B485B000AFF860B9601346FB80E6
:1036D00072B600BFFB681B681A68FB681B6842F083
:1036E00040021A6013E0FB681B689B6803F001034B
:1036F000002B0CD0FB681B680C331B78DAB2BB685C
:103700001A70BB680133BB60FB88013BFB80FB8800
:10371000012BE8D8BFF34F8F00BFBFF34F8F00BF1F
:10372000FB681B681A68FB681B6822F040021A607D
:1037300062B600BF00BFFB681B689B6803F0010313
:10374000012BF8D1FB681B680C331B78DAB2BB681D
:103750001A7000BFFB681B689B6803F08003802B16
:10376000F8D000BF00BF1437BD465DF8047B70473A
:1037700080B483B000AF78600B46FB7000BF7B68FD
:103780001B689B6803F00203022BF8D17B681B685F
:103790000C33FA781A7000BF7B681B689B6803F0D3
:1037A0000203022BF8D100BF7B681B689B6803F003
:1037B0008003802BF8D000BF00BF0C37BD465DF8FA
:1037C000047B704780B400AF00231846BD465DF807
:1037D000047B704780B582B000AF03463960FB714F
:1037E0003B6800221A6097F90730002B0FD0012B9D
:1037F00015D0386800F026F80346012B17D1386839
:1038000000F0C0F80346012B11D1012315E0386800
:1038100000F018F80346012B0BD101230DE03868A6
:1038200000F0B0F80346012B05D1012305E000BFED
:1038300002E000BF00E000BF002318460837BD4685
:1038400080BD000080B584B000AF78600023FB60CD
:103850000C23FB72454B5B79012B01D1012380E0E6
:10386000FFF7B0FB0346012B01D1012379E03F4B69
:103870006A221A703D4B01225A703C4BD6229A7034
:103880003A4B0022DA70394B00221A71374B002272
:103890005A71364B00229A71344B0122DA71334B44
:1038A000334A9A60314B334ADA60304B324A1A61FC
:1038B000324B334A1A602E4B304A1A602C4B00228E
:1038C0005A607B68294A1A607B681B681846FFF7B4
:1038D00081FC2B4B5B78002B0CD17B68186807F1BF
:1038E0000B0201231221FFF7F5FC0346002B01D048
:1038F000012336E07B681B68DB68FB60FB681B68A4
:10390000002B0BD17B681B681422002118460DF098
:1039100015FE7B6800221A60012322E0FB681B6809
:103920007A681268104698470346012B0BD17B68D2
:103930001B681422002118460DF000FE7B6800224F
:103940001A6001230DE07B681B680421184603F010
:1039500042FF0346002B01D1012302E0FFF7ECFDFB
:10396000002318461037BD4680BD00BF300500203B
:1039700058050020F00100202001002068050020EB
:10398000C011002080B584B000AF78600023FB60D8
:103990002F4B5B7E012B01D1012354E0FFF712FF77
:1039A0000346012B01D101234DE0294B33221A7527
:1039B000274B32229A75264B01221A76244B00227D
:1039C0005A76234B00229A76214B0122DA76204B3D
:1039D000204ADA611E4B204A1A621D4B00225A62AD
:1039E0001E4B1F4A9A601D4B0022DA607B681D4AFD
:1039F0001A607B681B68DB68FB60FB681B68002B38
:103A00000BD17B681B681422002118460DF096FD2F
:103A10007B6800221A60012315E0FB681B687A6846
:103A20001268104698470346012B0BD17B681B6830
:103A30001422002118460DF081FD7B6800221A60D7
:103A4000012300E0002318461037BD4680BD00BFAB
:103A50003005002060050020D0000020580500201F
:103A6000700500204405002080B584B000AF786068
:103A70007B68FB600023BB60FB68002B01D1012346
:103A800012E0FB68DB68BB60BB689B68002B01D160
:103A9000012309E0BB689B68F86898470346012B3F
:103AA00001D1012300E0002318461037BD4680BD38
:103AB00080B584B000AF786039607B68FB6000231C
:103AC000BB60FB68002B01D1012318E0FB68DB68B9
:103AD000BB603B68002B01D1012310E0BB689B69F0
:103AE000002B01D101230AE0BB689B693968F868A3
:103AF00098470346012B01D1012300E0002318461B
:103B00001037BD4680BD80B582B000AF0346396036
:103B1000FB713B6800221A6097F90730002B07D031
:103B2000386800F015F80346012B09D101230BE09A
:103B3000386800F00DF80346012B03D1012303E0A0
:103B400000BF00E000BF002318460837BD4680BD17
:103B500080B584B000AF78600023FB600C23FB725B
:103B6000444B5B79012B01D101237EE0FFF72AFA58
:103B70000346012B01D1012377E03E4B6A221A70E4
:103B80003C4B01225A703B4BD6229A70394B002293
:103B9000DA70384B00221A71364B00225A71354BBD
:103BA00000229A71334B0122DA71324B324A9A6009
:103BB000304B324ADA602F4B00221A61304B314AC7
:103BC0001A602D4B2E4A1A602B4B00225A607B68DC
:103BD000284A1A607B681B681846FFF7FBFA294BD6
:103BE0001B78002B0CD17B68186807F10B020123AE
:103BF0001221FFF76FFB0346002B01D0012334E0B5
:103C00007B681B68DB68FB60FB681B68002B0BD1C3
:103C10007B681B681422002118460DF08FFC7B681E
:103C200000221A60012320E0FB681B687A68126892
:103C3000104698470346012B0BD17B681B68142262
:103C4000002118460DF07AFC7B6800221A600123DF
:103C50000BE07B681B680421184603F0BCFD03469B
:103C6000002B01D1012300E0002318461037BD4688
:103C700080BD00BF740500208805002040020020A0
:103C800090050020C011002080B584B000AF78609E
:103C90007B68FB600023BB60FB68002B01D1012324
:103CA00012E0FB68DB68BB60BB689B68002B01D13E
:103CB000012309E0BB689B68F86898470346012B1D
:103CC00001D1012300E0002318461037BD4680BD16
:103CD00080B584B000AF786039607B68FB600023FA
:103CE000BB60FB68002B01D1012318E0FB68DB6897
:103CF000BB603B68002B01D1012310E0BB689B69CE
:103D0000002B01D101230AE0BB689B693968F86880
:103D100098470346012B01D1012300E000231846F8
:103D20001037BD4680BD80B582B000AF0346396014
:103D3000FB713B6800221A6097F90730002B07D00F
:103D4000386800F015F80346012B09D101230BE078
:103D5000386800F00DF80346012B03D1012303E07E
:103D600000BF00E000BF002318460837BD4680BDF5
:103D700080B584B000AF78600023FB602E4B5B7988
:103D8000012B01D1012353E02B4B40221A702A4B07
:103D900001225A70284B3C229A70274B0122DA707C
:103DA000254B00221A71244B00225A71224B00220B
:103DB0009A71214B0022DA711F4B204A9A601E4BE8
:103DC0001F4ADA601C4B00221A611C4B1D4A1A6004
:103DD0001A4B00225A607B68174A1A607B681B687E
:103DE000DB68FB60FB681B68002B0BD17B681B68E2
:103DF0001422002118460DF0A1FB7B6800221A60F6
:103E0000012315E0FB681B687A6812681046984722
:103E10000346012B0BD17B681B6814220021184636
:103E20000DF08CFB7B6800221A60012300E0002368
:103E300018461037BD4680BD98050020AC0500200F
:103E400020000020B405002080B584B000AF786069
:103E50007B68FB600023BB60FB68002B01D1012362
:103E600012E0FB68DB68BB60BB689B68002B01D17C
:103E7000012309E0BB689B68F86898470346012B5B
:103E800001D1012300E0002318461037BD4680BD54
:103E900080B584B000AF786039607B68FB60002338
:103EA000BB60FB68002B01D1012318E0FB68DB68D5
:103EB000BB603B68002B01D1012310E0BB689B690C
:103EC000002B01D101230AE0BB689B693968F868BF
:103ED00098470346012B01D1012300E00023184637
:103EE0001037BD4680BD80B582B000AF0346396053
:103EF000FB713B6800221A6097F90730002B07D04E
:103F0000386800F015F80346012B09D101230BE0B6
:103F1000386800F00DF80346012B03D1012303E0BC
:103F200000BF00E000BF002318460837BD4680BD33
:103F300080B584B000AF78600023FB600123FB7282
:103F4000524B5B79012B01D101239BE0FFF73AF83B
:103F50000346012B01D1012394E04C4BB1221A708E
:103F60004A4B01225A70494BBA229A70474B02229F
:103F7000DA70464B00221A71444B00225A71434BAF
:103F800000229A71414B0122DA71404B404A9A60FB
:103F90003E4B404ADA603D4B00221A613E4B3F4A9D
:103FA0001A603B4B3C4A1A60394B00225A607B68CE
:103FB000364A1A607B681B681846FFF70BF9374BC7
:103FC0005B78002B29D17B68186807F10B0201236D
:103FD0001021FFF77FF90346002B01D0012351E0A8
:103FE0007B681B68184600F098FF0346002B01D041
:103FF000012347E04FF47A7007F0ACF90123FB721C
:104000007B68186807F10B0201231021FFF762F9A2
:104010000346002B01D0012334E07B681B68DB687A
:10402000FB60FB681B68002B0BD17B681B681422AC
:10403000002118460DF082FA7B6800221A600123E5
:1040400020E0FB681B687A681268104698470346B0
:10405000012B0BD17B681B681422002118460DF040
:104060006DFA7B6800221A6001230BE07B681B68F5
:104070000021184600F0A8FF0346012B01D10123BF
:1040800000E0002318461037BD4680BDB80500206B
:10409000CC05002068000020D4050020B8110020C5
:1040A00080B584B000AF78607B68FB600023BB60A4
:1040B000FB68002B01D1012312E0FB68DB68BB60C9
:1040C000BB689B68002B01D1012309E0BB689B689A
:1040D000F86898470346012B01D1012300E0002333
:1040E00018461037BD4680BD80B584B000AF7860FB
:1040F00039607B68FB600023BB60FB68002B01D14B
:10410000012318E0FB68DB68BB603B68002B01D132
:10411000012310E0BB689B69002B01D101230AE059
:10412000BB689B693968F86898470346012B01D141
:10413000012300E0002318461037BD4680BD80B53E
:1041400082B000AF03463960FB713B6800221A6001
:10415000386800F00BF80346012B01D1012300E081
:10416000002318460837BD4680BD000080B584B0E6
:1041700000AF78600023FB600123FB724C4B5B793E
:10418000012B01D101238FE0FEF71CFF0346012B19
:1041900001D1012388E0464BB1221A70444B012221
:1041A0005A70434BBA229A70414B0222DA70404B4C
:1041B00000221A713E4B00225A713D4B00229A7127
:1041C0003B4B0122DA713A4B3A4A9A60384B3A4AF1
:1041D000DA60374B00221A61384B394A1A60354B86
:1041E000364A1A60334B00225A607B68304A1A60A4
:1041F0007B681B681846FEF7EDFF314B1B78002BE0
:1042000028D17B68186807F10B0201231021FFF702
:1042100061F80346002B01D0012345E07B681B6851
:10422000184600F07AFE0346002B01D001233BE044
:10423000642007F08FF80123FB727B68186807F190
:104240000B0201231021FFF745F80346002B01D094
:10425000012329E07B681B68DB68FB60FB681B6847
:10426000002B0BD17B681B681422002118460DF02F
:1042700065F97B6800221A60012315E0FB681B6862
:104280007A681268104698470346012B0BD17B6869
:104290001B681422002118460DF050F97B6800229B
:1042A0001A60012300E0002318461037BD4680BD88
:1042B000D8050020000600209C00002010060020E9
:1042C000B811002080B584B000AF78607B68FB60D7
:1042D0000023BB60FB68002B01D1012312E0FB68C7
:1042E000DB68BB60BB689B68002B01D1012309E040
:1042F000BB689B68F86898470346012B01D10123EE
:1043000000E0002318461037BD4680BD80B400AFE2
:10431000164BD3F88830154A43F47003C2F888303E
:10432000134B1B68124A43F001031360104B002229
:104330009A600F4B1B680E4A23F0847323F480337A
:1043400013600B4B0B4A5A60094B1B68084A23F455
:1043500080231360064B0022DA60044B4FF00062AA
:104360009A6000BFBD465DF8047B704700ED00E039
:10437000003802401030002480B584B000AFF860EF
:104380007A601A460B46FB7213463B813B89F97AE9
:104390007A68F868FEF79EFF0346002B01D00023E1
:1043A00000E0012318461037BD4680BD80B584B0BB
:1043B00000AFF8607A601A460B46FB7213463B81E9
:1043C0003B89F97A7A68F868FEF799FF0346002B73
:1043D00001D0002300E0012318461037BD4680BD00
:1043E00080B582B000AF7860396001233A684F2110
:1043F0007868FFF7DBFF0346002B01D1002308E0BC
:104400003B681A783B681A703B681A783B681A70E8
:10441000012318460837BD4680BD80B584B000AF83
:1044200078600B46FB7007F10F020123602178686A
:10443000FFF7BCFF0346002B01D1002316E0FB7BF6
:1044400023F00303DBB2FB73FA7BFB781343DBB28D
:10445000FB7307F10F02012360217868FFF78CFFDF
:104460000346002B01D1002300E00123184610373A
:10447000BD4680BD80B584B000AF78600B46FB7050
:1044800007F10F02012360217868FFF78FFF0346D1
:10449000002B01D1002316E0FB7B23F00C03DBB2E1
:1044A000FB73FA7BFB781343DBB2FB7307F10F025C
:1044B000012360217868FFF75FFF0346002B01D1DD
:1044C000002300E0012318461037BD4680BD80B5AB
:1044D00082B000AF7860396001233A686021786863
:1044E000FFF764FF0346002B01D1002307E03B6880
:1044F0001B7803F00C03DAB23B681A7001231846EC
:104500000837BD4680BD80B584B000AF78600B46EB
:10451000FB7007F10F02012362217868FFF746FF65
:104520000346002B01D1002316E0FB7B23F002039E
:10453000DBB2FB73FA7BFB781343DBB2FB7307F14F
:104540000F02012362217868FFF716FF0346002B54
:1045500001D1002300E0012318461037BD4680BD7D
:1045600080B584B000AF78600B46FB7007F10F0296
:10457000012362217868FFF719FF0346002B01D160
:10458000002316E0FB7B23F01003DBB2FB73FA7B06
:10459000FB781343DBB2FB7307F10F0201236221A7
:1045A0007868FFF7E9FE0346002B01D1002300E005
:1045B000012318461037BD4680BD80B582B000AFDC
:1045C0007860396001233A6867217868FFF7EEFE6A
:1045D0000346002B01D1002304E03B681A783B68B6
:1045E0001A70012318460837BD4680BD80B584B0D7
:1045F00000AF7860396002233B7300237B73002394
:10460000FB731EE00023BB7314E07B7B6833D9B2DD
:104610007B7B3A681A4401237868FFF7C7FE03469C
:10462000002B01D1002310E07B7B01337B73BB7B2C
:104630000133BB73BA7B3B7B9A42E6D3FB7B0133EE
:10464000FB73FB7B022BDDD9012318461037BD46D7
:1046500080BD80B582B000AF7860786800F09FF8C8
:104660000346012B01D1012330E003217868FFF7D5
:10467000D4FE0346002B01D1012327E010217868E6
:10468000FFF76EFF0346002B01D101231EE004213A
:10469000786800F079F90346012B01D1012315E078
:1046A0000021786800F0F2F90346012B01D10123C3
:1046B0000CE000217868FFF726FF0346002B01D1AC
:1046C000012303E07B6801225A7100231846083752
:1046D000BD4680BD80B582B000AF7860786800F0DC
:1046E0005EF80346012B01D101230BE0786800F04E
:1046F00028F80346012B01D1012303E07B68002247
:104700005A71002318460837BD4680BD80B582B077
:1047100000AF78607B689B79012B01D100230CE00E
:1047200000217868FFF779FE0346002B01D10123B1
:1047300003E07B6801229A71002318460837BD46C2
:1047400080BD80B582B000AF78607B689B79002B1C
:1047500001D100230CE003217868FFF75EFE0346D9
:10476000002B01D1012303E07B6800229A71002312
:1047700018460837BD4680BD80B582B000AF78606E
:10478000396039687868FFF72BFE0346002B01D1AA
:10479000012300E0002318460837BD4680BD80B5E0
:1047A00084B000AF78600023FB7307F10F03194654
:1047B0007868FFF7E1FF0346012B01D1012307E0F1
:1047C0007B681A78FB7B9A4201D0012300E000232A
:1047D00018461037BD4680BD80B586B000AF786002
:1047E00039604FF00003FB6007F110031946786849
:1047F00000F0C6F90346012B01D101233BE007F18C
:104800000C031946786800F05BF80346012B01D1D0
:10481000012330E0B7F9103007EE903AB8EEE77AAE
:10482000D7ED037A67EE277AFDEEE77A17EE902A46
:104830003B681A60B7F9123007EE903AB8EEE77AA3
:10484000D7ED037A67EE277AFDEEE77A17EE902A26
:104850003B685A60B7F9143007EE903AB8EEE77A41
:10486000D7ED037A67EE277AFDEEE77A17EE902A06
:104870003B689A60002318461837BD4680BD80B556
:1048800084B000AF7860396007F108031946786892
:1048900000F076F90346012B01D101230CE0B7F9B2
:1048A00008203B681A80B7F90A203B685A80B7F99C
:1048B0000C203B689A80002318461037BD4680BD07
:1048C00080B483B000AF786039603B684FF07F52AE
:1048D0001A60002318460C37BD465DF8047B70470C
:1048E00080B584B000AF7860396007F10F031946D6
:1048F0007868FFF7ECFD0346002B01D1012335E07A
:10490000FB7B0C2B2CD801A252F823F04149000864
:1049100061490008614900086149000849490008E7
:1049200061490008614900086149000851490008CF
:1049300061490008614900086149000859490008B7
:104940003B680C4A1A6010E03B680B4A1A600CE0A6
:104950003B680A4A1A6008E03B68094A1A6004E0AA
:104960003B68084A1A60012300E00023184610370C
:10497000BD4680BD000020410000A041000048422B
:104980000000C842000080BF80B584B000AF7860EE
:104990000B46FB70FB78042B1BD801A252F823F0C6
:1049A000B5490008BB490008C1490008C7490008CB
:1049B000CD4900080023FB730DE00423FB730AE0DC
:1049C0000823FB7307E00C23FB7304E00C23FB7349
:1049D00001E001230AE0FB7B19467868FFF74AFDF6
:1049E0000346002B01D1012300E0002318461037B5
:1049F000BD4680BD80B584B000AF786087ED000A09
:104A0000D7ED007AB2EE047AF4EEC77AF1EE10FA3E
:104A100001D8002316E0D7ED007AB3EE047AF4EE65
:104A2000C77AF1EE10FA01D804230BE0D7ED007A33
:104A30009FED0C7AF4EEC77AF1EE10FA01D8082354
:104A400000E00C23FB73FB7B19467868FFF712FD2F
:104A50000346002B01D1012300E000231846103744
:104A6000BD4680BD0000484280B483B000AF78608E
:104A700039603B68044A1A60002318460C37BD466B
:104A80005DF8047B704700BF0000484280B483B0EB
:104A900000AF78600B46FB70002318460C37BD460C
:104AA0005DF8047B704780B483B000AF786087ED19
:104AB000000A002318460C37BD465DF8047B70479A
:104AC00080B584B000AFF8600B467A60FB72F97A6B
:104AD00001237A68F868FFF769FC0346002B01D1CF
:104AE000012300E0002318461037BD4680BD80B585
:104AF00082B000AF78600B46FB701346BB70BA1CE7
:104B0000F97801237868FFF737FC0346002B01D1C1
:104B1000012300E0002318460837BD4680BD80B55C
:104B200084B000AF7860396007F10F0319467868E8
:104B3000FFF743FD0346002B01D101231BE0FB7B64
:104B400003F00103002B0ED1FB7B03F00203002BCB
:104B500009D1FB7B03F00403002B04D1FB7B03F0A2
:104B60000803002B03D03B6801221A7002E03B6867
:104B700000221A70002318461037BD4680BD000081
:104B800080B586B000AF78603960164A07F10C0333
:104B900092E8030018600433198007F10C031946EA
:104BA0007868FFF723FD0346002B01D1012314E0B1
:104BB00007F10C037B617B69B3F900203B681A8025
:104BC0003B6802337A69B2F902201A803B680433E9
:104BD0007A69B2F904201A80002318461837BD46B6
:104BE00080BD00BF3C47010880B586B000AFF860CB
:104BF0007B600B46FB7213463B8100237B610023E5
:104C00007B6113E07B69DAB2FB7A1344D9B27B692A
:104C10007A681A440123F868FEF771FB0346002BFB
:104C200001D0012307E07B6901337B613B897A690D
:104C30009A42E7DB002318461837BD4680BD80B591
:104C400086B000AFF8607B600B46FB7213463B8179
:104C500000237B6100237B6113E07B69DAB2FB7A7E
:104C60001344D9B27B697A681A440123F868FEF7C5
:104C700031FB0346002B01D0012307E07B690133A0
:104C80007B613B897A699A42E7DB00231846183733
:104C9000BD4680BD80B582B000AF786039603B68AA
:104CA00001220F217868FFF79FFF0346002B01D0F8
:104CB000012300E0002318460837BD4680BD80B5BB
:104CC00084B000AF78600B46FB7007F10F03012240
:104CD0001A217868FFF788FF0346002B01D00123D3
:104CE00016E0FB7B23F00103DBB2FB73FA7BFB785E
:104CF0001343DBB2FB7307F10F0301221A2178681B
:104D0000FFF79DFF0346002B01D0012300E00023A5
:104D100018461037BD4680BD80B584B000AF7860BE
:104D20000B46FB7007F10F03012210217868FFF793
:104D30005BFF0346002B01D0012316E0FB7B23F031
:104D40007003DBB2FB73FA7BFB781343DBB2FB73BC
:104D500007F10F03012210217868FFF770FF034667
:104D6000002B01D0012300E0002318461037BD4678
:104D700080BD80B584B000AF7860396007F10F0363
:104D8000012210217868FFF72FFF0346002B01D086
:104D9000012306E0FB7B03F07003DAB23B681A7074
:104DA000002318461037BD4680BD80B584B000AFE3
:104DB00078600B46FB7007F10F0301221021786821
:104DC000FFF712FF0346002B01D001231AE0FB7B03
:104DD00023F00803DBB2FB73FB78DB005AB2FB7BEA
:104DE0005BB213435BB2DBB2FB7307F10F0301222B
:104DF00010217868FFF723FF0346002B01D0012321
:104E000000E0002318461037BD4680BD80B584B051
:104E100000AF78600B46FB7007F10F0301221021F1
:104E20007868FFF7E1FE0346002B01D0012316E06E
:104E3000FB7B23F00403DBB2FB73FA7BFB781343A9
:104E4000DBB2FB7307F10F03012210217868FFF733
:104E5000F6FE0346002B01D0012300E00023184694
:104E60001037BD4680BD80B584B000AF78600B467A
:104E7000FB7007F10F03012210217868FFF7B4FEE1
:104E80000346002B01D0012316E0FB7B23F0020335
:104E9000DBB2FB73FA7BFB781343DBB2FB7307F1E6
:104EA0000F03012210217868FFF7C9FE0346002B8B
:104EB00001D0002300E0002318461037BD4680BD16
:104EC00080B584B000AF78600B46FB7007F10F032C
:104ED000012210217868FFF787FE0346002B01D0DE
:104EE000012316E0FB7B23F00103DBB2FB73FA7BAB
:104EF000FB781343DBB2FB7307F10F030122102190
:104F00007868FFF79CFE0346002B01D0012300E0E8
:104F1000002318461037BD4680BD80B584B000AF71
:104F2000786007F10F03012211217868FFF75CFE1A
:104F30000346002B01D0012311E0FB7B63F07B03D0
:104F4000DBB2FB7307F10F03012211217868FFF731
:104F500076FE0346002B01D0012300E00023184613
:104F60001037BD4680BD80B584B000AF78600B4679
:104F7000FB7007F10F03012211217868FFF734FE5F
:104F80000346002B01D001231AE0FB7B23F0100322
:104F9000DBB2FB73FB781B015AB2FB7B5BB21343A2
:104FA0005BB2DBB2FB7307F10F03012211217868BA
:104FB000FFF745FE0346002B01D0012300E000234C
:104FC00018461037BD4680BD80B584B000AF78600C
:104FD0000B46FB7007F10F03012211217868FFF7E0
:104FE00003FE0346002B01D001231CE0FB7B23F0D2
:104FF0000803DBB2FB73FB78DB43DBB2DB005AB2A6
:10500000FB7B5BB213435BB2DBB2FB7307F10F03B5
:10501000012211217868FFF712FE0346002B01D010
:10502000012300E0002318461037BD4680BD80B53F
:1050300084B000AF7860396007F10F0301222721A7
:105040007868FFF7D1FD0346002B01D001231CE057
:10505000FB7B03F00103DAB23B685A70FB7B03F081
:105060000203DAB23B681A70FB7B5B11DBB203F020
:105070000103DAB23B689A70FB7B1B11DBB203F0D1
:105080000103DAB23B68DA70002318461037BD46D8
:1050900080BD80B584B000AF786039600023FB60CC
:1050A00007F10803032228217868FFF79DFD0346D6
:1050B000002B01D0012323E00023FB7210E0FB7AD8
:1050C00007F11002134413F8083C1A46FB7ADB0080
:1050D00002FA03F3FA681343FB60FB7A0133FB72B5
:1050E000FB7A022BEBD9FB6803F40003002B03D0FF
:1050F000FB6843F07F43FB60FA683B681A6000235B
:1051000018461037BD4680BD80B584B000AF7860CA
:10511000396007F10C0319467868FFF7BAFF0346B8
:10512000002B01D001230CE0FB68642202FB03F397
:10513000002B01DA03F6FF731B131A463B681A6053
:10514000002318461037BD4680BD80B584B000AF3F
:105150007860396007F10C0302222B217868FFF791
:1051600043FD0346002B01D001230CE07B7B9BB267
:105170001B029AB23B7B9BB21344FB81B7F90E2012
:105180003B681A80002318461037BD4680BD0000DA
:1051900080B584B000AF7860396007F10E0319461E
:1051A0007868FFF7D2FF0346002B01D001230BE004
:1051B000B7F90E30064A82FB03129210DB17D31A9E
:1051C0001AB23B681A80002318461037BD4680BDCE
:1051D0006766666680B584B000AF78607B689B6860
:1051E0001B681B68FB60FB685B78002B08D1F968C3
:1051F000786800F0B1FA0346012B01D1012306E0E3
:10520000FB6801221A707B6801225A71002318463C
:105210001037BD4680BD80B584B000AF78607B6834
:105220009B681B681B68FB60FB685B78002B07D1E1
:10523000786800F038F80346012B01D1012306E01D
:10524000FB6800221A707B6800225A7100231846FE
:105250001037BD4680BD80B584B000AF78607B68F4
:105260009B681B681B68FB607B689B79012B01D1E5
:10527000002314E0FB68D3ED017AF968B0EE670A09
:10528000786800F019FC0346012B01D1012306E0E8
:10529000FB6801229A707B6801229A7100231846EC
:1052A0001037BD4680BD80B584B000AF78607B68A4
:1052B0009B681B681B68FB607B689B79002B01D196
:1052C000002313E0FB68DB78002B08D1002178680D
:1052D000FFF722FD0346012B01D1012306E0FB6805
:1052E00000229A707B6800229A71002318461037BA
:1052F000BD4680BD80B582B000AF78603960396846
:10530000786800F089FA034618460837BD4680BD24
:1053100080B582B000AF7860786800F090FA0346FC
:1053200018460837BD4680BD80B582B000AF7860B2
:1053300039603968786800F09FFA034618460837E4
:10534000BD4680BD80B582B000AF786039603968F5
:10535000786800F0DBFA034618460837BD4680BD82
:1053600080B584B000AF78600B46FB707B689B68AB
:105370001B681B68FB607B689B79012B0AD1FB785B
:10538000FA681946786800F015FB0346012B0CD12A
:1053900001230BE0FB78FA681946786800F04EFBB1
:1053A0000346012B01D1012300E0002318461037EA
:1053B000BD4680BD80B584B000AF786087ED000A3F
:1053C0007B689B681B681B68FB607B689B79012B73
:1053D0000AD1F96897ED000A786800F06DFB034682
:1053E000012B0CD101230BE0F96897ED000A7868D6
:1053F00000F0B4FB0346012B01D1012300E00023A0
:1054000018461037BD4680BD80B584B000AFF86047
:105410000B467A60FB72FB7A7A681946F86800F0EE
:10542000E5FB0346012B01D1012300E000231846D0
:105430001037BD4680BD80B582B000AF78600B46A6
:10544000FB701346BB70BA78FB781946786800F099
:10545000E4FB0346012B01D1012300E000231846A1
:105460000837BD4680BD80B584B000AF7860396034
:1054700007F10C0319467868FFF7D9FD0346012BA5
:1054800001D1012303E07A7B3B681A7000231846A0
:105490001037BD4680BD80B584B000AF78607B68B2
:1054A0009B681B681B68FB60FB681B78002B08D19E
:1054B000F968786800F050F90346012B01D1012307
:1054C00006E0FB6801225A707B6801225A710023B2
:1054D00018461037BD4680BD80B584B000AF7860F7
:1054E0007B689B681B681B68FB60FB681B78002B54
:1054F00007D1786800F038F80346012B01D1012369
:1055000006E0FB6800225A707B6800225A71002373
:1055100018461037BD4680BD80B584B000AF7860B6
:105520007B689B681B681B68FB607B689B79012B11
:1055300001D1002314E0FB68D3ED017AF968B0EEE5
:10554000670A786800F0B8FA0346012B01D10123FD
:1055500006E0FB680122DA707B6801229A71002361
:1055600018461037BD4680BD80B584B000AF786066
:105570007B689B681B681B68FB607B689B79002BC2
:1055800001D1002313E0FB689B78002B08D1002198
:105590007868FFF7C1FB0346012B01D1012306E028
:1055A000FB680022DA707B6800229A71002318469B
:1055B0001037BD4680BD80B582B000AF78603960DD
:1055C0003968786800F028F9034618460837BD4660
:1055D00080BD80B582B000AF7860786800F02FF9A8
:1055E000034618460837BD4680BD80B582B000AF7F
:1055F000786039603968786800F064F903461846C5
:105600000837BD4680BD80B582B000AF7860396094
:105610003968786800F07AF9034618460837BD46BD
:1056200080BD80B584B000AF78600B46FB707B68AE
:105630009B681B681B68FB607B689B79012B0AD108
:10564000FB78FA681946786800F0B4F90346012B34
:105650000CD101230BE0FB78FA681946786800F05A
:10566000EDF90346012B01D1012300E00023184688
:105670001037BD4680BD80B584B000AF786087ED3F
:10568000000A7B689B681B681B68FB607B689B79D2
:10569000012B0AD1F96897ED000A786800F00CFA3E
:1056A0000346012B0CD101230BE0F96897ED000AAA
:1056B000786800F053FA0346012B01D1012300E082
:1056C000002318461037BD4680BD80B584B000AFBA
:1056D000F8600B467A60FB72FB7A7A681946F868C4
:1056E00000F084FA0346012B01D1012300E00023DE
:1056F00018461037BD4680BD80B582B000AF7860D7
:105700000B46FB701346BB70BA78FB781946786875
:1057100000F083FA0346012B01D1012300E00023AE
:1057200018460837BD4680BD80B584B000AF7860AC
:10573000396007F10C0319467868FFF778FC0346D7
:10574000012B01D1012303E03A7B3B681A7000234F
:1057500018461037BD4680BD80B582B000AF786076
:10576000396001217868FFF7ABFB0346012B01D1BB
:1057700001234AE0786800F062F80346012B01D16A
:10578000012342E03B68234A5A6001217868FFF711
:1057900096FA0346012B01D1012336E000217868F7
:1057A000FFF7BAFA0346012B01D101232DE00021B6
:1057B0007868FFF7FAFA0346012B01D1012324E0B0
:1057C00000217868FFF722FB0346012B01D101235A
:1057D0001BE002217868FFF746FB0346012B01D14D
:1057E000012312E000217868FFF7BDFB0346012B7F
:1057F00001D1012309E001217868FFF761FB03462D
:10580000012B01D1012300E0002318460837BD46D3
:1058100080BD00BF0000C84180B582B000AF786095
:10582000396039687868FFF735FA0346012B01D1F2
:10583000012300E0002318460837BD4680BD80B52F
:1058400084B000AF78600023FB7307F10F031946A3
:105850007868FFF7E1FF0346012B01D1012307E040
:105860007B681A78FB7B9A4201D0012300E0002379
:1058700018461037BD4680BD80B584B000AF786053
:1058800039600023FB6007F10C0319467868FFF7C5
:105890003BFC0346012B01D101230CE0FB6807EE22
:1058A000903AB8EEE77ADFED066AC7EE267A3B68F3
:1058B000C3ED007A002318461037BD4680BD00BFF7
:1058C0000000C84280B584B000AF78603960002322
:1058D000FB8107F10E0319467868FFF759FC034670
:1058E000012B01D101230DE0B7F90E3007EE903AFC
:1058F000B8EEE77AF2EE046AC7EE267A3B68C3EDAB
:10590000007A002318461037BD4680BD80B584B0AC
:1059100000AF7860396007F10F0319467868FFF728
:1059200028FA0346012B01D1012335E0FB7B502BE4
:1059300028D0502B2ADC402B20D0402B26DC302BCB
:1059400018D0302B22DC202B10D0202B1EDC002B7B
:1059500002D0102B05D019E03B684FF000021A600E
:1059600019E03B684FF07E521A6014E03B680C4A25
:105970001A6010E03B680B4A1A600CE03B680A4A68
:105980001A6008E03B68094A1A6004E03B68084A6C
:105990001A60012300E0002318461037BD4680BD81
:1059A000000020410000C84100004842000096422B
:1059B000000080BF80B586B000AFF8600B467A600B
:1059C000FB72FB7A042B1CD801A252F823F000BF13
:1059D000E5590008EB590008F1590008F75900088B
:1059E000FD5900081023FB750DE02023FB750AE02C
:1059F0003023FB7507E04023FB7504E05023FB7563
:105A000001E0012315E0FB7D1946F868FFF784F9F2
:105A10000346012B01D101230BE07B6804331946B7
:105A2000F868FFF773FF0346012B01D1012300E063
:105A3000002318461837BD4680BD00BF80B485B02E
:105A400000AFF8600B467A60FB72FB7A042B22D819
:105A500001A252F823F000BF6D5A0008775A0008DF
:105A60007F5A0008875A00088F5A00087B684FF059
:105A70007E525A6011E07B680B4A5A600DE07B68E9
:105A80000A4A5A6009E07B68094A5A6005E07B6867
:105A9000084A5A6001E0012300E000231846143749
:105AA000BD465DF8047B7047000020410000C841FE
:105AB000000048420000964280B586B000AFF86012
:105AC00087ED020A7960D7ED027AB7EE007AF4EE3C
:105AD000C77AF1EE10FA01D8102321E0D7ED027A4F
