:020000040800F2
:10000000000001205D240008AD240008AD24000894
:10001000AD240008AD240008AD2400080000000055
:10002000000000000000000000000000AD240008F7
:10003000AD24000800000000AD24000831200008B5
:10004000AD240008AD240008AD240008AD2400084C
:10005000AD240008AD240008AD240008AD2400083C
:10006000AD240008AD240008B9200008AD24000824
:10007000AD240008AD240008AD240008AD2400081C
:10008000AD240008AD240008AD24000800000000E5
:10009000000000000000000000000000AD24000887
:1000A00041200008AD240008AD240008AD2400085C
:1000B00055200008AD240008AD240008AD24000838
:1000C000AD240008AD240008AD2400086920000814
:1000D0007D20000891200008AD24000800000000E9
:1000E000AD240008AD240008AD2400080000000085
:1000F000000000000000000000000000AD24000827
:1001000000000000AD240008AD240008AD24000864
:1001100000000000000000000000000000000000DF
:10012000AD240008AD240008AD240008AD2400086B
:10013000AD240008000000000000000000000000E6
:10014000000000000000000000000000A5200008E2
:10015000AD240008AD240008AD240008AD2400083B
:10016000AD240008AD2400080000000000000000DD
:10017000000000000000000000000000000000007F
:1001800000000000AD240008000000000000000096
:04019000AD24000892
:1001A00010B5054C237833B9044B13B10448AFF3B1
:1001B00000800123237010BD5004002000000000C7
:1001C000105E010808B5034B1BB103490348AFF3A8
:1001D000008008BD0000000054040020105E0108EB
:1001E000034613F8012B002AFBD1181A0138704777
:1001F00001F0FF01102A2BDB10F0070F08D010F8D8
:10020000013B013A8B422DD010F0070F42B3F6D1DB
:10021000F0B441EA012141EA014122F007047FF0F4
:1002200000070023F0E80256083C85EA010586EA4B
:10023000010685FA47F5A3FA87F586FA47F6A5FA87
:1002400087F68EB9EED1F0BC01F0FF0102F0070293
:1002500032B110F8013B013A83EA010313B1F8D13E
:100260000020704701387047002D06BF354603381F
:10027000073815F0010F07D1013015F4807F02BF58
:10028000013015F4C03F0130F0BC0138704700BFA9
:1002900081F0004102E000BF83F0004330B54FEA37
:1002A00041044FEA430594EA050F08BF90EA020FA4
:1002B0001FBF54EA000C55EA020C7FEA645C7FEA37
:1002C000655C00F0E2804FEA5454D4EB5555B8BF5A
:1002D0006D420CDD2C4480EA020281EA030382EACB
:1002E000000083EA010180EA020281EA0303362D5D
:1002F00088BF30BD11F0004F4FEA01314FF4801C30
:100300004CEA113102D0404261EB410113F0004F41
:100310004FEA03334CEA133302D0524263EB4303F8
:1003200094EA050F00F0A780A4F10104D5F1200E96
:100330000DDB02FA0EFC22FA05F2801841F10001F1
:1003400003FA0EF2801843FA05F359410EE0A5F1C5
:1003500020050EF1200E012A03FA0EFC28BF4CF0F6
:10036000020C43FA05F3C01851EBE37101F00045AC
:1003700007D54FF0000EDCF1000C7EEB00006EEBB9
:100380000101B1F5801F1BD3B1F5001F0CD3490843
:100390005FEA30004FEA3C0C04F101044FEA44529A
:1003A00012F5800F80F09A80BCF1004F08BF5FEA21
:1003B000500C50F1000041EB045141EA050130BD01
:1003C0005FEA4C0C404141EB0101013C28BFB1F513
:1003D000801FE9D291F0000F04BF01460020B1FA5E
:1003E00081F308BF2033A3F10B03B3F120020CDA31
:1003F0000C3208DD02F1140CC2F10C0201FA0CF00F
:1004000021FA02F10CE002F11402D8BFC2F1200C73
:1004100001FA02F120FA0CFCDCBF41EA0C01904029
:10042000E41AA2BF01EB0451294330BD6FEA040472
:100430001F3C1CDA0C340EDC04F11404C4F120025D
:1004400020FA04F001FA02F340EA030021FA04F36F
:1004500045EA030130BDC4F10C04C4F1200220FAC6
:1004600002F001FA04F340EA0300294630BD21FA04
:1004700004F0294630BD94F0000F83F4801306BFCA
:1004800081F480110134013D4EE77FEA645C18BFBE
:100490007FEA655C29D094EA050F08BF90EA020F55
:1004A00005D054EA000C04BF1946104630BD91EA4D
:1004B000030F1EBF0021002030BD5FEA545C05D150
:1004C0004000494128BF41F0004130BD14F580048F
:1004D0003CBF01F5801130BD01F0004545F0FE4103
:1004E00041F470014FF0000030BD7FEA645C1ABF38
:1004F000194610467FEA655C1CBF0B46024650EA6F
:10050000013406BF52EA033591EA030F41F400219A
:1005100030BD00BF90F0000F04BF0021704730B520
:100520004FF4806404F132044FF000054FF00001F5
:1005300050E700BF90F0000F04BF0021704730B5B6
:100540004FF4806404F1320410F0004548BF40428B
:100550004FF000013EE700BF42004FEAE2014FEAE0
:1005600031014FEA02701FBF12F07F4393F07F4FBB
:1005700081F06051704732F07F4208BF704793F0BE
:100580007F4F04BF41F40021704730B54FF46074D1
:1005900001F0004521F000411CE700BF50EA0102D4
:1005A00008BF704730B54FF000050AE050EA01027D
:1005B00008BF704730B511F0004502D5404261EBED
:1005C00041014FF4806404F132045FEA915C3FF42E
:1005D000D8AE4FF003025FEADC0C18BF03325FEACB
:1005E000DC0C18BF033202EBDC02C2F1200300FA7C
:1005F00003FC20FA02F001FA03FE40EA0E0021FAA1
:1006000002F11444BDE600BF70B54FF0FF0C4CF48E
:10061000E06C1CEA11541DBF1CEA135594EA0C0F40
:1006200095EA0C0F00F0DEF82C4481EA030621EA7B
:100630004C5123EA4C5350EA013518BF52EA0335B6
:1006400041F4801143F4801338D0A0FB02CE4FF068
:100650000005E1FB02E506F00042E0FB03E54FF098
:100660000006E1FB03569CF0000F18BF4EF0010E90
:10067000A4F1FF04B6F5007F64F5407404D25FEA8C
:100680004E0E6D4146EB060642EAC62141EA55513F
:100690004FEAC52040EA5E504FEACE2EB4F1FD0C81
:1006A00088BFBCF5E06F1ED8BEF1004F08BF5FEAFF
:1006B000500E50F1000041EB045170BD06F00046B1
:1006C00046EA010140EA020081EA0301B4EB5C045E
:1006D000C2BFD4EB0C0541EA045170BD41F4801156
:1006E0004FF0000E013C00F3AB8014F1360FDEBF7B
:1006F000002001F0004170BDC4F10004203C35DA57
:100700000C341BDC04F11404C4F1200500FA05F3D9
:1007100020FA04F001FA05F240EA020001F000427A
:1007200021F0004110EBD37021FA04F642EB0601F0
:100730005EEA430E08BF20EAD37070BDC4F10C041A
:10074000C4F1200500FA04F320FA05F001FA04F2DE
:1007500040EA020001F0004110EBD37041F10001CA
:100760005EEA430E08BF20EAD37070BDC4F12005D5
:1007700000FA05F24EEA020E20FA04F301FA05F23D
:1007800043EA020321FA04F001F0004121FA04F2E5
:1007900020EA020000EBD3705EEA430E08BF20EAB5
:1007A000D37070BD94F0000F0FD101F000464000EF
:1007B00041EB010111F4801F08BF013CF7D041EA71
:1007C000060195F0000F18BF704703F00046520075
:1007D00043EB030313F4801F08BF013DF7D043EA46
:1007E0000603704794EA0C0F0CEA135518BF95EAFC
:1007F0000C0F0CD050EA410618BF52EA4306D1D183
:1008000081EA030101F000414FF0000070BD50EAA1
:10081000410606BF1046194652EA430619D094EA2B
:100820000C0F02D150EA013613D195EA0C0F05D115
:1008300052EA03361CBF104619460AD181EA030169
:1008400001F0004141F0FE4141F470014FF0000021
:1008500070BD41F0FE4141F4780170BD70B54FF0BC
:10086000FF0C4CF4E06C1CEA11541DBF1CEA13553C
:1008700094EA0C0F95EA0C0F00F0A7F8A4EB05041E
:1008800081EA030E52EA03354FEA013100F0888015
:100890004FEA03334FF0805545EA131343EA1263DE
:1008A0004FEA022245EA111545EA10654FEA002693
:1008B0000EF000419D4208BF964244F1FD0404F54C
:1008C000407402D25B084FEA3202B61A65EB0305A8
:1008D0005B084FEA32024FF480104FF4002CB6EB65
:1008E000020E75EB030E22BFB61A754640EA0C00E5
:1008F0005B084FEA3202B6EB020E75EB030E22BF25
:10090000B61A754640EA5C005B084FEA3202B6EB65
:10091000020E75EB030E22BFB61A754640EA9C0024
:100920005B084FEA3202B6EB020E75EB030E22BFF4
:10093000B61A754640EADC0055EA060E18D04FEAB2
:10094000051545EA16754FEA06164FEAC30343EA52
:1009500052734FEAC2025FEA1C1CC0D111F4801F1F
:100960000BD141EA00014FF000004FF0004CB6E718
:1009700011F4801F04BF01430020B4F1FD0C88BFB7
:10098000BCF5E06F3FF6AFAEB5EB030C04BFB6EBC2
:10099000020C5FEA500C50F1000041EB045170BDB5
:1009A0000EF0004E4EEA113114EB5C04C2BFD4EBE2
:1009B0000C0541EA045170BD41F480114FF0000E66
:1009C000013C90E645EA060E8DE60CEA135594EAE2
:1009D0000C0F08BF95EA0C0F3FF43BAF94EA0C0FE5
:1009E0000AD150EA01347FF434AF95EA0C0F7FF45A
:1009F00025AF104619462CE795EA0C0F06D152EAAE
:100A000003353FF4FDAE1046194622E750EA410691
:100A100018BF52EA43067FF4C5AE50EA41047FF4A2
:100A20000DAF52EA43057FF4EBAE12E74FF0FF3C07
:100A300006E000BF4FF0010C02E000BF4FF0010CD8
:100A40004DF804CD4FEA410C7FEA6C5C4FEA430C51
:100A500018BF7FEA6C5C1BD001B050EA410C0CBFA0
:100A600052EA430C91EA030F02BF90EA020F002002
:100A7000704710F1000F91EA030F58BF994208BF69
:100A800090422CBFD8176FEAE37040F00100704726
:100A90004FEA410C7FEA6C5C02D150EA013C07D17D
:100AA0004FEA430C7FEA6C5CD6D152EA033CD3D0C8
:100AB0005DF8040B704700BF8446104662468C46C2
:100AC0001946634600E000BF01B5FFF7B7FF0028F5
:100AD00048BF10F1000F01BD4DF808EDFFF7F4FF1E
:100AE0000CBF012000205DF808FB00BF4DF808EDA9
:100AF000FFF7EAFF34BF012000205DF808FB00BFCC
:100B00004DF808EDFFF7E0FF94BF012000205DF8ED
:100B100008FB00BF4DF808EDFFF7CEFF94BF0120A2
:100B200000205DF808FB00BF4DF808EDFFF7C4FF9B
:100B300034BF012000205DF808FB00BF4FEA410CE4
:100B40007FEA6C5C02D150EA013C0AD14FEA430CC7
:100B50007FEA6C5C02D152EA033C02D14FF0000004
:100B600070474FF0010070474FEA410212F5001242
:100B700015D211D56FF47873B3EB625212D94FEAE4
:100B8000C12343F0004343EA505311F0004F23FACE
:100B900002F018BF404270474FF00000704750EA23
:100BA000013005D111F0004008BF6FF000407047E0
:100BB0004FF00000704700BF4FEA4102B2F1E0433E
:100BC00024BFB3F5001CDCF1FE5C0DD901F0004C34
:100BD0004FEAC0024CEA5070B2F1004F40EB830084
:100BE00008BF20F00100704711F0804F21D113F1B0
:100BF0003872BCBF01F00040704741F480114FEAE9
:100C00005252C2F11802C2F1200C10FA0CF320FA71
:100C100002F018BF40F001004FEAC1234FEAD3238E
:100C200003FA0CFC40EA0C0023FA02F34FEA4303F8
:100C3000CCE77FEA625307D150EA01331EBF4FF081
:100C4000FE4040F44000704701F0004040F0FE409C
:100C500040F40000704700BF7BB972B90029BEBFE5
:100C600000204FF0004106E008BF00281CBF6FF0D5
:100C700000414FF0FF3000F0A1B9ADF1080C6DE973
:100C800004CE002909DB002B1ADB00F035F8DDF873
:100C900004E0DDE9022304B07047404261EB41010A
:100CA000002B1BDB00F028F8DDF804E0DDE902236F
:100CB00004B0404261EB4101524263EB4303704791
:100CC000524263EB430300F017F8DDF804E0DDE97E
:100CD000022304B0404261EB41017047524263EB92
:100CE000430300F009F8DDF804E0DDE9022304B075
:100CF000524263EB430370472DE9F047089D0446D9
:100D00008C46002B40F083808A42174647D9B2FABE
:100D100082F242B1C2F1200024FA00F091409740E3
:100D200040EA010C94404FEA1748230CBCFBF8F64C
:100D30001FFA87FE08FB16C143EA014306FB0EF1CA
:100D4000994209D9FB1806F1FF3080F019819942C8
:100D500040F21681023E3B445B1AA4B2B3FBF8F0AA
:100D600008FB103344EA034400FB0EFEA64509D9F4
:100D70003C1900F1FF3380F00581A64540F2028165
:100D800002383C4440EA0640A4EB0E0400261DB1A4
:100D9000D4400023C5E900433146BDE8F08702B9DD
:100DA000FFDEB2FA82F2002A50D1CB1B4FEA174E77
:100DB0001FFA87F80126B3FBFEFC210C0EFB1C3347
:100DC00041EA034108FB0CF38B4207D979180CF177
:100DD000FF3002D28B4200F2E9808446C91AA3B2E6
:100DE000B1FBFEF00EFB101143EA014408FB00F8D2
:100DF000A04507D93C1900F1FF3302D2A04500F20B
:100E0000D9801846A4EB080440EA0C40BFE78B42A7
:100E100009D9002D00F0B1800026C5E90001304657
:100E20003146BDE8F087B3FA83F6002E4AD18B42F3
:100E300002D3824200F2B880841A61EB03010120E0
:100E40008C46002DA8D0C5E9004CA5E7C2F12003CF
:100E500020FA03F6974001FA02F04FEA174ED94004
:100E60003043030CB1FBFEF61FFA87F80EFB161198
:100E700043EA014306FB08F1994204FA02F409D956
:100E8000FB1806F1FF3C80F08D80994240F28A8089
:100E9000023E3B445B1A81B2B3FBFEF00EFB103303
:100EA00041EA034100FB08F38B4207D9791800F1AE
:100EB000FF3C73D28B4271D902383944CB1A40EAD5
:100EC000064678E7C6F1200C03FA06F422FA0CF382
:100ED0001C4320FA0CF701FA06F34FEA144E21FAEC
:100EE0000CF11F433B0CB1FBFEF91FFA84F80EFB1B
:100EF000191143EA014109FB08FA8A4502FA06F290
:100F000000FA06F308D9611809F1FF3048D28A4582
:100F100046D9A9F102092144A1EB0A01BFB2B1FBF4
:100F2000FEF00EFB101147EA014700FB08F8B84538
:100F300007D9E71900F1FF312ED2B8452CD9023874
:100F4000274440EA0940A7EB0807A0FB02894F4568
:100F5000C64649461AD317D05DB1B3EB0E0267EB14
:100F6000010707FA0CFCF2404CEA0202F740C5E91F
:100F7000002700263146BDE8F0872E4628460BE7BD
:100F80000646E9E61846FDE64345E5D2B8EB020E13
:100F900069EB04010138DFE70846D2E760468DE7D8
:100FA0008146B9E7664675E730464AE7ACF1020C80
:100FB000394413E702383C4424E700BF704700BFC0
:100FC0000FB480B5C2B000AF07F58A73C7F800311F
:100FD0003846D7F80031D7F81021FE2110F02CFB4D
:100FE000C7F804013B46D7F80411184600F00AF888
:100FF000D7F80431184607F58477BD46BDE8804030
:1010000004B0704780B582B000AF786039603B684B
:101010009AB24FF47A73796803480DF0C2F900234D
:1010200018460837BD4680BD500900202DE9B04361
:101030008CB004AF09F052FC00F0CCFA00F060FC78
:1010400000F030FB00F06AFB00F0BCFB00F00EFC8F
:1010500000F032FC5748FFF7B3FF002001F028FAF8
:10106000012001F025FA002001F082FA012001F0B0
:101070007FFA01F01FFB00F0B1FC00F0E5FC4E48E8
:101080000CF0F8F84D48FFF79BFF4D4B1B684D499E
:10109000184602F019FB4C4B1B684C49184602F0ED
:1010A00025FC4B4BD3ED007A484B93ED007AF0EEE4
:1010B000470AB0EE670A00F09BF887ED070A454B38
:1010C00093E8070000F0F8F887ED060A414B93E833
:1010D000070000F049F987ED050A3F4BD7ED050AF7
:1010E00097ED060A93E8070000F096F987ED040AE9
:1010F0009FED3A7AD7ED067A67EE877AC7ED037AE5
:101100009FED367AD7ED057A67EE877AC7ED027ADA
:101110009FED327AD7ED047A67EE877AC7ED017AD0
:101120002F48FFF74DFFF868FFF716FA804689460B
:10113000B868FFF711FA04460D467868FFF70CFA15
:1011400002460B46CDE90223CDE9004542464B4617
:101150002448FFF735FFF869FFF7FEF902460B4612
:101160002148FFF72DFF1E48FFF72AFFD7ED037A2E
:101170009FED1E7AF4EEC77AF1EE10FA03DD00203F
:1011800001F0DCF902E0002001F0F2F9D7ED027A7B
:101190009FED167AF4EEC77AF1EE10FA03DD012026
:1011A00001F0CCF902E0012001F0E2F90A2009F097
:1011B000EDFB76E7285E0108E4090020545E010893
:1011C0007C04002000090020800400202808002062
:1011D000400A0020DC050020B40C00209C30654251
:1011E000685E0108945E0108C05E0108000070425C
:1011F000B0B584B000AF87ED010AC7ED000A2A4BF5
:1012000093ED007AD7ED016AC6EE877AC7ED037ACF
:10121000264BBB60F868FFF79FF904460D46B86897
:10122000FFF79AF902460B4643EC112B45EC104BA5
:1012300012F0F0FB51EC100B4FF000021C4BFFF7CB
:101240002BF802460B4614461D463868FFF784F912
:1012500011A3D3E90023FFF721F802460B462046ED
:101260002946FFF7D1F902460B46104619460CA352
:10127000D3E90023FFF7F2FA02460B46104619465F
:10128000FFF79AFC034607EE903AB0EE670A103774
:10129000BD46B0BDAFF300800000000000147140F7
:1012A00039B4C876BE9F7A3F00090020B4C9423ED7
:1012B0000000F03F000000002DE9B04384B000AF13
:1012C0003B1D83E807007B685B421846FFF732F955
:1012D00004460D46BB681846FFF72CF902460B463C
:1012E0009FED1F1B43EC102B12F094FB59EC108B5D
:1012F000FB681846FFF71EF902460B469FED181BC8
:1013000043EC102B12F086FB53EC102B4046494661
:10131000FEF7C4FF02460B4643EC172BB0EE470A1C
:10132000F0EE670A12F024FCB0EE407AF0EE607A3C
:10133000B0EE471AF0EE671A45EC104B12F068FB5E
:1013400053EC102B10461946FFF736FC034607EE08
:10135000903AB0EE670A1037BD46BDE8B08300BFD3
:1013600000000000000000402DE9B04384B000AF51
:101370003B1D83E80700BB681846FFF7DBF804460F
:101380000D467B681846FFF7D5F802460B469FEDE1
:10139000201B43EC102B12F03DFB59EC108BFB682B
:1013A0001846FFF7C7F802460B469FED191B43ECA2
:1013B000102B12F02FFB53EC102B40464946FEF742
:1013C0006DFF02460B4643EC172BB0EE470AF0EEDA
:1013D000670A12F0CDFBB0EE407AF0EE607AB0EE24
:1013E000471AF0EE671A45EC104B12F011FB53EC64
:1013F000102B10461946FFF7DFFB034607EE903A25
:10140000B0EE670A1037BD46BDE8B083AFF3008089
:1014100000000000000000402DE9B0438AB000AF9A
:1014200007F10C0383E8070087ED020AC7ED010A04
:101430007B691846FFF77EF804460D467868FFF78B
:101440008BF802460B4643EC102B12F08DFA53EC4E
:10145000102B20462946FFF7D7F802460B46904648
:1014600099463B691846FFF765F804460D467868CB
:10147000FFF772F802460B4643EC102B12F024FAE9
:1014800053EC102B20462946FFF7BEF802460B46C8
:1014900040464946FEF700FF02460B4610461946F5
:1014A000FFF78AFB03467B623B691846FFF742F869
:1014B00004460D467868FFF74FF802460B4643ECAA
:1014C000102B12F051FA53EC102B20462946FFF74F
:1014D0009BF802460B46904699467B691846FFF7F3
:1014E00029F804460D467868FFF736F802460B46A1
:1014F00043EC102B12F0E8F953EC102B2046294650
:10150000FFF782F802460B4640464946FEF7C6FE04
:1015100002460B4610461946FFF74EFB03463B6258
:10152000FB681846FFF706F804460D46B868FFF753
:1015300013F802460B4643EC102B12F0C5F953EC9E
:10154000102B20462946FFF75FF802460B469046CF
:101550009946386AFFF700F804460D46B868FEF76A
:10156000FBFF02460B4643EC102B12F0FDF953EC47
:10157000102B20462946FFF747F802460B46404607
:101580004946FEF78BFE02460B4610461946FFF70A
:1015900013FB0346FB61786AFEF7DEFF04460D4647
:1015A000F869FEF7D9FF02460B4643EC112B45ECD8
:1015B000104B12F02DFA53EC102B10461946FFF782
:1015C000FBFA034607EE903AB0EE670A2837BD46AD
:1015D000BDE8B08380B594B000AF0023BB602E4B54
:1015E0001B6C2D4A43F0805313642B4B1B6C03F090
:1015F0008053BB60BB6800237B60284B1B6823F4CF
:101600004043264A43F400431360244B1B6803F411
:1016100040437B607B6801233B624FF480337B62F5
:101620000223BB634FF48003FB6310233B644FF43E
:10163000A8737B640423BB640723FB6407F12003C6
:1016400018460AF021FE0F23FB6002233B610023B2
:101650007B614FF48053BB610023FB6107F10C03F6
:10166000022118460BF06AF80BF0FAF903460C4A0F
:10167000A2FB03239B09184609F007FD042009F08B
:1016800011FD002200214FF0FF3009F0D4FC00BF13
:101690005037BD4680BD00BF00380240007000409A
:1016A000D34D621080B584B000AF1A4B1A4A1A604D
:1016B000184B4FF480325A60164B00229A60154B3B
:1016C00000221A61134B00229A61124B00221A6207
:1016D000104B0022DA620F4B0022DA600D4B012220
:1016E000DA610C4B00221A630A4B01225A61094845
:1016F00009F063F909233B6001237B600023BB6091
:101700003B461946034809F09BF900BF1037BD4618
:1017100080BD00BF900800200020014080B58AB045
:1017200000AF274B4FF080421A60254B14225A60BD
:10173000234B00229A60224B47F6FF72DA60204B5F
:1017400000221A611E480BF06AFD4FF48053BB6102
:1017500007F1180319461A480CF07CF818480BF0EA
:10176000D9FD00233B6100237B6107F1100319467B
:1017700013480CF070FD0A233B6001237B600023BB
:10178000BB600023FB603B46002219460C480BF06F
:10179000FEFE3B460422194609480BF0F8FE3B4684
:1017A0000822194606480BF0F2FE3B460C22194669
:1017B00003480BF0ECFE00BF2837BD4680BD00BFDC
:1017C0009C0A002080B58EB000AF264B264A1A60D6
:1017D000244B54225A60234B00229A60214B40F242
:1017E000CF72DA601F4B00221A611E480BF017FD02
:1017F0004FF48053BB6207F12803194619480CF0D7
:1018000029F818480BF051FD00233B6200237B624E
:1018100007F12003194613480CF01DFD60237B607F
:101820000023BB600023FB6000237B613B1D002283
:1018300019460C480BF048FF3B1D04221946094885
:101840000BF042FF3B1D0822194606480BF03CFFF7
:101850003B1D0C22194603480BF036FF00BF3837FA
:10186000BD4680BD180700200008004080B584B048
:1018700000AF0F4B0F4A1A600D4B33225A600C4BCE
:1018800000229A600A4B40F2CF72DA60084B0022C5
:101890001A6107480BF0C3FC4FF480533B603B4692
:1018A000194603480BF0D6FF00BF1037BD4680BD78
:1018B000E40900200040014080B500AF0E4B0F4A04
:1018C0001A600D4B4FF4E1325A600B4B00229A60C4
:1018D000094B0022DA60084B00221A61064B0C22E9
:1018E0005A61054B00229A61034B0022DA610248DB
:1018F0000CF00AFD00BF80BD50090020001001401F
:1019000080B588B000AF0023BB601D4B1B6B1C4A29
:1019100043F0040313631A4B1B6B03F00403BB6017
:10192000BB6800237B60164B1B6B154A43F0010319
:101930001363134B1B6B03F001037B607B68002375
:101940003B600F4B1B6B0E4A43F0020313630C4BBF
:101950001B6B03F002033B603B683023FB601123E9
:101960003B6100237B610023BB6107F10C03194637
:10197000044809F0DBFB00BF2037BD4680BD00BF37
:10198000003802400004024090B587B004AF786090
:101990000A4B18680A4B19680A4B1A680A4B1B68ED
:1019A0000A4C03940A4C02940A4C01940A4C009489
:1019B00000F042F900BF0C37BD4690BD7004002016
:1019C00074040020780400207C040020400A0020D9
:1019D000B40C0020F4080020DC05002080B500AF26
:1019E0001449002001F0E6F90346002B00D0FEE781
:1019F0001149002001F077FB0346002B00D0FEE7E1
:101A00000E49002001F07FFC0346002B00D0FEE7CA
:101A10000B49002001F057FD0346002B00D0FEE7E4
:101A20000849002001F07BFE0346002B00D0FEE7B2
:101A300000BF80BD700400207404002078040020E2
:101A40007C0400208004002080B500AF144B1B688C
:101A5000184601F0F9FA1348FFF7B2FA124B1B6867
:101A6000184601F001FC1148FFF7AAFA104B1B6859
:101A7000184601F0D9FC0F48FFF7A2FA0E4B1B687D
:101A8000184601F0FDFD0D48FFF79AFA0C4B1B6854
:101A9000184601F007FF0B48FFF792FA00BF80BD20
:101AA00070040020D45E0108740400200C5F01085B
:101AB00078040020405F01087C040020705F01086A
:101AC00080040020A45F010880B483B000AF134BF2
:101AD00000221A7000237B6016E0114A7B681344D1
:101AE00000221A700F4A7B68002142F823100E4A28
:101AF0007B68002142F823100C4A7B68002142F8E1
:101B000023107B6801337B607B68032BE5D900BF22
:101B100000BF0C37BD465DF8047B7047020D002006
:101B2000D80C0020DC0C0020540D0020EC0C002010
:101B300080B582B000AF7860002000F023F800BFCD
:101B40000837BD4680BD000080B500AF00F0DCFA6C
:101B50000A4B1B68B3F57A7F04DA084B1B68013324
:101B6000064A1360054B1B681E2B01DDFFF7ACFF17
:101B7000034B01221A7000BF80BD00BFD00C0020B3
:101B8000020D002080B483B000AF7860234BB3F91E
:101B90000030002B14D1224BB3F9003013F5966FAF
:101BA0000EDA204BB3F90030B3F5966F08DD1E4B0B
:101BB000B3F9003013F5966F02DA1C4B01221A605C
:101BC000164BB3F90030002B22D1154BB3F900307E
:101BD00013F5966F1CDA134BB3F9003013F5966FBB
:101BE00016DA114BB3F90030B3F5966F10DD104BD8
:101BF0001B68002B06D10E4B01221A600D4B0122EF
:101C00001A6005E00A4B00221A600A4B00221A6093
:101C100000BF0C37BD465DF8047B7047FE0C00200A
:101C2000FC0C0020000D0020520D00208404002038
:101C3000880400208C04002080B594B000AFF860C8
:101C4000B9607A603B6007F140031946F86801F01B
:101C50001FFA3B6CFB617B6C3B62BB6C7B6207F1E8
:101C600034031946B86801F023FB7B6B3B61BB6B07
:101C70007B61FB6BBB6107F128031946786801F0B3
:101C8000F7FBBA6A3B6E1A60FA6A3B6E5A603A6BAF
:101C90003B6E9A60796E386801F016FD3B6A5A42D5
:101CA000BB6D1A60FA69BB6D5A607A6ABB6D9A6047
:101CB0007B695A42FB6D1A603A69FB6D5A60BA69DA
:101CC000FB6D9A603B6E1B68FB643B6E5B685A421F
:101CD0003B6E1A603B6EFA6C5A6000BF5037BD46CF
:101CE00080BD80B500AF032009F09AF900220021E1
:101CF0004FF0FF3009F09FF900BF80BD80B588B07C
:101D000000AF78607B681B68104A934219D10023AA
:101D1000BB600F4B5B6C0E4A43F4807353640C4BF7
:101D20005B6C03F48073BB60BB680223FB6003231E
:101D30003B6100237B6107F10C031946054809F05C
:101D4000F5F900BF2037BD4680BD00BF002001402F
:101D5000003802400004024080B58AB000AF7860CD
:101D60007B681B68514A934240F09C8000233B6192
:101D70004F4B1B6B4E4A43F0020313634C4B1B6BE0
:101D800003F002033B613B690023FB60484B1B6B84
:101D9000474A43F001031363454B1B6B03F00103F8
:101DA000FB60FB680023BB60414B5B6C404A43F423
:101DB000805353643E4B5B6C03F48053BB60BB6841
:101DC00004237B610123BB610123FB6100233B6290
:101DD00000237B6207F114031946364809F0A6F97F
:101DE00000220421334809F03DFB20237B610223BC
:101DF000BB610223FB6103233B6205237B6207F186
:101E0000140319462C4809F091F940237B61022301
:101E1000BB610023FB6103233B6205237B6207F167
:101E200014031946244809F081F980237B610223B9
:101E3000BB610023FB6103233B6205237B6207F147
:101E4000140319461C4809F071F901237B61012331
:101E5000BB610123FB6103233B6200237B6207F12B
:101E600014031946134809F061F9012201211148B0
:101E700009F0F8FA10237B61104BBB610023FB6172
:101E800003233B6200237B6207F1140319460A48CF
:101E900009F04CF9002203210A2009F0CCF80A20AD
:101EA00009F0E5F800BF2837BD4680BD003001408D
:101EB00000380240000402400000024000001110FF
:101EC00080B58AB000AF78607B681B68B3F1804F43
:101ED00026D100233B61344B1B6C334A43F0010392
:101EE0001364314B1B6C03F001033B613B690F230F
:101EF0007B610223BB610223FB6102233B6201235E
:101F00007B6207F114031946284809F00FF90022F3
:101F100002211C2009F08FF81C2009F0A8F83FE0EE
:101F20007B681B68224A93421FD10023FB601E4B33
:101F30001B6C1D4A43F0040313641B4B1B6C03F022
:101F40000403FB60FB684FF470737B610223BB6189
:101F50000023FB6100233B6202237B6207F1140331
:101F60001946144809F0E2F81AE07B681B68124A27
:101F7000934215D10023BB600B4B5B6C0A4A43F4C0
:101F800080335364084B5B6C03F48033BB60BB68E5
:101F900000220321182009F04EF8182009F067F8F4
:101FA00000BF2837BD4680BD003802400000024017
:101FB00000080040000402400040014080B588B0A5
:101FC00000AF78607B681B68164A934226D10023D5
:101FD000BB60154B5B6C144A43F010035364124B07
:101FE0005B6C03F01003BB60BB684FF4C063FB6025
:101FF00002233B6101237B610323BB610723FB6158
:1020000007F10C031946094809F090F80022042151
:10201000252009F010F8252009F029F800BF203705
:10202000BD4680BD00100140003802400000024063
:1020300080B500AF08F090FC09F050F800BF80BDFB
:1020400080B500AF02480BF09AF900BF80BD00BF19
:10205000E409002080B500AF02480BF090F900BF02
:1020600080BD00BF9C0A002080B500AF02480AF086
:102070004BFF00BF80BD00BF440A002080B500AF09
:1020800002480AF041FF00BF80BD00BF4C0600209F
:1020900080B500AF02480CF01DFA00BF80BD00BF44
:1020A0005009002080B500AF024809F00DFA00BFCA
:1020B00080BD00BF780D002080B500AF102009F072
:1020C000EBF900BF80BD80B584B000AF78607B685D
:1020D0009B68002B14D008F04DFC02467B681B68FF
:1020E0009A420DD37B681B695A1C7B681A617B6816
:1020F0001B68FB607B685A68FB681A447B681A603F
:1021000000BF1037BD4680BD80B500AF0248FFF765
:10211000DAFF00BF80BD00BF640D002080B582B033
:1021200000AF78607B68D3F8EC237B6803F56F73AE
:10213000194610460DF08BFE00BF0837BD4680BD26
:1021400080B582B000AF78600B46FB707B68D3F837
:10215000EC03FA7879681346DB009B1A9B000B446A
:1021600003F501731A68FB7819460DF0BDFE00BF38
:102170000837BD4680BD80B582B000AF78600B46A1
:10218000FB707B68D3F8EC03FA7879681346DB00C0
:102190009B1A9B000B4444331A68FB7819460DF0D8
:1021A000FEFE00BF0837BD4680BD80B582B000AFDF
:1021B00078607B68D3F8EC3318460DF0E4FF00BF7D
:1021C0000837BD4680BD80B584B000AF786001237C
:1021D000FB737B68DB68002B02D0022B03D005E089
:1021E0000023FB7305E00123FB7302E00123FB7373
:1021F00000BF7B68D3F8EC33FA7B114618460DF02C
:102200008CFF7B68D3F8EC3318460DF057FF00BF06
:102210001037BD4680BD000080B582B000AF786049
:102220007B68D3F8EC3318460DF087FF7B681B689A
:1022300003F560631B687A68126802F5606243F018
:10224000010313607B681B6A002B05D0044B1B69DC
:10225000034A43F00603136100BF0837BD4680BD43
:1022600000ED00E080B582B000AF78607B68D3F805
:10227000EC3318460DF076FF00BF0837BD4680BD31
:1022800080B582B000AF78600B46FB707B68D3F8F6
:10229000EC33FA78114618460DF09CFF00BF083762
:1022A000BD4680BD80B582B000AF78600B46FB7044
:1022B0007B68D3F8EC33FA78114618460DF07DFFB1
:1022C00000BF0837BD4680BD80B582B000AF7860E2
:1022D0007B68D3F8EC3318460DF089FF00BF083750
:1022E000BD4680BD80B582B000AF78607B68D3F812
:1022F000EC3318460DF086FF00BF0837BD4680BDA1
:1023000080B582B000AF7860084611461A46034691
:10231000FB700B46BB7013463B807B68D3F82002F2
:10232000BB783A88F97809F06EFD00231846083723
:10233000BD4680BD80B582B000AF78600B46FB70B3
:102340007B68D3F82032FA781146184609F074FEFB
:10235000002318460837BD4680BD80B582B000AF67
:1023600078600B46FB707B68D3F82032FA78114610
:10237000184609F0BCFE002318460837BD4680BD4C
:1023800080B485B000AF78600B46FB707B68D3F8F3
:102390002032FB6097F90330002B0BDAFB7803F057
:1023A0007F02F9681346DB009B1A9B000B443A330B
:1023B0001B780BE0FB7803F07F02F9681346DB0023
:1023C0009B1A9B000B4403F5FD731B7818461437CA
:1023D000BD465DF8047B704780B582B000AF786081
:1023E0000B46FB707B68D3F82032FA78114618460A
:1023F00009F0E8FC002318460837BD4680BD80B5CB
:1024000084B000AFF8607A601A460B46FB72134640
:102410003B81FB68D3F820023B89F97A7A6809F09E
:10242000B3FD002318461037BD4680BD80B584B08B
:1024300000AFF8607A601A460B46FB7213463B8188
:10244000FB68D3F820023B89F97A7A6809F043FDEA
:10245000002318461037BD4680BD0000DFF834D099
:10246000002103E00C4B5B58435004310B480C4BEC
:1024700042189A42F6D30B4A02E0002342F8043B8A
:10248000094B9A42F9D301F05DFA0EF043FBFEF7D7
:10249000CDFD704700000120A86901080000002060
:1024A0005004002050040020F0110020FEE700003E
:1024B00080B58AB000AF0346FB71FB79002B0DD1CC
:1024C00000233B611A4B1B6B194A43F00203136351
:1024D000174B1B6B03F002033B613B69FB79012B3C
:1024E0000DD10023FB60124B1B6B114A43F002031A
:1024F00013630F4B1B6B03F00203FB60FB68FB795C
:102500000C4A52F823307B610123BB610023FB613D
:1025100002233B62FB79084A52F8233007F1140288
:102520001146184608F002FE00BF2837BD4680BDA0
:1025300000380240B06201080000002080B582B07F
:1025400000AF0346FB71FB79074A52F82300FB7981
:10255000064A52F823309BB20022194608F082FF47
:1025600000BF0837BD4680BD00000020B0620108F2
:1025700080B582B000AF0346FB71FB79074A52F881
:102580002300FB79064A52F823309BB201221946F8
:1025900008F068FF00BF0837BD4680BD000000207E
:1025A000B062010880B588B000AF3E480AF08EFDE9
:1025B0000346002B71D10023BB603B4B1B6C3A4A96
:1025C00043F480431364384B1B6C03F48043BB60BB
:1025D000BB6800237B60344B1B6B334A43F0020320
:1025E0001363314B1B6B03F002037B607B684FF47A
:1025F0000043FB6002233B6100237B610323BB613B
:102600000523FB6107F10C031946284808F08EFDED
:102610004FF40053FB6000237B6107F10C03194664
:10262000224808F083FD1F4B214A1A601D4B4FF4CE
:1026300082725A601B4B4FF400429A60194B002281
:10264000DA60184B02221A61164B01225A61154BAF
:102650004FF400729A61134B1822DA61114B002279
:102660001A62104B00225A620E4B00229A620D4BE6
:102670000722DA620B480AF043FA0A4B1B681A6811
:10268000084B1B6842F480421A60064B1B681A68AC
:10269000044B1B6842F040021A60002318462037A2
:1026A000BD4680BD90040020003802400004024076
:1026B0000038004080B588B000AF01224FF480712F
:1026C000384808F0CFFE01224FF40051364808F098
:1026D000C9FE01224FF48051344808F0C3FE0323A1
:1026E000BB6100237B6101233B610023BB60304B56
:1026F0001B6B2F4A43F0010313632D4B1B6B03F03D
:102700000103BB60BB684FF48073FB6007F10C03EF
:102710001946244808F00AFD01224FF4807121482F
:1027200008F0A0FE00237B60214B1B6B204A43F086
:10273000020313631E4B1B6B03F002037B607B6879
:102740004FF48053FB6007F10C031946174808F05B
:10275000EDFC01224FF48051144808F083FE002361
:102760003B60134B1B6B124A43F004031363104B83
:102770001B6B03F004033B603B684FF40053FB60AA
:1027800007F10C031946084808F0D0FC01224FF469
:102790000051054808F066FE002318462037BD4664
:1027A00080BD00BF0000024000080240000402405B
:1027B0000038024080B58CB000AF78607B68FB6267
:1027C00003237B6200233B620123FB61FB6ADB780E
:1027D000022B42D0022B5EDC002B02D0012B1ED03C
:1027E00059E000237B612F4B1B6B2E4A43F0010302
:1027F00013632C4B1B6B03F001037B617B694FF46C
:102800008073BB6101224FF48071274808F02AFED3
:1028100007F118031946244808F088FC3DE000231E
:102820003B61204B1B6B1F4A43F0020313631D4B9C
:102830001B6B03F002033B613B694FF48053BB61A8
:1028400001224FF48051194808F00CFE07F11803DB
:102850001946164808F06AFC1FE00023FB60114B84
:102860001B6B104A43F0040313630E4B1B6B03F006
:102870000403FB60FB684FF40053BB6101224FF47B
:1028800000510B4808F0EEFD07F1180319460848FF
:1028900008F04CFC01E0032300E000231846303729
:1028A000BD4680BD003802400000024000040240E6
:1028B0000008024080B584B000AFF8607A601A4624
:1028C0000B46FB7213463B813B89F97A7A68F868BC
:1028D00000F040F8034618461037BD4680BD80B56D
:1028E00086B000AFF8607A601A460B46FB7213465A
:1028F0003B81FB687B617B695B78002B0AD13B895C
:10290000012B07D97B691B78BC2B03D1FB7A63F0C1
:102910007F03FB727B695B78012B16D13B89012B0E
:102920000AD97B691B78332B01D0402B05E0FB7A59
:1029300043F04003FB7200E000BF3B89F97A7A68FC
:10294000F86800F037F8034600E00123184618370E
:10295000BD4680BD80B586B000AFF8607A601A468B
:102960000B46FB7213463B81F86800F071F8FB7A66
:1029700019460F4800F0ECF90023FB750AE0FB7DD7
:102980007A6813441B781946094800F0E1F9FB7D89
:102990000133FB75FB7D9BB23A899A42EFD8F86808
:1029A00000F088F8002318461837BD4680BD00BFE8
:1029B0009004002080B584B000AFF8607A601A46B9
:1029C0000B46FB7213463B81F86800F041F8FB7A36
:1029D00063F07F03DBB219461C4800F0B9F91B4BCA
:1029E0001B681A68194B1B6822F040021A60174BCB
:1029F0001B681A68154B1B6822F480421A603B89D9
:102A0000012B06D93B891A467968104800F049F92C
:102A100003E079680D4800F087F8F86800F04AF89C
:102A20000A4B1B681A68094B1B6842F480421A6003
:102A3000064B1B681A68054B1B6842F040021A607F
:102A4000002318461037BD4680BD00BF900400200B
:102A500080B584B000AF78607B68FB60FB68DB7892
:102A6000022B14D0022B19DC002B02D0012B07D033
:102A700014E000224FF480710B4808F0F3FC0DE0E5
:102A800000224FF48051094808F0ECFC06E00022D7
:102A90004FF40051064808F0E5FC00BF002318463B
:102AA0001037BD4680BD00BF000002400004024058
:102AB0000008024080B584B000AF78607B68FB609E
:102AC000FB68DB78022B14D0022B19DC002B02D020
:102AD000012B07D014E001224FF480710B4808F05D
:102AE000C1FC0DE001224FF48051094808F0BAFC06
:102AF00006E001224FF40051064808F0B3FC00BF85
:102B0000002318461037BD4680BD00BF00000240BC
:102B1000000402400008024080B400AF00231846C1
:102B2000BD465DF8047B704780B483B000AF786029
:102B3000396072B600BF7B681B681A687B681B68C7
:102B400042F040021A60BFF34F8FBFF34F8FBFF3C5
:102B50004F8FBFF34F8FBFF34F8FBFF34F8FBFF335
:102B60004F8FBFF34F8FBFF34F8FBFF34F8FBFF325
:102B70004F8FBFF34F8FBFF34F8FBFF34F8FBFF315
:102B80004F8FBFF34F8FBFF34F8FBFF34F8FBFF305
:102B90004F8FBFF34F8FBFF34F8FBFF34F8FBFF3F5
:102BA0004F8FBFF34F8FBFF34F8FBFF34F8FBFF3E5
:102BB0004F8FBFF34F8FBFF34F8FBFF34F8FBFF3D5
:102BC0004F8FBFF34F8FBFF34F8FBFF34F8FBFF3C5
:102BD0004F8FBFF34F8FBFF34F8FBFF34F8FBFF3B5
:102BE0004F8FBFF34F8FBFF34F8FBFF34F8FBFF3A5
:102BF0004F8FBFF34F8FBFF34F8FBFF34F8FBFF395
:102C00004F8FBFF34F8FBFF34F8FBFF34F8FBFF384
:102C10004F8FBFF34F8FBFF34F8FBFF34F8FBFF374
:102C20004F8FBFF34F8FBFF34F8FBFF34F8FBFF364
:102C30004F8FBFF34F8FBFF34F8FBFF34F8FBFF354
:102C40004F8FBFF34F8FBFF34F8FBFF34F8FBFF344
:102C50004F8F7B681B681A687B681B6822F04002F4
:102C60001A6062B600BF00BF7B681B689B6803F0F8
:102C70000103012BF8D17B681B680C331B78DAB297
:102C80003B681A7000BF7B681B689B6803F0800379
:102C9000802BF8D000BF00BF0C37BD465DF8047B29
:102CA000704780B485B000AFF860B9601346FB8010
:102CB00072B600BFFB681B681A68FB681B6842F0AD
:102CC00040021A6013E0FB681B689B6803F0010375
:102CD000002B0CD0FB681B680C331B78DAB2BB6886
:102CE0001A70BB680133BB60FB88013BFB80FB882B
:102CF000012BE8D8BFF34F8F00BFBFF34F8F00BF4A
:102D0000FB681B681A68FB681B6822F040021A60A7
:102D100062B600BF00BFFB681B689B6803F001033D
:102D2000012BF8D1FB681B680C331B78DAB2BB6847
:102D30001A7000BFFB681B689B6803F08003802B40
:102D4000F8D000BF00BF1437BD465DF8047B704764
:102D500080B483B000AF78600B46FB7000BF7B6827
:102D60001B689B6803F00203022BF8D17B681B6889
:102D70000C33FA781A7000BF7B681B689B6803F0FD
:102D80000203022BF8D100BF7B681B689B6803F02D
:102D90008003802BF8D000BF00BF0C37BD465DF824
:102DA000047B704780B400AF00231846BD465DF831
:102DB000047B704780B582B000AF03463960FB7179
:102DC0003B6800221A6097F90730002B0FD0012BC7
:102DD00015D0386800F026F80346012B17D1386863
:102DE00000F0C0F80346012B11D1012315E038682B
:102DF00000F018F80346012B0BD101230DE03868D1
:102E000000F0B0F80346012B05D1012305E000BF17
:102E100002E000BF00E000BF002318460837BD46AF
:102E200080BD000080B584B000AF78600023FB60F7
:102E30000C23FB72454B5B79012B01D1012380E010
:102E4000FFF7B0FB0346012B01D1012379E03F4B93
:102E50006A221A703D4B01225A703C4BD6229A705E
:102E60003A4B0022DA70394B00221A71374B00229C
:102E70005A71364B00229A71344B0122DA71334B6E
:102E8000334A9A60314B334ADA60304B324A1A6126
:102E9000324B334A1A602E4B304A1A602C4B0022B8
:102EA0005A607B68294A1A607B681B681846FFF7DE
:102EB00081FC2B4B5B78002B0CD17B68186807F1E9
:102EC0000B0201231221FFF7F5FC0346002B01D072
:102ED000012336E07B681B68DB68FB60FB681B68CE
:102EE000002B0BD17B681B681422002118460DF0C3
:102EF0004BFE7B6800221A60012322E0FB681B68FE
:102F00007A681268104698470346012B0BD17B68FC
:102F10001B681422002118460DF036FE7B68002243
:102F20001A6001230DE07B681B680421184603F03A
:102F30006EFF0346002B01D1012302E0FFF7ECFDF9
:102F4000002318461037BD4680BD00BFE8040020AE
:102F500010050020DC0100200C01002020050020CD
:102F60007011002080B584B000AF78600023FB6052
:102F70002F4B5B7E012B01D1012354E0FFF712FFA1
:102F80000346012B01D101234DE0294B33221A7551
:102F9000274B32229A75264B01221A76244B0022A7
:102FA0005A76234B00229A76214B0122DA76204B67
:102FB000204ADA611E4B204A1A621D4B00225A62D7
:102FC0001E4B1F4A9A601D4B0022DA607B681D4A27
:102FD0001A607B681B68DB68FB60FB681B68002B62
:102FE0000BD17B681B681422002118460DF0CCFD24
:102FF0007B6800221A60012315E0FB681B687A6871
:103000001268104698470346012B0BD17B681B685A
:103010001422002118460DF0B7FD7B6800221A60CB
:10302000012300E0002318461037BD4680BD00BFD5
:10303000E804002018050020BC0000201005002036
:1030400028050020FC04002080B584B000AF786023
:103050007B68FB600023BB60FB68002B01D1012370
:1030600012E0FB68DB68BB60BB689B68002B01D18A
:10307000012309E0BB689B68F86898470346012B69
:1030800001D1012300E0002318461037BD4680BD62
:1030900080B584B000AF786039607B68FB60002346
:1030A000BB60FB68002B01D1012318E0FB68DB68E3
:1030B000BB603B68002B01D1012310E0BB689B691A
:1030C000002B01D101230AE0BB689B693968F868CD
:1030D00098470346012B01D1012300E00023184645
:1030E0001037BD4680BD80B582B000AF0346396061
:1030F000FB713B6800221A6097F90730002B07D05C
:10310000386800F015F80346012B09D101230BE0C4
:10311000386800F00DF80346012B03D1012303E0CA
:1031200000BF00E000BF002318460837BD4680BD41
:1031300080B584B000AF78600023FB600C23FB7285
:10314000444B5B79012B01D101237EE0FFF72AFA82
:103150000346012B01D1012377E03E4B6A221A700E
:103160003C4B01225A703B4BD6229A70394B0022BD
:10317000DA70384B00221A71364B00225A71354BE7
:1031800000229A71334B0122DA71324B324A9A6033
:10319000304B324ADA602F4B00221A61304B314AF1
:1031A0001A602D4B2E4A1A602B4B00225A607B6806
:1031B000284A1A607B681B681846FFF7FBFA294B00
:1031C0001B78002B0CD17B68186807F10B020123D8
:1031D0001221FFF76FFB0346002B01D0012334E0DF
:1031E0007B681B68DB68FB60FB681B68002B0BD1EE
:1031F0007B681B681422002118460DF0C5FC7B6813
:1032000000221A60012320E0FB681B687A681268BC
:10321000104698470346012B0BD17B681B6814228C
:10322000002118460DF0B0FC7B6800221A600123D3
:103230000BE07B681B680421184603F0E8FD034699
:10324000002B01D1012300E0002318461037BD46B2
:1032500080BD00BF2C050020400500202C0200206E
:10326000480500207011002080B584B000AF786060
:103270007B68FB600023BB60FB68002B01D101234E
:1032800012E0FB68DB68BB60BB689B68002B01D168
:10329000012309E0BB689B68F86898470346012B47
:1032A00001D1012300E0002318461037BD4680BD40
:1032B00080B584B000AF786039607B68FB60002324
:1032C000BB60FB68002B01D1012318E0FB68DB68C1
:1032D000BB603B68002B01D1012310E0BB689B69F8
:1032E000002B01D101230AE0BB689B693968F868AB
:1032F00098470346012B01D1012300E00023184623
:103300001037BD4680BD80B582B000AF034639603E
:10331000FB713B6800221A6097F90730002B07D039
:10332000386800F015F80346012B09D101230BE0A2
:10333000386800F00DF80346012B03D1012303E0A8
:1033400000BF00E000BF002318460837BD4680BD1F
:1033500080B584B000AF78600023FB602E4B5B79B2
:10336000012B01D1012353E02B4B40221A702A4B31
:1033700001225A70284B3C229A70274B0122DA70A6
:10338000254B00221A71244B00225A71224B002235
:103390009A71214B0022DA711F4B204A9A601E4B12
:1033A0001F4ADA601C4B00221A611C4B1D4A1A602E
:1033B0001A4B00225A607B68174A1A607B681B68A8
:1033C000DB68FB60FB681B68002B0BD17B681B680C
:1033D0001422002118460DF0D7FB7B6800221A60EA
:1033E000012315E0FB681B687A681268104698474D
:1033F0000346012B0BD17B681B6814220021184661
:103400000DF0C2FB7B6800221A60012300E000235C
:1034100018461037BD4680BD5005002064050020C9
:103420000C0000206C05002080B584B000AF7860EF
:103430007B68FB600023BB60FB68002B01D101238C
:1034400012E0FB68DB68BB60BB689B68002B01D1A6
:10345000012309E0BB689B68F86898470346012B85
:1034600001D1012300E0002318461037BD4680BD7E
:1034700080B584B000AF786039607B68FB60002362
:10348000BB60FB68002B01D1012318E0FB68DB68FF
:10349000BB603B68002B01D1012310E0BB689B6936
:1034A000002B01D101230AE0BB689B693968F868E9
:1034B00098470346012B01D1012300E00023184661
:1034C0001037BD4680BD80B582B000AF034639607D
:1034D000FB713B6800221A6097F90730002B07D078
:1034E000386800F015F80346012B09D101230BE0E1
:1034F000386800F00DF80346012B03D1012303E0E7
:1035000000BF00E000BF002318460837BD4680BD5D
:1035100080B584B000AF78600023FB600123FB72AC
:10352000524B5B79012B01D101239BE0FFF73AF865
:103530000346012B01D1012394E04C4BB1221A70B8
:103540004A4B01225A70494BBA229A70474B0222C9
:10355000DA70464B00221A71444B00225A71434BD9
:1035600000229A71414B0122DA71404B404A9A6025
:103570003E4B404ADA603D4B00221A613E4B3F4AC7
:103580001A603B4B3C4A1A60394B00225A607B68F8
:10359000364A1A607B681B681846FFF70BF9374BF1
:1035A0005B78002B29D17B68186807F10B02012397
:1035B0001021FFF77FF90346002B01D0012351E0D2
:1035C0007B681B68184600F0C4FF0346002B01D03F
:1035D000012347E04FF47A7007F0D8F90123FB721A
:1035E0007B68186807F10B0201231021FFF762F9CD
:1035F0000346002B01D0012334E07B681B68DB68A5
:10360000FB60FB681B68002B0BD17B681B681422D6
:10361000002118460DF0B8FA7B6800221A600123D9
:1036200020E0FB681B687A681268104698470346DA
:10363000012B0BD17B681B681422002118460DF06A
:10364000A3FA7B6800221A6001230BE07B681B68E9
:103650000021184600F0D4FF0346012B01D10123BD
:1036600000E0002318461037BD4680BD70050020DD
:1036700084050020540000208C05002068110020E3
:1036800080B584B000AF78607B68FB600023BB60CE
:10369000FB68002B01D1012312E0FB68DB68BB60F3
:1036A000BB689B68002B01D1012309E0BB689B68C4
:1036B000F86898470346012B01D1012300E000235D
:1036C00018461037BD4680BD80B584B000AF786025
:1036D00039607B68FB600023BB60FB68002B01D175
:1036E000012318E0FB68DB68BB603B68002B01D15D
:1036F000012310E0BB689B69002B01D101230AE084
:10370000BB689B693968F86898470346012B01D16B
:10371000012300E0002318461037BD4680BD80B568
:1037200082B000AF03463960FB713B6800221A602B
:10373000386800F00BF80346012B01D1012300E0AB
:10374000002318460837BD4680BD000080B584B010
:1037500000AF78600023FB600123FB724C4B5B7968
:10376000012B01D101238FE0FEF71CFF0346012B43
:1037700001D1012388E0464BB1221A70444B01224B
:103780005A70434BBA229A70414B0222DA70404B76
:1037900000221A713E4B00225A713D4B00229A7151
:1037A0003B4B0122DA713A4B3A4A9A60384B3A4A1B
:1037B000DA60374B00221A61384B394A1A60354BB0
:1037C000364A1A60334B00225A607B68304A1A60CE
:1037D0007B681B681846FEF7EDFF314B1B78002B0A
:1037E00028D17B68186807F10B0201231021FFF72D
:1037F00061F80346002B01D0012345E07B681B687C
:10380000184600F0A6FE0346002B01D001233BE042
:10381000642007F0BBF80123FB727B68186807F18E
:103820000B0201231021FFF745F80346002B01D0BE
:10383000012329E07B681B68DB68FB60FB681B6871
:10384000002B0BD17B681B681422002118460DF059
:103850009BF97B6800221A60012315E0FB681B6856
:103860007A681268104698470346012B0BD17B6893
:103870001B681422002118460DF086F97B6800228F
:103880001A60012300E0002318461037BD4680BDB2
:1038900090050020B805002088000020C805002001
:1038A0006811002080B584B000AF78607B68FB6051
:1038B0000023BB60FB68002B01D1012312E0FB68F1
:1038C000DB68BB60BB689B68002B01D1012309E06A
:1038D000BB689B68F86898470346012B01D1012318
:1038E00000E0002318461037BD4680BD80B584B087
:1038F00000AF786039607B68FB600023BB60FB68C9
:10390000002B01D1012318E0FB68DB68BB603B683A
:10391000002B01D1012310E0BB689B69002B01D172
:1039200001230AE0BB689B693968F8689847034639
:10393000012B01D1012300E0002318461037BD46BA
:1039400080BD000080B400AF164BD3F88830154A14
:1039500043F47003C2F88830134B1B68124A43F0DB
:1039600001031360104B00229A600F4B1B680E4A34
:1039700023F0847323F4803313600B4B0B4A5A609B
:10398000094B1B68084A23F480231360064B00226E
:10399000DA60044B4FF000629A6000BFBD465DF8EC
:1039A000047B704700ED00E0003802401030002436
:1039B00080B584B000AFF8607A601A460B46FB729F
:1039C00013463B813B89F97A7A68F868FEF772FF03
:1039D0000346002B01D0002300E0012318461037D6
:1039E000BD4680BD80B584B000AFF8607A601A46ED
:1039F0000B46FB7213463B813B89F97A7A68F8687B
:103A0000FEF76DFF0346002B01D0002300E00123E9
:103A100018461037BD4680BD80B582B000AF7860D3
:103A2000396001233A684F217868FFF7DBFF0346CE
:103A3000002B01D1002308E03B681A783B681A701C
:103A40003B681A783B681A70012318460837BD4650
:103A500080BD80B584B000AF78600B46FB7007F185
:103A60000F02012360217868FFF7BCFF0346002B9B
:103A700001D1002316E0FB7B23F00303DBB2FB73D1
:103A8000FA7BFB781343DBB2FB7307F10F020123D0
:103A900060217868FFF78CFF0346002B01D10023DB
:103AA00000E0012318461037BD4680BD80B584B0C4
:103AB00000AF78600B46FB7007F10F020123602115
:103AC0007868FFF78FFF0346002B01D1002316E033
:103AD000FB7B23F00C03DBB2FB73FA7BFB78134315
:103AE000DBB2FB7307F10F02012360217868FFF757
:103AF0005FFF0346002B01D1002300E0012318469D
:103B00001037BD4680BD80B582B000AF78603960A7
:103B100001233A6860217868FFF764FF0346002BB1
:103B200001D1002307E03B681B7803F00C03DAB2F5
:103B30003B681A70012318460837BD4680BD80B522
:103B400084B000AF78600B46FB7007F10F020123D1
:103B500062217868FFF746FF0346002B01D100235E
:103B600016E0FB7B23F00203DBB2FB73FA7BFB78EE
:103B70001343DBB2FB7307F10F0201236221786864
:103B8000FFF716FF0346002B01D1002300E00123BD
:103B900018461037BD4680BD80B584B000AF786050
:103BA0000B46FB7007F10F02012362217868FFF7D3
:103BB00019FF0346002B01D1002316E0FB7B23F005
:103BC0001003DBB2FB73FA7BFB781343DBB2FB73AE
:103BD00007F10F02012362217868FFF7E9FE03462F
:103BE000002B01D1002300E0012318461037BD4609
:103BF00080BD80B582B000AF7860396001233A683B
:103C000067217868FFF7EEFE0346002B01D1002301
:103C100004E03B681A783B681A700123184608379D
:103C2000BD4680BD80B584B000AF786039600223A6
:103C30003B7300237B730023FB731EE00023BB73E5
:103C400014E07B7B6833D9B27B7B3A681A4401234A
:103C50007868FFF7C7FE0346002B01D1002310E070
:103C60007B7B01337B73BB7B0133BB73BA7B3B7BB9
:103C70009A42E6D3FB7B0133FB73FB7B022BDDD93E
:103C8000012318461037BD4680BD80B582B000AF15
:103C90007860786800F09FF80346012B01D101237A
:103CA00030E003217868FFF7D4FE0346002B01D1F2
:103CB000012327E010217868FFF76EFF0346002BF1
:103CC00001D101231EE00421786800F079F9034650
:103CD000012B01D1012315E00021786800F0F2F9F1
:103CE0000346012B01D101230CE000217868FFF786
:103CF00026FF0346002B01D1012303E07B6801224C
:103D00005A71002318460837BD4680BD80B582B081
:103D100000AF7860786800F05EF80346012B01D1AF
:103D200001230BE0786800F028F80346012B01D14D
:103D3000012303E07B6800225A71002318460837EC
:103D4000BD4680BD80B582B000AF78607B689B794E
:103D5000012B01D100230CE000217868FFF779FEE8
:103D60000346002B01D1012303E07B6801229A71F5
:103D7000002318460837BD4680BD80B582B000AF2D
:103D800078607B689B79002B01D100230CE0032134
:103D90007868FFF75EFE0346002B01D1012303E0A4
:103DA0007B6800229A71002318460837BD4680BD03
:103DB00080B582B000AF7860396039687868FFF705
:103DC0002BFE0346002B01D1012300E000231846FF
:103DD0000837BD4680BD80B584B000AF7860002351
:103DE000FB7307F10F0319467868FFF7E1FF0346FD
:103DF000012B01D1012307E07B681A78FB7B9A42F3
:103E000001D0012300E0002318461037BD4680BDD5
:103E100080B586B000AF786039604FF00003FB607A
:103E200007F110031946786800F0C6F90346012B24
:103E300001D101233BE007F10C031946786800F03B
:103E40005BF80346012B01D1012330E0B7F91030B4
:103E500007EE903AB8EEE77AD7ED037A67EE277A65
:103E6000FDEEE77A17EE902A3B681A60B7F9123038
:103E700007EE903AB8EEE77AD7ED037A67EE277A45
:103E8000FDEEE77A17EE902A3B685A60B7F91430D6
:103E900007EE903AB8EEE77AD7ED037A67EE277A25
:103EA000FDEEE77A17EE902A3B689A6000231846E9
:103EB0001837BD4680BD80B584B000AF78603960EA
:103EC00007F108031946786800F076F90346012BDC
:103ED00001D101230CE0B7F908203B681A80B7F93B
:103EE0000A203B685A80B7F90C203B689A8000236F
:103EF00018461037BD4680BD80B483B000AF7860EF
:103F000039603B684FF07F521A60002318460C3727
:103F1000BD465DF8047B704780B584B000AF786023
:103F2000396007F10F0319467868FFF7ECFD034687
:103F3000002B01D1012335E0FB7B0C2B2CD801A2F7
:103F400052F823F0793F0008993F0008993F000894
:103F5000993F0008813F0008993F0008993F0008F9
:103F6000993F0008893F0008993F0008993F0008E1
:103F7000993F0008913F00083B680C4A1A6010E026
:103F80003B680B4A1A600CE03B680A4A1A6008E07A
:103F90003B68094A1A6004E03B68084A1A6001233A
:103FA00000E0002318461037BD4680BD00002041C8
:103FB0000000A041000048420000C842000080BF4D
:103FC00080B584B000AF78600B46FB70FB78042BA3
:103FD0001BD801A252F823F0ED3F0008F33F000880
:103FE000F93F0008FF3F0008054000080023FB736D
:103FF0000DE00423FB730AE00823FB7307E00C23A6
:10400000FB7304E00C23FB7301E001230AE0FB7B5C
:1040100019467868FFF74AFD0346002B01D10123BA
:1040200000E0002318461037BD4680BD80B584B03F
:1040300000AF786087ED000AD7ED007AB2EE047A1F
:10404000F4EEC77AF1EE10FA01D8002316E0D7EDAE
:10405000007AB3EE047AF4EEC77AF1EE10FA01D8E2
:1040600004230BE0D7ED007A9FED0C7AF4EEC77ACB
:10407000F1EE10FA01D8082300E00C23FB73FB7B60
:1040800019467868FFF712FD0346002B01D1012382
:1040900000E0002318461037BD4680BD00004842AE
:1040A00080B483B000AF786039603B68044A1A601E
:1040B000002318460C37BD465DF8047B704700BFEF
:1040C0000000484280B483B000AF78600B46FB70BC
:1040D000002318460C37BD465DF8047B704780B45A
:1040E00083B000AF786087ED000A002318460C37D4
:1040F000BD465DF8047B704780B584B000AFF860C2
:104100000B467A60FB72F97A01237A68F868FFF748
:1041100069FC0346002B01D1012300E0002318466F
:104120001037BD4680BD80B582B000AF78600B46C9
:10413000FB701346BB70BA1CF97801237868FFF74F
:1041400037FC0346002B01D1012300E00023184671
:104150000837BD4680BD80B584B000AF7860396057
:1041600007F10F0319467868FFF743FD0346002B5C
:1041700001D101231BE0FB7B03F00103002B0ED1D7
:10418000FB7B03F00203002B09D1FB7B03F004034C
:10419000002B04D1FB7B03F00803002B03D03B680A
:1041A00001221A7002E03B6800221A7000231846B0
:1041B0001037BD4680BD000080B586B000AF786086
:1041C0003960164A07F10C0392E8030018600433C3
:1041D000198007F10C0319467868FFF723FD0346A1
:1041E000002B01D1012314E007F10C037B617B69F3
:1041F000B3F900203B681A803B6802337A69B2F950
:1042000002201A803B6804337A69B2F904201A80CC
:10421000002318461837BD4680BD00BF84620108E0
:1042200080B586B000AFF8607B600B46FB7213462A
:104230003B8100237B6100237B6113E07B69DAB261
:10424000FB7A1344D9B27B697A681A440123F8686F
:10425000FEF745FB0346002B01D0012307E07B69F5
:1042600001337B613B897A699A42E7DB0023184678
:104270001837BD4680BD80B586B000AFF8607B6062
:104280000B46FB7213463B8100237B6100237B615D
:1042900013E07B69DAB2FB7A1344D9B27B697A689E
:1042A0001A440123F868FEF705FB0346002B01D0F2
:1042B000012307E07B6901337B613B897A699A427C
:1042C000E7DB002318461837BD4680BD80B582B0B5
:1042D00000AF786039603B6801220F217868FFF7F2
:1042E0009FFF0346002B01D0012300E00023184666
:1042F0000837BD4680BD80B584B000AF78600B46FE
:10430000FB7007F10F0301221A217868FFF788FF7D
:104310000346002B01D0012316E0FB7B23F00103B1
:10432000DBB2FB73FA7BFB781343DBB2FB7307F161
:104330000F0301221A217868FFF79DFF0346002B27
:1043400001D0012300E0002318461037BD4680BD90
:1043500080B584B000AF78600B46FB7007F10F03A7
:10436000012210217868FFF75BFF0346002B01D084
:10437000012316E0FB7B23F07003DBB2FB73FA7BB7
:10438000FB781343DBB2FB7307F10F03012210210B
:104390007868FFF770FF0346002B01D0012300E08F
:1043A000002318461037BD4680BD80B584B000AFED
:1043B0007860396007F10F03012210217868FFF758
:1043C0002FFF0346002B01D0012306E0FB7B03F007
:1043D0007003DAB23B681A70002318461037BD46E6
:1043E00080BD80B584B000AF78600B46FB7007F1EC
:1043F0000F03012210217868FFF712FF0346002BFC
:1044000001D001231AE0FB7B23F00803DBB2FB732E
:10441000FB78DB005AB2FB7B5BB213435BB2DBB2CF
:10442000FB7307F10F03012210217868FFF723FFC8
:104430000346002B01D0012300E00023184610376B
:10444000BD4680BD80B584B000AF78600B46FB7080
:1044500007F10F03012210217868FFF7E1FE034600
:10446000002B01D0012316E0FB7B23F00403DBB219
:10447000FB73FA7BFB781343DBB2FB7307F10F038B
:10448000012210217868FFF7F6FE0346002B01D0C9
:10449000012300E0002318461037BD4680BD80B5DB
:1044A00084B000AF78600B46FB7007F10F03012268
:1044B00010217868FFF7B4FE0346002B01D00123DA
:1044C00016E0FB7B23F00203DBB2FB73FA7BFB7885
:1044D0001343DBB2FB7307F10F030122102178684D
:1044E000FFF7C9FE0346002B01D0002300E00023A4
:1044F00018461037BD4680BD80B584B000AF7860E7
:104500000B46FB7007F10F03012210217868FFF7BB
:1045100087FE0346002B01D0012316E0FB7B23F02E
:104520000103DBB2FB73FA7BFB781343DBB2FB7353
:1045300007F10F03012210217868FFF79CFE034664
:10454000002B01D0012300E0002318461037BD46A0
:1045500080BD80B584B000AF786007F10F03012201
:1045600011217868FFF75CFE0346002B01D0012380
:1045700011E0FB7B63F07B03DBB2FB7307F10F03FE
:10458000012211217868FFF776FE0346002B01D047
:10459000012300E0002318461037BD4680BD80B5DA
:1045A00084B000AF78600B46FB7007F10F03012267
:1045B00011217868FFF734FE0346002B01D0012358
:1045C0001AE0FB7B23F01003DBB2FB73FB781B01CB
:1045D0005AB2FB7B5BB213435BB2DBB2FB7307F1F6
:1045E0000F03012211217868FFF745FE0346002BD7
:1045F00001D0012300E0002318461037BD4680BDDE
:1046000080B584B000AF78600B46FB7007F10F03F4
:10461000012211217868FFF703FE0346002B01D029
:1046200001231CE0FB7B23F00803DBB2FB73FB7868
:10463000DB43DBB2DB005AB2FB7B5BB213435BB202
:10464000DBB2FB7307F10F03012211217868FFF73A
:1046500012FE0346002B01D0012300E00023184680
:104660001037BD4680BD80B584B000AF786039603A
:1046700007F10F03012227217868FFF7D1FD0346D8
:10468000002B01D001231CE0FB7B03F00103DAB215
:104690003B685A70FB7B03F00203DAB23B681A7086
:1046A000FB7B5B11DBB203F00103DAB23B689A706B
:1046B000FB7B1B11DBB203F00103DAB23B68DA705B
:1046C000002318461037BD4680BD80B584B000AFCA
:1046D000786039600023FB6007F10803032228217A
:1046E0007868FFF79DFD0346002B01D0012323E0EE
:1046F0000023FB7210E0FB7A07F11002134413F859
:10470000083C1A46FB7ADB0002FA03F3FA6813430B
:10471000FB60FB7A0133FB72FB7A022BEBD9FB685F
:1047200003F40003002B03D0FB6843F07F43FB60DE
:10473000FA683B681A60002318461037BD4680BDF2
:1047400080B584B000AF7860396007F10C0319467A
:104750007868FFF7BAFF0346002B01D001230CE075
:10476000FB68642202FB03F3002B01DA03F6FF73FC
:104770001B131A463B681A60002318461037BD46C3
:1047800080BD80B584B000AF7860396007F10C035C
:1047900002222B217868FFF743FD0346002B01D04E
:1047A00001230CE07B7B9BB21B029AB23B7B9BB24A
:1047B0001344FB81B7F90E203B681A80002318468A
:1047C0001037BD4680BD000080B584B000AF786072
:1047D000396007F10E0319467868FFF7D2FF0346E8
:1047E000002B01D001230BE0B7F90E30064A82FB03
:1047F00003129210DB17D31A1AB23B681A800023F7
:1048000018461037BD4680BD6766666680B584B0C1
:1048100000AF78607B689B681B681B68FB60FB6867
:104820005B78002B08D1F968786800F0B1FA03468C
:10483000012B01D1012306E0FB6801221A707B687D
:1048400001225A71002318461037BD4680BD80B53D
:1048500084B000AF78607B689B681B681B68FB6056
:10486000FB685B78002B07D1786800F038F80346C6
:10487000012B01D1012306E0FB6800221A707B683E
:1048800000225A71002318461037BD4680BD80B5FE
:1048900084B000AF78607B689B681B681B68FB6016
:1048A0007B689B79012B01D1002314E0FB68D3EDD9
:1048B000017AF968B0EE670A786800F019FC0346DF
:1048C000012B01D1012306E0FB6801229A707B686D
:1048D00001229A71002318461037BD4680BD80B56D
:1048E00084B000AF78607B689B681B681B68FB60C6
:1048F0007B689B79002B01D1002313E0FB68DB78F8
:10490000002B08D100217868FFF722FD0346012B18
:1049100001D1012306E0FB6800229A707B68002227
:104920009A71002318461037BD4680BD80B582B00D
:1049300000AF786039603968786800F089FA03461A
:1049400018460837BD4680BD80B582B000AF78609C
:10495000786800F090FA034618460837BD4680BDD7
:1049600080B582B000AF786039603968786800F04F
:104970009FFA034618460837BD4680BD80B582B011
:1049800000AF786039603968786800F0DBFA034678
:1049900018460837BD4680BD80B584B000AF78604A
:1049A0000B46FB707B689B681B681B68FB607B6821
:1049B0009B79012B0AD1FB78FA681946786800F0D8
:1049C00015FB0346012B0CD101230BE0FB78FA68A1
:1049D0001946786800F04EFB0346012B01D10123F4
:1049E00000E0002318461037BD4680BD80B584B076
:1049F00000AF786087ED000A7B689B681B681B68C6
:104A0000FB607B689B79012B0AD1F96897ED000A5E
:104A1000786800F06DFB0346012B0CD101230BE0FD
:104A2000F96897ED000A786800F0B4FB0346012BA3
:104A300001D1012300E0002318461037BD4680BD98
:104A400080B584B000AFF8600B467A60FB72FB7AE9
:104A50007A681946F86800F0E5FB0346012B01D19E
:104A6000012300E0002318461037BD4680BD80B505
:104A700082B000AF78600B46FB701346BB70BA780B
:104A8000FB781946786800F0E4FB0346012B01D15E
:104A9000012300E0002318460837BD4680BD80B5DD
:104AA00084B000AF7860396007F10C03194678686C
:104AB000FFF7D9FD0346012B01D1012303E07A7BE7
:104AC0003B681A70002318461037BD4680BD80B57C
:104AD00084B000AF78607B689B681B681B68FB60D4
:104AE000FB681B78002B08D1F968786800F050F952
:104AF0000346012B01D1012306E0FB6801225A7015
:104B00007B6801225A71002318461037BD4680BDCC
:104B100080B584B000AF78607B689B681B681B68B9
:104B2000FB60FB681B78002B07D1786800F038F831
:104B30000346012B01D1012306E0FB6800225A70D5
:104B40007B6800225A71002318461037BD4680BD8D
:104B500080B584B000AF78607B689B681B681B6879
:104B6000FB607B689B79012B01D1002314E0FB687B
:104B7000D3ED017AF968B0EE670A786800F0B8FA08
:104B80000346012B01D1012306E0FB680122DA7004
:104B90007B6801229A71002318461037BD4680BDFC
:104BA00080B584B000AF78607B689B681B681B6829
:104BB000FB607B689B79002B01D1002313E0FB682D
:104BC0009B78002B08D100217868FFF7C1FB0346D2
:104BD000012B01D1012306E0FB680022DA707B681B
:104BE00000229A71002318461037BD4680BD80B55B
:104BF00082B000AF786039603968786800F028F9D1
:104C0000034618460837BD4680BD80B582B000AF68
:104C10007860786800F02FF9034618460837BD46DB
:104C200080BD80B582B000AF78603960396878683F
:104C300000F064F9034618460837BD4680BD80B5CC
:104C400082B000AF786039603968786800F07AF92E
:104C5000034618460837BD4680BD80B584B000AF16
:104C600078600B46FB707B689B681B681B68FB6069
:104C70007B689B79012B0AD1FB78FA681946786822
:104C800000F0B4F90346012B0CD101230BE0FB78B3
:104C9000FA681946786800F0EDF90346012B01D156
:104CA000012300E0002318461037BD4680BD80B5C3
:104CB00084B000AF786087ED000A7B689B681B6852
:104CC0001B68FB607B689B79012B0AD1F96897ED23
:104CD000000A786800F00CFA0346012B0CD101237E
:104CE0000BE0F96897ED000A786800F053FA034684
:104CF000012B01D1012300E0002318461037BD46E7
:104D000080BD80B584B000AFF8600B467A60FB725E
:104D1000FB7A7A681946F86800F084FA0346012B9A
:104D200001D1012300E0002318461037BD4680BDA5
:104D300080B582B000AF78600B46FB701346BB7045
:104D4000BA78FB781946786800F083FA0346012B9D
:104D500001D1012300E0002318460837BD4680BD7D
:104D600080B584B000AF7860396007F10C03194654
:104D70007868FFF778FC0346012B01D1012303E09B
:104D80003A7B3B681A70002318461037BD4680BD39
:104D900080B582B000AF7860396001217868FFF794
:104DA000ABFB0346012B01D101234AE0786800F0F8
:104DB00062F80346012B01D1012342E03B68234AFC
:104DC0005A6001217868FFF796FA0346012B01D15A
:104DD000012336E000217868FFF7BAFA0346012B79
:104DE00001D101232DE000217868FFF7FAFA03468C
:104DF000012B01D1012324E000217868FFF722FB79
:104E00000346012B01D101231BE002217868FFF743
:104E100046FB0346012B01D1012312E000217868F3
:104E2000FFF7BDFB0346012B01D1012309E001215E
:104E30007868FFF761FB0346012B01D1012300E0F5
:104E4000002318460837BD4680BD00BF0000C8419A
:104E500080B582B000AF7860396039687868FFF754
:104E600035FA0346012B01D1012300E00023184647
:104E70000837BD4680BD80B584B000AF78600023A0
:104E8000FB7307F10F0319467868FFF7E1FF03464C
:104E9000012B01D1012307E07B681A78FB7B9A4242
:104EA00001D0012300E0002318461037BD4680BD25
:104EB00080B584B000AF786039600023FB6007F1F3
:104EC0000C0319467868FFF73BFC0346012B01D120
:104ED00001230CE0FB6807EE903AB8EEE77ADFEDCD
:104EE000066AC7EE267A3B68C3ED007A00231846AF
:104EF0001037BD4680BD00BF0000C84280B584B0F9
:104F000000AF786039600023FB8107F10E0319467A
:104F10007868FFF759FC0346012B01D101230DE00E
:104F2000B7F90E3007EE903AB8EEE77AF2EE046A7F
:104F3000C7EE267A3B68C3ED007A00231846103787
:104F4000BD4680BD80B584B000AF7860396007F1A0
:104F50000F0319467868FFF728FA0346012B01D1A1
:104F6000012335E0FB7B502B28D0502B2ADC402B33
:104F700020D0402B26DC302B18D0302B22DC202BED
:104F800010D0202B1EDC002B02D0102B05D019E0F6
:104F90003B684FF000021A6019E03B684FF07E5208
:104FA0001A6014E03B680C4A1A6010E03B680B4A38
:104FB0001A600CE03B680A4A1A6008E03B68094A3C
:104FC0001A6004E03B68084A1A60012300E00023ED
:104FD00018461037BD4680BD000020410000C84182
:104FE0000000484200009642000080BF80B586B0B5
:104FF00000AFF8600B467A60FB72FB7A042B1CD87A
:1050000001A252F823F000BF1D50000823500008F1
:10501000295000082F500008355000081023FB7558
:105020000DE02023FB750AE03023FB7507E04023E9
:10503000FB7504E05023FB7501E0012315E0FB7DC7
:105040001946F868FFF784F90346012B01D10123C3
:105050000BE07B6804331946F868FFF773FF0346DB
:10506000012B01D1012300E0002318461837BD466B
:1050700080BD00BF80B485B000AFF8600B467A6099
:10508000FB72FB7A042B22D801A252F823F000BF56
:10509000A5500008AF500008B7500008BF500008E6
:1050A000C75000087B684FF07E525A6011E07B6861
:1050B0000B4A5A600DE07B680A4A5A6009E07B6837
:1050C000094A5A6005E07B68084A5A6001E00123FA
:1050D00000E0002318461437BD465DF8047B704796
:1050E000000020410000C8410000484200009642F4
:1050F00080B586B000AFF86087ED020A7960D7ED21
:10510000027AB7EE007AF4EEC77AF1EE10FA01D81F
:10511000102321E0D7ED027AB2EE047AF4EEC77ADA
:10512000F1EE10FA01D8202316E0D7ED027AB3EEA3
:10513000097AF4EEC77AF1EE10FA01D830230BE0C9
:10514000D7ED027A9FED127AF4EEC77AF1EE10FAFB
:1051500001D8402300E05023FB75FB7D1946F86819
:10516000FFF7F6F80346012B01D101230BE07B6822
:1051700004331946F868FFF7E5FE0346012B01D119
:10518000012300E0002318461837BD4680BD00BF4C
:105190000000484280B485B000AFF86087ED020A95
:1051A0007960D7ED027AB7EE007AF4EEC77AF1EEC5
:1051B00010FA02D84FF07E5321E0D7ED027AB2EE1A
:1051C000047AF4EEC77AF1EE10FA01D8104B16E02B
:1051D000D7ED027AB3EE097AF4EEC77AF1EE10FA5F
:1051E00001D80C4B0BE0D7ED027A9FED0B7AF4EE71
:1051F000C77AF1EE10FA01D8084B00E0084B7A6844
:105200005360002318461437BD465DF8047B704791
:10521000000020410000C841000048420000484210
:105220000000964280B584B000AFF8600B467A600B
:10523000FB72F97A7B680122F868FEF7F1FF0346FA
:10524000012B01D1012300E0002318461037BD4691
:1052500080BD80B582B000AF78600B46FB7013460E
:10526000BB70BB1CF97801227868FFF704F803468D
:10527000012B01D1012300E0002318460837BD4669
:1052800080BD80B584B000AFF8607A601A460B46E6
:10529000FB7213463B813B89012B03D9FB7A63F0F8
:1052A0007F03FB723B89F97A7A68F868FDF702FBA5
:1052B0000346002B01D0002300E0012318461037DD
:1052C000BD4680BD80B584B000AFF8607A601A46F4
:1052D0000B46FB7213463B813B89012B03D9FB7ABA
:1052E00063F07F03FB723B89F97A7A68F868FDF70F
:1052F000F6FA0346002B01D0002300E001231846F4
:105300001037BD4680BD80B582B000AF786039608F
:1053100001233A680F217868FFF7D4FF0346002B7A
:1053200001D1002308E03B681A783B681A703B689B
:105330001A783B681A70012318460837BD4680BDAD
:1053400080B584B000AF78600B46FB7007F10F02A8
:10535000012323217868FFF7B5FF0346002B01D115
:10536000002316E0FB7B03F07F03DBB2FB73FA7BC9
:10537000FB781343DBB2FB7307F10F0201232321F8
:105380007868FFF77EFF0346002B01D1002300E081
:10539000012318461037BD4680BD80B584B000AFEC
:1053A00078600B46FB7007F10F0201232321786818
:1053B000FFF788FF0346002B01D1002316E0FB7B9B
:1053C00023F03003DBB2FB73FA7BFB781343DBB2D1
:1053D000FB7307F10F02012323217868FFF751FFC8
:1053E0000346002B01D1002300E0012318461037AB
:1053F000BD4680BD80B582B000AF786039600123C2
:105400003A6823217868FFF75DFF0346002B01D13E
:10541000002307E03B681B7803F03003DAB23B68F7
:105420001A70012318460837BD4680BD80B584B088
:1054300000AF7860396002233B7300237B73002345
:10544000FB731EE00023BB7314E07B7B2833D9B2CF
:105450007B7B3A681A4401237868FFF733FF0346E1
:10546000002B01D1002310E07B7B01337B73BB7BDE
:105470000133BB73BA7B3B7B9A42E6D3FB7B0133A0
:10548000FB73FB7B022BDDD9012318461037BD4689
:1054900080BD00002DE9F04F87B000AF7860396023
:1054A0000023FB750023BB7500237B7507F10A03FE
:1054B0001946786800F020FA07F10B03194678685E
:1054C00000F0FEF9FB7A082B07D1BB7A002B04D140
:1054D0000223FB7508237B7517E0FB7A002B07D1AD
:1054E000BB7A002B04D10123FB7506237B750CE0EE
:1054F000FB7A002B07D1BB7A082B04D10023FB7564
:1055000004237B7501E00023AFE007F1090319468E
:105510007868FFF76FFF7B7A302B13D0302B14DCC9
:10552000202B0CD0202B10DC002B02D0102B03D012
:105530000BE00023BB7508E00123BB7505E00223E7
:10554000BB7502E00323BB7500BF07F10C031946CE
:105550007868FFF76BFFB7F90C301A467B7D42FA8B
:1055600003F318464FEAE071FA7DBB7D414E92008D
:105570001344DB003344D3E9002302FB01FC00FBAE
:1055800003F66644A0FB0223F1180B4612F5FA7AE3
:1055900043F1000B4FF47A724FF000035046594626
:1055A000FBF75AFB02460B463B681A60B7F90E3010
:1055B0001A467B7D42FA03F318464FEAE071FA7D02
:1055C000BB7D2C4E92001344DB003344D3E900230F
:1055D00002FB01FC00FB03F66644A0FB0223F1186A
:1055E0000B4612F5FA7843F100094FF47A724FF046
:1055F000000340464946FBF72FFB02460B46104688
:1056000019463B68043302461A60B7F910301A464F
:105610007B7D42FA03F318464FEAE071FA7DBB7DC9
:10562000144E92001344DB003344D3E9002302FB01
:1056300001FC00FB03F66644A0FB0223F1180B46B5
:1056400012F5FA7443F100054FF47A724FF000033B
:1056500020462946FBF700FB02460B46104619463A
:105660003B68083302461A60012318461C37BD46C2
:10567000BDE8F08FB862010880B584B000AF7860F3
:105680000B46FB7007F10F02012320217868FFF71A
:1056900019FE0346002B01D1002316E0FB7B03F02B
:1056A0000F03DBB2FB73FA7BFB781343DBB2FB73B4
:1056B00007F10F02012320217868FFF7E2FD03467E
:1056C000002B01D1002300E0012318461037BD460E
:1056D00080BD80B582B000AF7860396001233A6840
:1056E00020217868FFF7EEFD0346002B01D100234F
:1056F00007E03B681B7823F00F03DAB23B681A70AF
:10570000012318460837BD4680BD80B584B000AF80
:1057100078600B46FB7007F10F02012320217868A7
:10572000FFF7D0FD0346002B01D1002316E0FB7BE1
:1057300023F00103DBB2FB73FA7BFB781343DBB28C
:10574000FB7307F10F02012320217868FFF799FD11
:105750000346002B01D1002300E001231846103737
:10576000BD4680BD80B582B000AF7860396001234E
:105770003A6820217868FFF7A5FD0346002B01D188
:10578000002307E03B681B7803F00103DAB23B68B3
:105790001A70012318460837BD4680BD80B584B015
:1057A00000AF78600B46FB7007F10F020123202148
:1057B0007868FFF787FD0346002B01D1002316E030
:1057C000FB7B23F00203DBB2FB73FA7BFB78134312
:1057D000DBB2FB7307F10F02012320217868FFF78A
:1057E00050FD0346002B01D1002300E001231846A1
:1057F0001037BD4680BD80B582B000AF786039609B
:1058000001233A6820217868FFF75CFD0346002BEE
:1058100001D1002307E03B681B7803F00203DAB2F2
:105820003B681A70012318460837BD4680BD80B515
:1058300084B000AF78600B46FB7007F10F020123C4
:1058400020217868FFF73EFD0346002B01D100239D
:1058500016E0FB7B23F00403DBB2FB73FA7BFB78DF
:105860001343DBB2FB7307F10F0201232021786899
:10587000FFF707FD0346002B01D1002300E00123C1
:1058800018461037BD4680BD80B582B000AF786045
:10589000396001233A6820217868FFF713FD034639
:1058A000002B01D1002307E03B681B7803F00403C1
:1058B000DAB23B681A70012318460837BD4680BD2E
:1058C00080B582B000AF7860396001233A6820214A
:1058D0007868FFF7F7FC0346002B01D1002307E0AF
:1058E0003B681B7803F00803DAB23B681A700123A7
:1058F00018460837BD4680BD80B582B000AF7860DD
:10590000396001233A6823217868FFF7DBFC0346FE
:10591000002B01D1002307E03B681B7803F008034C
:10592000DAB23B681A70012318460837BD4680BDBD
:1059300080B582B000AF7860396001233A682721D2
:105940007868FFF7BFFC0346002B01D1002307E076
:105950003B681B7803F00103DAB23B681A7001233D
:1059600018460837BD4680BD80B584B000AF78606A
:105970000B46FB7007F10F0201232E217868FFF719
:10598000A1FC0346002B01D1002316E0FB7B03F0B2
:105990003F03DBB2FB73FA7BFB781343DBB2FB7391
:1059A00007F10F0201232E217868FFF76AFC0346F6
:1059B000002B01D1002300E0012318461037BD461B
:1059C00080BD000080B586B000AF7860284A07F13E
:1059D0000C031268114619800233120C1A707B688E
:1059E0009B687B617B691B683B61786800F0CDF840
:1059F0000346012B01D1012335E080217868FFF7B0
:105A00009FFC0346002B01D101232CE00021786884
:105A1000FFF7AAFF0346002B01D1012323E03B69D6
:105A2000144A1A6000217868FFF726FE0346002B0F
:105A300001D1012317E00021786800F033FA034612
:105A4000012B01D101230EE007F10C031946786800
:105A500000F0D0FA0346012B01D1012303E07B685B
:105A600001225A71002318461837BD4680BD00BF79
:105A70008C6201080000C84280B584B000AF786035
:105A80007B689B68FB60FB681B68BB60786800F004
:105A90007CF80346012B01D101230FE0786800F068
:105AA00036F80346012B01D1012307E0BB684FF014
:105AB00000021A607B6800225A71002318461037D2
:105AC000BD4680BD80B584B000AF78607B689B68C0
:105AD000FB60FB681B68BB607B689B79012B01D175
